{
  "address": "0x2cD61C6c2fEcD807F889A9DcE1Cc04A7829C203D",
  "abi": [
    {
      "inputs": [
        {
          "components": [
            {
              "internalType": "address",
              "name": "weth",
              "type": "address"
            },
            {
              "internalType": "address",
              "name": "token0",
              "type": "address"
            },
            {
              "internalType": "address",
              "name": "token1",
              "type": "address"
            },
            {
              "internalType": "address",
              "name": "manager",
              "type": "address"
            },
            {
              "internalType": "address",
              "name": "swapRouter",
              "type": "address"
            },
            {
              "internalType": "address",
              "name": "liquidityRouter",
              "type": "address"
            },
            {
              "internalType": "bytes32",
              "name": "poolId",
              "type": "bytes32"
            },
            {
              "internalType": "bytes32",
              "name": "bundlerId",
              "type": "bytes32"
            },
            {
              "internalType": "uint256",
              "name": "slippage",
              "type": "uint256"
            },
            {
              "internalType": "int24",
              "name": "tickLower",
              "type": "int24"
            },
            {
              "internalType": "int24",
              "name": "tickUpper",
              "type": "int24"
            }
          ],
          "internalType": "struct IWeb3PacksDefs.RouterConfig",
          "name": "config",
          "type": "tuple"
        }
      ],
      "stateMutability": "nonpayable",
      "type": "constructor"
    },
    {
      "inputs": [
        {
          "internalType": "bytes32",
          "name": "bundlerId",
          "type": "bytes32"
        }
      ],
      "name": "BundlerNotRegistered",
      "type": "error"
    },
    {
      "inputs": [],
      "name": "ContractNotAllowed",
      "type": "error"
    },
    {
      "inputs": [],
      "name": "FundingFailed",
      "type": "error"
    },
    {
      "inputs": [
        {
          "internalType": "uint256",
          "name": "value",
          "type": "uint256"
        },
        {
          "internalType": "uint256",
          "name": "ethPackPrice",
          "type": "uint256"
        },
        {
          "internalType": "uint256",
          "name": "protocolFee",
          "type": "uint256"
        }
      ],
      "name": "InsufficientForFee",
      "type": "error"
    },
    {
      "inputs": [],
      "name": "MismatchedTokens",
      "type": "error"
    },
    {
      "inputs": [
        {
          "internalType": "address",
          "name": "tokenAddress",
          "type": "address"
        }
      ],
      "name": "MissingLiquidityUUID",
      "type": "error"
    },
    {
      "inputs": [],
      "name": "NativeAssetTransferFailed",
      "type": "error"
    },
    {
      "inputs": [],
      "name": "NoBundlesInPack",
      "type": "error"
    },
    {
      "inputs": [],
      "name": "NotOwnerOrApproved",
      "type": "error"
    },
    {
      "inputs": [],
      "name": "NullReceiver",
      "type": "error"
    },
    {
      "inputs": [
        {
          "internalType": "address",
          "name": "tokenOut",
          "type": "address"
        },
        {
          "internalType": "uint256",
          "name": "amountIn",
          "type": "uint256"
        },
        {
          "internalType": "address",
          "name": "router",
          "type": "address"
        }
      ],
      "name": "UnsucessfulSwap",
      "type": "error"
    },
    {
      "anonymous": false,
      "inputs": [
        {
          "indexed": true,
          "internalType": "address",
          "name": "token0",
          "type": "address"
        },
        {
          "indexed": true,
          "internalType": "address",
          "name": "token1",
          "type": "address"
        },
        {
          "indexed": false,
          "internalType": "uint256",
          "name": "amount0",
          "type": "uint256"
        },
        {
          "indexed": false,
          "internalType": "uint256",
          "name": "amount1",
          "type": "uint256"
        },
        {
          "indexed": false,
          "internalType": "uint256",
          "name": "liquidity",
          "type": "uint256"
        }
      ],
      "name": "BundledTokenLP",
      "type": "event"
    },
    {
      "anonymous": false,
      "inputs": [
        {
          "indexed": true,
          "internalType": "address",
          "name": "token",
          "type": "address"
        },
        {
          "indexed": false,
          "internalType": "uint256",
          "name": "amount",
          "type": "uint256"
        }
      ],
      "name": "BundledTokenSS",
      "type": "event"
    },
    {
      "anonymous": false,
      "inputs": [
        {
          "indexed": true,
          "internalType": "address",
          "name": "previousOwner",
          "type": "address"
        },
        {
          "indexed": true,
          "internalType": "address",
          "name": "newOwner",
          "type": "address"
        }
      ],
      "name": "OwnershipTransferred",
      "type": "event"
    },
    {
      "anonymous": false,
      "inputs": [
        {
          "indexed": true,
          "internalType": "address",
          "name": "receiver",
          "type": "address"
        },
        {
          "indexed": true,
          "internalType": "address",
          "name": "tokenAddress",
          "type": "address"
        },
        {
          "indexed": true,
          "internalType": "uint256",
          "name": "tokenId",
          "type": "uint256"
        },
        {
          "indexed": false,
          "internalType": "uint256",
          "name": "amount",
          "type": "uint256"
        }
      ],
      "name": "WithdrawStuckERC1155",
      "type": "event"
    },
    {
      "anonymous": false,
      "inputs": [
        {
          "indexed": true,
          "internalType": "address",
          "name": "receiver",
          "type": "address"
        },
        {
          "indexed": true,
          "internalType": "address",
          "name": "tokenAddress",
          "type": "address"
        },
        {
          "indexed": false,
          "internalType": "uint256",
          "name": "amount",
          "type": "uint256"
        }
      ],
      "name": "WithdrawStuckERC20",
      "type": "event"
    },
    {
      "anonymous": false,
      "inputs": [
        {
          "indexed": true,
          "internalType": "address",
          "name": "receiver",
          "type": "address"
        },
        {
          "indexed": true,
          "internalType": "address",
          "name": "tokenAddress",
          "type": "address"
        },
        {
          "indexed": true,
          "internalType": "uint256",
          "name": "tokenId",
          "type": "uint256"
        }
      ],
      "name": "WithdrawStuckERC721",
      "type": "event"
    },
    {
      "anonymous": false,
      "inputs": [
        {
          "indexed": true,
          "internalType": "address",
          "name": "receiver",
          "type": "address"
        },
        {
          "indexed": false,
          "internalType": "uint256",
          "name": "amount",
          "type": "uint256"
        }
      ],
      "name": "WithdrawStuckEther",
      "type": "event"
    },
    {
      "inputs": [],
      "name": "_bundlerId",
      "outputs": [
        {
          "internalType": "bytes32",
          "name": "",
          "type": "bytes32"
        }
      ],
      "stateMutability": "view",
      "type": "function"
    },
    {
      "inputs": [],
      "name": "_liquidityRouter",
      "outputs": [
        {
          "internalType": "address",
          "name": "",
          "type": "address"
        }
      ],
      "stateMutability": "view",
      "type": "function"
    },
    {
      "inputs": [],
      "name": "_manager",
      "outputs": [
        {
          "internalType": "address",
          "name": "",
          "type": "address"
        }
      ],
      "stateMutability": "view",
      "type": "function"
    },
    {
      "inputs": [],
      "name": "_poolId",
      "outputs": [
        {
          "internalType": "bytes32",
          "name": "",
          "type": "bytes32"
        }
      ],
      "stateMutability": "view",
      "type": "function"
    },
    {
      "inputs": [],
      "name": "_slippage",
      "outputs": [
        {
          "internalType": "uint256",
          "name": "",
          "type": "uint256"
        }
      ],
      "stateMutability": "view",
      "type": "function"
    },
    {
      "inputs": [],
      "name": "_swapRouter",
      "outputs": [
        {
          "internalType": "address",
          "name": "",
          "type": "address"
        }
      ],
      "stateMutability": "view",
      "type": "function"
    },
    {
      "inputs": [],
      "name": "_tickLower",
      "outputs": [
        {
          "internalType": "int24",
          "name": "",
          "type": "int24"
        }
      ],
      "stateMutability": "view",
      "type": "function"
    },
    {
      "inputs": [],
      "name": "_tickUpper",
      "outputs": [
        {
          "internalType": "int24",
          "name": "",
          "type": "int24"
        }
      ],
      "stateMutability": "view",
      "type": "function"
    },
    {
      "inputs": [],
      "name": "_token0",
      "outputs": [
        {
          "internalType": "address",
          "name": "",
          "type": "address"
        }
      ],
      "stateMutability": "view",
      "type": "function"
    },
    {
      "inputs": [],
      "name": "_token1",
      "outputs": [
        {
          "internalType": "address",
          "name": "",
          "type": "address"
        }
      ],
      "stateMutability": "view",
      "type": "function"
    },
    {
      "inputs": [],
      "name": "_weth",
      "outputs": [
        {
          "internalType": "address",
          "name": "",
          "type": "address"
        }
      ],
      "stateMutability": "view",
      "type": "function"
    },
    {
      "inputs": [
        {
          "internalType": "uint256",
          "name": "packTokenId",
          "type": "uint256"
        },
        {
          "internalType": "address",
          "name": "sender",
          "type": "address"
        }
      ],
      "name": "bundle",
      "outputs": [
        {
          "internalType": "address",
          "name": "tokenAddress",
          "type": "address"
        },
        {
          "internalType": "uint256",
          "name": "amountOut",
          "type": "uint256"
        },
        {
          "internalType": "uint256",
          "name": "nftTokenId",
          "type": "uint256"
        }
      ],
      "stateMutability": "payable",
      "type": "function"
    },
    {
      "inputs": [
        {
          "components": [
            {
              "internalType": "uint256",
              "name": "lpTokenId",
              "type": "uint256"
            },
            {
              "internalType": "uint256",
              "name": "liquidity",
              "type": "uint256"
            },
            {
              "internalType": "bool",
              "name": "stable",
              "type": "bool"
            }
          ],
          "internalType": "struct IWeb3PacksDefs.LiquidityPosition",
          "name": "",
          "type": "tuple"
        }
      ],
      "name": "collectLpFees",
      "outputs": [
        {
          "internalType": "uint256",
          "name": "amount0",
          "type": "uint256"
        },
        {
          "internalType": "uint256",
          "name": "amount1",
          "type": "uint256"
        }
      ],
      "stateMutability": "nonpayable",
      "type": "function"
    },
    {
      "inputs": [
        {
          "internalType": "bool",
          "name": "",
          "type": "bool"
        }
      ],
      "name": "createLiquidityPosition",
      "outputs": [
        {
          "internalType": "uint256",
          "name": "lpTokenId",
          "type": "uint256"
        },
        {
          "internalType": "uint256",
          "name": "liquidity",
          "type": "uint256"
        },
        {
          "internalType": "uint256",
          "name": "amount0",
          "type": "uint256"
        },
        {
          "internalType": "uint256",
          "name": "amount1",
          "type": "uint256"
        }
      ],
      "stateMutability": "nonpayable",
      "type": "function"
    },
    {
      "inputs": [],
      "name": "getBalanceToken0",
      "outputs": [
        {
          "internalType": "uint256",
          "name": "balanceToken0",
          "type": "uint256"
        }
      ],
      "stateMutability": "view",
      "type": "function"
    },
    {
      "inputs": [],
      "name": "getBalanceToken1",
      "outputs": [
        {
          "internalType": "uint256",
          "name": "balanceToken1",
          "type": "uint256"
        }
      ],
      "stateMutability": "view",
      "type": "function"
    },
    {
      "inputs": [],
      "name": "getBalanceWeth",
      "outputs": [
        {
          "internalType": "uint256",
          "name": "balanceWeth",
          "type": "uint256"
        }
      ],
      "stateMutability": "view",
      "type": "function"
    },
    {
      "inputs": [],
      "name": "getLiquidityAmounts",
      "outputs": [
        {
          "internalType": "uint256",
          "name": "amount0",
          "type": "uint256"
        },
        {
          "internalType": "uint256",
          "name": "amount1",
          "type": "uint256"
        },
        {
          "internalType": "uint256",
          "name": "minAmount0",
          "type": "uint256"
        },
        {
          "internalType": "uint256",
          "name": "minAmount1",
          "type": "uint256"
        }
      ],
      "stateMutability": "view",
      "type": "function"
    },
    {
      "inputs": [
        {
          "internalType": "uint256",
          "name": "",
          "type": "uint256"
        }
      ],
      "name": "getLiquidityToken",
      "outputs": [
        {
          "internalType": "address",
          "name": "tokenAddress",
          "type": "address"
        },
        {
          "internalType": "uint256",
          "name": "tokenId",
          "type": "uint256"
        }
      ],
      "stateMutability": "view",
      "type": "function"
    },
    {
      "inputs": [
        {
          "internalType": "bool",
          "name": "reverse",
          "type": "bool"
        }
      ],
      "name": "getOrderedAssets",
      "outputs": [
        {
          "internalType": "address[]",
          "name": "",
          "type": "address[]"
        },
        {
          "internalType": "uint256[]",
          "name": "",
          "type": "uint256[]"
        }
      ],
      "stateMutability": "view",
      "type": "function"
    },
    {
      "inputs": [],
      "name": "getToken0",
      "outputs": [
        {
          "components": [
            {
              "internalType": "address",
              "name": "tokenAddress",
              "type": "address"
            },
            {
              "internalType": "uint256",
              "name": "tokenDecimals",
              "type": "uint256"
            },
            {
              "internalType": "string",
              "name": "tokenSymbol",
              "type": "string"
            }
          ],
          "internalType": "struct IWeb3PacksDefs.Token",
          "name": "token0",
          "type": "tuple"
        }
      ],
      "stateMutability": "view",
      "type": "function"
    },
    {
      "inputs": [],
      "name": "getToken1",
      "outputs": [
        {
          "components": [
            {
              "internalType": "address",
              "name": "tokenAddress",
              "type": "address"
            },
            {
              "internalType": "uint256",
              "name": "tokenDecimals",
              "type": "uint256"
            },
            {
              "internalType": "string",
              "name": "tokenSymbol",
              "type": "string"
            }
          ],
          "internalType": "struct IWeb3PacksDefs.Token",
          "name": "token1",
          "type": "tuple"
        }
      ],
      "stateMutability": "view",
      "type": "function"
    },
    {
      "inputs": [
        {
          "internalType": "bool",
          "name": "reverse",
          "type": "bool"
        }
      ],
      "name": "getTokenPath",
      "outputs": [
        {
          "components": [
            {
              "internalType": "address",
              "name": "token0",
              "type": "address"
            },
            {
              "internalType": "address",
              "name": "token1",
              "type": "address"
            },
            {
              "internalType": "bool",
              "name": "stable",
              "type": "bool"
            }
          ],
          "internalType": "struct IWeb3PacksDefs.Route[]",
          "name": "tokenPath",
          "type": "tuple[]"
        }
      ],
      "stateMutability": "view",
      "type": "function"
    },
    {
      "inputs": [
        {
          "internalType": "address",
          "name": "",
          "type": "address"
        },
        {
          "internalType": "address",
          "name": "",
          "type": "address"
        },
        {
          "internalType": "uint256",
          "name": "",
          "type": "uint256"
        },
        {
          "internalType": "bytes",
          "name": "",
          "type": "bytes"
        }
      ],
      "name": "onERC721Received",
      "outputs": [
        {
          "internalType": "bytes4",
          "name": "",
          "type": "bytes4"
        }
      ],
      "stateMutability": "pure",
      "type": "function"
    },
    {
      "inputs": [],
      "name": "owner",
      "outputs": [
        {
          "internalType": "address",
          "name": "",
          "type": "address"
        }
      ],
      "stateMutability": "view",
      "type": "function"
    },
    {
      "inputs": [
        {
          "components": [
            {
              "internalType": "uint256",
              "name": "lpTokenId",
              "type": "uint256"
            },
            {
              "internalType": "uint256",
              "name": "liquidity",
              "type": "uint256"
            },
            {
              "internalType": "bool",
              "name": "stable",
              "type": "bool"
            }
          ],
          "internalType": "struct IWeb3PacksDefs.LiquidityPosition",
          "name": "liquidityPosition",
          "type": "tuple"
        }
      ],
      "name": "removeLiquidityPosition",
      "outputs": [
        {
          "internalType": "uint256",
          "name": "amount0",
          "type": "uint256"
        },
        {
          "internalType": "uint256",
          "name": "amount1",
          "type": "uint256"
        }
      ],
      "stateMutability": "nonpayable",
      "type": "function"
    },
    {
      "inputs": [],
      "name": "renounceOwnership",
      "outputs": [],
      "stateMutability": "nonpayable",
      "type": "function"
    },
    {
      "inputs": [
        {
          "internalType": "address",
          "name": "router",
          "type": "address"
        }
      ],
      "name": "setLiquidityRouter",
      "outputs": [],
      "stateMutability": "nonpayable",
      "type": "function"
    },
    {
      "inputs": [
        {
          "internalType": "address",
          "name": "manager",
          "type": "address"
        }
      ],
      "name": "setManager",
      "outputs": [],
      "stateMutability": "nonpayable",
      "type": "function"
    },
    {
      "inputs": [
        {
          "internalType": "uint256",
          "name": "slippage",
          "type": "uint256"
        }
      ],
      "name": "setSlippage",
      "outputs": [],
      "stateMutability": "nonpayable",
      "type": "function"
    },
    {
      "inputs": [
        {
          "internalType": "address",
          "name": "router",
          "type": "address"
        }
      ],
      "name": "setSwapRouter",
      "outputs": [],
      "stateMutability": "nonpayable",
      "type": "function"
    },
    {
      "inputs": [
        {
          "internalType": "int24",
          "name": "tickLower",
          "type": "int24"
        }
      ],
      "name": "setTickLower",
      "outputs": [],
      "stateMutability": "nonpayable",
      "type": "function"
    },
    {
      "inputs": [
        {
          "internalType": "int24",
          "name": "tickUpper",
          "type": "int24"
        }
      ],
      "name": "setTickUpper",
      "outputs": [],
      "stateMutability": "nonpayable",
      "type": "function"
    },
    {
      "inputs": [
        {
          "internalType": "address",
          "name": "weth",
          "type": "address"
        }
      ],
      "name": "setWeth",
      "outputs": [],
      "stateMutability": "nonpayable",
      "type": "function"
    },
    {
      "inputs": [
        {
          "internalType": "uint256",
          "name": "percentOfAmount",
          "type": "uint256"
        },
        {
          "internalType": "address",
          "name": "token0",
          "type": "address"
        },
        {
          "internalType": "address",
          "name": "token1",
          "type": "address"
        }
      ],
      "name": "swapCustom",
      "outputs": [
        {
          "internalType": "uint256",
          "name": "amountOut",
          "type": "uint256"
        }
      ],
      "stateMutability": "nonpayable",
      "type": "function"
    },
    {
      "inputs": [
        {
          "internalType": "uint256",
          "name": "percentOfAmount",
          "type": "uint256"
        },
        {
          "internalType": "bool",
          "name": "reverse",
          "type": "bool"
        }
      ],
      "name": "swapSingle",
      "outputs": [
        {
          "internalType": "uint256",
          "name": "amountOut",
          "type": "uint256"
        }
      ],
      "stateMutability": "nonpayable",
      "type": "function"
    },
    {
      "inputs": [
        {
          "internalType": "address",
          "name": "newOwner",
          "type": "address"
        }
      ],
      "name": "transferOwnership",
      "outputs": [],
      "stateMutability": "nonpayable",
      "type": "function"
    },
    {
      "inputs": [
        {
          "internalType": "address payable",
          "name": "receiver",
          "type": "address"
        },
        {
          "internalType": "uint256",
          "name": "packTokenId",
          "type": "uint256"
        },
        {
          "internalType": "bool",
          "name": "sellAll",
          "type": "bool"
        }
      ],
      "name": "unbundle",
      "outputs": [
        {
          "internalType": "uint256",
          "name": "ethAmountOut",
          "type": "uint256"
        }
      ],
      "stateMutability": "nonpayable",
      "type": "function"
    },
    {
      "inputs": [
        {
          "internalType": "address payable",
          "name": "receiver",
          "type": "address"
        },
        {
          "internalType": "address",
          "name": "tokenAddress",
          "type": "address"
        },
        {
          "internalType": "uint256",
          "name": "tokenId",
          "type": "uint256"
        },
        {
          "internalType": "uint256",
          "name": "amount",
          "type": "uint256"
        }
      ],
      "name": "withdrawERC1155",
      "outputs": [],
      "stateMutability": "nonpayable",
      "type": "function"
    },
    {
      "inputs": [
        {
          "internalType": "address payable",
          "name": "receiver",
          "type": "address"
        },
        {
          "internalType": "address",
          "name": "tokenAddress",
          "type": "address"
        },
        {
          "internalType": "uint256",
          "name": "tokenId",
          "type": "uint256"
        }
      ],
      "name": "withdrawERC721",
      "outputs": [],
      "stateMutability": "nonpayable",
      "type": "function"
    },
    {
      "inputs": [
        {
          "internalType": "address payable",
          "name": "receiver",
          "type": "address"
        },
        {
          "internalType": "address",
          "name": "tokenAddress",
          "type": "address"
        },
        {
          "internalType": "uint256",
          "name": "amount",
          "type": "uint256"
        }
      ],
      "name": "withdrawErc20",
      "outputs": [],
      "stateMutability": "nonpayable",
      "type": "function"
    },
    {
      "inputs": [
        {
          "internalType": "address payable",
          "name": "receiver",
          "type": "address"
        },
        {
          "internalType": "uint256",
          "name": "amount",
          "type": "uint256"
        }
      ],
      "name": "withdrawEther",
      "outputs": [],
      "stateMutability": "nonpayable",
      "type": "function"
    },
    {
      "stateMutability": "payable",
      "type": "receive"
    }
  ],
  "transactionHash": "0xe610f82a099f3a6949d8689c9dbf71da7b859bb3974e05154de008b697af60b9",
  "args": [
    {
      "weth": "0x4200000000000000000000000000000000000006",
      "token0": "0x4200000000000000000000000000000000000006",
      "token1": "0xDfc7C877a950e49D2610114102175A06C2e3167a",
      "manager": "0xEEC393142db33eb94C18f3d5514888Ad5e7BECc2",
      "swapRouter": "0xBA12222222228d8Ba445958a75a0704d566BF2C8",
      "liquidityRouter": "0xBA12222222228d8Ba445958a75a0704d566BF2C8",
      "poolId": "0x7c86a44778c52a0aad17860924b53bf3f35dc932000200000000000000000007",
      "bundlerId": "0x4c502d574554482d4d4f44452d38303230000000000000000000000000000000",
      "slippage": "9000",
      "tickLower": "-887220",
      "tickUpper": "887220"
    }
  ],
  "numDeployments": 1,
  "solcInputHash": "d8b852bd036582cb15fa077fe9c1fdff",
  "bytecode": "0x60806040523480156200001157600080fd5b5060405162003a4338038062003a438339810160408190526200003491620001d7565b808062000041336200011f565b8051600180546001600160a01b039283166001600160a01b03199182161790915560208301516003805491841691831691909117905560408301516004805491841691831691909117905560608301516002805491841691831691909117905560808301516005805491841691831691909117905560a08301516006805491909316911617905560c081015160075560e0810151600855610100810151600955610120810151600a80546101409093015162ffffff90811663010000000265ffffffffffff1990941692169190911791909117905550620002b09050565b600080546001600160a01b038381166001600160a01b0319831681178455604051919092169283917f8be0079c531659141344cd1fd0a4f28419497f9722a3daafe3b4186f6b6457e09190a35050565b60405161016081016001600160401b0381118282101715620001a157634e487b7160e01b600052604160045260246000fd5b60405290565b80516001600160a01b0381168114620001bf57600080fd5b919050565b8051600281900b8114620001bf57600080fd5b60006101608284031215620001eb57600080fd5b620001f56200016f565b6200020083620001a7565b81526200021060208401620001a7565b60208201526200022360408401620001a7565b60408201526200023660608401620001a7565b60608201526200024960808401620001a7565b60808201526200025c60a08401620001a7565b60a082015260c083015160c082015260e083015160e082015261010080840151818301525061012062000291818501620001c4565b90820152610140620002a5848201620001c4565b908201529392505050565b61378380620002c06000396000f3fe6080604052600436106102d55760003560e01c8063a176459511610179578063cc427bad116100d6578063e6ef0f661161008a578063f0fa55a911610064578063f0fa55a914610929578063f2fde38b14610949578063f54da1e21461096957600080fd5b8063e6ef0f66146108d9578063e7d0c498146108ef578063f0329f6b1461090957600080fd5b8063d0ebdbe7116100bb578063d0ebdbe714610883578063d8102529146108a3578063daa63ae2146108b957600080fd5b8063cc427bad14610843578063cd6e18f11461086357600080fd5b8063b30d0aa21161012d578063ba94a31511610112578063ba94a31514610785578063bfe075e0146107ef578063cb75436b1461082e57600080fd5b8063b30d0aa214610730578063b8d1452f1461076557600080fd5b8063a5835ff91161015e578063a5835ff9146106d0578063a7755866146106f0578063a7cfa4511461071057600080fd5b8063a176459514610682578063a2d003c7146106a257600080fd5b8063496b35b9116102325780637440d0fb116101e65780638da5cb5b116101c05780638da5cb5b146106175780638db738b114610635578063a0edb48b1461066257600080fd5b80637440d0fb146105c257806385497dc1146105e257806387e36e601461060257600080fd5b8063522f681511610217578063522f68151461051a5780636f26a7101461053a578063715018a6146105ad57600080fd5b8063496b35b9146104da5780634ef4ebaf146104fa57600080fd5b806320ff415f116102895780634025feb21161026e5780634025feb214610477578063412736571461049757806346fc8a77146104b757600080fd5b806320ff415f14610422578063221ea0751461045757600080fd5b80631593dee1116102ba5780631593dee1146103905780631b22a4f0146103b2578063206c17bb146103ea57600080fd5b80630f74be62146102e1578063150b7a021461031a57600080fd5b366102dc57005b600080fd5b3480156102ed57600080fd5b50600a54610302906301000000900460020b81565b60405160029190910b81526020015b60405180910390f35b34801561032657600080fd5b5061035f610335366004612f47565b7f150b7a020000000000000000000000000000000000000000000000000000000095945050505050565b6040517fffffffff000000000000000000000000000000000000000000000000000000009091168152602001610311565b34801561039c57600080fd5b506103b06103ab366004612fe6565b61097f565b005b6103c56103c0366004613027565b610997565b604080516001600160a01b039094168452602084019290925290820152606001610311565b3480156103f657600080fd5b5060055461040a906001600160a01b031681565b6040516001600160a01b039091168152602001610311565b34801561042e57600080fd5b5061044261043d36600461307b565b610bfd565b60408051928352602083019190915201610311565b34801561046357600080fd5b506103b06104723660046130eb565b610c89565b34801561048357600080fd5b506103b0610492366004612fe6565b610cab565b3480156104a357600080fd5b506103b06104b2366004613115565b610cbe565b3480156104c357600080fd5b506104cc610ce8565b604051908152602001610311565b3480156104e657600080fd5b5060045461040a906001600160a01b031681565b34801561050657600080fd5b5060035461040a906001600160a01b031681565b34801561052657600080fd5b506103b0610535366004613132565b610db8565b34801561054657600080fd5b506040805160608082018352600080835260208084019190915291830181905282519081018352600480546001600160a01b0316825260128284015283518085018552908152634d4f444560e01b92810192909252918201525b60405161031191906131ae565b3480156105b957600080fd5b506103b0610dce565b3480156105ce57600080fd5b506104cc6105dd3660046131e6565b610de2565b3480156105ee57600080fd5b506103b06105fd3660046130eb565b610e74565b34801561060e57600080fd5b506104cc610ea0565b34801561062357600080fd5b506000546001600160a01b031661040a565b34801561064157600080fd5b50610655610650366004613228565b610f00565b6040516103119190613245565b34801561066e57600080fd5b506103b061067d3660046132ac565b61114d565b34801561068e57600080fd5b5060015461040a906001600160a01b031681565b3480156106ae57600080fd5b506106c26106bd366004613228565b611167565b60405161031192919061332d565b3480156106dc57600080fd5b506104cc6106eb36600461338d565b611405565b3480156106fc57600080fd5b5061044261070b36600461307b565b61161e565b34801561071c57600080fd5b5060065461040a906001600160a01b031681565b34801561073c57600080fd5b506107456118d0565b604080519485526020850193909352918301526060820152608001610311565b34801561077157600080fd5b506103b0610780366004613115565b611942565b34801561079157600080fd5b5060408051606080820183526000808352602080840191909152918301819052825190810183526001546001600160a01b031681526012818301528251808401845260048152630ae8aa8960e31b92810192909252918201526105a0565b3480156107fb57600080fd5b5061080f61080a3660046133b2565b61196c565b604080516001600160a01b039093168352602083019190915201610311565b34801561083a57600080fd5b506104cc6119ed565b34801561084f57600080fd5b506104cc61085e3660046133cb565b611a1e565b34801561086f57600080fd5b506103b061087e366004613115565b611b5d565b34801561088f57600080fd5b506103b061089e366004613115565b611b87565b3480156108af57600080fd5b506104cc60075481565b3480156108c557600080fd5b506107456108d4366004613228565b611bb1565b3480156108e557600080fd5b506104cc60085481565b3480156108fb57600080fd5b50600a546103029060020b81565b34801561091557600080fd5b5060025461040a906001600160a01b031681565b34801561093557600080fd5b506103b06109443660046133b2565b611f22565b34801561095557600080fd5b506103b0610964366004613115565b611f2f565b34801561097557600080fd5b506104cc60095481565b610987611fbf565b610992838383612019565b505050565b600254600090819081906001600160a01b03163314806109b657503330145b610a1f5760405162461bcd60e51b815260206004820152602f60248201527f576562335061636b73526f7574657242617365202d20496e76616c696420576560448201526e3119a830b1b5b99026b0b730b3b2b960891b60648201526084015b60405180910390fd5b610a2c611f406000611405565b50600080610a386118d0565b505091509150600080610a4b6000611bb1565b50506002549198509650600095508792508691508290610a769082906001600160a01b031684612130565b60408051606081018252848152602080820185815260008385018181528f8252600b90935293842092518355516001830155516002909101805460ff191691151591909117905580610ac78b61224b565b91509150610b296040805160608082018352600080835260208084019190915291830181905282519081018352600480546001600160a01b0316825260128284015283518085018552908152634d4f444560e01b928101929092529182015290565b516001600160a01b0316610b9160408051606080820183526000808352602080840191909152918301819052825190810183526001546001600160a01b031681526012818301528251808401845260048152630ae8aa8960e31b928101929092529182015290565b516001600160a01b03167f6349def1c110417b8f4158c9e32cd214eefffb8926d976cb68b5ca461a209632610bc6858b613418565b610bd0858b613418565b604080519283526020830191909152810188905260600160405180910390a3505050505050509250925092565b60025460009081906001600160a01b0316331480610c1a57503330145b610c7e5760405162461bcd60e51b815260206004820152602f60248201527f576562335061636b73526f7574657242617365202d20496e76616c696420576560448201526e3119a830b1b5b99026b0b730b3b2b960891b6064820152608401610a16565b506000928392509050565b610c91611fbf565b600a805462ffffff191662ffffff92909216919091179055565b610cb3611fbf565b610992838383612345565b610cc6611fbf565b600580546001600160a01b0319166001600160a01b0392909216919091179055565b6000610d486040805160608082018352600080835260208084019190915291830181905282519081018352600480546001600160a01b0316825260128284015283518085018552908152634d4f444560e01b928101929092529182015290565b516040516370a0823160e01b81523060048201526001600160a01b03909116906370a08231906024015b602060405180830381865afa158015610d8f573d6000803e3d6000fd5b505050506040513d601f19601f82011682018060405250810190610db39190613431565b905090565b610dc0611fbf565b610dca82826124e0565b5050565b610dd6611fbf565b610de06000612582565b565b6002546000906001600160a01b0316331480610dfd57503330145b610e615760405162461bcd60e51b815260206004820152602f60248201527f576562335061636b73526f7574657242617365202d20496e76616c696420576560448201526e3119a830b1b5b99026b0b730b3b2b960891b6064820152608401610a16565b610e6c8484846125d2565b949350505050565b610e7c611fbf565b600a805462ffffff90921663010000000265ffffff00000019909216919091179055565b6000610d4860408051606080820183526000808352602080840191909152918301819052825190810183526001546001600160a01b031681526012818301528251808401845260048152630ae8aa8960e31b928101929092529182015290565b60408051600180825281830190925260609160009190816020015b6040805160608101825260008082526020808301829052928201528252600019909201910181610f1b5790505090508261103e576040518060600160405280610fb860408051606080820183526000808352602080840191909152918301819052825190810183526001546001600160a01b031681526012818301528251808401845260048152630ae8aa8960e31b928101929092529182015290565b516001600160a01b031681526020016110256040805160608082018352600080835260208084019190915291830181905282519081018352600480546001600160a01b0316825260128284015283518085018552908152634d4f444560e01b928101929092529182015290565b516001600160a01b031681526000602090910152611129565b60405180606001604052806110a76040805160608082018352600080835260208084019190915291830181905282519081018352600480546001600160a01b0316825260128284015283518085018552908152634d4f444560e01b928101929092529182015290565b516001600160a01b0316815260200161111460408051606080820183526000808352602080840191909152918301819052825190810183526001546001600160a01b031681526012818301528251808401845260048152630ae8aa8960e31b928101929092529182015290565b516001600160a01b0316815260006020909101525b8160008151811061113c5761113c61344a565b602090810291909101015292915050565b611155611fbf565b611161848484846127e5565b50505050565b60408051600280825260608281019093528291600091816020016020820280368337019050509050836111f25760408051606080820183526000808352602080840191909152918301819052825190810183526001546001600160a01b031681526012818301528251808401845260048152630ae8aa8960e31b92810192909252918201525161124c565b6040805160608082018352600080835260208084019190915291830181905282519081018352600480546001600160a01b0316825260128284015283518085018552908152634d4f444560e01b9281019290925291820152515b8160008151811061125f5761125f61344a565b60200260200101906001600160a01b031690816001600160a01b031681525050836112e2576040805160608082018352600080835260208084019190915291830181905282519081018352600480546001600160a01b0316825260128284015283518085018552908152634d4f444560e01b92810192909252918201525161133c565b60408051606080820183526000808352602080840191909152918301819052825190810183526001546001600160a01b031681526012818301528251808401845260048152630ae8aa8960e31b9281019290925291820152515b8160018151811061134f5761134f61344a565b6001600160a01b039290921660209283029190910182015260408051600280825260608201835260009391929091830190803683370190505090508461139c57611397610ea0565b6113a4565b6113a4610ce8565b816000815181106113b7576113b761344a565b602002602001018181525050846113d5576113d0610ce8565b6113dd565b6113dd610ea0565b816001815181106113f0576113f061344a565b60209081029190910101529094909350915050565b6002546000906001600160a01b031633148061142057503330145b6114845760405162461bcd60e51b815260206004820152602f60248201527f576562335061636b73526f7574657242617365202d20496e76616c696420576560448201526e3119a830b1b5b99026b0b730b3b2b960891b6064820152608401610a16565b6000826114e85760408051606080820183526000808352602080840191909152918301819052825190810183526001546001600160a01b031681526012818301528251808401845260048152630ae8aa8960e31b9281019290925291820152611541565b6040805160608082018352600080835260208084019190915291830181905282519081018352600480546001600160a01b0316825260128284015283518085018552908152634d4f444560e01b92810192909252918201525b90506000836115a7576040805160608082018352600080835260208084019190915291830181905282519081018352600480546001600160a01b0316825260128284015283518085018552908152634d4f444560e01b9281019290925291820152611600565b60408051606080820183526000808352602080840191909152918301819052825190810183526001546001600160a01b031681526012818301528251808401845260048152630ae8aa8960e31b92810192909252918201525b905061161585836000015183600001516125d2565b95945050505050565b60025460009081906001600160a01b031633148061163b57503330145b61169f5760405162461bcd60e51b815260206004820152602f60248201527f576562335061636b73526f7574657242617365202d20496e76616c696420576560448201526e3119a830b1b5b99026b0b730b3b2b960891b6064820152608401610a16565b60065460075460405163f6c0092760e01b815260048101919091526000916001600160a01b03169063f6c00927906024016040805180830381865afa1580156116ec573d6000803e3d6000fd5b505050506040513d601f19601f820116820180604052508101906117109190613460565b5090506000806117206000611167565b915091506000825167ffffffffffffffff81111561174057611740613057565b604051908082528060200260200182016040528015611769578160200160208202803683370190505b50905060005b83518110156117ce5783818151811061178a5761178a61344a565b60200260200101518282815181106117a4576117a461344a565b6001600160a01b0390921660209283029190910190910152806117c681613493565b91505061176f565b5060065460208801516117ee9186916001600160a01b039091169061299e565b6000600188602001516040516020016118089291906134d2565b60408051601f19818403018152608083018252848352602083018690528282018190526000606084015260065460075492517f8bdb39130000000000000000000000000000000000000000000000000000000081529194506001600160a01b031691638bdb3913916118839190309081908790600401613580565b600060405180830381600087803b15801561189d57600080fd5b505af11580156118b1573d6000803e3d6000fd5b505050506118c0600080612acb565b909a909950975050505050505050565b6000806000806118de610ea0565b93506118e8610ce8565b92506127106009546127106118fd9190613418565b61190790866135b2565b61191191906135c9565b91506127106009546127106119269190613418565b61193090856135b2565b61193a91906135c9565b905090919293565b61194a611fbf565b600180546001600160a01b0319166001600160a01b0392909216919091179055565b60065460075460405163f6c0092760e01b81526004810191909152600091829182916001600160a01b03169063f6c00927906024016040805180830381865afa1580156119bd573d6000803e3d6000fd5b505050506040513d601f19601f820116820180604052508101906119e19190613460565b50946000945092505050565b6001546040516370a0823160e01b81523060048201526000916001600160a01b0316906370a0823190602401610d72565b6002546000906001600160a01b0316331480611a3957503330145b611a9d5760405162461bcd60e51b815260206004820152602f60248201527f576562335061636b73526f7574657242617365202d20496e76616c696420576560448201526e3119a830b1b5b99026b0b730b3b2b960891b6064820152608401610a16565b6000838152600b60209081526040918290208251606081018452815481526001820154928101929092526002015460ff161515918101919091528215611b1157611ae68161161e565b5050611af181610bfd565b5050611b006127106001611405565b50611b0a85612b0f565b9150611b30565b6000611b1c8561196c565b509050611b2e81878460200151612130565b505b506000928352600b6020526040832083815560018101939093556002909201805460ff1916905550919050565b611b65611fbf565b600680546001600160a01b0319166001600160a01b0392909216919091179055565b611b8f611fbf565b600280546001600160a01b0319166001600160a01b0392909216919091179055565b6002546000908190819081906001600160a01b0316331480611bd257503330145b611c365760405162461bcd60e51b815260206004820152602f60248201527f576562335061636b73526f7574657242617365202d20496e76616c696420576560448201526e3119a830b1b5b99026b0b730b3b2b960891b6064820152608401610a16565b60065460075460405163f6c0092760e01b815260048101919091526000916001600160a01b03169063f6c00927906024016040805180830381865afa158015611c83573d6000803e3d6000fd5b505050506040513d601f19601f82011682018060405250810190611ca79190613460565b509050600080611cb56118d0565b505091509150600080611cc86000611167565b915091506000825167ffffffffffffffff811115611ce857611ce8613057565b604051908082528060200260200182016040528015611d11578160200160208202803683370190505b50905060005b8351811015611dd057838181518110611d3257611d3261344a565b6020026020010151828281518110611d4c57611d4c61344a565b60200260200101906001600160a01b031690816001600160a01b031681525050611dbe848281518110611d8157611d8161344a565b6020026020010151600660009054906101000a90046001600160a01b0316858481518110611db157611db161344a565b602002602001015161299e565b80611dc881613493565b915050611d17565b5060006001836000604051602001611dea939291906135eb565b60408051601f19818403018152608083018252848352602083018690528282018190526000606084015260065460075492517fb95cac280000000000000000000000000000000000000000000000000000000081529194506001600160a01b03169163b95cac2891611e659190309081908790600401613580565b600060405180830381600087803b158015611e7f57600080fd5b505af1158015611e93573d6000803e3d6000fd5b50506040516370a0823160e01b81523060048201526001600160a01b038b169e508e92506370a082319150602401602060405180830381865afa158015611ede573d6000803e3d6000fd5b505050506040513d601f19601f82011682018060405250810190611f029190613431565b9a50611f0e8787612acb565b9c9e9b9d509b9a9950505050505050505050565b611f2a611fbf565b600955565b611f37611fbf565b6001600160a01b038116611fb35760405162461bcd60e51b815260206004820152602660248201527f4f776e61626c653a206e6577206f776e657220697320746865207a65726f206160448201527f64647265737300000000000000000000000000000000000000000000000000006064820152608401610a16565b611fbc81612582565b50565b6000546001600160a01b03163314610de05760405162461bcd60e51b815260206004820181905260248201527f4f776e61626c653a2063616c6c6572206973206e6f7420746865206f776e65726044820152606401610a16565b6001600160a01b03831661205b5760405162461bcd60e51b81526020600482015260096024820152684248503a452d34303360b81b6044820152606401610a16565b6040516370a0823160e01b815230600482015281906001600160a01b038416906370a0823190602401602060405180830381865afa1580156120a1573d6000803e3d6000fd5b505050506040513d601f19601f820116820180604052508101906120c59190613431565b10610992576120de6001600160a01b0383168483612bbc565b816001600160a01b0316836001600160a01b03167f6c9d637297625e945b296ff73a71fcfbd0a9e062652b6491a921c4c60194176b8360405161212391815260200190565b60405180910390a3505050565b604080516001600160a01b038481166024830152604480830185905283518084039091018152606490920183526020820180516001600160e01b031663a9059cbb60e01b179052915160009283929087169161218c9190613620565b6000604051808303816000865af19150503d80600081146121c9576040519150601f19603f3d011682016040523d82523d6000602084013e6121ce565b606091505b50915091508180156121f85750805115806121f85750808060200190518101906121f8919061363c565b6122445760405162461bcd60e51b815260206004820152600260248201527f53540000000000000000000000000000000000000000000000000000000000006044820152606401610a16565b5050505050565b600080612256610ea0565b915081156122c7576122c76122bf60408051606080820183526000808352602080840191909152918301819052825190810183526001546001600160a01b031681526012818301528251808401845260048152630ae8aa8960e31b928101929092529182015290565b518484612130565b6122cf610ce8565b90508015612340576123406123386040805160608082018352600080835260208084019190915291830181905282519081018352600480546001600160a01b0316825260128284015283518085018552908152634d4f444560e01b928101929092529182015290565b518483612130565b915091565b6001600160a01b0383166123875760405162461bcd60e51b81526020600482015260096024820152684248503a452d34303360b81b6044820152606401610a16565b6040517f6352211e0000000000000000000000000000000000000000000000000000000081526004810182905230906001600160a01b03841690636352211e90602401602060405180830381865afa1580156123e7573d6000803e3d6000fd5b505050506040513d601f19601f8201168201806040525081019061240b9190613659565b6001600160a01b031603610992576040517f23b872dd0000000000000000000000000000000000000000000000000000000081523060048201526001600160a01b038481166024830152604482018390528316906323b872dd90606401600060405180830381600087803b15801561248257600080fd5b505af1158015612496573d6000803e3d6000fd5b5050505080826001600160a01b0316846001600160a01b03167ffefe036cac4ee3a4aca074a81cbcc4376e1484693289078dbec149c890101d5b60405160405180910390a4505050565b6001600160a01b0382166125225760405162461bcd60e51b81526020600482015260096024820152684248503a452d34303360b81b6044820152606401610a16565b804710610dca5761253c6001600160a01b03831682612c0e565b816001600160a01b03167eddb683bb45cd5d0ad8a200c6fae7152b1c236ee90a4a37db692407f5cc38bd8260405161257691815260200190565b60405180910390a25050565b600080546001600160a01b038381166001600160a01b0319831681178455604051919092169283917f8be0079c531659141344cd1fd0a4f28419497f9722a3daafe3b4186f6b6457e09190a35050565b6040516370a0823160e01b815230600482015260009081906001600160a01b038516906370a0823190602401602060405180830381865afa15801561261b573d6000803e3d6000fd5b505050506040513d601f19601f8201168201806040525081019061263f9190613431565b9050600061271061265087846135b2565b61265a91906135c9565b6005549091506126759086906001600160a01b03168361299e565b80156127dc576040805160c0810182526007548152600060208083018290526001600160a01b038981168486015288811660608086019190915260808086018890528651808501885285815260a0870152865190810187523080825293810185905280870193909352820183905260055494517f52bbbe29000000000000000000000000000000000000000000000000000000008152939491939116916352bbbe299161272b9186918691904290600401613676565b6020604051808303816000875af115801561274a573d6000803e3d6000fd5b505050506040513d601f19601f8201168201806040525081019061276e9190613431565b506040516370a0823160e01b81523060048201526001600160a01b038716906370a0823190602401602060405180830381865afa1580156127b3573d6000803e3d6000fd5b505050506040513d601f19601f820116820180604052508101906127d79190613431565b945050505b50509392505050565b6001600160a01b0384166128275760405162461bcd60e51b81526020600482015260096024820152684248503a452d34303360b81b6044820152606401610a16565b6040517efdd58e0000000000000000000000000000000000000000000000000000000081523060048201526024810183905281906001600160a01b0385169062fdd58e90604401602060405180830381865afa15801561288b573d6000803e3d6000fd5b505050506040513d601f19601f820116820180604052508101906128af9190613431565b10611161576040517ff242432a0000000000000000000000000000000000000000000000000000000081523060048201526001600160a01b038581166024830152604482018490526064820183905260a06084830152600060a483015284169063f242432a9060c401600060405180830381600087803b15801561293257600080fd5b505af1158015612946573d6000803e3d6000fd5b5050505081836001600160a01b0316856001600160a01b03167f620337bf89eea2b9ae2657beead83b5fa620452817118348aff96e201d52598b8460405161299091815260200190565b60405180910390a450505050565b604080516001600160a01b038481166024830152604480830185905283518084039091018152606490920183526020820180516001600160e01b03167f095ea7b3000000000000000000000000000000000000000000000000000000001790529151600092839290871691612a139190613620565b6000604051808303816000865af19150503d8060008114612a50576040519150601f19603f3d011682016040523d82523d6000602084013e612a55565b606091505b5091509150818015612a7f575080511580612a7f575080806020019051810190612a7f919061363c565b6122445760405162461bcd60e51b815260206004820152600260248201527f53410000000000000000000000000000000000000000000000000000000000006044820152606401610a16565b600080612ad6610ea0565b9150612ae0610ce8565b90508315612af557612af28285613418565b91505b8215612b0857612b058184613418565b90505b9250929050565b600080612b1a6119ed565b90508015612b9a576001546040517f2e1a7d4d000000000000000000000000000000000000000000000000000000008152600481018390526001600160a01b0390911690632e1a7d4d90602401600060405180830381600087803b158015612b8157600080fd5b505af1158015612b95573d6000803e3d6000fd5b505050505b4791508115612bb657612bb66001600160a01b03841683612c0e565b50919050565b604080516001600160a01b038416602482015260448082018490528251808303909101815260649091019091526020810180516001600160e01b031663a9059cbb60e01b179052610992908490612d27565b80471015612c5e5760405162461bcd60e51b815260206004820152601d60248201527f416464726573733a20696e73756666696369656e742062616c616e63650000006044820152606401610a16565b6000826001600160a01b03168260405160006040518083038185875af1925050503d8060008114612cab576040519150601f19603f3d011682016040523d82523d6000602084013e612cb0565b606091505b50509050806109925760405162461bcd60e51b815260206004820152603a60248201527f416464726573733a20756e61626c6520746f2073656e642076616c75652c207260448201527f6563697069656e74206d617920686176652072657665727465640000000000006064820152608401610a16565b6000612d7c826040518060400160405280602081526020017f5361666545524332303a206c6f772d6c6576656c2063616c6c206661696c6564815250856001600160a01b0316612e0f9092919063ffffffff16565b9050805160001480612d9d575080806020019051810190612d9d919061363c565b6109925760405162461bcd60e51b815260206004820152602a60248201527f5361666545524332303a204552433230206f7065726174696f6e20646964206e60448201527f6f742073756363656564000000000000000000000000000000000000000000006064820152608401610a16565b6060610e6c848460008585600080866001600160a01b03168587604051612e369190613620565b60006040518083038185875af1925050503d8060008114612e73576040519150601f19603f3d011682016040523d82523d6000602084013e612e78565b606091505b5091509150612e8987838387612e94565b979650505050505050565b60608315612f03578251600003612efc576001600160a01b0385163b612efc5760405162461bcd60e51b815260206004820152601d60248201527f416464726573733a2063616c6c20746f206e6f6e2d636f6e74726163740000006044820152606401610a16565b5081610e6c565b610e6c8383815115612f185781518083602001fd5b8060405162461bcd60e51b8152600401610a16919061373a565b6001600160a01b0381168114611fbc57600080fd5b600080600080600060808688031215612f5f57600080fd5b8535612f6a81612f32565b94506020860135612f7a81612f32565b935060408601359250606086013567ffffffffffffffff80821115612f9e57600080fd5b818801915088601f830112612fb257600080fd5b813581811115612fc157600080fd5b896020828501011115612fd357600080fd5b9699959850939650602001949392505050565b600080600060608486031215612ffb57600080fd5b833561300681612f32565b9250602084013561301681612f32565b929592945050506040919091013590565b6000806040838503121561303a57600080fd5b82359150602083013561304c81612f32565b809150509250929050565b634e487b7160e01b600052604160045260246000fd5b8015158114611fbc57600080fd5b60006060828403121561308d57600080fd5b6040516060810181811067ffffffffffffffff821117156130be57634e487b7160e01b600052604160045260246000fd5b8060405250823581526020830135602082015260408301356130df8161306d565b60408201529392505050565b6000602082840312156130fd57600080fd5b81358060020b811461310e57600080fd5b9392505050565b60006020828403121561312757600080fd5b813561310e81612f32565b6000806040838503121561314557600080fd5b823561315081612f32565b946020939093013593505050565b60005b83811015613179578181015183820152602001613161565b50506000910152565b6000815180845261319a81602086016020860161315e565b601f01601f19169290920160200192915050565b602081526001600160a01b0382511660208201526020820151604082015260006040830151606080840152610e6c6080840182613182565b6000806000606084860312156131fb57600080fd5b83359250602084013561320d81612f32565b9150604084013561321d81612f32565b809150509250925092565b60006020828403121561323a57600080fd5b813561310e8161306d565b602080825282518282018190526000919060409081850190868401855b8281101561329f57815180516001600160a01b03908116865287820151168786015285015115158585015260609093019290850190600101613262565b5091979650505050505050565b600080600080608085870312156132c257600080fd5b84356132cd81612f32565b935060208501356132dd81612f32565b93969395505050506040820135916060013590565b600081518084526020808501945080840160005b8381101561332257815187529582019590820190600101613306565b509495945050505050565b604080825283519082018190526000906020906060840190828701845b8281101561336f5781516001600160a01b03168452928401929084019060010161334a565b5050508381038285015261338381866132f2565b9695505050505050565b600080604083850312156133a057600080fd5b82359150602083013561304c8161306d565b6000602082840312156133c457600080fd5b5035919050565b6000806000606084860312156133e057600080fd5b83356133eb81612f32565b925060208401359150604084013561321d8161306d565b634e487b7160e01b600052601160045260246000fd5b8181038181111561342b5761342b613402565b92915050565b60006020828403121561344357600080fd5b5051919050565b634e487b7160e01b600052603260045260246000fd5b6000806040838503121561347357600080fd5b825161347e81612f32565b60208401519092506003811061304c57600080fd5b6000600182016134a5576134a5613402565b5060010190565b634e487b7160e01b600052602160045260246000fd5b60048110611fbc57611fbc6134ac565b604081016134df846134c2565b9281526020015290565b8051608080845281519084018190526000916020919082019060a0860190845b8181101561352e5783516001600160a01b031683529284019291840191600101613509565b50508285015191508581038387015261354781836132f2565b92505050604083015184820360408601526135628282613182565b9150506060830151613578606086018215159052565b509392505050565b84815260006001600160a01b0380861660208401528085166040840152506080606083015261338360808301846134e9565b808202811582820484141761342b5761342b613402565b6000826135e657634e487b7160e01b600052601260045260246000fd5b500490565b6135f4846134c2565b83815260606020820152600061360d60608301856132f2565b905060ff83166040830152949350505050565b6000825161363281846020870161315e565b9190910192915050565b60006020828403121561364e57600080fd5b815161310e8161306d565b60006020828403121561366b57600080fd5b815161310e81612f32565b60e08152845160e08201526000602086015160028110613698576136986134ac565b61010083015260408601516001600160a01b03908116610120840152606087015116610140830152608086015161016083015260a086015160c06101808401526136e66101a0840182613182565b91505061372860208301866001600160a01b03808251168352602082015115156020840152806040830151166040840152506060810151151560608301525050565b60a082019390935260c0015292915050565b60208152600061310e602083018461318256fea26469706673582212200c0ebe96026bbbde90218d3def9ec0891d47d681c2de8f259c154a9448a9b1dc64736f6c63430008110033",
  "devdoc": {
    "kind": "dev",
    "methods": {
      "getLiquidityAmounts()": {
        "details": "This can be overridden to specify custom amounts for swapping"
      },
      "getOrderedAssets(bool)": {
        "details": "This can be overridden to specify custom ordering for swapping"
      },
      "getToken0()": {
        "details": "This should be overridden if Token0 is not WETH"
      },
      "getToken1()": {
        "details": "This should be overridden if Token1 is not WETH"
      },
      "getTokenPath(bool)": {
        "details": "This can be overridden to specify custom routes/paths for swapping"
      },
      "owner()": {
        "details": "Returns the address of the current owner."
      },
      "renounceOwnership()": {
        "details": "Leaves the contract without owner. It will not be possible to call `onlyOwner` functions. Can only be called by the current owner. NOTE: Renouncing ownership will leave the contract without an owner, thereby disabling any functionality that is only available to the owner."
      },
      "transferOwnership(address)": {
        "details": "Transfers ownership of the contract to a new account (`newOwner`). Can only be called by the current owner."
      }
    },
    "version": 1
  },
  "userdoc": {
    "kind": "user",
    "methods": {},
    "version": 1
  },
  "storageLayout": {
    "storage": [
      {
        "astId": 7,
        "contract": "contracts/lib/mode/bundlers/LPWethMode8020.sol:LPWethMode8020",
        "label": "_owner",
        "offset": 0,
        "slot": "0",
        "type": "t_address"
      },
      {
        "astId": 10031,
        "contract": "contracts/lib/mode/bundlers/LPWethMode8020.sol:LPWethMode8020",
        "label": "_weth",
        "offset": 0,
        "slot": "1",
        "type": "t_address"
      },
      {
        "astId": 10033,
        "contract": "contracts/lib/mode/bundlers/LPWethMode8020.sol:LPWethMode8020",
        "label": "_manager",
        "offset": 0,
        "slot": "2",
        "type": "t_address"
      },
      {
        "astId": 10035,
        "contract": "contracts/lib/mode/bundlers/LPWethMode8020.sol:LPWethMode8020",
        "label": "_token0",
        "offset": 0,
        "slot": "3",
        "type": "t_address"
      },
      {
        "astId": 10037,
        "contract": "contracts/lib/mode/bundlers/LPWethMode8020.sol:LPWethMode8020",
        "label": "_token1",
        "offset": 0,
        "slot": "4",
        "type": "t_address"
      },
      {
        "astId": 10039,
        "contract": "contracts/lib/mode/bundlers/LPWethMode8020.sol:LPWethMode8020",
        "label": "_swapRouter",
        "offset": 0,
        "slot": "5",
        "type": "t_address"
      },
      {
        "astId": 10041,
        "contract": "contracts/lib/mode/bundlers/LPWethMode8020.sol:LPWethMode8020",
        "label": "_liquidityRouter",
        "offset": 0,
        "slot": "6",
        "type": "t_address"
      },
      {
        "astId": 10043,
        "contract": "contracts/lib/mode/bundlers/LPWethMode8020.sol:LPWethMode8020",
        "label": "_poolId",
        "offset": 0,
        "slot": "7",
        "type": "t_bytes32"
      },
      {
        "astId": 10045,
        "contract": "contracts/lib/mode/bundlers/LPWethMode8020.sol:LPWethMode8020",
        "label": "_bundlerId",
        "offset": 0,
        "slot": "8",
        "type": "t_bytes32"
      },
      {
        "astId": 10047,
        "contract": "contracts/lib/mode/bundlers/LPWethMode8020.sol:LPWethMode8020",
        "label": "_slippage",
        "offset": 0,
        "slot": "9",
        "type": "t_uint256"
      },
      {
        "astId": 10049,
        "contract": "contracts/lib/mode/bundlers/LPWethMode8020.sol:LPWethMode8020",
        "label": "_tickLower",
        "offset": 0,
        "slot": "10",
        "type": "t_int24"
      },
      {
        "astId": 10051,
        "contract": "contracts/lib/mode/bundlers/LPWethMode8020.sol:LPWethMode8020",
        "label": "_tickUpper",
        "offset": 3,
        "slot": "10",
        "type": "t_int24"
      },
      {
        "astId": 10056,
        "contract": "contracts/lib/mode/bundlers/LPWethMode8020.sol:LPWethMode8020",
        "label": "_liquidityPositionsByTokenId",
        "offset": 0,
        "slot": "11",
        "type": "t_mapping(t_uint256,t_struct(LiquidityPosition)7508_storage)"
      }
    ],
    "types": {
      "t_address": {
        "encoding": "inplace",
        "label": "address",
        "numberOfBytes": "20"
      },
      "t_bool": {
        "encoding": "inplace",
        "label": "bool",
        "numberOfBytes": "1"
      },
      "t_bytes32": {
        "encoding": "inplace",
        "label": "bytes32",
        "numberOfBytes": "32"
      },
      "t_int24": {
        "encoding": "inplace",
        "label": "int24",
        "numberOfBytes": "3"
      },
      "t_mapping(t_uint256,t_struct(LiquidityPosition)7508_storage)": {
        "encoding": "mapping",
        "key": "t_uint256",
        "label": "mapping(uint256 => struct IWeb3PacksDefs.LiquidityPosition)",
        "numberOfBytes": "32",
        "value": "t_struct(LiquidityPosition)7508_storage"
      },
      "t_struct(LiquidityPosition)7508_storage": {
        "encoding": "inplace",
        "label": "struct IWeb3PacksDefs.LiquidityPosition",
        "members": [
          {
            "astId": 7503,
            "contract": "contracts/lib/mode/bundlers/LPWethMode8020.sol:LPWethMode8020",
            "label": "lpTokenId",
            "offset": 0,
            "slot": "0",
            "type": "t_uint256"
          },
          {
            "astId": 7505,
            "contract": "contracts/lib/mode/bundlers/LPWethMode8020.sol:LPWethMode8020",
            "label": "liquidity",
            "offset": 0,
            "slot": "1",
            "type": "t_uint256"
          },
          {
            "astId": 7507,
            "contract": "contracts/lib/mode/bundlers/LPWethMode8020.sol:LPWethMode8020",
            "label": "stable",
            "offset": 0,
            "slot": "2",
            "type": "t_bool"
          }
        ],
        "numberOfBytes": "96"
      },
      "t_uint256": {
        "encoding": "inplace",
        "label": "uint256",
        "numberOfBytes": "32"
      }
    }
  }
}