{
  "address": "0x34b0b4a124c521C3616328dBFf1d0204f6EDC6F8",
  "abi": [
    {
      "inputs": [
        {
          "components": [
            {
              "internalType": "address",
              "name": "weth",
              "type": "address"
            },
            {
              "internalType": "address",
              "name": "token0",
              "type": "address"
            },
            {
              "internalType": "address",
              "name": "token1",
              "type": "address"
            },
            {
              "internalType": "address",
              "name": "manager",
              "type": "address"
            },
            {
              "internalType": "address",
              "name": "swapRouter",
              "type": "address"
            },
            {
              "internalType": "address",
              "name": "liquidityRouter",
              "type": "address"
            },
            {
              "internalType": "bytes32",
              "name": "poolId",
              "type": "bytes32"
            },
            {
              "internalType": "bytes32",
              "name": "bundlerId",
              "type": "bytes32"
            },
            {
              "internalType": "uint256",
              "name": "slippage",
              "type": "uint256"
            },
            {
              "internalType": "int24",
              "name": "tickLower",
              "type": "int24"
            },
            {
              "internalType": "int24",
              "name": "tickUpper",
              "type": "int24"
            }
          ],
          "internalType": "struct IWeb3PacksDefs.RouterConfig",
          "name": "config",
          "type": "tuple"
        }
      ],
      "stateMutability": "nonpayable",
      "type": "constructor"
    },
    {
      "inputs": [
        {
          "internalType": "bytes32",
          "name": "bundlerId",
          "type": "bytes32"
        }
      ],
      "name": "BundlerNotRegistered",
      "type": "error"
    },
    {
      "inputs": [],
      "name": "ContractNotAllowed",
      "type": "error"
    },
    {
      "inputs": [],
      "name": "FundingFailed",
      "type": "error"
    },
    {
      "inputs": [
        {
          "internalType": "uint256",
          "name": "value",
          "type": "uint256"
        },
        {
          "internalType": "uint256",
          "name": "ethPackPrice",
          "type": "uint256"
        },
        {
          "internalType": "uint256",
          "name": "protocolFee",
          "type": "uint256"
        }
      ],
      "name": "InsufficientForFee",
      "type": "error"
    },
    {
      "inputs": [],
      "name": "MismatchedTokens",
      "type": "error"
    },
    {
      "inputs": [
        {
          "internalType": "address",
          "name": "tokenAddress",
          "type": "address"
        }
      ],
      "name": "MissingLiquidityUUID",
      "type": "error"
    },
    {
      "inputs": [],
      "name": "NativeAssetTransferFailed",
      "type": "error"
    },
    {
      "inputs": [],
      "name": "NoBundlesInPack",
      "type": "error"
    },
    {
      "inputs": [],
      "name": "NotOwnerOrApproved",
      "type": "error"
    },
    {
      "inputs": [],
      "name": "NullReceiver",
      "type": "error"
    },
    {
      "inputs": [
        {
          "internalType": "address",
          "name": "tokenOut",
          "type": "address"
        },
        {
          "internalType": "uint256",
          "name": "amountIn",
          "type": "uint256"
        },
        {
          "internalType": "address",
          "name": "router",
          "type": "address"
        }
      ],
      "name": "UnsucessfulSwap",
      "type": "error"
    },
    {
      "anonymous": false,
      "inputs": [
        {
          "indexed": true,
          "internalType": "address",
          "name": "token0",
          "type": "address"
        },
        {
          "indexed": true,
          "internalType": "address",
          "name": "token1",
          "type": "address"
        },
        {
          "indexed": false,
          "internalType": "uint256",
          "name": "amount0",
          "type": "uint256"
        },
        {
          "indexed": false,
          "internalType": "uint256",
          "name": "amount1",
          "type": "uint256"
        },
        {
          "indexed": false,
          "internalType": "uint256",
          "name": "liquidity",
          "type": "uint256"
        }
      ],
      "name": "BundledTokenLP",
      "type": "event"
    },
    {
      "anonymous": false,
      "inputs": [
        {
          "indexed": true,
          "internalType": "address",
          "name": "token",
          "type": "address"
        },
        {
          "indexed": false,
          "internalType": "uint256",
          "name": "amount",
          "type": "uint256"
        }
      ],
      "name": "BundledTokenSS",
      "type": "event"
    },
    {
      "anonymous": false,
      "inputs": [
        {
          "indexed": true,
          "internalType": "address",
          "name": "previousOwner",
          "type": "address"
        },
        {
          "indexed": true,
          "internalType": "address",
          "name": "newOwner",
          "type": "address"
        }
      ],
      "name": "OwnershipTransferred",
      "type": "event"
    },
    {
      "anonymous": false,
      "inputs": [
        {
          "indexed": true,
          "internalType": "address",
          "name": "receiver",
          "type": "address"
        },
        {
          "indexed": true,
          "internalType": "address",
          "name": "tokenAddress",
          "type": "address"
        },
        {
          "indexed": true,
          "internalType": "uint256",
          "name": "tokenId",
          "type": "uint256"
        },
        {
          "indexed": false,
          "internalType": "uint256",
          "name": "amount",
          "type": "uint256"
        }
      ],
      "name": "WithdrawStuckERC1155",
      "type": "event"
    },
    {
      "anonymous": false,
      "inputs": [
        {
          "indexed": true,
          "internalType": "address",
          "name": "receiver",
          "type": "address"
        },
        {
          "indexed": true,
          "internalType": "address",
          "name": "tokenAddress",
          "type": "address"
        },
        {
          "indexed": false,
          "internalType": "uint256",
          "name": "amount",
          "type": "uint256"
        }
      ],
      "name": "WithdrawStuckERC20",
      "type": "event"
    },
    {
      "anonymous": false,
      "inputs": [
        {
          "indexed": true,
          "internalType": "address",
          "name": "receiver",
          "type": "address"
        },
        {
          "indexed": true,
          "internalType": "address",
          "name": "tokenAddress",
          "type": "address"
        },
        {
          "indexed": true,
          "internalType": "uint256",
          "name": "tokenId",
          "type": "uint256"
        }
      ],
      "name": "WithdrawStuckERC721",
      "type": "event"
    },
    {
      "anonymous": false,
      "inputs": [
        {
          "indexed": true,
          "internalType": "address",
          "name": "receiver",
          "type": "address"
        },
        {
          "indexed": false,
          "internalType": "uint256",
          "name": "amount",
          "type": "uint256"
        }
      ],
      "name": "WithdrawStuckEther",
      "type": "event"
    },
    {
      "inputs": [],
      "name": "_bundlerId",
      "outputs": [
        {
          "internalType": "bytes32",
          "name": "",
          "type": "bytes32"
        }
      ],
      "stateMutability": "view",
      "type": "function"
    },
    {
      "inputs": [],
      "name": "_liquidityRouter",
      "outputs": [
        {
          "internalType": "address",
          "name": "",
          "type": "address"
        }
      ],
      "stateMutability": "view",
      "type": "function"
    },
    {
      "inputs": [],
      "name": "_manager",
      "outputs": [
        {
          "internalType": "address",
          "name": "",
          "type": "address"
        }
      ],
      "stateMutability": "view",
      "type": "function"
    },
    {
      "inputs": [],
      "name": "_poolId",
      "outputs": [
        {
          "internalType": "bytes32",
          "name": "",
          "type": "bytes32"
        }
      ],
      "stateMutability": "view",
      "type": "function"
    },
    {
      "inputs": [],
      "name": "_slippage",
      "outputs": [
        {
          "internalType": "uint256",
          "name": "",
          "type": "uint256"
        }
      ],
      "stateMutability": "view",
      "type": "function"
    },
    {
      "inputs": [],
      "name": "_swapRouter",
      "outputs": [
        {
          "internalType": "address",
          "name": "",
          "type": "address"
        }
      ],
      "stateMutability": "view",
      "type": "function"
    },
    {
      "inputs": [],
      "name": "_tickLower",
      "outputs": [
        {
          "internalType": "int24",
          "name": "",
          "type": "int24"
        }
      ],
      "stateMutability": "view",
      "type": "function"
    },
    {
      "inputs": [],
      "name": "_tickUpper",
      "outputs": [
        {
          "internalType": "int24",
          "name": "",
          "type": "int24"
        }
      ],
      "stateMutability": "view",
      "type": "function"
    },
    {
      "inputs": [],
      "name": "_token0",
      "outputs": [
        {
          "internalType": "address",
          "name": "",
          "type": "address"
        }
      ],
      "stateMutability": "view",
      "type": "function"
    },
    {
      "inputs": [],
      "name": "_token1",
      "outputs": [
        {
          "internalType": "address",
          "name": "",
          "type": "address"
        }
      ],
      "stateMutability": "view",
      "type": "function"
    },
    {
      "inputs": [],
      "name": "_weth",
      "outputs": [
        {
          "internalType": "address",
          "name": "",
          "type": "address"
        }
      ],
      "stateMutability": "view",
      "type": "function"
    },
    {
      "inputs": [
        {
          "internalType": "uint256",
          "name": "",
          "type": "uint256"
        },
        {
          "internalType": "address",
          "name": "sender",
          "type": "address"
        }
      ],
      "name": "bundle",
      "outputs": [
        {
          "internalType": "address",
          "name": "tokenAddress",
          "type": "address"
        },
        {
          "internalType": "uint256",
          "name": "amountOut",
          "type": "uint256"
        },
        {
          "internalType": "uint256",
          "name": "nftTokenId",
          "type": "uint256"
        }
      ],
      "stateMutability": "payable",
      "type": "function"
    },
    {
      "inputs": [
        {
          "components": [
            {
              "internalType": "uint256",
              "name": "lpTokenId",
              "type": "uint256"
            },
            {
              "internalType": "uint256",
              "name": "liquidity",
              "type": "uint256"
            },
            {
              "internalType": "bool",
              "name": "stable",
              "type": "bool"
            }
          ],
          "internalType": "struct IWeb3PacksDefs.LiquidityPosition",
          "name": "",
          "type": "tuple"
        }
      ],
      "name": "collectLpFees",
      "outputs": [
        {
          "internalType": "uint256",
          "name": "amount0",
          "type": "uint256"
        },
        {
          "internalType": "uint256",
          "name": "amount1",
          "type": "uint256"
        }
      ],
      "stateMutability": "nonpayable",
      "type": "function"
    },
    {
      "inputs": [
        {
          "internalType": "bool",
          "name": "",
          "type": "bool"
        }
      ],
      "name": "createLiquidityPosition",
      "outputs": [
        {
          "internalType": "uint256",
          "name": "lpTokenId",
          "type": "uint256"
        },
        {
          "internalType": "uint256",
          "name": "liquidity",
          "type": "uint256"
        },
        {
          "internalType": "uint256",
          "name": "amount0",
          "type": "uint256"
        },
        {
          "internalType": "uint256",
          "name": "amount1",
          "type": "uint256"
        }
      ],
      "stateMutability": "nonpayable",
      "type": "function"
    },
    {
      "inputs": [],
      "name": "getBalanceToken0",
      "outputs": [
        {
          "internalType": "uint256",
          "name": "balanceToken0",
          "type": "uint256"
        }
      ],
      "stateMutability": "view",
      "type": "function"
    },
    {
      "inputs": [],
      "name": "getBalanceToken1",
      "outputs": [
        {
          "internalType": "uint256",
          "name": "balanceToken1",
          "type": "uint256"
        }
      ],
      "stateMutability": "view",
      "type": "function"
    },
    {
      "inputs": [],
      "name": "getBalanceWeth",
      "outputs": [
        {
          "internalType": "uint256",
          "name": "balanceWeth",
          "type": "uint256"
        }
      ],
      "stateMutability": "view",
      "type": "function"
    },
    {
      "inputs": [],
      "name": "getLiquidityAmounts",
      "outputs": [
        {
          "internalType": "uint256",
          "name": "amount0",
          "type": "uint256"
        },
        {
          "internalType": "uint256",
          "name": "amount1",
          "type": "uint256"
        },
        {
          "internalType": "uint256",
          "name": "minAmount0",
          "type": "uint256"
        },
        {
          "internalType": "uint256",
          "name": "minAmount1",
          "type": "uint256"
        }
      ],
      "stateMutability": "view",
      "type": "function"
    },
    {
      "inputs": [
        {
          "internalType": "uint256",
          "name": "",
          "type": "uint256"
        }
      ],
      "name": "getLiquidityToken",
      "outputs": [
        {
          "internalType": "address",
          "name": "tokenAddress",
          "type": "address"
        },
        {
          "internalType": "uint256",
          "name": "tokenId",
          "type": "uint256"
        }
      ],
      "stateMutability": "view",
      "type": "function"
    },
    {
      "inputs": [
        {
          "internalType": "bool",
          "name": "reverse",
          "type": "bool"
        }
      ],
      "name": "getOrderedAssets",
      "outputs": [
        {
          "internalType": "address[]",
          "name": "",
          "type": "address[]"
        },
        {
          "internalType": "uint256[]",
          "name": "",
          "type": "uint256[]"
        }
      ],
      "stateMutability": "view",
      "type": "function"
    },
    {
      "inputs": [],
      "name": "getToken0",
      "outputs": [
        {
          "components": [
            {
              "internalType": "address",
              "name": "tokenAddress",
              "type": "address"
            },
            {
              "internalType": "uint256",
              "name": "tokenDecimals",
              "type": "uint256"
            },
            {
              "internalType": "string",
              "name": "tokenSymbol",
              "type": "string"
            }
          ],
          "internalType": "struct IWeb3PacksDefs.Token",
          "name": "token0",
          "type": "tuple"
        }
      ],
      "stateMutability": "view",
      "type": "function"
    },
    {
      "inputs": [],
      "name": "getToken1",
      "outputs": [
        {
          "components": [
            {
              "internalType": "address",
              "name": "tokenAddress",
              "type": "address"
            },
            {
              "internalType": "uint256",
              "name": "tokenDecimals",
              "type": "uint256"
            },
            {
              "internalType": "string",
              "name": "tokenSymbol",
              "type": "string"
            }
          ],
          "internalType": "struct IWeb3PacksDefs.Token",
          "name": "token1",
          "type": "tuple"
        }
      ],
      "stateMutability": "view",
      "type": "function"
    },
    {
      "inputs": [
        {
          "internalType": "bool",
          "name": "reverse",
          "type": "bool"
        }
      ],
      "name": "getTokenPath",
      "outputs": [
        {
          "components": [
            {
              "internalType": "address",
              "name": "token0",
              "type": "address"
            },
            {
              "internalType": "address",
              "name": "token1",
              "type": "address"
            },
            {
              "internalType": "bool",
              "name": "stable",
              "type": "bool"
            }
          ],
          "internalType": "struct IWeb3PacksDefs.Route[]",
          "name": "tokenPath",
          "type": "tuple[]"
        }
      ],
      "stateMutability": "view",
      "type": "function"
    },
    {
      "inputs": [
        {
          "internalType": "address",
          "name": "",
          "type": "address"
        },
        {
          "internalType": "address",
          "name": "",
          "type": "address"
        },
        {
          "internalType": "uint256",
          "name": "",
          "type": "uint256"
        },
        {
          "internalType": "bytes",
          "name": "",
          "type": "bytes"
        }
      ],
      "name": "onERC721Received",
      "outputs": [
        {
          "internalType": "bytes4",
          "name": "",
          "type": "bytes4"
        }
      ],
      "stateMutability": "pure",
      "type": "function"
    },
    {
      "inputs": [],
      "name": "owner",
      "outputs": [
        {
          "internalType": "address",
          "name": "",
          "type": "address"
        }
      ],
      "stateMutability": "view",
      "type": "function"
    },
    {
      "inputs": [
        {
          "components": [
            {
              "internalType": "uint256",
              "name": "lpTokenId",
              "type": "uint256"
            },
            {
              "internalType": "uint256",
              "name": "liquidity",
              "type": "uint256"
            },
            {
              "internalType": "bool",
              "name": "stable",
              "type": "bool"
            }
          ],
          "internalType": "struct IWeb3PacksDefs.LiquidityPosition",
          "name": "liquidityPosition",
          "type": "tuple"
        }
      ],
      "name": "removeLiquidityPosition",
      "outputs": [
        {
          "internalType": "uint256",
          "name": "amount0",
          "type": "uint256"
        },
        {
          "internalType": "uint256",
          "name": "amount1",
          "type": "uint256"
        }
      ],
      "stateMutability": "nonpayable",
      "type": "function"
    },
    {
      "inputs": [],
      "name": "renounceOwnership",
      "outputs": [],
      "stateMutability": "nonpayable",
      "type": "function"
    },
    {
      "inputs": [
        {
          "internalType": "address",
          "name": "router",
          "type": "address"
        }
      ],
      "name": "setLiquidityRouter",
      "outputs": [],
      "stateMutability": "nonpayable",
      "type": "function"
    },
    {
      "inputs": [
        {
          "internalType": "address",
          "name": "manager",
          "type": "address"
        }
      ],
      "name": "setManager",
      "outputs": [],
      "stateMutability": "nonpayable",
      "type": "function"
    },
    {
      "inputs": [
        {
          "internalType": "uint256",
          "name": "slippage",
          "type": "uint256"
        }
      ],
      "name": "setSlippage",
      "outputs": [],
      "stateMutability": "nonpayable",
      "type": "function"
    },
    {
      "inputs": [
        {
          "internalType": "address",
          "name": "router",
          "type": "address"
        }
      ],
      "name": "setSwapRouter",
      "outputs": [],
      "stateMutability": "nonpayable",
      "type": "function"
    },
    {
      "inputs": [
        {
          "internalType": "int24",
          "name": "tickLower",
          "type": "int24"
        }
      ],
      "name": "setTickLower",
      "outputs": [],
      "stateMutability": "nonpayable",
      "type": "function"
    },
    {
      "inputs": [
        {
          "internalType": "int24",
          "name": "tickUpper",
          "type": "int24"
        }
      ],
      "name": "setTickUpper",
      "outputs": [],
      "stateMutability": "nonpayable",
      "type": "function"
    },
    {
      "inputs": [
        {
          "internalType": "address",
          "name": "weth",
          "type": "address"
        }
      ],
      "name": "setWeth",
      "outputs": [],
      "stateMutability": "nonpayable",
      "type": "function"
    },
    {
      "inputs": [
        {
          "internalType": "uint256",
          "name": "percentOfAmount",
          "type": "uint256"
        },
        {
          "internalType": "address",
          "name": "token0",
          "type": "address"
        },
        {
          "internalType": "address",
          "name": "token1",
          "type": "address"
        }
      ],
      "name": "swapCustom",
      "outputs": [
        {
          "internalType": "uint256",
          "name": "amountOut",
          "type": "uint256"
        }
      ],
      "stateMutability": "nonpayable",
      "type": "function"
    },
    {
      "inputs": [
        {
          "internalType": "uint256",
          "name": "percentOfAmount",
          "type": "uint256"
        },
        {
          "internalType": "bool",
          "name": "reverse",
          "type": "bool"
        }
      ],
      "name": "swapSingle",
      "outputs": [
        {
          "internalType": "uint256",
          "name": "amountOut",
          "type": "uint256"
        }
      ],
      "stateMutability": "nonpayable",
      "type": "function"
    },
    {
      "inputs": [
        {
          "internalType": "address",
          "name": "newOwner",
          "type": "address"
        }
      ],
      "name": "transferOwnership",
      "outputs": [],
      "stateMutability": "nonpayable",
      "type": "function"
    },
    {
      "inputs": [
        {
          "internalType": "address payable",
          "name": "receiver",
          "type": "address"
        },
        {
          "internalType": "uint256",
          "name": "",
          "type": "uint256"
        },
        {
          "internalType": "bool",
          "name": "sellAll",
          "type": "bool"
        }
      ],
      "name": "unbundle",
      "outputs": [
        {
          "internalType": "uint256",
          "name": "ethAmountOut",
          "type": "uint256"
        }
      ],
      "stateMutability": "nonpayable",
      "type": "function"
    },
    {
      "inputs": [
        {
          "internalType": "address payable",
          "name": "receiver",
          "type": "address"
        },
        {
          "internalType": "address",
          "name": "tokenAddress",
          "type": "address"
        },
        {
          "internalType": "uint256",
          "name": "tokenId",
          "type": "uint256"
        },
        {
          "internalType": "uint256",
          "name": "amount",
          "type": "uint256"
        }
      ],
      "name": "withdrawERC1155",
      "outputs": [],
      "stateMutability": "nonpayable",
      "type": "function"
    },
    {
      "inputs": [
        {
          "internalType": "address payable",
          "name": "receiver",
          "type": "address"
        },
        {
          "internalType": "address",
          "name": "tokenAddress",
          "type": "address"
        },
        {
          "internalType": "uint256",
          "name": "tokenId",
          "type": "uint256"
        }
      ],
      "name": "withdrawERC721",
      "outputs": [],
      "stateMutability": "nonpayable",
      "type": "function"
    },
    {
      "inputs": [
        {
          "internalType": "address payable",
          "name": "receiver",
          "type": "address"
        },
        {
          "internalType": "address",
          "name": "tokenAddress",
          "type": "address"
        },
        {
          "internalType": "uint256",
          "name": "amount",
          "type": "uint256"
        }
      ],
      "name": "withdrawErc20",
      "outputs": [],
      "stateMutability": "nonpayable",
      "type": "function"
    },
    {
      "inputs": [
        {
          "internalType": "address payable",
          "name": "receiver",
          "type": "address"
        },
        {
          "internalType": "uint256",
          "name": "amount",
          "type": "uint256"
        }
      ],
      "name": "withdrawEther",
      "outputs": [],
      "stateMutability": "nonpayable",
      "type": "function"
    },
    {
      "stateMutability": "payable",
      "type": "receive"
    }
  ],
  "transactionHash": "0x0f4e786e4f4e51d8330d69475628fd1f44230e7b38c60a2d51357d219d73319e",
  "args": [
    {
      "weth": "0x4200000000000000000000000000000000000006",
      "token0": "0x4200000000000000000000000000000000000006",
      "token1": "0xFDa619b6d20975be80A10332cD39b9a4b0FAa8BB",
      "manager": "0xEEC393142db33eb94C18f3d5514888Ad5e7BECc2",
      "swapRouter": "0xc1e624C810D297FD70eF53B0E08F44FABE468591",
      "liquidityRouter": "0xc1e624C810D297FD70eF53B0E08F44FABE468591",
      "poolId": "0x0000000000000000000000000000000000000000000000000000000000000000",
      "bundlerId": "0x53532d574554482d534d44000000000000000000000000000000000000000000",
      "slippage": "900",
      "tickLower": "-887220",
      "tickUpper": "887220"
    }
  ],
  "numDeployments": 1,
  "solcInputHash": "d8b852bd036582cb15fa077fe9c1fdff",
  "bytecode": "0x60806040523480156200001157600080fd5b5060405162003859380380620038598339810160408190526200003491620001d7565b808062000041336200011f565b8051600180546001600160a01b039283166001600160a01b03199182161790915560208301516003805491841691831691909117905560408301516004805491841691831691909117905560608301516002805491841691831691909117905560808301516005805491841691831691909117905560a08301516006805491909316911617905560c081015160075560e0810151600855610100810151600955610120810151600a80546101409093015162ffffff90811663010000000265ffffffffffff1990941692169190911791909117905550620002b09050565b600080546001600160a01b038381166001600160a01b0319831681178455604051919092169283917f8be0079c531659141344cd1fd0a4f28419497f9722a3daafe3b4186f6b6457e09190a35050565b60405161016081016001600160401b0381118282101715620001a157634e487b7160e01b600052604160045260246000fd5b60405290565b80516001600160a01b0381168114620001bf57600080fd5b919050565b8051600281900b8114620001bf57600080fd5b60006101608284031215620001eb57600080fd5b620001f56200016f565b6200020083620001a7565b81526200021060208401620001a7565b60208201526200022360408401620001a7565b60408201526200023660608401620001a7565b60608201526200024960808401620001a7565b60808201526200025c60a08401620001a7565b60a082015260c083015160c082015260e083015160e082015261010080840151818301525061012062000291818501620001c4565b90820152610140620002a5848201620001c4565b908201529392505050565b61359980620002c06000396000f3fe6080604052600436106102d55760003560e01c8063a176459511610179578063cc427bad116100d6578063e6ef0f661161008a578063f0fa55a911610064578063f0fa55a914610928578063f2fde38b14610948578063f54da1e21461096857600080fd5b8063e6ef0f66146108d8578063e7d0c498146108ee578063f0329f6b1461090857600080fd5b8063d0ebdbe7116100bb578063d0ebdbe714610882578063d8102529146108a2578063daa63ae2146108b857600080fd5b8063cc427bad14610842578063cd6e18f11461086257600080fd5b8063b30d0aa21161012d578063ba94a31511610112578063ba94a31514610784578063bfe075e0146107ee578063cb75436b1461082d57600080fd5b8063b30d0aa21461072f578063b8d1452f1461076457600080fd5b8063a5835ff91161015e578063a5835ff9146106cf578063a7755866146106ef578063a7cfa4511461070f57600080fd5b8063a176459514610681578063a2d003c7146106a157600080fd5b8063496b35b9116102325780637440d0fb116101e65780638da5cb5b116101c05780638da5cb5b146106165780638db738b114610634578063a0edb48b1461066157600080fd5b80637440d0fb146105c157806385497dc1146105e157806387e36e601461060157600080fd5b8063522f681511610217578063522f68151461051a5780636f26a7101461053a578063715018a6146105ac57600080fd5b8063496b35b9146104da5780634ef4ebaf146104fa57600080fd5b806320ff415f116102895780634025feb21161026e5780634025feb214610477578063412736571461049757806346fc8a77146104b757600080fd5b806320ff415f14610422578063221ea0751461045757600080fd5b80631593dee1116102ba5780631593dee1146103905780631b22a4f0146103b2578063206c17bb146103ea57600080fd5b80630f74be62146102e1578063150b7a021461031a57600080fd5b366102dc57005b600080fd5b3480156102ed57600080fd5b50600a54610302906301000000900460020b81565b60405160029190910b81526020015b60405180910390f35b34801561032657600080fd5b5061035f610335366004612e58565b7f150b7a020000000000000000000000000000000000000000000000000000000095945050505050565b6040517fffffffff000000000000000000000000000000000000000000000000000000009091168152602001610311565b34801561039c57600080fd5b506103b06103ab366004612ef7565b61097e565b005b6103c56103c0366004612f38565b610996565b604080516001600160a01b039094168452602084019290925290820152606001610311565b3480156103f657600080fd5b5060055461040a906001600160a01b031681565b6040516001600160a01b039091168152602001610311565b34801561042e57600080fd5b5061044261043d366004612fbd565b610aff565b60408051928352602083019190915201610311565b34801561046357600080fd5b506103b061047236600461301f565b610b8b565b34801561048357600080fd5b506103b0610492366004612ef7565b610bad565b3480156104a357600080fd5b506103b06104b2366004613042565b610bc0565b3480156104c357600080fd5b506104cc610bea565b604051908152602001610311565b3480156104e657600080fd5b5060045461040a906001600160a01b031681565b34801561050657600080fd5b5060035461040a906001600160a01b031681565b34801561052657600080fd5b506103b061053536600461305f565b610cb9565b34801561054657600080fd5b5060408051606080820183526000808352602080840191909152918301819052825190810183526004546001600160a01b0316815260128183015282518084018452600381526214d35160ea1b92810192909252918201525b60405161031191906130db565b3480156105b857600080fd5b506103b0610ccf565b3480156105cd57600080fd5b506104cc6105dc366004613113565b610ce3565b3480156105ed57600080fd5b506103b06105fc36600461301f565b610d75565b34801561060d57600080fd5b506104cc610da1565b34801561062257600080fd5b506000546001600160a01b031661040a565b34801561064057600080fd5b5061065461064f366004613155565b610e01565b6040516103119190613172565b34801561066d57600080fd5b506103b061067c3660046131d9565b61104c565b34801561068d57600080fd5b5060015461040a906001600160a01b031681565b3480156106ad57600080fd5b506106c16106bc366004613155565b611066565b604051610311929190613263565b3480156106db57600080fd5b506104cc6106ea3660046132ba565b611302565b3480156106fb57600080fd5b5061044261070a366004612fbd565b611519565b34801561071b57600080fd5b5060065461040a906001600160a01b031681565b34801561073b57600080fd5b5061074461174b565b604080519485526020850193909352918301526060820152608001610311565b34801561077057600080fd5b506103b061077f366004613042565b6117bd565b34801561079057600080fd5b5060408051606080820183526000808352602080840191909152918301819052825190810183526001546001600160a01b031681526012818301528251808401845260048152630ae8aa8960e31b928101929092529182015261059f565b3480156107fa57600080fd5b5061080e6108093660046132df565b6117e7565b604080516001600160a01b039093168352602083019190915201610311565b34801561083957600080fd5b506104cc611852565b34801561084e57600080fd5b506104cc61085d3660046132f8565b611883565b34801561086e57600080fd5b506103b061087d366004613042565b61199c565b34801561088e57600080fd5b506103b061089d366004613042565b6119c6565b3480156108ae57600080fd5b506104cc60075481565b3480156108c457600080fd5b506107446108d3366004613155565b6119f0565b3480156108e457600080fd5b506104cc60085481565b3480156108fa57600080fd5b50600a546103029060020b81565b34801561091457600080fd5b5060025461040a906001600160a01b031681565b34801561093457600080fd5b506103b06109433660046132df565b611c6c565b34801561095457600080fd5b506103b0610963366004613042565b611c79565b34801561097457600080fd5b506104cc60095481565b610986611d09565b610991838383611d63565b505050565b600254600090819081906001600160a01b03163314806109b557503330145b610a1e5760405162461bcd60e51b815260206004820152602f60248201527f576562335061636b73526f7574657242617365202d20496e76616c696420576560448201526e3119a830b1b5b99026b0b730b3b2b960891b60648201526084015b60405180910390fd5b610a2b6127106000611302565b9150610a8a60408051606080820183526000808352602080840191909152918301819052825190810183526004546001600160a01b0316815260128183015282518084018452600381526214d35160ea1b928101929092529182015290565b5160025490935060009150610aaa9084906001600160a01b031684611e7a565b610ab384611f95565b5050826001600160a01b03167feeb24a104634ac471bb06ef0ccbeb5ea3f19bc6a55af51c9096d0bf63fd83ab283604051610af091815260200190565b60405180910390a29250925092565b60025460009081906001600160a01b0316331480610b1c57503330145b610b805760405162461bcd60e51b815260206004820152602f60248201527f576562335061636b73526f7574657242617365202d20496e76616c696420576560448201526e3119a830b1b5b99026b0b730b3b2b960891b6064820152608401610a15565b506000928392509050565b610b93611d09565b600a805462ffffff191662ffffff92909216919091179055565b610bb5611d09565b61099183838361208e565b610bc8611d09565b600580546001600160a01b0319166001600160a01b0392909216919091179055565b6000610c4960408051606080820183526000808352602080840191909152918301819052825190810183526004546001600160a01b0316815260128183015282518084018452600381526214d35160ea1b928101929092529182015290565b516040516370a0823160e01b81523060048201526001600160a01b03909116906370a08231906024015b602060405180830381865afa158015610c90573d6000803e3d6000fd5b505050506040513d601f19601f82011682018060405250810190610cb4919061332f565b905090565b610cc1611d09565b610ccb8282612229565b5050565b610cd7611d09565b610ce160006122cb565b565b6002546000906001600160a01b0316331480610cfe57503330145b610d625760405162461bcd60e51b815260206004820152602f60248201527f576562335061636b73526f7574657242617365202d20496e76616c696420576560448201526e3119a830b1b5b99026b0b730b3b2b960891b6064820152608401610a15565b610d6d84848461231b565b949350505050565b610d7d611d09565b600a805462ffffff90921663010000000265ffffff00000019909216919091179055565b6000610c4960408051606080820183526000808352602080840191909152918301819052825190810183526001546001600160a01b031681526012818301528251808401845260048152630ae8aa8960e31b928101929092529182015290565b60408051600180825281830190925260609160009190816020015b6040805160608101825260008082526020808301829052928201528252600019909201910181610e1c57905050905082610f3e576040518060600160405280610eb960408051606080820183526000808352602080840191909152918301819052825190810183526001546001600160a01b031681526012818301528251808401845260048152630ae8aa8960e31b928101929092529182015290565b516001600160a01b03168152602001610f2560408051606080820183526000808352602080840191909152918301819052825190810183526004546001600160a01b0316815260128183015282518084018452600381526214d35160ea1b928101929092529182015290565b516001600160a01b031681526000602090910152611028565b6040518060600160405280610fa660408051606080820183526000808352602080840191909152918301819052825190810183526004546001600160a01b0316815260128183015282518084018452600381526214d35160ea1b928101929092529182015290565b516001600160a01b0316815260200161101360408051606080820183526000808352602080840191909152918301819052825190810183526001546001600160a01b031681526012818301528251808401845260048152630ae8aa8960e31b928101929092529182015290565b516001600160a01b0316815260006020909101525b8160008151811061103b5761103b613348565b602090810291909101015292915050565b611054611d09565b6110608484848461254b565b50505050565b60408051600280825260608281019093528291600091816020016020820280368337019050509050836110f15760408051606080820183526000808352602080840191909152918301819052825190810183526001546001600160a01b031681526012818301528251808401845260048152630ae8aa8960e31b92810192909252918201525161114a565b60408051606080820183526000808352602080840191909152918301819052825190810183526004546001600160a01b0316815260128183015282518084018452600381526214d35160ea1b9281019290925291820152515b8160008151811061115d5761115d613348565b60200260200101906001600160a01b031690816001600160a01b031681525050836111df5760408051606080820183526000808352602080840191909152918301819052825190810183526004546001600160a01b0316815260128183015282518084018452600381526214d35160ea1b928101929092529182015251611239565b60408051606080820183526000808352602080840191909152918301819052825190810183526001546001600160a01b031681526012818301528251808401845260048152630ae8aa8960e31b9281019290925291820152515b8160018151811061124c5761124c613348565b6001600160a01b039290921660209283029190910182015260408051600280825260608201835260009391929091830190803683370190505090508461129957611294610da1565b6112a1565b6112a1610bea565b816000815181106112b4576112b4613348565b602002602001018181525050846112d2576112cd610bea565b6112da565b6112da610da1565b816001815181106112ed576112ed613348565b60209081029190910101529094909350915050565b6002546000906001600160a01b031633148061131d57503330145b6113815760405162461bcd60e51b815260206004820152602f60248201527f576562335061636b73526f7574657242617365202d20496e76616c696420576560448201526e3119a830b1b5b99026b0b730b3b2b960891b6064820152608401610a15565b6000826113e55760408051606080820183526000808352602080840191909152918301819052825190810183526001546001600160a01b031681526012818301528251808401845260048152630ae8aa8960e31b928101929092529182015261143d565b60408051606080820183526000808352602080840191909152918301819052825190810183526004546001600160a01b0316815260128183015282518084018452600381526214d35160ea1b92810192909252918201525b90506000836114a25760408051606080820183526000808352602080840191909152918301819052825190810183526004546001600160a01b0316815260128183015282518084018452600381526214d35160ea1b92810192909252918201526114fb565b60408051606080820183526000808352602080840191909152918301819052825190810183526001546001600160a01b031681526012818301528251808401845260048152630ae8aa8960e31b92810192909252918201525b9050611510858360000151836000015161231b565b95945050505050565b60025460009081906001600160a01b031633148061153657503330145b61159a5760405162461bcd60e51b815260206004820152602f60248201527f576562335061636b73526f7574657242617365202d20496e76616c696420576560448201526e3119a830b1b5b99026b0b730b3b2b960891b6064820152608401610a15565b60006115fa60408051606080820183526000808352602080840191909152918301819052825190810183526001546001600160a01b031681526012818301528251808401845260048152630ae8aa8960e31b928101929092529182015290565b9050600061165b60408051606080820183526000808352602080840191909152918301819052825190810183526004546001600160a01b0316815260128183015282518084018452600381526214d35160ea1b928101929092529182015290565b90506000611667612704565b60065460208801519192506116879183916001600160a01b03169061286c565b6006548351835160208901516040517fbaa2abde0000000000000000000000000000000000000000000000000000000081526001600160a01b0393841660048201529183166024830152604482015260006064820181905260848201523060a48201524260c482015291169063baa2abde9060e40160408051808303816000875af115801561171a573d6000803e3d6000fd5b505050506040513d601f19601f8201168201806040525081019061173e919061335e565b9097909650945050505050565b600080600080611759610da1565b9350611763610bea565b92506127106009546127106117789190613398565b61178290866133b1565b61178c91906133c8565b91506127106009546127106117a19190613398565b6117ab90856133b1565b6117b591906133c8565b905090919293565b6117c5611d09565b600180546001600160a01b0319166001600160a01b0392909216919091179055565b60008061184760408051606080820183526000808352602080840191909152918301819052825190810183526004546001600160a01b0316815260128183015282518084018452600381526214d35160ea1b928101929092529182015290565b519360009350915050565b6001546040516370a0823160e01b81523060048201526000916001600160a01b0316906370a0823190602401610c73565b6002546000906001600160a01b031633148061189e57503330145b6119025760405162461bcd60e51b815260206004820152602f60248201527f576562335061636b73526f7574657242617365202d20496e76616c696420576560448201526e3119a830b1b5b99026b0b730b3b2b960891b6064820152608401610a15565b8115611926576119156127106001611302565b5061191f84612999565b9050611995565b61199561198660408051606080820183526000808352602080840191909152918301819052825190810183526004546001600160a01b0316815260128183015282518084018452600381526214d35160ea1b928101929092529182015290565b5185611990610bea565b611e7a565b9392505050565b6119a4611d09565b600680546001600160a01b0319166001600160a01b0392909216919091179055565b6119ce611d09565b600280546001600160a01b0319166001600160a01b0392909216919091179055565b6002546000908190819081906001600160a01b0316331480611a1157503330145b611a755760405162461bcd60e51b815260206004820152602f60248201527f576562335061636b73526f7574657242617365202d20496e76616c696420576560448201526e3119a830b1b5b99026b0b730b3b2b960891b6064820152608401610a15565b6000611ad560408051606080820183526000808352602080840191909152918301819052825190810183526001546001600160a01b031681526012818301528251808401845260048152630ae8aa8960e31b928101929092529182015290565b90506000611b3660408051606080820183526000808352602080840191909152918301819052825190810183526004546001600160a01b0316815260128183015282518084018452600381526214d35160ea1b928101929092529182015290565b9050600080600080611b4661174b565b89516006549498509296509094509250611b69916001600160a01b03168661286c565b8451600654611b8291906001600160a01b03168561286c565b600654865186516040517fe8e337000000000000000000000000000000000000000000000000000000000081526001600160a01b039283166004820152908216602482015260448101879052606481018690526084810185905260a481018490523060c48201524260e482015291169063e8e3370090610104016060604051808303816000875af1158015611c1b573d6000803e3d6000fd5b505050506040513d601f19601f82011682018060405250810190611c3f91906133ea565b9a5090985096506000611c50612704565b9050806001600160a01b03169a50505050505050509193509193565b611c74611d09565b600955565b611c81611d09565b6001600160a01b038116611cfd5760405162461bcd60e51b815260206004820152602660248201527f4f776e61626c653a206e6577206f776e657220697320746865207a65726f206160448201527f64647265737300000000000000000000000000000000000000000000000000006064820152608401610a15565b611d06816122cb565b50565b6000546001600160a01b03163314610ce15760405162461bcd60e51b815260206004820181905260248201527f4f776e61626c653a2063616c6c6572206973206e6f7420746865206f776e65726044820152606401610a15565b6001600160a01b038316611da55760405162461bcd60e51b81526020600482015260096024820152684248503a452d34303360b81b6044820152606401610a15565b6040516370a0823160e01b815230600482015281906001600160a01b038416906370a0823190602401602060405180830381865afa158015611deb573d6000803e3d6000fd5b505050506040513d601f19601f82011682018060405250810190611e0f919061332f565b1061099157611e286001600160a01b0383168483612a46565b816001600160a01b0316836001600160a01b03167f6c9d637297625e945b296ff73a71fcfbd0a9e062652b6491a921c4c60194176b83604051611e6d91815260200190565b60405180910390a3505050565b604080516001600160a01b038481166024830152604480830185905283518084039091018152606490920183526020820180516001600160e01b031663a9059cbb60e01b1790529151600092839290871691611ed69190613418565b6000604051808303816000865af19150503d8060008114611f13576040519150601f19603f3d011682016040523d82523d6000602084013e611f18565b606091505b5091509150818015611f42575080511580611f42575080806020019051810190611f429190613434565b611f8e5760405162461bcd60e51b815260206004820152600260248201527f53540000000000000000000000000000000000000000000000000000000000006044820152606401610a15565b5050505050565b600080611fa0610da1565b915081156120115761201161200960408051606080820183526000808352602080840191909152918301819052825190810183526001546001600160a01b031681526012818301528251808401845260048152630ae8aa8960e31b928101929092529182015290565b518484611e7a565b612019610bea565b905080156120895761208961208160408051606080820183526000808352602080840191909152918301819052825190810183526004546001600160a01b0316815260128183015282518084018452600381526214d35160ea1b928101929092529182015290565b518483611e7a565b915091565b6001600160a01b0383166120d05760405162461bcd60e51b81526020600482015260096024820152684248503a452d34303360b81b6044820152606401610a15565b6040517f6352211e0000000000000000000000000000000000000000000000000000000081526004810182905230906001600160a01b03841690636352211e90602401602060405180830381865afa158015612130573d6000803e3d6000fd5b505050506040513d601f19601f820116820180604052508101906121549190613451565b6001600160a01b031603610991576040517f23b872dd0000000000000000000000000000000000000000000000000000000081523060048201526001600160a01b038481166024830152604482018390528316906323b872dd90606401600060405180830381600087803b1580156121cb57600080fd5b505af11580156121df573d6000803e3d6000fd5b5050505080826001600160a01b0316846001600160a01b03167ffefe036cac4ee3a4aca074a81cbcc4376e1484693289078dbec149c890101d5b60405160405180910390a4505050565b6001600160a01b03821661226b5760405162461bcd60e51b81526020600482015260096024820152684248503a452d34303360b81b6044820152606401610a15565b804710610ccb576122856001600160a01b03831682612a98565b816001600160a01b03167eddb683bb45cd5d0ad8a200c6fae7152b1c236ee90a4a37db692407f5cc38bd826040516122bf91815260200190565b60405180910390a25050565b600080546001600160a01b038381166001600160a01b0319831681178455604051919092169283917f8be0079c531659141344cd1fd0a4f28419497f9722a3daafe3b4186f6b6457e09190a35050565b60408051600280825260608201835260009283929190602083019080368337019050509050838160008151811061235457612354613348565b60200260200101906001600160a01b031690816001600160a01b031681525050828160018151811061238857612388613348565b6001600160a01b0392831660209182029290920101526040516370a0823160e01b81523060048201526000918616906370a0823190602401602060405180830381865afa1580156123dd573d6000803e3d6000fd5b505050506040513d601f19601f82011682018060405250810190612401919061332f565b9050600061271061241288846133b1565b61241c91906133c8565b905080156125415760055461243c9087906001600160a01b03168361286c565b6005546040517f38ed17390000000000000000000000000000000000000000000000000000000081526001600160a01b03909116906338ed17399061248e90849060009088903090429060040161346e565b6000604051808303816000875af11580156124ad573d6000803e3d6000fd5b505050506040513d6000823e601f3d908101601f191682016040526124d591908101906134aa565b506040516370a0823160e01b81523060048201526001600160a01b038616906370a0823190602401602060405180830381865afa15801561251a573d6000803e3d6000fd5b505050506040513d601f19601f8201168201806040525081019061253e919061332f565b93505b5050509392505050565b6001600160a01b03841661258d5760405162461bcd60e51b81526020600482015260096024820152684248503a452d34303360b81b6044820152606401610a15565b6040517efdd58e0000000000000000000000000000000000000000000000000000000081523060048201526024810183905281906001600160a01b0385169062fdd58e90604401602060405180830381865afa1580156125f1573d6000803e3d6000fd5b505050506040513d601f19601f82011682018060405250810190612615919061332f565b10611060576040517ff242432a0000000000000000000000000000000000000000000000000000000081523060048201526001600160a01b038581166024830152604482018490526064820183905260a06084830152600060a483015284169063f242432a9060c401600060405180830381600087803b15801561269857600080fd5b505af11580156126ac573d6000803e3d6000fd5b5050505081836001600160a01b0316856001600160a01b03167f620337bf89eea2b9ae2657beead83b5fa620452817118348aff96e201d52598b846040516126f691815260200190565b60405180910390a450505050565b60008061276560408051606080820183526000808352602080840191909152918301819052825190810183526001546001600160a01b031681526012818301528251808401845260048152630ae8aa8960e31b928101929092529182015290565b905060006127c660408051606080820183526000808352602080840191909152918301819052825190810183526004546001600160a01b0316815260128183015282518084018452600381526214d35160ea1b928101929092529182015290565b905060006127d2612bb1565b835183516040517fe6a439050000000000000000000000000000000000000000000000000000000081526001600160a01b039283166004820152908216602482015291925082169063e6a4390590604401602060405180830381865afa158015612840573d6000803e3d6000fd5b505050506040513d601f19601f820116820180604052508101906128649190613451565b935050505090565b604080516001600160a01b038481166024830152604480830185905283518084039091018152606490920183526020820180516001600160e01b03167f095ea7b30000000000000000000000000000000000000000000000000000000017905291516000928392908716916128e19190613418565b6000604051808303816000865af19150503d806000811461291e576040519150601f19603f3d011682016040523d82523d6000602084013e612923565b606091505b509150915081801561294d57508051158061294d57508080602001905181019061294d9190613434565b611f8e5760405162461bcd60e51b815260206004820152600260248201527f53410000000000000000000000000000000000000000000000000000000000006044820152606401610a15565b6000806129a4611852565b90508015612a24576001546040517f2e1a7d4d000000000000000000000000000000000000000000000000000000008152600481018390526001600160a01b0390911690632e1a7d4d90602401600060405180830381600087803b158015612a0b57600080fd5b505af1158015612a1f573d6000803e3d6000fd5b505050505b4791508115612a4057612a406001600160a01b03841683612a98565b50919050565b604080516001600160a01b038416602482015260448082018490528251808303909101815260649091019091526020810180516001600160e01b031663a9059cbb60e01b179052610991908490612c38565b80471015612ae85760405162461bcd60e51b815260206004820152601d60248201527f416464726573733a20696e73756666696369656e742062616c616e63650000006044820152606401610a15565b6000826001600160a01b03168260405160006040518083038185875af1925050503d8060008114612b35576040519150601f19603f3d011682016040523d82523d6000602084013e612b3a565b606091505b50509050806109915760405162461bcd60e51b815260206004820152603a60248201527f416464726573733a20756e61626c6520746f2073656e642076616c75652c207260448201527f6563697069656e74206d617920686176652072657665727465640000000000006064820152608401610a15565b600654604080517fc45a015500000000000000000000000000000000000000000000000000000000815290516000926001600160a01b03169163c45a01559160048083019260209291908290030181865afa158015612c14573d6000803e3d6000fd5b505050506040513d601f19601f82011682018060405250810190610cb49190613451565b6000612c8d826040518060400160405280602081526020017f5361666545524332303a206c6f772d6c6576656c2063616c6c206661696c6564815250856001600160a01b0316612d209092919063ffffffff16565b9050805160001480612cae575080806020019051810190612cae9190613434565b6109915760405162461bcd60e51b815260206004820152602a60248201527f5361666545524332303a204552433230206f7065726174696f6e20646964206e60448201527f6f742073756363656564000000000000000000000000000000000000000000006064820152608401610a15565b6060610d6d848460008585600080866001600160a01b03168587604051612d479190613418565b60006040518083038185875af1925050503d8060008114612d84576040519150601f19603f3d011682016040523d82523d6000602084013e612d89565b606091505b5091509150612d9a87838387612da5565b979650505050505050565b60608315612e14578251600003612e0d576001600160a01b0385163b612e0d5760405162461bcd60e51b815260206004820152601d60248201527f416464726573733a2063616c6c20746f206e6f6e2d636f6e74726163740000006044820152606401610a15565b5081610d6d565b610d6d8383815115612e295781518083602001fd5b8060405162461bcd60e51b8152600401610a159190613550565b6001600160a01b0381168114611d0657600080fd5b600080600080600060808688031215612e7057600080fd5b8535612e7b81612e43565b94506020860135612e8b81612e43565b935060408601359250606086013567ffffffffffffffff80821115612eaf57600080fd5b818801915088601f830112612ec357600080fd5b813581811115612ed257600080fd5b896020828501011115612ee457600080fd5b9699959850939650602001949392505050565b600080600060608486031215612f0c57600080fd5b8335612f1781612e43565b92506020840135612f2781612e43565b929592945050506040919091013590565b60008060408385031215612f4b57600080fd5b823591506020830135612f5d81612e43565b809150509250929050565b634e487b7160e01b600052604160045260246000fd5b604051601f8201601f1916810167ffffffffffffffff81118282101715612fa757612fa7612f68565b604052919050565b8015158114611d0657600080fd5b600060608284031215612fcf57600080fd5b6040516060810181811067ffffffffffffffff82111715612ff257612ff2612f68565b80604052508235815260208301356020820152604083013561301381612faf565b60408201529392505050565b60006020828403121561303157600080fd5b81358060020b811461199557600080fd5b60006020828403121561305457600080fd5b813561199581612e43565b6000806040838503121561307257600080fd5b823561307d81612e43565b946020939093013593505050565b60005b838110156130a657818101518382015260200161308e565b50506000910152565b600081518084526130c781602086016020860161308b565b601f01601f19169290920160200192915050565b602081526001600160a01b0382511660208201526020820151604082015260006040830151606080840152610d6d60808401826130af565b60008060006060848603121561312857600080fd5b83359250602084013561313a81612e43565b9150604084013561314a81612e43565b809150509250925092565b60006020828403121561316757600080fd5b813561199581612faf565b602080825282518282018190526000919060409081850190868401855b828110156131cc57815180516001600160a01b0390811686528782015116878601528501511515858501526060909301929085019060010161318f565b5091979650505050505050565b600080600080608085870312156131ef57600080fd5b84356131fa81612e43565b9350602085013561320a81612e43565b93969395505050506040820135916060013590565b600081518084526020808501945080840160005b838110156132585781516001600160a01b031687529582019590820190600101613233565b509495945050505050565b604081526000613276604083018561321f565b82810360208481019190915284518083528582019282019060005b818110156132ad57845183529383019391830191600101613291565b5090979650505050505050565b600080604083850312156132cd57600080fd5b823591506020830135612f5d81612faf565b6000602082840312156132f157600080fd5b5035919050565b60008060006060848603121561330d57600080fd5b833561331881612e43565b925060208401359150604084013561314a81612faf565b60006020828403121561334157600080fd5b5051919050565b634e487b7160e01b600052603260045260246000fd5b6000806040838503121561337157600080fd5b505080516020909101519092909150565b634e487b7160e01b600052601160045260246000fd5b818103818111156133ab576133ab613382565b92915050565b80820281158282048414176133ab576133ab613382565b6000826133e557634e487b7160e01b600052601260045260246000fd5b500490565b6000806000606084860312156133ff57600080fd5b8351925060208401519150604084015190509250925092565b6000825161342a81846020870161308b565b9190910192915050565b60006020828403121561344657600080fd5b815161199581612faf565b60006020828403121561346357600080fd5b815161199581612e43565b85815284602082015260a06040820152600061348d60a083018661321f565b6001600160a01b0394909416606083015250608001529392505050565b600060208083850312156134bd57600080fd5b825167ffffffffffffffff808211156134d557600080fd5b818501915085601f8301126134e957600080fd5b8151818111156134fb576134fb612f68565b8060051b915061350c848301612f7e565b818152918301840191848101908884111561352657600080fd5b938501935b838510156135445784518252938501939085019061352b565b98975050505050505050565b60208152600061199560208301846130af56fea26469706673582212201eaa956f789e9d10e2eb269439a90a52c71062dde84159ca53133735517f452164736f6c63430008110033",
  "devdoc": {
    "kind": "dev",
    "methods": {
      "getLiquidityAmounts()": {
        "details": "This can be overridden to specify custom amounts for swapping"
      },
      "getLiquidityToken(uint256)": {
        "details": "This can be overridden to specify custom liquidity tokens"
      },
      "getOrderedAssets(bool)": {
        "details": "This can be overridden to specify custom ordering for swapping"
      },
      "getToken0()": {
        "details": "This should be overridden if Token0 is not WETH"
      },
      "getToken1()": {
        "details": "This should be overridden if Token1 is not WETH"
      },
      "getTokenPath(bool)": {
        "details": "This can be overridden to specify custom routes/paths for swapping"
      },
      "owner()": {
        "details": "Returns the address of the current owner."
      },
      "renounceOwnership()": {
        "details": "Leaves the contract without owner. It will not be possible to call `onlyOwner` functions. Can only be called by the current owner. NOTE: Renouncing ownership will leave the contract without an owner, thereby disabling any functionality that is only available to the owner."
      },
      "transferOwnership(address)": {
        "details": "Transfers ownership of the contract to a new account (`newOwner`). Can only be called by the current owner."
      }
    },
    "version": 1
  },
  "userdoc": {
    "kind": "user",
    "methods": {},
    "version": 1
  },
  "storageLayout": {
    "storage": [
      {
        "astId": 7,
        "contract": "contracts/lib/mode/bundlers/SSWethSmd.sol:SSWethSmd",
        "label": "_owner",
        "offset": 0,
        "slot": "0",
        "type": "t_address"
      },
      {
        "astId": 10031,
        "contract": "contracts/lib/mode/bundlers/SSWethSmd.sol:SSWethSmd",
        "label": "_weth",
        "offset": 0,
        "slot": "1",
        "type": "t_address"
      },
      {
        "astId": 10033,
        "contract": "contracts/lib/mode/bundlers/SSWethSmd.sol:SSWethSmd",
        "label": "_manager",
        "offset": 0,
        "slot": "2",
        "type": "t_address"
      },
      {
        "astId": 10035,
        "contract": "contracts/lib/mode/bundlers/SSWethSmd.sol:SSWethSmd",
        "label": "_token0",
        "offset": 0,
        "slot": "3",
        "type": "t_address"
      },
      {
        "astId": 10037,
        "contract": "contracts/lib/mode/bundlers/SSWethSmd.sol:SSWethSmd",
        "label": "_token1",
        "offset": 0,
        "slot": "4",
        "type": "t_address"
      },
      {
        "astId": 10039,
        "contract": "contracts/lib/mode/bundlers/SSWethSmd.sol:SSWethSmd",
        "label": "_swapRouter",
        "offset": 0,
        "slot": "5",
        "type": "t_address"
      },
      {
        "astId": 10041,
        "contract": "contracts/lib/mode/bundlers/SSWethSmd.sol:SSWethSmd",
        "label": "_liquidityRouter",
        "offset": 0,
        "slot": "6",
        "type": "t_address"
      },
      {
        "astId": 10043,
        "contract": "contracts/lib/mode/bundlers/SSWethSmd.sol:SSWethSmd",
        "label": "_poolId",
        "offset": 0,
        "slot": "7",
        "type": "t_bytes32"
      },
      {
        "astId": 10045,
        "contract": "contracts/lib/mode/bundlers/SSWethSmd.sol:SSWethSmd",
        "label": "_bundlerId",
        "offset": 0,
        "slot": "8",
        "type": "t_bytes32"
      },
      {
        "astId": 10047,
        "contract": "contracts/lib/mode/bundlers/SSWethSmd.sol:SSWethSmd",
        "label": "_slippage",
        "offset": 0,
        "slot": "9",
        "type": "t_uint256"
      },
      {
        "astId": 10049,
        "contract": "contracts/lib/mode/bundlers/SSWethSmd.sol:SSWethSmd",
        "label": "_tickLower",
        "offset": 0,
        "slot": "10",
        "type": "t_int24"
      },
      {
        "astId": 10051,
        "contract": "contracts/lib/mode/bundlers/SSWethSmd.sol:SSWethSmd",
        "label": "_tickUpper",
        "offset": 3,
        "slot": "10",
        "type": "t_int24"
      },
      {
        "astId": 10056,
        "contract": "contracts/lib/mode/bundlers/SSWethSmd.sol:SSWethSmd",
        "label": "_liquidityPositionsByTokenId",
        "offset": 0,
        "slot": "11",
        "type": "t_mapping(t_uint256,t_struct(LiquidityPosition)7508_storage)"
      }
    ],
    "types": {
      "t_address": {
        "encoding": "inplace",
        "label": "address",
        "numberOfBytes": "20"
      },
      "t_bool": {
        "encoding": "inplace",
        "label": "bool",
        "numberOfBytes": "1"
      },
      "t_bytes32": {
        "encoding": "inplace",
        "label": "bytes32",
        "numberOfBytes": "32"
      },
      "t_int24": {
        "encoding": "inplace",
        "label": "int24",
        "numberOfBytes": "3"
      },
      "t_mapping(t_uint256,t_struct(LiquidityPosition)7508_storage)": {
        "encoding": "mapping",
        "key": "t_uint256",
        "label": "mapping(uint256 => struct IWeb3PacksDefs.LiquidityPosition)",
        "numberOfBytes": "32",
        "value": "t_struct(LiquidityPosition)7508_storage"
      },
      "t_struct(LiquidityPosition)7508_storage": {
        "encoding": "inplace",
        "label": "struct IWeb3PacksDefs.LiquidityPosition",
        "members": [
          {
            "astId": 7503,
            "contract": "contracts/lib/mode/bundlers/SSWethSmd.sol:SSWethSmd",
            "label": "lpTokenId",
            "offset": 0,
            "slot": "0",
            "type": "t_uint256"
          },
          {
            "astId": 7505,
            "contract": "contracts/lib/mode/bundlers/SSWethSmd.sol:SSWethSmd",
            "label": "liquidity",
            "offset": 0,
            "slot": "1",
            "type": "t_uint256"
          },
          {
            "astId": 7507,
            "contract": "contracts/lib/mode/bundlers/SSWethSmd.sol:SSWethSmd",
            "label": "stable",
            "offset": 0,
            "slot": "2",
            "type": "t_bool"
          }
        ],
        "numberOfBytes": "96"
      },
      "t_uint256": {
        "encoding": "inplace",
        "label": "uint256",
        "numberOfBytes": "32"
      }
    }
  }
}