{
  "address": "0x94cdfb526040b88BACE8F9a52e310Cf2a04a5727",
  "abi": [
    {
      "inputs": [
        {
          "components": [
            {
              "internalType": "address",
              "name": "weth",
              "type": "address"
            },
            {
              "internalType": "address",
              "name": "token0",
              "type": "address"
            },
            {
              "internalType": "address",
              "name": "token1",
              "type": "address"
            },
            {
              "internalType": "address",
              "name": "manager",
              "type": "address"
            },
            {
              "internalType": "address",
              "name": "swapRouter",
              "type": "address"
            },
            {
              "internalType": "address",
              "name": "liquidityRouter",
              "type": "address"
            },
            {
              "internalType": "bytes32",
              "name": "poolId",
              "type": "bytes32"
            },
            {
              "internalType": "bytes32",
              "name": "bundlerId",
              "type": "bytes32"
            },
            {
              "internalType": "uint256",
              "name": "slippage",
              "type": "uint256"
            },
            {
              "internalType": "int24",
              "name": "tickLower",
              "type": "int24"
            },
            {
              "internalType": "int24",
              "name": "tickUpper",
              "type": "int24"
            }
          ],
          "internalType": "struct IWeb3PacksDefs.RouterConfig",
          "name": "config",
          "type": "tuple"
        },
        {
          "internalType": "address",
          "name": "mode",
          "type": "address"
        }
      ],
      "stateMutability": "nonpayable",
      "type": "constructor"
    },
    {
      "inputs": [
        {
          "internalType": "bytes32",
          "name": "bundlerId",
          "type": "bytes32"
        }
      ],
      "name": "BundlerNotRegistered",
      "type": "error"
    },
    {
      "inputs": [],
      "name": "ContractNotAllowed",
      "type": "error"
    },
    {
      "inputs": [],
      "name": "FundingFailed",
      "type": "error"
    },
    {
      "inputs": [
        {
          "internalType": "uint256",
          "name": "value",
          "type": "uint256"
        },
        {
          "internalType": "uint256",
          "name": "ethPackPrice",
          "type": "uint256"
        },
        {
          "internalType": "uint256",
          "name": "protocolFee",
          "type": "uint256"
        }
      ],
      "name": "InsufficientForFee",
      "type": "error"
    },
    {
      "inputs": [],
      "name": "MismatchedTokens",
      "type": "error"
    },
    {
      "inputs": [
        {
          "internalType": "address",
          "name": "tokenAddress",
          "type": "address"
        }
      ],
      "name": "MissingLiquidityUUID",
      "type": "error"
    },
    {
      "inputs": [],
      "name": "NativeAssetTransferFailed",
      "type": "error"
    },
    {
      "inputs": [],
      "name": "NoBundlesInPack",
      "type": "error"
    },
    {
      "inputs": [],
      "name": "NotOwnerOrApproved",
      "type": "error"
    },
    {
      "inputs": [],
      "name": "NullReceiver",
      "type": "error"
    },
    {
      "inputs": [
        {
          "internalType": "address",
          "name": "tokenOut",
          "type": "address"
        },
        {
          "internalType": "uint256",
          "name": "amountIn",
          "type": "uint256"
        },
        {
          "internalType": "address",
          "name": "router",
          "type": "address"
        }
      ],
      "name": "UnsucessfulSwap",
      "type": "error"
    },
    {
      "anonymous": false,
      "inputs": [
        {
          "indexed": true,
          "internalType": "address",
          "name": "token0",
          "type": "address"
        },
        {
          "indexed": true,
          "internalType": "address",
          "name": "token1",
          "type": "address"
        },
        {
          "indexed": false,
          "internalType": "uint256",
          "name": "amount0",
          "type": "uint256"
        },
        {
          "indexed": false,
          "internalType": "uint256",
          "name": "amount1",
          "type": "uint256"
        },
        {
          "indexed": false,
          "internalType": "uint256",
          "name": "liquidity",
          "type": "uint256"
        }
      ],
      "name": "BundledTokenLP",
      "type": "event"
    },
    {
      "anonymous": false,
      "inputs": [
        {
          "indexed": true,
          "internalType": "address",
          "name": "token",
          "type": "address"
        },
        {
          "indexed": false,
          "internalType": "uint256",
          "name": "amount",
          "type": "uint256"
        }
      ],
      "name": "BundledTokenSS",
      "type": "event"
    },
    {
      "anonymous": false,
      "inputs": [
        {
          "indexed": true,
          "internalType": "address",
          "name": "previousOwner",
          "type": "address"
        },
        {
          "indexed": true,
          "internalType": "address",
          "name": "newOwner",
          "type": "address"
        }
      ],
      "name": "OwnershipTransferred",
      "type": "event"
    },
    {
      "anonymous": false,
      "inputs": [
        {
          "indexed": true,
          "internalType": "address",
          "name": "receiver",
          "type": "address"
        },
        {
          "indexed": true,
          "internalType": "address",
          "name": "tokenAddress",
          "type": "address"
        },
        {
          "indexed": true,
          "internalType": "uint256",
          "name": "tokenId",
          "type": "uint256"
        },
        {
          "indexed": false,
          "internalType": "uint256",
          "name": "amount",
          "type": "uint256"
        }
      ],
      "name": "WithdrawStuckERC1155",
      "type": "event"
    },
    {
      "anonymous": false,
      "inputs": [
        {
          "indexed": true,
          "internalType": "address",
          "name": "receiver",
          "type": "address"
        },
        {
          "indexed": true,
          "internalType": "address",
          "name": "tokenAddress",
          "type": "address"
        },
        {
          "indexed": false,
          "internalType": "uint256",
          "name": "amount",
          "type": "uint256"
        }
      ],
      "name": "WithdrawStuckERC20",
      "type": "event"
    },
    {
      "anonymous": false,
      "inputs": [
        {
          "indexed": true,
          "internalType": "address",
          "name": "receiver",
          "type": "address"
        },
        {
          "indexed": true,
          "internalType": "address",
          "name": "tokenAddress",
          "type": "address"
        },
        {
          "indexed": true,
          "internalType": "uint256",
          "name": "tokenId",
          "type": "uint256"
        }
      ],
      "name": "WithdrawStuckERC721",
      "type": "event"
    },
    {
      "anonymous": false,
      "inputs": [
        {
          "indexed": true,
          "internalType": "address",
          "name": "receiver",
          "type": "address"
        },
        {
          "indexed": false,
          "internalType": "uint256",
          "name": "amount",
          "type": "uint256"
        }
      ],
      "name": "WithdrawStuckEther",
      "type": "event"
    },
    {
      "inputs": [],
      "name": "_bundlerId",
      "outputs": [
        {
          "internalType": "bytes32",
          "name": "",
          "type": "bytes32"
        }
      ],
      "stateMutability": "view",
      "type": "function"
    },
    {
      "inputs": [],
      "name": "_liquidityRouter",
      "outputs": [
        {
          "internalType": "address",
          "name": "",
          "type": "address"
        }
      ],
      "stateMutability": "view",
      "type": "function"
    },
    {
      "inputs": [],
      "name": "_manager",
      "outputs": [
        {
          "internalType": "address",
          "name": "",
          "type": "address"
        }
      ],
      "stateMutability": "view",
      "type": "function"
    },
    {
      "inputs": [],
      "name": "_mode",
      "outputs": [
        {
          "internalType": "address",
          "name": "",
          "type": "address"
        }
      ],
      "stateMutability": "view",
      "type": "function"
    },
    {
      "inputs": [],
      "name": "_poolId",
      "outputs": [
        {
          "internalType": "bytes32",
          "name": "",
          "type": "bytes32"
        }
      ],
      "stateMutability": "view",
      "type": "function"
    },
    {
      "inputs": [],
      "name": "_slippage",
      "outputs": [
        {
          "internalType": "uint256",
          "name": "",
          "type": "uint256"
        }
      ],
      "stateMutability": "view",
      "type": "function"
    },
    {
      "inputs": [],
      "name": "_swapRouter",
      "outputs": [
        {
          "internalType": "address",
          "name": "",
          "type": "address"
        }
      ],
      "stateMutability": "view",
      "type": "function"
    },
    {
      "inputs": [],
      "name": "_tickLower",
      "outputs": [
        {
          "internalType": "int24",
          "name": "",
          "type": "int24"
        }
      ],
      "stateMutability": "view",
      "type": "function"
    },
    {
      "inputs": [],
      "name": "_tickUpper",
      "outputs": [
        {
          "internalType": "int24",
          "name": "",
          "type": "int24"
        }
      ],
      "stateMutability": "view",
      "type": "function"
    },
    {
      "inputs": [],
      "name": "_token0",
      "outputs": [
        {
          "internalType": "address",
          "name": "",
          "type": "address"
        }
      ],
      "stateMutability": "view",
      "type": "function"
    },
    {
      "inputs": [],
      "name": "_token1",
      "outputs": [
        {
          "internalType": "address",
          "name": "",
          "type": "address"
        }
      ],
      "stateMutability": "view",
      "type": "function"
    },
    {
      "inputs": [],
      "name": "_weth",
      "outputs": [
        {
          "internalType": "address",
          "name": "",
          "type": "address"
        }
      ],
      "stateMutability": "view",
      "type": "function"
    },
    {
      "inputs": [
        {
          "internalType": "uint256",
          "name": "",
          "type": "uint256"
        },
        {
          "internalType": "address",
          "name": "sender",
          "type": "address"
        }
      ],
      "name": "bundle",
      "outputs": [
        {
          "internalType": "address",
          "name": "tokenAddress",
          "type": "address"
        },
        {
          "internalType": "uint256",
          "name": "amountOut",
          "type": "uint256"
        },
        {
          "internalType": "uint256",
          "name": "nftTokenId",
          "type": "uint256"
        }
      ],
      "stateMutability": "payable",
      "type": "function"
    },
    {
      "inputs": [
        {
          "components": [
            {
              "internalType": "uint256",
              "name": "lpTokenId",
              "type": "uint256"
            },
            {
              "internalType": "uint256",
              "name": "liquidity",
              "type": "uint256"
            },
            {
              "internalType": "bool",
              "name": "stable",
              "type": "bool"
            }
          ],
          "internalType": "struct IWeb3PacksDefs.LiquidityPosition",
          "name": "",
          "type": "tuple"
        }
      ],
      "name": "collectLpFees",
      "outputs": [
        {
          "internalType": "uint256",
          "name": "amount0",
          "type": "uint256"
        },
        {
          "internalType": "uint256",
          "name": "amount1",
          "type": "uint256"
        }
      ],
      "stateMutability": "nonpayable",
      "type": "function"
    },
    {
      "inputs": [
        {
          "internalType": "bool",
          "name": "stable",
          "type": "bool"
        }
      ],
      "name": "createLiquidityPosition",
      "outputs": [
        {
          "internalType": "uint256",
          "name": "lpTokenId",
          "type": "uint256"
        },
        {
          "internalType": "uint256",
          "name": "liquidity",
          "type": "uint256"
        },
        {
          "internalType": "uint256",
          "name": "amount0",
          "type": "uint256"
        },
        {
          "internalType": "uint256",
          "name": "amount1",
          "type": "uint256"
        }
      ],
      "stateMutability": "nonpayable",
      "type": "function"
    },
    {
      "inputs": [],
      "name": "getBalanceToken0",
      "outputs": [
        {
          "internalType": "uint256",
          "name": "balanceToken0",
          "type": "uint256"
        }
      ],
      "stateMutability": "view",
      "type": "function"
    },
    {
      "inputs": [],
      "name": "getBalanceToken1",
      "outputs": [
        {
          "internalType": "uint256",
          "name": "balanceToken1",
          "type": "uint256"
        }
      ],
      "stateMutability": "view",
      "type": "function"
    },
    {
      "inputs": [],
      "name": "getBalanceWeth",
      "outputs": [
        {
          "internalType": "uint256",
          "name": "balanceWeth",
          "type": "uint256"
        }
      ],
      "stateMutability": "view",
      "type": "function"
    },
    {
      "inputs": [],
      "name": "getLiquidityAmounts",
      "outputs": [
        {
          "internalType": "uint256",
          "name": "amount0",
          "type": "uint256"
        },
        {
          "internalType": "uint256",
          "name": "amount1",
          "type": "uint256"
        },
        {
          "internalType": "uint256",
          "name": "minAmount0",
          "type": "uint256"
        },
        {
          "internalType": "uint256",
          "name": "minAmount1",
          "type": "uint256"
        }
      ],
      "stateMutability": "view",
      "type": "function"
    },
    {
      "inputs": [
        {
          "internalType": "uint256",
          "name": "",
          "type": "uint256"
        }
      ],
      "name": "getLiquidityToken",
      "outputs": [
        {
          "internalType": "address",
          "name": "tokenAddress",
          "type": "address"
        },
        {
          "internalType": "uint256",
          "name": "tokenId",
          "type": "uint256"
        }
      ],
      "stateMutability": "view",
      "type": "function"
    },
    {
      "inputs": [
        {
          "internalType": "bool",
          "name": "reverse",
          "type": "bool"
        }
      ],
      "name": "getOrderedAssets",
      "outputs": [
        {
          "internalType": "address[]",
          "name": "",
          "type": "address[]"
        },
        {
          "internalType": "uint256[]",
          "name": "",
          "type": "uint256[]"
        }
      ],
      "stateMutability": "view",
      "type": "function"
    },
    {
      "inputs": [],
      "name": "getToken0",
      "outputs": [
        {
          "components": [
            {
              "internalType": "address",
              "name": "tokenAddress",
              "type": "address"
            },
            {
              "internalType": "uint256",
              "name": "tokenDecimals",
              "type": "uint256"
            },
            {
              "internalType": "string",
              "name": "tokenSymbol",
              "type": "string"
            }
          ],
          "internalType": "struct IWeb3PacksDefs.Token",
          "name": "token0",
          "type": "tuple"
        }
      ],
      "stateMutability": "view",
      "type": "function"
    },
    {
      "inputs": [],
      "name": "getToken1",
      "outputs": [
        {
          "components": [
            {
              "internalType": "address",
              "name": "tokenAddress",
              "type": "address"
            },
            {
              "internalType": "uint256",
              "name": "tokenDecimals",
              "type": "uint256"
            },
            {
              "internalType": "string",
              "name": "tokenSymbol",
              "type": "string"
            }
          ],
          "internalType": "struct IWeb3PacksDefs.Token",
          "name": "token1",
          "type": "tuple"
        }
      ],
      "stateMutability": "view",
      "type": "function"
    },
    {
      "inputs": [
        {
          "internalType": "bool",
          "name": "reverse",
          "type": "bool"
        }
      ],
      "name": "getTokenPath",
      "outputs": [
        {
          "components": [
            {
              "internalType": "address",
              "name": "token0",
              "type": "address"
            },
            {
              "internalType": "address",
              "name": "token1",
              "type": "address"
            },
            {
              "internalType": "bool",
              "name": "stable",
              "type": "bool"
            }
          ],
          "internalType": "struct IWeb3PacksDefs.Route[]",
          "name": "tokenPath",
          "type": "tuple[]"
        }
      ],
      "stateMutability": "view",
      "type": "function"
    },
    {
      "inputs": [
        {
          "internalType": "address",
          "name": "",
          "type": "address"
        },
        {
          "internalType": "address",
          "name": "",
          "type": "address"
        },
        {
          "internalType": "uint256",
          "name": "",
          "type": "uint256"
        },
        {
          "internalType": "bytes",
          "name": "",
          "type": "bytes"
        }
      ],
      "name": "onERC721Received",
      "outputs": [
        {
          "internalType": "bytes4",
          "name": "",
          "type": "bytes4"
        }
      ],
      "stateMutability": "pure",
      "type": "function"
    },
    {
      "inputs": [],
      "name": "owner",
      "outputs": [
        {
          "internalType": "address",
          "name": "",
          "type": "address"
        }
      ],
      "stateMutability": "view",
      "type": "function"
    },
    {
      "inputs": [
        {
          "components": [
            {
              "internalType": "uint256",
              "name": "lpTokenId",
              "type": "uint256"
            },
            {
              "internalType": "uint256",
              "name": "liquidity",
              "type": "uint256"
            },
            {
              "internalType": "bool",
              "name": "stable",
              "type": "bool"
            }
          ],
          "internalType": "struct IWeb3PacksDefs.LiquidityPosition",
          "name": "liquidityPosition",
          "type": "tuple"
        }
      ],
      "name": "removeLiquidityPosition",
      "outputs": [
        {
          "internalType": "uint256",
          "name": "amount0",
          "type": "uint256"
        },
        {
          "internalType": "uint256",
          "name": "amount1",
          "type": "uint256"
        }
      ],
      "stateMutability": "nonpayable",
      "type": "function"
    },
    {
      "inputs": [],
      "name": "renounceOwnership",
      "outputs": [],
      "stateMutability": "nonpayable",
      "type": "function"
    },
    {
      "inputs": [
        {
          "internalType": "address",
          "name": "router",
          "type": "address"
        }
      ],
      "name": "setLiquidityRouter",
      "outputs": [],
      "stateMutability": "nonpayable",
      "type": "function"
    },
    {
      "inputs": [
        {
          "internalType": "address",
          "name": "manager",
          "type": "address"
        }
      ],
      "name": "setManager",
      "outputs": [],
      "stateMutability": "nonpayable",
      "type": "function"
    },
    {
      "inputs": [
        {
          "internalType": "uint256",
          "name": "slippage",
          "type": "uint256"
        }
      ],
      "name": "setSlippage",
      "outputs": [],
      "stateMutability": "nonpayable",
      "type": "function"
    },
    {
      "inputs": [
        {
          "internalType": "address",
          "name": "router",
          "type": "address"
        }
      ],
      "name": "setSwapRouter",
      "outputs": [],
      "stateMutability": "nonpayable",
      "type": "function"
    },
    {
      "inputs": [
        {
          "internalType": "int24",
          "name": "tickLower",
          "type": "int24"
        }
      ],
      "name": "setTickLower",
      "outputs": [],
      "stateMutability": "nonpayable",
      "type": "function"
    },
    {
      "inputs": [
        {
          "internalType": "int24",
          "name": "tickUpper",
          "type": "int24"
        }
      ],
      "name": "setTickUpper",
      "outputs": [],
      "stateMutability": "nonpayable",
      "type": "function"
    },
    {
      "inputs": [
        {
          "internalType": "address",
          "name": "weth",
          "type": "address"
        }
      ],
      "name": "setWeth",
      "outputs": [],
      "stateMutability": "nonpayable",
      "type": "function"
    },
    {
      "inputs": [
        {
          "internalType": "uint256",
          "name": "percentOfAmount",
          "type": "uint256"
        },
        {
          "internalType": "address",
          "name": "token0",
          "type": "address"
        },
        {
          "internalType": "address",
          "name": "token1",
          "type": "address"
        }
      ],
      "name": "swapCustom",
      "outputs": [
        {
          "internalType": "uint256",
          "name": "amountOut",
          "type": "uint256"
        }
      ],
      "stateMutability": "nonpayable",
      "type": "function"
    },
    {
      "inputs": [
        {
          "internalType": "uint256",
          "name": "percentOfAmount",
          "type": "uint256"
        },
        {
          "internalType": "bool",
          "name": "reverse",
          "type": "bool"
        }
      ],
      "name": "swapSingle",
      "outputs": [
        {
          "internalType": "uint256",
          "name": "amountOut",
          "type": "uint256"
        }
      ],
      "stateMutability": "nonpayable",
      "type": "function"
    },
    {
      "inputs": [
        {
          "internalType": "address",
          "name": "newOwner",
          "type": "address"
        }
      ],
      "name": "transferOwnership",
      "outputs": [],
      "stateMutability": "nonpayable",
      "type": "function"
    },
    {
      "inputs": [
        {
          "internalType": "address payable",
          "name": "receiver",
          "type": "address"
        },
        {
          "internalType": "uint256",
          "name": "",
          "type": "uint256"
        },
        {
          "internalType": "bool",
          "name": "sellAll",
          "type": "bool"
        }
      ],
      "name": "unbundle",
      "outputs": [
        {
          "internalType": "uint256",
          "name": "ethAmountOut",
          "type": "uint256"
        }
      ],
      "stateMutability": "nonpayable",
      "type": "function"
    },
    {
      "inputs": [
        {
          "internalType": "address payable",
          "name": "receiver",
          "type": "address"
        },
        {
          "internalType": "address",
          "name": "tokenAddress",
          "type": "address"
        },
        {
          "internalType": "uint256",
          "name": "tokenId",
          "type": "uint256"
        },
        {
          "internalType": "uint256",
          "name": "amount",
          "type": "uint256"
        }
      ],
      "name": "withdrawERC1155",
      "outputs": [],
      "stateMutability": "nonpayable",
      "type": "function"
    },
    {
      "inputs": [
        {
          "internalType": "address payable",
          "name": "receiver",
          "type": "address"
        },
        {
          "internalType": "address",
          "name": "tokenAddress",
          "type": "address"
        },
        {
          "internalType": "uint256",
          "name": "tokenId",
          "type": "uint256"
        }
      ],
      "name": "withdrawERC721",
      "outputs": [],
      "stateMutability": "nonpayable",
      "type": "function"
    },
    {
      "inputs": [
        {
          "internalType": "address payable",
          "name": "receiver",
          "type": "address"
        },
        {
          "internalType": "address",
          "name": "tokenAddress",
          "type": "address"
        },
        {
          "internalType": "uint256",
          "name": "amount",
          "type": "uint256"
        }
      ],
      "name": "withdrawErc20",
      "outputs": [],
      "stateMutability": "nonpayable",
      "type": "function"
    },
    {
      "inputs": [
        {
          "internalType": "address payable",
          "name": "receiver",
          "type": "address"
        },
        {
          "internalType": "uint256",
          "name": "amount",
          "type": "uint256"
        }
      ],
      "name": "withdrawEther",
      "outputs": [],
      "stateMutability": "nonpayable",
      "type": "function"
    },
    {
      "stateMutability": "payable",
      "type": "receive"
    }
  ],
  "transactionHash": "0xbdaee3d8a93a683fd6558dccdd4e857aa2b97fca96ab798d49e84e8a9c3ee584",
  "args": [
    {
      "weth": "0x4200000000000000000000000000000000000006",
      "token0": "0x4200000000000000000000000000000000000006",
      "token1": "0x95177295A394f2b9B04545FFf58f4aF0673E839d",
      "manager": "0xEEC393142db33eb94C18f3d5514888Ad5e7BECc2",
      "swapRouter": "0x3a63171DD9BebF4D07BC782FECC7eb0b890C2A45",
      "liquidityRouter": "0x3a63171DD9BebF4D07BC782FECC7eb0b890C2A45",
      "poolId": "0x0000000000000000000000000000000000000000000000000000000000000000",
      "bundlerId": "0x53532d574554482d49434c000000000000000000000000000000000000000000",
      "slippage": "300",
      "tickLower": "-887220",
      "tickUpper": "887220"
    },
    "0xDfc7C877a950e49D2610114102175A06C2e3167a"
  ],
  "numDeployments": 1,
  "solcInputHash": "d8b852bd036582cb15fa077fe9c1fdff",
  "bytecode": "0x60806040523480156200001157600080fd5b5060405162003bb838038062003bb88339810160408190526200003491620001eb565b8180620000413362000133565b8051600180546001600160a01b03199081166001600160a01b0393841617909155602083015160038054831691841691909117905560408301516004805483169184169190911790556060830151600280548316918416919091179055608083015160058054831691841691909117905560a083015160068054831691841691909117905560c083015160075560e0830151600855610100830151600955610120830151600a80546101409095015162ffffff92831665ffffffffffff19909616959095176301000000929095169190910293909317909255600c805490921693169290921790915550620002ee9050565b600080546001600160a01b038381166001600160a01b0319831681178455604051919092169283917f8be0079c531659141344cd1fd0a4f28419497f9722a3daafe3b4186f6b6457e09190a35050565b60405161016081016001600160401b0381118282101715620001b557634e487b7160e01b600052604160045260246000fd5b60405290565b80516001600160a01b0381168114620001d357600080fd5b919050565b8051600281900b8114620001d357600080fd5b6000808284036101808112156200020157600080fd5b610160808212156200021257600080fd5b6200021c62000183565b91506200022985620001bb565b82526200023960208601620001bb565b60208301526200024c60408601620001bb565b60408301526200025f60608601620001bb565b60608301526200027260808601620001bb565b60808301526200028560a08601620001bb565b60a083015260c085015160c083015260e085015160e0830152610100808601518184015250610120620002ba818701620001d8565b90830152610140620002ce868201620001d8565b8184015250819350620002e3818601620001bb565b925050509250929050565b6138ba80620002fe6000396000f3fe6080604052600436106102e05760003560e01c8063a176459511610184578063cc427bad116100d6578063e6ef0f661161008a578063f0fa55a911610064578063f0fa55a914610953578063f2fde38b14610973578063f54da1e21461099357600080fd5b8063e6ef0f6614610903578063e7d0c49814610919578063f0329f6b1461093357600080fd5b8063d0ebdbe7116100bb578063d0ebdbe7146108ad578063d8102529146108cd578063daa63ae2146108e357600080fd5b8063cc427bad1461086d578063cd6e18f11461088d57600080fd5b8063b30d0aa211610138578063bfe075e011610112578063bfe075e0146107f9578063c5c03af314610838578063cb75436b1461085857600080fd5b8063b30d0aa21461073a578063b8d1452f1461076f578063ba94a3151461078f57600080fd5b8063a5835ff911610169578063a5835ff9146106da578063a7755866146106fa578063a7cfa4511461071a57600080fd5b8063a17645951461068c578063a2d003c7146106ac57600080fd5b8063496b35b91161023d5780637440d0fb116101f15780638da5cb5b116101cb5780638da5cb5b146106215780638db738b11461063f578063a0edb48b1461066c57600080fd5b80637440d0fb146105cc57806385497dc1146105ec57806387e36e601461060c57600080fd5b8063522f681511610222578063522f6815146105255780636f26a71014610545578063715018a6146105b757600080fd5b8063496b35b9146104e55780634ef4ebaf1461050557600080fd5b806320ff415f116102945780634025feb2116102795780634025feb21461048257806341273657146104a257806346fc8a77146104c257600080fd5b806320ff415f1461042d578063221ea0751461046257600080fd5b80631593dee1116102c55780631593dee11461039b5780631b22a4f0146103bd578063206c17bb146103f557600080fd5b80630f74be62146102ec578063150b7a021461032557600080fd5b366102e757005b600080fd5b3480156102f857600080fd5b50600a5461030d906301000000900460020b81565b60405160029190910b81526020015b60405180910390f35b34801561033157600080fd5b5061036a610340366004613114565b7f150b7a020000000000000000000000000000000000000000000000000000000095945050505050565b6040517fffffffff00000000000000000000000000000000000000000000000000000000909116815260200161031c565b3480156103a757600080fd5b506103bb6103b63660046131b3565b6109a9565b005b6103d06103cb3660046131f4565b6109c1565b604080516001600160a01b03909416845260208401929092529082015260600161031c565b34801561040157600080fd5b50600554610415906001600160a01b031681565b6040516001600160a01b03909116815260200161031c565b34801561043957600080fd5b5061044d610448366004613279565b610b2a565b6040805192835260208301919091520161031c565b34801561046e57600080fd5b506103bb61047d3660046132db565b610bb6565b34801561048e57600080fd5b506103bb61049d3660046131b3565b610bd8565b3480156104ae57600080fd5b506103bb6104bd3660046132fe565b610beb565b3480156104ce57600080fd5b506104d7610c15565b60405190815260200161031c565b3480156104f157600080fd5b50600454610415906001600160a01b031681565b34801561051157600080fd5b50600354610415906001600160a01b031681565b34801561053157600080fd5b506103bb61054036600461331b565b610ce4565b34801561055157600080fd5b5060408051606080820183526000808352602080840191909152918301819052825190810183526004546001600160a01b031681526012818301528251808401845260038152621250d360ea1b92810192909252918201525b60405161031c9190613397565b3480156105c357600080fd5b506103bb610cfa565b3480156105d857600080fd5b506104d76105e73660046133cf565b610d0e565b3480156105f857600080fd5b506103bb6106073660046132db565b610ede565b34801561061857600080fd5b506104d7610f0a565b34801561062d57600080fd5b506000546001600160a01b0316610415565b34801561064b57600080fd5b5061065f61065a366004613411565b610f6a565b60405161031c919061342e565b34801561067857600080fd5b506103bb6106873660046134a2565b611249565b34801561069857600080fd5b50600154610415906001600160a01b031681565b3480156106b857600080fd5b506106cc6106c7366004613411565b611263565b60405161031c9291906134e8565b3480156106e657600080fd5b506104d76106f536600461356c565b6114ff565b34801561070657600080fd5b5061044d610715366004613279565b61184f565b34801561072657600080fd5b50600654610415906001600160a01b031681565b34801561074657600080fd5b5061074f611a8e565b60408051948552602085019390935291830152606082015260800161031c565b34801561077b57600080fd5b506103bb61078a3660046132fe565b611b00565b34801561079b57600080fd5b5060408051606080820183526000808352602080840191909152918301819052825190810183526001546001600160a01b031681526012818301528251808401845260048152630ae8aa8960e31b92810192909252918201526105aa565b34801561080557600080fd5b50610819610814366004613591565b611b2a565b604080516001600160a01b03909316835260208301919091520161031c565b34801561084457600080fd5b50600c54610415906001600160a01b031681565b34801561086457600080fd5b506104d7611b95565b34801561087957600080fd5b506104d76108883660046135aa565b611bc6565b34801561089957600080fd5b506103bb6108a83660046132fe565b611cdf565b3480156108b957600080fd5b506103bb6108c83660046132fe565b611d09565b3480156108d957600080fd5b506104d760075481565b3480156108ef57600080fd5b5061074f6108fe366004613411565b611d33565b34801561090f57600080fd5b506104d760085481565b34801561092557600080fd5b50600a5461030d9060020b81565b34801561093f57600080fd5b50600254610415906001600160a01b031681565b34801561095f57600080fd5b506103bb61096e366004613591565b611fb8565b34801561097f57600080fd5b506103bb61098e3660046132fe565b611fc5565b34801561099f57600080fd5b506104d760095481565b6109b1612055565b6109bc8383836120af565b505050565b600254600090819081906001600160a01b03163314806109e057503330145b610a495760405162461bcd60e51b815260206004820152602f60248201527f576562335061636b73526f7574657242617365202d20496e76616c696420576560448201526e3119a830b1b5b99026b0b730b3b2b960891b60648201526084015b60405180910390fd5b610a5661271060006114ff565b9150610ab560408051606080820183526000808352602080840191909152918301819052825190810183526004546001600160a01b031681526012818301528251808401845260038152621250d360ea1b928101929092529182015290565b5160025490935060009150610ad59084906001600160a01b0316846121c6565b610ade846122e1565b5050826001600160a01b03167feeb24a104634ac471bb06ef0ccbeb5ea3f19bc6a55af51c9096d0bf63fd83ab283604051610b1b91815260200190565b60405180910390a29250925092565b60025460009081906001600160a01b0316331480610b4757503330145b610bab5760405162461bcd60e51b815260206004820152602f60248201527f576562335061636b73526f7574657242617365202d20496e76616c696420576560448201526e3119a830b1b5b99026b0b730b3b2b960891b6064820152608401610a40565b506000928392509050565b610bbe612055565b600a805462ffffff191662ffffff92909216919091179055565b610be0612055565b6109bc8383836123da565b610bf3612055565b600580546001600160a01b0319166001600160a01b0392909216919091179055565b6000610c7460408051606080820183526000808352602080840191909152918301819052825190810183526004546001600160a01b031681526012818301528251808401845260038152621250d360ea1b928101929092529182015290565b516040516370a0823160e01b81523060048201526001600160a01b03909116906370a08231906024015b602060405180830381865afa158015610cbb573d6000803e3d6000fd5b505050506040513d601f19601f82011682018060405250810190610cdf91906135e1565b905090565b610cec612055565b610cf68282612575565b5050565b610d02612055565b610d0c6000612617565b565b6002546000906001600160a01b0316331480610d2957503330145b610d8d5760405162461bcd60e51b815260206004820152602f60248201527f576562335061636b73526f7574657242617365202d20496e76616c696420576560448201526e3119a830b1b5b99026b0b730b3b2b960891b6064820152608401610a40565b6000610d996000610f6a565b90506000815167ffffffffffffffff811115610db757610db7613224565b604051908082528060200260200182016040528015610e0257816020015b6040805160608101825260008082526020808301829052928201528252600019909201910181610dd55790505b50905060005b8251811015610ec7576040518060600160405280848381518110610e2e57610e2e6135fa565b6020026020010151600001516001600160a01b03168152602001848381518110610e5a57610e5a6135fa565b6020026020010151602001516001600160a01b03168152602001848381518110610e8657610e866135fa565b6020026020010151604001511515815250828281518110610ea957610ea96135fa565b60200260200101819052508080610ebf90613626565b915050610e08565b50610ed486868684612667565b9695505050505050565b610ee6612055565b600a805462ffffff90921663010000000265ffffff00000019909216919091179055565b6000610c7460408051606080820183526000808352602080840191909152918301819052825190810183526001546001600160a01b031681526012818301528251808401845260048152630ae8aa8960e31b928101929092529182015290565b604080516002808252606082810190935260009190816020015b6040805160608101825260008082526020808301829052928201528252600019909201910181610f84579050509050821561110057604051806060016040528061102160408051606080820183526000808352602080840191909152918301819052825190810183526004546001600160a01b031681526012818301528251808401845260038152621250d360ea1b928101929092529182015290565b516001600160a01b039081168252600c54166020820152600060409091018190528251839190611053576110536135fa565b6020908102919091018101919091526040805160608082018352600c546001600160a01b039081168352835180830185526000808252818701528401829052835191820184526001541681526012818501528251808401845260048152630ae8aa8960e31b818601529281019290925291820190516001600160a01b0316815260006020909101528151829060019081106110f0576110f06135fa565b6020026020010181905250611243565b604051806060016040528061116960408051606080820183526000808352602080840191909152918301819052825190810183526001546001600160a01b031681526012818301528251808401845260048152630ae8aa8960e31b928101929092529182015290565b516001600160a01b039081168252600c5416602082015260006040909101819052825183919061119b5761119b6135fa565b6020908102919091018101919091526040805160608082018352600c546001600160a01b039081168352835180830185526000808252818701528401829052835191820184526004541681526012818501528251808401845260038152621250d360ea1b818601529281019290925291820190516001600160a01b031681526000602090910152815182906001908110611237576112376135fa565b60200260200101819052505b92915050565b611251612055565b61125d8484848461281e565b50505050565b60408051600280825260608281019093528291600091816020016020820280368337019050509050836112ee5760408051606080820183526000808352602080840191909152918301819052825190810183526001546001600160a01b031681526012818301528251808401845260048152630ae8aa8960e31b928101929092529182015251611347565b60408051606080820183526000808352602080840191909152918301819052825190810183526004546001600160a01b031681526012818301528251808401845260038152621250d360ea1b9281019290925291820152515b8160008151811061135a5761135a6135fa565b60200260200101906001600160a01b031690816001600160a01b031681525050836113dc5760408051606080820183526000808352602080840191909152918301819052825190810183526004546001600160a01b031681526012818301528251808401845260038152621250d360ea1b928101929092529182015251611436565b60408051606080820183526000808352602080840191909152918301819052825190810183526001546001600160a01b031681526012818301528251808401845260048152630ae8aa8960e31b9281019290925291820152515b81600181518110611449576114496135fa565b6001600160a01b039290921660209283029190910182015260408051600280825260608201835260009391929091830190803683370190505090508461149657611491610f0a565b61149e565b61149e610c15565b816000815181106114b1576114b16135fa565b602002602001018181525050846114cf576114ca610c15565b6114d7565b6114d7610f0a565b816001815181106114ea576114ea6135fa565b60209081029190910101529094909350915050565b6002546000906001600160a01b031633148061151a57503330145b61157e5760405162461bcd60e51b815260206004820152602f60248201527f576562335061636b73526f7574657242617365202d20496e76616c696420576560448201526e3119a830b1b5b99026b0b730b3b2b960891b6064820152608401610a40565b6000826115e25760408051606080820183526000808352602080840191909152918301819052825190810183526001546001600160a01b031681526012818301528251808401845260048152630ae8aa8960e31b928101929092529182015261163a565b60408051606080820183526000808352602080840191909152918301819052825190810183526004546001600160a01b031681526012818301528251808401845260038152621250d360ea1b92810192909252918201525b905060008361169f5760408051606080820183526000808352602080840191909152918301819052825190810183526004546001600160a01b031681526012818301528251808401845260038152621250d360ea1b92810192909252918201526116f8565b60408051606080820183526000808352602080840191909152918301819052825190810183526001546001600160a01b031681526012818301528251808401845260048152630ae8aa8960e31b92810192909252918201525b9050600061170585610f6a565b90506000815167ffffffffffffffff81111561172357611723613224565b60405190808252806020026020018201604052801561176e57816020015b60408051606081018252600080825260208083018290529282015282526000199092019101816117415790505b50905060005b825181101561183357604051806060016040528084838151811061179a5761179a6135fa565b6020026020010151600001516001600160a01b031681526020018483815181106117c6576117c66135fa565b6020026020010151602001516001600160a01b031681526020018483815181106117f2576117f26135fa565b6020026020010151604001511515815250828281518110611815576118156135fa565b6020026020010181905250808061182b90613626565b915050611774565b508351835161184491899184612667565b979650505050505050565b60025460009081906001600160a01b031633148061186c57503330145b6118d05760405162461bcd60e51b815260206004820152602f60248201527f576562335061636b73526f7574657242617365202d20496e76616c696420576560448201526e3119a830b1b5b99026b0b730b3b2b960891b6064820152608401610a40565b600061193060408051606080820183526000808352602080840191909152918301819052825190810183526001546001600160a01b031681526012818301528251808401845260048152630ae8aa8960e31b928101929092529182015290565b9050600061199160408051606080820183526000808352602080840191909152918301819052825190810183526004546001600160a01b031681526012818301528251808401845260038152621250d360ea1b928101929092529182015290565b9050600061199d6129d7565b60065460208801519192506119bd9183916001600160a01b031690612b3b565b6006548351835160408981015160208b015191517f0dede6c40000000000000000000000000000000000000000000000000000000081526001600160a01b039485166004820152928416602484015215156044830152606482015260006084820181905260a48201523060c48201524260e4820152911690630dede6c4906101040160408051808303816000875af1158015611a5d573d6000803e3d6000fd5b505050506040513d601f19601f82011682018060405250810190611a81919061363f565b9097909650945050505050565b600080600080611a9c610f0a565b9350611aa6610c15565b9250612710600954612710611abb9190613663565b611ac59086613676565b611acf919061368d565b9150612710600954612710611ae49190613663565b611aee9085613676565b611af8919061368d565b905090919293565b611b08612055565b600180546001600160a01b0319166001600160a01b0392909216919091179055565b600080611b8a60408051606080820183526000808352602080840191909152918301819052825190810183526004546001600160a01b031681526012818301528251808401845260038152621250d360ea1b928101929092529182015290565b519360009350915050565b6001546040516370a0823160e01b81523060048201526000916001600160a01b0316906370a0823190602401610c9e565b6002546000906001600160a01b0316331480611be157503330145b611c455760405162461bcd60e51b815260206004820152602f60248201527f576562335061636b73526f7574657242617365202d20496e76616c696420576560448201526e3119a830b1b5b99026b0b730b3b2b960891b6064820152608401610a40565b8115611c6957611c5861271060016114ff565b50611c6284612c68565b9050611cd8565b611cd8611cc960408051606080820183526000808352602080840191909152918301819052825190810183526004546001600160a01b031681526012818301528251808401845260038152621250d360ea1b928101929092529182015290565b5185611cd3610c15565b6121c6565b9392505050565b611ce7612055565b600680546001600160a01b0319166001600160a01b0392909216919091179055565b611d11612055565b600280546001600160a01b0319166001600160a01b0392909216919091179055565b6002546000908190819081906001600160a01b0316331480611d5457503330145b611db85760405162461bcd60e51b815260206004820152602f60248201527f576562335061636b73526f7574657242617365202d20496e76616c696420576560448201526e3119a830b1b5b99026b0b730b3b2b960891b6064820152608401610a40565b6000611e1860408051606080820183526000808352602080840191909152918301819052825190810183526001546001600160a01b031681526012818301528251808401845260048152630ae8aa8960e31b928101929092529182015290565b90506000611e7960408051606080820183526000808352602080840191909152918301819052825190810183526004546001600160a01b031681526012818301528251808401845260038152621250d360ea1b928101929092529182015290565b9050600080600080611e89611a8e565b89516006549498509296509094509250611eac916001600160a01b031686612b3b565b8451600654611ec591906001600160a01b031685612b3b565b600654865186516040517f5a47ddc30000000000000000000000000000000000000000000000000000000081526001600160a01b03928316600482015290821660248201528d15156044820152606481018790526084810186905260a4810185905260c481018490523060e482015242610104820152911690635a47ddc390610124016060604051808303816000875af1158015611f67573d6000803e3d6000fd5b505050506040513d601f19601f82011682018060405250810190611f8b91906136af565b9a5090985096506000611f9c6129d7565b9050806001600160a01b03169a50505050505050509193509193565b611fc0612055565b600955565b611fcd612055565b6001600160a01b0381166120495760405162461bcd60e51b815260206004820152602660248201527f4f776e61626c653a206e6577206f776e657220697320746865207a65726f206160448201527f64647265737300000000000000000000000000000000000000000000000000006064820152608401610a40565b61205281612617565b50565b6000546001600160a01b03163314610d0c5760405162461bcd60e51b815260206004820181905260248201527f4f776e61626c653a2063616c6c6572206973206e6f7420746865206f776e65726044820152606401610a40565b6001600160a01b0383166120f15760405162461bcd60e51b81526020600482015260096024820152684248503a452d34303360b81b6044820152606401610a40565b6040516370a0823160e01b815230600482015281906001600160a01b038416906370a0823190602401602060405180830381865afa158015612137573d6000803e3d6000fd5b505050506040513d601f19601f8201168201806040525081019061215b91906135e1565b106109bc576121746001600160a01b0383168483612d15565b816001600160a01b0316836001600160a01b03167f6c9d637297625e945b296ff73a71fcfbd0a9e062652b6491a921c4c60194176b836040516121b991815260200190565b60405180910390a3505050565b604080516001600160a01b038481166024830152604480830185905283518084039091018152606490920183526020820180516001600160e01b031663a9059cbb60e01b179052915160009283929087169161222291906136dd565b6000604051808303816000865af19150503d806000811461225f576040519150601f19603f3d011682016040523d82523d6000602084013e612264565b606091505b509150915081801561228e57508051158061228e57508080602001905181019061228e91906136f9565b6122da5760405162461bcd60e51b815260206004820152600260248201527f53540000000000000000000000000000000000000000000000000000000000006044820152606401610a40565b5050505050565b6000806122ec610f0a565b9150811561235d5761235d61235560408051606080820183526000808352602080840191909152918301819052825190810183526001546001600160a01b031681526012818301528251808401845260048152630ae8aa8960e31b928101929092529182015290565b5184846121c6565b612365610c15565b905080156123d5576123d56123cd60408051606080820183526000808352602080840191909152918301819052825190810183526004546001600160a01b031681526012818301528251808401845260038152621250d360ea1b928101929092529182015290565b5184836121c6565b915091565b6001600160a01b03831661241c5760405162461bcd60e51b81526020600482015260096024820152684248503a452d34303360b81b6044820152606401610a40565b6040517f6352211e0000000000000000000000000000000000000000000000000000000081526004810182905230906001600160a01b03841690636352211e90602401602060405180830381865afa15801561247c573d6000803e3d6000fd5b505050506040513d601f19601f820116820180604052508101906124a09190613716565b6001600160a01b0316036109bc576040517f23b872dd0000000000000000000000000000000000000000000000000000000081523060048201526001600160a01b038481166024830152604482018390528316906323b872dd90606401600060405180830381600087803b15801561251757600080fd5b505af115801561252b573d6000803e3d6000fd5b5050505080826001600160a01b0316846001600160a01b03167ffefe036cac4ee3a4aca074a81cbcc4376e1484693289078dbec149c890101d5b60405160405180910390a4505050565b6001600160a01b0382166125b75760405162461bcd60e51b81526020600482015260096024820152684248503a452d34303360b81b6044820152606401610a40565b804710610cf6576125d16001600160a01b03831682612d67565b816001600160a01b03167eddb683bb45cd5d0ad8a200c6fae7152b1c236ee90a4a37db692407f5cc38bd8260405161260b91815260200190565b60405180910390a25050565b600080546001600160a01b038381166001600160a01b0319831681178455604051919092169283917f8be0079c531659141344cd1fd0a4f28419497f9722a3daafe3b4186f6b6457e09190a35050565b6040516370a0823160e01b815230600482015260009081906001600160a01b038616906370a0823190602401602060405180830381865afa1580156126b0573d6000803e3d6000fd5b505050506040513d601f19601f820116820180604052508101906126d491906135e1565b905060006127106126e58884613676565b6126ef919061368d565b905080156128145760055461270f9087906001600160a01b031683612b3b565b6005546040517ff41766d80000000000000000000000000000000000000000000000000000000081526001600160a01b039091169063f41766d890612761908490600090899030904290600401613733565b6000604051808303816000875af1158015612780573d6000803e3d6000fd5b505050506040513d6000823e601f3d908101601f191682016040526127a891908101906137cb565b506040516370a0823160e01b81523060048201526001600160a01b038616906370a0823190602401602060405180830381865afa1580156127ed573d6000803e3d6000fd5b505050506040513d601f19601f8201168201806040525081019061281191906135e1565b92505b5050949350505050565b6001600160a01b0384166128605760405162461bcd60e51b81526020600482015260096024820152684248503a452d34303360b81b6044820152606401610a40565b6040517efdd58e0000000000000000000000000000000000000000000000000000000081523060048201526024810183905281906001600160a01b0385169062fdd58e90604401602060405180830381865afa1580156128c4573d6000803e3d6000fd5b505050506040513d601f19601f820116820180604052508101906128e891906135e1565b1061125d576040517ff242432a0000000000000000000000000000000000000000000000000000000081523060048201526001600160a01b038581166024830152604482018490526064820183905260a06084830152600060a483015284169063f242432a9060c401600060405180830381600087803b15801561296b57600080fd5b505af115801561297f573d6000803e3d6000fd5b5050505081836001600160a01b0316856001600160a01b03167f620337bf89eea2b9ae2657beead83b5fa620452817118348aff96e201d52598b846040516129c991815260200190565b60405180910390a450505050565b600080612a3860408051606080820183526000808352602080840191909152918301819052825190810183526001546001600160a01b031681526012818301528251808401845260048152630ae8aa8960e31b928101929092529182015290565b90506000612a9960408051606080820183526000808352602080840191909152918301819052825190810183526004546001600160a01b031681526012818301528251808401845260038152621250d360ea1b928101929092529182015290565b600654835182516040517f28eb0b4a0000000000000000000000000000000000000000000000000000000081526001600160a01b03928316600482015290821660248201526000604482015292935016906328eb0b4a90606401602060405180830381865afa158015612b10573d6000803e3d6000fd5b505050506040513d601f19601f82011682018060405250810190612b349190613716565b9250505090565b604080516001600160a01b038481166024830152604480830185905283518084039091018152606490920183526020820180516001600160e01b03167f095ea7b3000000000000000000000000000000000000000000000000000000001790529151600092839290871691612bb091906136dd565b6000604051808303816000865af19150503d8060008114612bed576040519150601f19603f3d011682016040523d82523d6000602084013e612bf2565b606091505b5091509150818015612c1c575080511580612c1c575080806020019051810190612c1c91906136f9565b6122da5760405162461bcd60e51b815260206004820152600260248201527f53410000000000000000000000000000000000000000000000000000000000006044820152606401610a40565b600080612c73611b95565b90508015612cf3576001546040517f2e1a7d4d000000000000000000000000000000000000000000000000000000008152600481018390526001600160a01b0390911690632e1a7d4d90602401600060405180830381600087803b158015612cda57600080fd5b505af1158015612cee573d6000803e3d6000fd5b505050505b4791508115612d0f57612d0f6001600160a01b03841683612d67565b50919050565b604080516001600160a01b038416602482015260448082018490528251808303909101815260649091019091526020810180516001600160e01b031663a9059cbb60e01b1790526109bc908490612e80565b80471015612db75760405162461bcd60e51b815260206004820152601d60248201527f416464726573733a20696e73756666696369656e742062616c616e63650000006044820152606401610a40565b6000826001600160a01b03168260405160006040518083038185875af1925050503d8060008114612e04576040519150601f19603f3d011682016040523d82523d6000602084013e612e09565b606091505b50509050806109bc5760405162461bcd60e51b815260206004820152603a60248201527f416464726573733a20756e61626c6520746f2073656e642076616c75652c207260448201527f6563697069656e74206d617920686176652072657665727465640000000000006064820152608401610a40565b6000612ed5826040518060400160405280602081526020017f5361666545524332303a206c6f772d6c6576656c2063616c6c206661696c6564815250856001600160a01b0316612f689092919063ffffffff16565b9050805160001480612ef6575080806020019051810190612ef691906136f9565b6109bc5760405162461bcd60e51b815260206004820152602a60248201527f5361666545524332303a204552433230206f7065726174696f6e20646964206e60448201527f6f742073756363656564000000000000000000000000000000000000000000006064820152608401610a40565b6060612f778484600085612f7f565b949350505050565b606082471015612ff75760405162461bcd60e51b815260206004820152602660248201527f416464726573733a20696e73756666696369656e742062616c616e636520666f60448201527f722063616c6c00000000000000000000000000000000000000000000000000006064820152608401610a40565b600080866001600160a01b0316858760405161301391906136dd565b60006040518083038185875af1925050503d8060008114613050576040519150601f19603f3d011682016040523d82523d6000602084013e613055565b606091505b509150915061281187838387606083156130d05782516000036130c9576001600160a01b0385163b6130c95760405162461bcd60e51b815260206004820152601d60248201527f416464726573733a2063616c6c20746f206e6f6e2d636f6e74726163740000006044820152606401610a40565b5081612f77565b612f7783838151156130e55781518083602001fd5b8060405162461bcd60e51b8152600401610a409190613871565b6001600160a01b038116811461205257600080fd5b60008060008060006080868803121561312c57600080fd5b8535613137816130ff565b94506020860135613147816130ff565b935060408601359250606086013567ffffffffffffffff8082111561316b57600080fd5b818801915088601f83011261317f57600080fd5b81358181111561318e57600080fd5b8960208285010111156131a057600080fd5b9699959850939650602001949392505050565b6000806000606084860312156131c857600080fd5b83356131d3816130ff565b925060208401356131e3816130ff565b929592945050506040919091013590565b6000806040838503121561320757600080fd5b823591506020830135613219816130ff565b809150509250929050565b634e487b7160e01b600052604160045260246000fd5b604051601f8201601f1916810167ffffffffffffffff8111828210171561326357613263613224565b604052919050565b801515811461205257600080fd5b60006060828403121561328b57600080fd5b6040516060810181811067ffffffffffffffff821117156132ae576132ae613224565b8060405250823581526020830135602082015260408301356132cf8161326b565b60408201529392505050565b6000602082840312156132ed57600080fd5b81358060020b8114611cd857600080fd5b60006020828403121561331057600080fd5b8135611cd8816130ff565b6000806040838503121561332e57600080fd5b8235613339816130ff565b946020939093013593505050565b60005b8381101561336257818101518382015260200161334a565b50506000910152565b60008151808452613383816020860160208601613347565b601f01601f19169290920160200192915050565b602081526001600160a01b0382511660208201526020820151604082015260006040830151606080840152612f77608084018261336b565b6000806000606084860312156133e457600080fd5b8335925060208401356133f6816130ff565b91506040840135613406816130ff565b809150509250925092565b60006020828403121561342357600080fd5b8135611cd88161326b565b6020808252825182820181905260009190848201906040850190845b81811015613496576134838385516001600160a01b03808251168352806020830151166020840152506040810151151560408301525050565b928401926060929092019160010161344a565b50909695505050505050565b600080600080608085870312156134b857600080fd5b84356134c3816130ff565b935060208501356134d3816130ff565b93969395505050506040820135916060013590565b604080825283519082018190526000906020906060840190828701845b8281101561352a5781516001600160a01b031684529284019290840190600101613505565b5050508381038285015284518082528583019183019060005b8181101561355f57835183529284019291840191600101613543565b5090979650505050505050565b6000806040838503121561357f57600080fd5b8235915060208301356132198161326b565b6000602082840312156135a357600080fd5b5035919050565b6000806000606084860312156135bf57600080fd5b83356135ca816130ff565b92506020840135915060408401356134068161326b565b6000602082840312156135f357600080fd5b5051919050565b634e487b7160e01b600052603260045260246000fd5b634e487b7160e01b600052601160045260246000fd5b60006001820161363857613638613610565b5060010190565b6000806040838503121561365257600080fd5b505080516020909101519092909150565b8181038181111561124357611243613610565b808202811582820484141761124357611243613610565b6000826136aa57634e487b7160e01b600052601260045260246000fd5b500490565b6000806000606084860312156136c457600080fd5b8351925060208401519150604084015190509250925092565b600082516136ef818460208701613347565b9190910192915050565b60006020828403121561370b57600080fd5b8151611cd88161326b565b60006020828403121561372857600080fd5b8151611cd8816130ff565b600060a082018783526020878185015260a0604085015281875180845260c086019150828901935060005b818110156137aa576137978386516001600160a01b03808251168352806020830151166020840152506040810151151560408301525050565b938301936060929092019160010161375e565b50506001600160a01b03969096166060850152505050608001529392505050565b600060208083850312156137de57600080fd5b825167ffffffffffffffff808211156137f657600080fd5b818501915085601f83011261380a57600080fd5b81518181111561381c5761381c613224565b8060051b915061382d84830161323a565b818152918301840191848101908884111561384757600080fd5b938501935b838510156138655784518252938501939085019061384c565b98975050505050505050565b602081526000611cd8602083018461336b56fea2646970667358221220b137bb9e2995504d3c623b72f30ca24d3b43434f54b37b4ee2b71ac38870858064736f6c63430008110033",
  "devdoc": {
    "kind": "dev",
    "methods": {
      "getLiquidityAmounts()": {
        "details": "This can be overridden to specify custom amounts for swapping"
      },
      "getLiquidityToken(uint256)": {
        "details": "This can be overridden to specify custom liquidity tokens"
      },
      "getOrderedAssets(bool)": {
        "details": "This can be overridden to specify custom ordering for swapping"
      },
      "getToken0()": {
        "details": "This should be overridden if Token0 is not WETH"
      },
      "getToken1()": {
        "details": "This should be overridden if Token1 is not WETH"
      },
      "getTokenPath(bool)": {
        "details": "This can be overridden to specify custom routes/paths for swapping"
      },
      "owner()": {
        "details": "Returns the address of the current owner."
      },
      "renounceOwnership()": {
        "details": "Leaves the contract without owner. It will not be possible to call `onlyOwner` functions. Can only be called by the current owner. NOTE: Renouncing ownership will leave the contract without an owner, thereby disabling any functionality that is only available to the owner."
      },
      "transferOwnership(address)": {
        "details": "Transfers ownership of the contract to a new account (`newOwner`). Can only be called by the current owner."
      }
    },
    "version": 1
  },
  "userdoc": {
    "kind": "user",
    "methods": {},
    "version": 1
  },
  "storageLayout": {
    "storage": [
      {
        "astId": 7,
        "contract": "contracts/lib/mode/bundlers/SSWethIcl.sol:SSWethIcl",
        "label": "_owner",
        "offset": 0,
        "slot": "0",
        "type": "t_address"
      },
      {
        "astId": 10031,
        "contract": "contracts/lib/mode/bundlers/SSWethIcl.sol:SSWethIcl",
        "label": "_weth",
        "offset": 0,
        "slot": "1",
        "type": "t_address"
      },
      {
        "astId": 10033,
        "contract": "contracts/lib/mode/bundlers/SSWethIcl.sol:SSWethIcl",
        "label": "_manager",
        "offset": 0,
        "slot": "2",
        "type": "t_address"
      },
      {
        "astId": 10035,
        "contract": "contracts/lib/mode/bundlers/SSWethIcl.sol:SSWethIcl",
        "label": "_token0",
        "offset": 0,
        "slot": "3",
        "type": "t_address"
      },
      {
        "astId": 10037,
        "contract": "contracts/lib/mode/bundlers/SSWethIcl.sol:SSWethIcl",
        "label": "_token1",
        "offset": 0,
        "slot": "4",
        "type": "t_address"
      },
      {
        "astId": 10039,
        "contract": "contracts/lib/mode/bundlers/SSWethIcl.sol:SSWethIcl",
        "label": "_swapRouter",
        "offset": 0,
        "slot": "5",
        "type": "t_address"
      },
      {
        "astId": 10041,
        "contract": "contracts/lib/mode/bundlers/SSWethIcl.sol:SSWethIcl",
        "label": "_liquidityRouter",
        "offset": 0,
        "slot": "6",
        "type": "t_address"
      },
      {
        "astId": 10043,
        "contract": "contracts/lib/mode/bundlers/SSWethIcl.sol:SSWethIcl",
        "label": "_poolId",
        "offset": 0,
        "slot": "7",
        "type": "t_bytes32"
      },
      {
        "astId": 10045,
        "contract": "contracts/lib/mode/bundlers/SSWethIcl.sol:SSWethIcl",
        "label": "_bundlerId",
        "offset": 0,
        "slot": "8",
        "type": "t_bytes32"
      },
      {
        "astId": 10047,
        "contract": "contracts/lib/mode/bundlers/SSWethIcl.sol:SSWethIcl",
        "label": "_slippage",
        "offset": 0,
        "slot": "9",
        "type": "t_uint256"
      },
      {
        "astId": 10049,
        "contract": "contracts/lib/mode/bundlers/SSWethIcl.sol:SSWethIcl",
        "label": "_tickLower",
        "offset": 0,
        "slot": "10",
        "type": "t_int24"
      },
      {
        "astId": 10051,
        "contract": "contracts/lib/mode/bundlers/SSWethIcl.sol:SSWethIcl",
        "label": "_tickUpper",
        "offset": 3,
        "slot": "10",
        "type": "t_int24"
      },
      {
        "astId": 10056,
        "contract": "contracts/lib/mode/bundlers/SSWethIcl.sol:SSWethIcl",
        "label": "_liquidityPositionsByTokenId",
        "offset": 0,
        "slot": "11",
        "type": "t_mapping(t_uint256,t_struct(LiquidityPosition)7508_storage)"
      },
      {
        "astId": 13419,
        "contract": "contracts/lib/mode/bundlers/SSWethIcl.sol:SSWethIcl",
        "label": "_mode",
        "offset": 0,
        "slot": "12",
        "type": "t_address"
      }
    ],
    "types": {
      "t_address": {
        "encoding": "inplace",
        "label": "address",
        "numberOfBytes": "20"
      },
      "t_bool": {
        "encoding": "inplace",
        "label": "bool",
        "numberOfBytes": "1"
      },
      "t_bytes32": {
        "encoding": "inplace",
        "label": "bytes32",
        "numberOfBytes": "32"
      },
      "t_int24": {
        "encoding": "inplace",
        "label": "int24",
        "numberOfBytes": "3"
      },
      "t_mapping(t_uint256,t_struct(LiquidityPosition)7508_storage)": {
        "encoding": "mapping",
        "key": "t_uint256",
        "label": "mapping(uint256 => struct IWeb3PacksDefs.LiquidityPosition)",
        "numberOfBytes": "32",
        "value": "t_struct(LiquidityPosition)7508_storage"
      },
      "t_struct(LiquidityPosition)7508_storage": {
        "encoding": "inplace",
        "label": "struct IWeb3PacksDefs.LiquidityPosition",
        "members": [
          {
            "astId": 7503,
            "contract": "contracts/lib/mode/bundlers/SSWethIcl.sol:SSWethIcl",
            "label": "lpTokenId",
            "offset": 0,
            "slot": "0",
            "type": "t_uint256"
          },
          {
            "astId": 7505,
            "contract": "contracts/lib/mode/bundlers/SSWethIcl.sol:SSWethIcl",
            "label": "liquidity",
            "offset": 0,
            "slot": "1",
            "type": "t_uint256"
          },
          {
            "astId": 7507,
            "contract": "contracts/lib/mode/bundlers/SSWethIcl.sol:SSWethIcl",
            "label": "stable",
            "offset": 0,
            "slot": "2",
            "type": "t_bool"
          }
        ],
        "numberOfBytes": "96"
      },
      "t_uint256": {
        "encoding": "inplace",
        "label": "uint256",
        "numberOfBytes": "32"
      }
    }
  }
}