{
  "address": "0x53D8bb03e201D08b492938151Ce5280fDE5a7456",
  "abi": [
    {
      "inputs": [
        {
          "components": [
            {
              "internalType": "address",
              "name": "weth",
              "type": "address"
            },
            {
              "internalType": "address",
              "name": "token0",
              "type": "address"
            },
            {
              "internalType": "address",
              "name": "token1",
              "type": "address"
            },
            {
              "internalType": "address",
              "name": "manager",
              "type": "address"
            },
            {
              "internalType": "address",
              "name": "swapRouter",
              "type": "address"
            },
            {
              "internalType": "address",
              "name": "liquidityRouter",
              "type": "address"
            },
            {
              "internalType": "bytes32",
              "name": "poolId",
              "type": "bytes32"
            },
            {
              "internalType": "bytes32",
              "name": "bundlerId",
              "type": "bytes32"
            },
            {
              "internalType": "uint256",
              "name": "slippage",
              "type": "uint256"
            },
            {
              "internalType": "int24",
              "name": "tickLower",
              "type": "int24"
            },
            {
              "internalType": "int24",
              "name": "tickUpper",
              "type": "int24"
            }
          ],
          "internalType": "struct IWeb3PacksDefs.RouterConfig",
          "name": "config",
          "type": "tuple"
        },
        {
          "internalType": "address",
          "name": "mode",
          "type": "address"
        }
      ],
      "stateMutability": "nonpayable",
      "type": "constructor"
    },
    {
      "inputs": [
        {
          "internalType": "bytes32",
          "name": "bundlerId",
          "type": "bytes32"
        }
      ],
      "name": "BundlerNotRegistered",
      "type": "error"
    },
    {
      "inputs": [],
      "name": "ContractNotAllowed",
      "type": "error"
    },
    {
      "inputs": [],
      "name": "FailedToExitWeth",
      "type": "error"
    },
    {
      "inputs": [],
      "name": "FundingFailed",
      "type": "error"
    },
    {
      "inputs": [
        {
          "internalType": "uint256",
          "name": "value",
          "type": "uint256"
        },
        {
          "internalType": "uint256",
          "name": "ethPackPrice",
          "type": "uint256"
        },
        {
          "internalType": "uint256",
          "name": "protocolFee",
          "type": "uint256"
        }
      ],
      "name": "InsufficientForFee",
      "type": "error"
    },
    {
      "inputs": [],
      "name": "MismatchedTokens",
      "type": "error"
    },
    {
      "inputs": [
        {
          "internalType": "address",
          "name": "tokenAddress",
          "type": "address"
        }
      ],
      "name": "MissingLiquidityUUID",
      "type": "error"
    },
    {
      "inputs": [],
      "name": "NativeAssetTransferFailed",
      "type": "error"
    },
    {
      "inputs": [],
      "name": "NoBundlesInPack",
      "type": "error"
    },
    {
      "inputs": [],
      "name": "NotOwnerOrApproved",
      "type": "error"
    },
    {
      "inputs": [],
      "name": "NullReceiver",
      "type": "error"
    },
    {
      "inputs": [],
      "name": "SwapFailed",
      "type": "error"
    },
    {
      "inputs": [
        {
          "internalType": "address",
          "name": "tokenOut",
          "type": "address"
        },
        {
          "internalType": "uint256",
          "name": "amountIn",
          "type": "uint256"
        },
        {
          "internalType": "address",
          "name": "router",
          "type": "address"
        }
      ],
      "name": "UnsucessfulSwap",
      "type": "error"
    },
    {
      "anonymous": false,
      "inputs": [
        {
          "indexed": true,
          "internalType": "address",
          "name": "token0",
          "type": "address"
        },
        {
          "indexed": true,
          "internalType": "address",
          "name": "token1",
          "type": "address"
        },
        {
          "indexed": false,
          "internalType": "uint256",
          "name": "amount0",
          "type": "uint256"
        },
        {
          "indexed": false,
          "internalType": "uint256",
          "name": "amount1",
          "type": "uint256"
        },
        {
          "indexed": false,
          "internalType": "uint256",
          "name": "liquidity",
          "type": "uint256"
        }
      ],
      "name": "BundledTokenLP",
      "type": "event"
    },
    {
      "anonymous": false,
      "inputs": [
        {
          "indexed": true,
          "internalType": "address",
          "name": "token",
          "type": "address"
        },
        {
          "indexed": false,
          "internalType": "uint256",
          "name": "amount",
          "type": "uint256"
        }
      ],
      "name": "BundledTokenSS",
      "type": "event"
    },
    {
      "anonymous": false,
      "inputs": [
        {
          "indexed": true,
          "internalType": "address",
          "name": "receiver",
          "type": "address"
        },
        {
          "indexed": false,
          "internalType": "uint256",
          "name": "amount",
          "type": "uint256"
        }
      ],
      "name": "EthTransferred",
      "type": "event"
    },
    {
      "anonymous": false,
      "inputs": [
        {
          "indexed": true,
          "internalType": "address",
          "name": "previousOwner",
          "type": "address"
        },
        {
          "indexed": true,
          "internalType": "address",
          "name": "newOwner",
          "type": "address"
        }
      ],
      "name": "OwnershipTransferred",
      "type": "event"
    },
    {
      "anonymous": false,
      "inputs": [
        {
          "indexed": true,
          "internalType": "address",
          "name": "token0",
          "type": "address"
        },
        {
          "indexed": true,
          "internalType": "address",
          "name": "token1",
          "type": "address"
        },
        {
          "indexed": false,
          "internalType": "uint256",
          "name": "amount0",
          "type": "uint256"
        },
        {
          "indexed": false,
          "internalType": "uint256",
          "name": "amount1",
          "type": "uint256"
        }
      ],
      "name": "SwappedTokens",
      "type": "event"
    },
    {
      "anonymous": false,
      "inputs": [
        {
          "indexed": true,
          "internalType": "address",
          "name": "receiver",
          "type": "address"
        },
        {
          "indexed": true,
          "internalType": "address",
          "name": "tokenAddress",
          "type": "address"
        },
        {
          "indexed": true,
          "internalType": "uint256",
          "name": "tokenId",
          "type": "uint256"
        },
        {
          "indexed": false,
          "internalType": "uint256",
          "name": "amount",
          "type": "uint256"
        }
      ],
      "name": "WithdrawStuckERC1155",
      "type": "event"
    },
    {
      "anonymous": false,
      "inputs": [
        {
          "indexed": true,
          "internalType": "address",
          "name": "receiver",
          "type": "address"
        },
        {
          "indexed": true,
          "internalType": "address",
          "name": "tokenAddress",
          "type": "address"
        },
        {
          "indexed": false,
          "internalType": "uint256",
          "name": "amount",
          "type": "uint256"
        }
      ],
      "name": "WithdrawStuckERC20",
      "type": "event"
    },
    {
      "anonymous": false,
      "inputs": [
        {
          "indexed": true,
          "internalType": "address",
          "name": "receiver",
          "type": "address"
        },
        {
          "indexed": true,
          "internalType": "address",
          "name": "tokenAddress",
          "type": "address"
        },
        {
          "indexed": true,
          "internalType": "uint256",
          "name": "tokenId",
          "type": "uint256"
        }
      ],
      "name": "WithdrawStuckERC721",
      "type": "event"
    },
    {
      "anonymous": false,
      "inputs": [
        {
          "indexed": true,
          "internalType": "address",
          "name": "receiver",
          "type": "address"
        },
        {
          "indexed": false,
          "internalType": "uint256",
          "name": "amount",
          "type": "uint256"
        }
      ],
      "name": "WithdrawStuckEther",
      "type": "event"
    },
    {
      "inputs": [],
      "name": "_bundlerId",
      "outputs": [
        {
          "internalType": "bytes32",
          "name": "",
          "type": "bytes32"
        }
      ],
      "stateMutability": "view",
      "type": "function"
    },
    {
      "inputs": [],
      "name": "_liquidityRouter",
      "outputs": [
        {
          "internalType": "address",
          "name": "",
          "type": "address"
        }
      ],
      "stateMutability": "view",
      "type": "function"
    },
    {
      "inputs": [],
      "name": "_manager",
      "outputs": [
        {
          "internalType": "address",
          "name": "",
          "type": "address"
        }
      ],
      "stateMutability": "view",
      "type": "function"
    },
    {
      "inputs": [],
      "name": "_mode",
      "outputs": [
        {
          "internalType": "address",
          "name": "",
          "type": "address"
        }
      ],
      "stateMutability": "view",
      "type": "function"
    },
    {
      "inputs": [],
      "name": "_poolId",
      "outputs": [
        {
          "internalType": "bytes32",
          "name": "",
          "type": "bytes32"
        }
      ],
      "stateMutability": "view",
      "type": "function"
    },
    {
      "inputs": [],
      "name": "_slippage",
      "outputs": [
        {
          "internalType": "uint256",
          "name": "",
          "type": "uint256"
        }
      ],
      "stateMutability": "view",
      "type": "function"
    },
    {
      "inputs": [],
      "name": "_swapRouter",
      "outputs": [
        {
          "internalType": "address",
          "name": "",
          "type": "address"
        }
      ],
      "stateMutability": "view",
      "type": "function"
    },
    {
      "inputs": [],
      "name": "_tickLower",
      "outputs": [
        {
          "internalType": "int24",
          "name": "",
          "type": "int24"
        }
      ],
      "stateMutability": "view",
      "type": "function"
    },
    {
      "inputs": [],
      "name": "_tickUpper",
      "outputs": [
        {
          "internalType": "int24",
          "name": "",
          "type": "int24"
        }
      ],
      "stateMutability": "view",
      "type": "function"
    },
    {
      "inputs": [],
      "name": "_token0",
      "outputs": [
        {
          "internalType": "address",
          "name": "",
          "type": "address"
        }
      ],
      "stateMutability": "view",
      "type": "function"
    },
    {
      "inputs": [],
      "name": "_token1",
      "outputs": [
        {
          "internalType": "address",
          "name": "",
          "type": "address"
        }
      ],
      "stateMutability": "view",
      "type": "function"
    },
    {
      "inputs": [],
      "name": "_weth",
      "outputs": [
        {
          "internalType": "address",
          "name": "",
          "type": "address"
        }
      ],
      "stateMutability": "view",
      "type": "function"
    },
    {
      "inputs": [
        {
          "internalType": "uint256",
          "name": "",
          "type": "uint256"
        },
        {
          "internalType": "address",
          "name": "sender",
          "type": "address"
        }
      ],
      "name": "bundle",
      "outputs": [
        {
          "internalType": "address",
          "name": "tokenAddress",
          "type": "address"
        },
        {
          "internalType": "uint256",
          "name": "amountOut",
          "type": "uint256"
        },
        {
          "internalType": "uint256",
          "name": "nftTokenId",
          "type": "uint256"
        }
      ],
      "stateMutability": "payable",
      "type": "function"
    },
    {
      "inputs": [
        {
          "components": [
            {
              "internalType": "uint256",
              "name": "lpTokenId",
              "type": "uint256"
            },
            {
              "internalType": "uint256",
              "name": "liquidity",
              "type": "uint256"
            },
            {
              "internalType": "bool",
              "name": "stable",
              "type": "bool"
            }
          ],
          "internalType": "struct IWeb3PacksDefs.LiquidityPosition",
          "name": "",
          "type": "tuple"
        }
      ],
      "name": "collectLpFees",
      "outputs": [
        {
          "internalType": "uint256",
          "name": "amount0",
          "type": "uint256"
        },
        {
          "internalType": "uint256",
          "name": "amount1",
          "type": "uint256"
        }
      ],
      "stateMutability": "nonpayable",
      "type": "function"
    },
    {
      "inputs": [
        {
          "internalType": "bool",
          "name": "",
          "type": "bool"
        }
      ],
      "name": "createLiquidityPosition",
      "outputs": [
        {
          "internalType": "uint256",
          "name": "lpTokenId",
          "type": "uint256"
        },
        {
          "internalType": "uint256",
          "name": "liquidity",
          "type": "uint256"
        },
        {
          "internalType": "uint256",
          "name": "amount0",
          "type": "uint256"
        },
        {
          "internalType": "uint256",
          "name": "amount1",
          "type": "uint256"
        }
      ],
      "stateMutability": "nonpayable",
      "type": "function"
    },
    {
      "inputs": [],
      "name": "getBalanceToken0",
      "outputs": [
        {
          "internalType": "uint256",
          "name": "balanceToken0",
          "type": "uint256"
        }
      ],
      "stateMutability": "view",
      "type": "function"
    },
    {
      "inputs": [],
      "name": "getBalanceToken1",
      "outputs": [
        {
          "internalType": "uint256",
          "name": "balanceToken1",
          "type": "uint256"
        }
      ],
      "stateMutability": "view",
      "type": "function"
    },
    {
      "inputs": [],
      "name": "getBalanceWeth",
      "outputs": [
        {
          "internalType": "uint256",
          "name": "balanceWeth",
          "type": "uint256"
        }
      ],
      "stateMutability": "view",
      "type": "function"
    },
    {
      "inputs": [],
      "name": "getLiquidityAmounts",
      "outputs": [
        {
          "internalType": "uint256",
          "name": "amount0",
          "type": "uint256"
        },
        {
          "internalType": "uint256",
          "name": "amount1",
          "type": "uint256"
        },
        {
          "internalType": "uint256",
          "name": "minAmount0",
          "type": "uint256"
        },
        {
          "internalType": "uint256",
          "name": "minAmount1",
          "type": "uint256"
        }
      ],
      "stateMutability": "view",
      "type": "function"
    },
    {
      "inputs": [
        {
          "internalType": "uint256",
          "name": "",
          "type": "uint256"
        }
      ],
      "name": "getLiquidityToken",
      "outputs": [
        {
          "internalType": "address",
          "name": "tokenAddress",
          "type": "address"
        },
        {
          "internalType": "uint256",
          "name": "tokenId",
          "type": "uint256"
        }
      ],
      "stateMutability": "view",
      "type": "function"
    },
    {
      "inputs": [
        {
          "internalType": "bool",
          "name": "reverse",
          "type": "bool"
        }
      ],
      "name": "getOrderedAssets",
      "outputs": [
        {
          "internalType": "address[]",
          "name": "",
          "type": "address[]"
        },
        {
          "internalType": "uint256[]",
          "name": "",
          "type": "uint256[]"
        }
      ],
      "stateMutability": "view",
      "type": "function"
    },
    {
      "inputs": [],
      "name": "getToken0",
      "outputs": [
        {
          "components": [
            {
              "internalType": "address",
              "name": "tokenAddress",
              "type": "address"
            },
            {
              "internalType": "uint256",
              "name": "tokenDecimals",
              "type": "uint256"
            },
            {
              "internalType": "string",
              "name": "tokenSymbol",
              "type": "string"
            }
          ],
          "internalType": "struct IWeb3PacksDefs.Token",
          "name": "token0",
          "type": "tuple"
        }
      ],
      "stateMutability": "view",
      "type": "function"
    },
    {
      "inputs": [],
      "name": "getToken1",
      "outputs": [
        {
          "components": [
            {
              "internalType": "address",
              "name": "tokenAddress",
              "type": "address"
            },
            {
              "internalType": "uint256",
              "name": "tokenDecimals",
              "type": "uint256"
            },
            {
              "internalType": "string",
              "name": "tokenSymbol",
              "type": "string"
            }
          ],
          "internalType": "struct IWeb3PacksDefs.Token",
          "name": "token1",
          "type": "tuple"
        }
      ],
      "stateMutability": "view",
      "type": "function"
    },
    {
      "inputs": [
        {
          "internalType": "bool",
          "name": "reverse",
          "type": "bool"
        }
      ],
      "name": "getTokenPath",
      "outputs": [
        {
          "components": [
            {
              "internalType": "address",
              "name": "token0",
              "type": "address"
            },
            {
              "internalType": "address",
              "name": "token1",
              "type": "address"
            },
            {
              "internalType": "bool",
              "name": "stable",
              "type": "bool"
            }
          ],
          "internalType": "struct IWeb3PacksDefs.Route[]",
          "name": "tokenPath",
          "type": "tuple[]"
        }
      ],
      "stateMutability": "view",
      "type": "function"
    },
    {
      "inputs": [
        {
          "internalType": "address",
          "name": "",
          "type": "address"
        },
        {
          "internalType": "address",
          "name": "",
          "type": "address"
        },
        {
          "internalType": "uint256",
          "name": "",
          "type": "uint256"
        },
        {
          "internalType": "bytes",
          "name": "",
          "type": "bytes"
        }
      ],
      "name": "onERC721Received",
      "outputs": [
        {
          "internalType": "bytes4",
          "name": "",
          "type": "bytes4"
        }
      ],
      "stateMutability": "pure",
      "type": "function"
    },
    {
      "inputs": [],
      "name": "owner",
      "outputs": [
        {
          "internalType": "address",
          "name": "",
          "type": "address"
        }
      ],
      "stateMutability": "view",
      "type": "function"
    },
    {
      "inputs": [
        {
          "components": [
            {
              "internalType": "uint256",
              "name": "lpTokenId",
              "type": "uint256"
            },
            {
              "internalType": "uint256",
              "name": "liquidity",
              "type": "uint256"
            },
            {
              "internalType": "bool",
              "name": "stable",
              "type": "bool"
            }
          ],
          "internalType": "struct IWeb3PacksDefs.LiquidityPosition",
          "name": "",
          "type": "tuple"
        }
      ],
      "name": "removeLiquidityPosition",
      "outputs": [
        {
          "internalType": "uint256",
          "name": "amount0",
          "type": "uint256"
        },
        {
          "internalType": "uint256",
          "name": "amount1",
          "type": "uint256"
        }
      ],
      "stateMutability": "nonpayable",
      "type": "function"
    },
    {
      "inputs": [],
      "name": "renounceOwnership",
      "outputs": [],
      "stateMutability": "nonpayable",
      "type": "function"
    },
    {
      "inputs": [
        {
          "internalType": "address",
          "name": "router",
          "type": "address"
        }
      ],
      "name": "setLiquidityRouter",
      "outputs": [],
      "stateMutability": "nonpayable",
      "type": "function"
    },
    {
      "inputs": [
        {
          "internalType": "address",
          "name": "manager",
          "type": "address"
        }
      ],
      "name": "setManager",
      "outputs": [],
      "stateMutability": "nonpayable",
      "type": "function"
    },
    {
      "inputs": [
        {
          "internalType": "uint256",
          "name": "slippage",
          "type": "uint256"
        }
      ],
      "name": "setSlippage",
      "outputs": [],
      "stateMutability": "nonpayable",
      "type": "function"
    },
    {
      "inputs": [
        {
          "internalType": "address",
          "name": "router",
          "type": "address"
        }
      ],
      "name": "setSwapRouter",
      "outputs": [],
      "stateMutability": "nonpayable",
      "type": "function"
    },
    {
      "inputs": [
        {
          "internalType": "int24",
          "name": "tickLower",
          "type": "int24"
        }
      ],
      "name": "setTickLower",
      "outputs": [],
      "stateMutability": "nonpayable",
      "type": "function"
    },
    {
      "inputs": [
        {
          "internalType": "int24",
          "name": "tickUpper",
          "type": "int24"
        }
      ],
      "name": "setTickUpper",
      "outputs": [],
      "stateMutability": "nonpayable",
      "type": "function"
    },
    {
      "inputs": [
        {
          "internalType": "address",
          "name": "weth",
          "type": "address"
        }
      ],
      "name": "setWeth",
      "outputs": [],
      "stateMutability": "nonpayable",
      "type": "function"
    },
    {
      "inputs": [
        {
          "internalType": "uint256",
          "name": "percentOfAmount",
          "type": "uint256"
        },
        {
          "internalType": "address",
          "name": "token0",
          "type": "address"
        },
        {
          "internalType": "address",
          "name": "token1",
          "type": "address"
        }
      ],
      "name": "swapCustom",
      "outputs": [
        {
          "internalType": "uint256",
          "name": "amountOut",
          "type": "uint256"
        }
      ],
      "stateMutability": "nonpayable",
      "type": "function"
    },
    {
      "inputs": [
        {
          "internalType": "uint256",
          "name": "percentOfAmount",
          "type": "uint256"
        },
        {
          "internalType": "bool",
          "name": "reverse",
          "type": "bool"
        }
      ],
      "name": "swapSingle",
      "outputs": [
        {
          "internalType": "uint256",
          "name": "amountOut",
          "type": "uint256"
        }
      ],
      "stateMutability": "nonpayable",
      "type": "function"
    },
    {
      "inputs": [
        {
          "internalType": "address",
          "name": "newOwner",
          "type": "address"
        }
      ],
      "name": "transferOwnership",
      "outputs": [],
      "stateMutability": "nonpayable",
      "type": "function"
    },
    {
      "inputs": [
        {
          "internalType": "address payable",
          "name": "receiver",
          "type": "address"
        },
        {
          "internalType": "uint256",
          "name": "",
          "type": "uint256"
        },
        {
          "internalType": "bool",
          "name": "sellAll",
          "type": "bool"
        }
      ],
      "name": "unbundle",
      "outputs": [
        {
          "internalType": "uint256",
          "name": "ethAmountOut",
          "type": "uint256"
        }
      ],
      "stateMutability": "nonpayable",
      "type": "function"
    },
    {
      "inputs": [
        {
          "internalType": "address payable",
          "name": "receiver",
          "type": "address"
        },
        {
          "internalType": "address",
          "name": "tokenAddress",
          "type": "address"
        },
        {
          "internalType": "uint256",
          "name": "tokenId",
          "type": "uint256"
        },
        {
          "internalType": "uint256",
          "name": "amount",
          "type": "uint256"
        }
      ],
      "name": "withdrawERC1155",
      "outputs": [],
      "stateMutability": "nonpayable",
      "type": "function"
    },
    {
      "inputs": [
        {
          "internalType": "address payable",
          "name": "receiver",
          "type": "address"
        },
        {
          "internalType": "address",
          "name": "tokenAddress",
          "type": "address"
        },
        {
          "internalType": "uint256",
          "name": "tokenId",
          "type": "uint256"
        }
      ],
      "name": "withdrawERC721",
      "outputs": [],
      "stateMutability": "nonpayable",
      "type": "function"
    },
    {
      "inputs": [
        {
          "internalType": "address payable",
          "name": "receiver",
          "type": "address"
        },
        {
          "internalType": "address",
          "name": "tokenAddress",
          "type": "address"
        },
        {
          "internalType": "uint256",
          "name": "amount",
          "type": "uint256"
        }
      ],
      "name": "withdrawErc20",
      "outputs": [],
      "stateMutability": "nonpayable",
      "type": "function"
    },
    {
      "inputs": [
        {
          "internalType": "address payable",
          "name": "receiver",
          "type": "address"
        },
        {
          "internalType": "uint256",
          "name": "amount",
          "type": "uint256"
        }
      ],
      "name": "withdrawEther",
      "outputs": [],
      "stateMutability": "nonpayable",
      "type": "function"
    },
    {
      "stateMutability": "payable",
      "type": "receive"
    }
  ],
  "transactionHash": "0xcfffb137434f4d3ac8bf08b848d33c418f553f52d7a97e52452f468368a3b119",
  "args": [
    {
      "weth": "0x4200000000000000000000000000000000000006",
      "token0": "0x4200000000000000000000000000000000000006",
      "token1": "0x98E0AD23382184338dDcEC0E13685358EF845f30",
      "manager": "0xEEC393142db33eb94C18f3d5514888Ad5e7BECc2",
      "swapRouter": "0x652e53C6a4FE39B6B30426d9c96376a105C89A95",
      "liquidityRouter": "0x652e53C6a4FE39B6B30426d9c96376a105C89A95",
      "poolId": "0x0000000000000000000000000000000000000000000000000000000000000000",
      "bundlerId": "0x53532d574554482d43415254454c000000000000000000000000000000000000",
      "slippage": "300",
      "tickLower": "100",
      "tickUpper": "200"
    },
    "0xDfc7C877a950e49D2610114102175A06C2e3167a"
  ],
  "numDeployments": 2,
  "solcInputHash": "599a58eced1c7d5d806c243ecdc9c838",
  "bytecode": "0x60806040523480156200001157600080fd5b5060405162003750380380620037508339810160408190526200003491620001eb565b8180620000413362000133565b8051600180546001600160a01b03199081166001600160a01b0393841617909155602083015160038054831691841691909117905560408301516004805483169184169190911790556060830151600280548316918416919091179055608083015160058054831691841691909117905560a083015160068054831691841691909117905560c083015160075560e0830151600855610100830151600955610120830151600a80546101409095015162ffffff92831665ffffffffffff19909616959095176301000000929095169190910293909317909255600c805490921693169290921790915550620002ee9050565b600080546001600160a01b038381166001600160a01b0319831681178455604051919092169283917f8be0079c531659141344cd1fd0a4f28419497f9722a3daafe3b4186f6b6457e09190a35050565b60405161016081016001600160401b0381118282101715620001b557634e487b7160e01b600052604160045260246000fd5b60405290565b80516001600160a01b0381168114620001d357600080fd5b919050565b8051600281900b8114620001d357600080fd5b6000808284036101808112156200020157600080fd5b610160808212156200021257600080fd5b6200021c62000183565b91506200022985620001bb565b82526200023960208601620001bb565b60208301526200024c60408601620001bb565b60408301526200025f60608601620001bb565b60608301526200027260808601620001bb565b60808301526200028560a08601620001bb565b60a083015260c085015160c083015260e085015160e0830152610100808601518184015250610120620002ba818701620001d8565b90830152610140620002ce868201620001d8565b8184015250819350620002e3818601620001bb565b925050509250929050565b61345280620002fe6000396000f3fe6080604052600436106102e05760003560e01c8063a176459511610184578063cc427bad116100d6578063e6ef0f661161008a578063f0fa55a911610064578063f0fa55a914610936578063f2fde38b14610956578063f54da1e21461097657600080fd5b8063e6ef0f66146108e6578063e7d0c498146108fc578063f0329f6b1461091657600080fd5b8063d0ebdbe7116100bb578063d0ebdbe714610890578063d8102529146108b0578063daa63ae2146108c657600080fd5b8063cc427bad14610850578063cd6e18f11461087057600080fd5b8063b30d0aa211610138578063bfe075e011610112578063bfe075e0146107dc578063c5c03af31461081b578063cb75436b1461083b57600080fd5b8063b30d0aa21461071d578063b8d1452f14610752578063ba94a3151461077257600080fd5b8063a5835ff911610169578063a5835ff9146106dd578063a77558661461042d578063a7cfa451146106fd57600080fd5b8063a17645951461068f578063a2d003c7146106af57600080fd5b8063496b35b91161023d5780637440d0fb116101f15780638da5cb5b116101cb5780638da5cb5b146106245780638db738b114610642578063a0edb48b1461066f57600080fd5b80637440d0fb146105cf57806385497dc1146105ef57806387e36e601461060f57600080fd5b8063522f681511610222578063522f6815146105255780636f26a71014610545578063715018a6146105ba57600080fd5b8063496b35b9146104e55780634ef4ebaf1461050557600080fd5b806320ff415f116102945780634025feb2116102795780634025feb21461048257806341273657146104a257806346fc8a77146104c257600080fd5b806320ff415f1461042d578063221ea0751461046257600080fd5b80631593dee1116102c55780631593dee11461039b5780631b22a4f0146103bd578063206c17bb146103f557600080fd5b80630f74be62146102ec578063150b7a021461032557600080fd5b366102e757005b600080fd5b3480156102f857600080fd5b50600a5461030d906301000000900460020b81565b60405160029190910b81526020015b60405180910390f35b34801561033157600080fd5b5061036a610340366004612d26565b7f150b7a020000000000000000000000000000000000000000000000000000000095945050505050565b6040517fffffffff00000000000000000000000000000000000000000000000000000000909116815260200161031c565b3480156103a757600080fd5b506103bb6103b6366004612dc5565b61098c565b005b6103d06103cb366004612e06565b6109a4565b604080516001600160a01b03909416845260208401929092529082015260600161031c565b34801561040157600080fd5b50600554610415906001600160a01b031681565b6040516001600160a01b03909116815260200161031c565b34801561043957600080fd5b5061044d610448366004612e44565b610b10565b6040805192835260208301919091520161031c565b34801561046e57600080fd5b506103bb61047d366004612eb4565b610b9c565b34801561048e57600080fd5b506103bb61049d366004612dc5565b610bbe565b3480156104ae57600080fd5b506103bb6104bd366004612ed7565b610bd1565b3480156104ce57600080fd5b506104d7610bfb565b60405190815260200161031c565b3480156104f157600080fd5b50600454610415906001600160a01b031681565b34801561051157600080fd5b50600354610415906001600160a01b031681565b34801561053157600080fd5b506103bb610540366004612ef4565b610ccd565b34801561055157600080fd5b5060408051606080820183526000808352602080840191909152918301819052825190810183526004546001600160a01b0316815260128183015282518084018452600681526510d05495115360d21b92810192909252918201525b60405161031c9190612f70565b3480156105c657600080fd5b506103bb610ce3565b3480156105db57600080fd5b506104d76105ea366004612fa8565b610cf7565b3480156105fb57600080fd5b506103bb61060a366004612eb4565b610e1f565b34801561061b57600080fd5b506104d7610e4b565b34801561063057600080fd5b506000546001600160a01b0316610415565b34801561064e57600080fd5b5061066261065d366004612fea565b610eab565b60405161031c9190613007565b34801561067b57600080fd5b506103bb61068a36600461307b565b6110fc565b34801561069b57600080fd5b50600154610415906001600160a01b031681565b3480156106bb57600080fd5b506106cf6106ca366004612fea565b611116565b60405161031c9291906130c1565b3480156106e957600080fd5b506104d76106f8366004613145565b6113b8565b34801561070957600080fd5b50600654610415906001600160a01b031681565b34801561072957600080fd5b5061073261172b565b60408051948552602085019390935291830152606082015260800161031c565b34801561075e57600080fd5b506103bb61076d366004612ed7565b61179d565b34801561077e57600080fd5b5060408051606080820183526000808352602080840191909152918301819052825190810183526001546001600160a01b031681526012818301528251808401845260048152630ae8aa8960e31b92810192909252918201526105ad565b3480156107e857600080fd5b506107fc6107f736600461316a565b6117c7565b604080516001600160a01b03909316835260208301919091520161031c565b34801561082757600080fd5b50600c54610415906001600160a01b031681565b34801561084757600080fd5b506104d7611835565b34801561085c57600080fd5b506104d761086b366004613183565b611866565b34801561087c57600080fd5b506103bb61088b366004612ed7565b611982565b34801561089c57600080fd5b506103bb6108ab366004612ed7565b6119ac565b3480156108bc57600080fd5b506104d760075481565b3480156108d257600080fd5b506107326108e1366004612fea565b6119d6565b3480156108f257600080fd5b506104d760085481565b34801561090857600080fd5b50600a5461030d9060020b81565b34801561092257600080fd5b50600254610415906001600160a01b031681565b34801561094257600080fd5b506103bb61095136600461316a565b611a6c565b34801561096257600080fd5b506103bb610971366004612ed7565b611a79565b34801561098257600080fd5b506104d760095481565b610994611b09565b61099f838383611b63565b505050565b600254600090819081906001600160a01b03163314806109c357503330145b610a2c5760405162461bcd60e51b815260206004820152602f60248201527f576562335061636b73526f7574657242617365202d20496e76616c696420576560448201526e3119a830b1b5b99026b0b730b3b2b960891b60648201526084015b60405180910390fd5b610a3961271060006113b8565b9150610a9b60408051606080820183526000808352602080840191909152918301819052825190810183526004546001600160a01b0316815260128183015282518084018452600681526510d05495115360d21b928101929092529182015290565b5160025490935060009150610abb9084906001600160a01b031684611c7a565b610ac484611d95565b5050826001600160a01b03167feeb24a104634ac471bb06ef0ccbeb5ea3f19bc6a55af51c9096d0bf63fd83ab283604051610b0191815260200190565b60405180910390a29250925092565b60025460009081906001600160a01b0316331480610b2d57503330145b610b915760405162461bcd60e51b815260206004820152602f60248201527f576562335061636b73526f7574657242617365202d20496e76616c696420576560448201526e3119a830b1b5b99026b0b730b3b2b960891b6064820152608401610a23565b506000928392509050565b610ba4611b09565b600a805462ffffff191662ffffff92909216919091179055565b610bc6611b09565b61099f838383611e91565b610bd9611b09565b600580546001600160a01b0319166001600160a01b0392909216919091179055565b6000610c5d60408051606080820183526000808352602080840191909152918301819052825190810183526004546001600160a01b0316815260128183015282518084018452600681526510d05495115360d21b928101929092529182015290565b516040516370a0823160e01b81523060048201526001600160a01b03909116906370a08231906024015b602060405180830381865afa158015610ca4573d6000803e3d6000fd5b505050506040513d601f19601f82011682018060405250810190610cc891906131ba565b905090565b610cd5611b09565b610cdf828261202c565b5050565b610ceb611b09565b610cf560006120ce565b565b6002546000906001600160a01b0316331480610d1257503330145b610d765760405162461bcd60e51b815260206004820152602f60248201527f576562335061636b73526f7574657242617365202d20496e76616c696420576560448201526e3119a830b1b5b99026b0b730b3b2b960891b6064820152608401610a23565b604080516001808252818301909252600091816020015b6040805160608101825260008082526020808301829052928201528252600019909201910181610d8d5790505090506040518060600160405280856001600160a01b03168152602001846001600160a01b031681526020016000151581525081600081518110610dff57610dff6131d3565b6020026020010181905250610e168585858461211e565b95945050505050565b610e27611b09565b600a805462ffffff90921663010000000265ffffff00000019909216919091179055565b6000610c5d60408051606080820183526000808352602080840191909152918301819052825190810183526001546001600160a01b031681526012818301528251808401845260048152630ae8aa8960e31b928101929092529182015290565b60408051600180825281830190925260609160009190816020015b6040805160608101825260008082526020808301829052928201528252600019909201910181610ec657905050905082610feb576040518060600160405280610f6360408051606080820183526000808352602080840191909152918301819052825190810183526001546001600160a01b031681526012818301528251808401845260048152630ae8aa8960e31b928101929092529182015290565b516001600160a01b03168152602001610fd260408051606080820183526000808352602080840191909152918301819052825190810183526004546001600160a01b0316815260128183015282518084018452600681526510d05495115360d21b928101929092529182015290565b516001600160a01b0316815260006020909101526110d8565b604051806060016040528061105660408051606080820183526000808352602080840191909152918301819052825190810183526004546001600160a01b0316815260128183015282518084018452600681526510d05495115360d21b928101929092529182015290565b516001600160a01b031681526020016110c360408051606080820183526000808352602080840191909152918301819052825190810183526001546001600160a01b031681526012818301528251808401845260048152630ae8aa8960e31b928101929092529182015290565b516001600160a01b0316815260006020909101525b816000815181106110eb576110eb6131d3565b602090810291909101015292915050565b611104611b09565b611110848484846123fe565b50505050565b60408051600280825260608281019093528291600091816020016020820280368337019050509050836111a15760408051606080820183526000808352602080840191909152918301819052825190810183526001546001600160a01b031681526012818301528251808401845260048152630ae8aa8960e31b9281019290925291820152516111fd565b60408051606080820183526000808352602080840191909152918301819052825190810183526004546001600160a01b0316815260128183015282518084018452600681526510d05495115360d21b9281019290925291820152515b81600081518110611210576112106131d3565b60200260200101906001600160a01b031690816001600160a01b031681525050836112955760408051606080820183526000808352602080840191909152918301819052825190810183526004546001600160a01b0316815260128183015282518084018452600681526510d05495115360d21b9281019290925291820152516112ef565b60408051606080820183526000808352602080840191909152918301819052825190810183526001546001600160a01b031681526012818301528251808401845260048152630ae8aa8960e31b9281019290925291820152515b81600181518110611302576113026131d3565b6001600160a01b039290921660209283029190910182015260408051600280825260608201835260009391929091830190803683370190505090508461134f5761134a610e4b565b611357565b611357610bfb565b8160008151811061136a5761136a6131d3565b6020026020010181815250508461138857611383610bfb565b611390565b611390610e4b565b816001815181106113a3576113a36131d3565b60209081029190910101529094909350915050565b6002546000906001600160a01b03163314806113d357503330145b6114375760405162461bcd60e51b815260206004820152602f60248201527f576562335061636b73526f7574657242617365202d20496e76616c696420576560448201526e3119a830b1b5b99026b0b730b3b2b960891b6064820152608401610a23565b60008261149b5760408051606080820183526000808352602080840191909152918301819052825190810183526001546001600160a01b031681526012818301528251808401845260048152630ae8aa8960e31b92810192909252918201526114f6565b60408051606080820183526000808352602080840191909152918301819052825190810183526004546001600160a01b0316815260128183015282518084018452600681526510d05495115360d21b92810192909252918201525b905060008361155e5760408051606080820183526000808352602080840191909152918301819052825190810183526004546001600160a01b0316815260128183015282518084018452600681526510d05495115360d21b92810192909252918201526115b7565b60408051606080820183526000808352602080840191909152918301819052825190810183526001546001600160a01b031681526012818301528251808401845260048152630ae8aa8960e31b92810192909252918201525b90506000846115d257600a546301000000900460020b6115d9565b600a5460020b5b90506000856115ed57600a5460020b6115fb565b600a546301000000900460020b5b84516040516370a0823160e01b81523060048201529192506000916001600160a01b03909116906370a0823190602401602060405180830381865afa158015611648573d6000803e3d6000fd5b505050506040513d601f19601f8201168201806040525081019061166c91906131ba565b9050600061271061167d8a846131ff565b611687919061321c565b90506060811561171e5786516005546116aa91906001600160a01b0316846125b7565b8651600c5487516040516bffffffffffffffffffffffff19606094851b8116602083015260e88a811b603484015293851b811660378301529288901b604b820152921b16604e820152606201604051602081830303815290604052905061171b8a88600001518860000151846126e4565b97505b5050505050505092915050565b600080600080611739610e4b565b9350611743610bfb565b9250612710600954612710611758919061323e565b61176290866131ff565b61176c919061321c565b9150612710600954612710611781919061323e565b61178b90856131ff565b611795919061321c565b905090919293565b6117a5611b09565b600180546001600160a01b0319166001600160a01b0392909216919091179055565b60008061182a60408051606080820183526000808352602080840191909152918301819052825190810183526004546001600160a01b0316815260128183015282518084018452600681526510d05495115360d21b928101929092529182015290565b519360009350915050565b6001546040516370a0823160e01b81523060048201526000916001600160a01b0316906370a0823190602401610c87565b6002546000906001600160a01b031633148061188157503330145b6118e55760405162461bcd60e51b815260206004820152602f60248201527f576562335061636b73526f7574657242617365202d20496e76616c696420576560448201526e3119a830b1b5b99026b0b730b3b2b960891b6064820152608401610a23565b8115611909576118f861271060016113b8565b50611902846127ed565b905061197b565b61197b61196c60408051606080820183526000808352602080840191909152918301819052825190810183526004546001600160a01b0316815260128183015282518084018452600681526510d05495115360d21b928101929092529182015290565b5185611976610bfb565b611c7a565b9392505050565b61198a611b09565b600680546001600160a01b0319166001600160a01b0392909216919091179055565b6119b4611b09565b600280546001600160a01b0319166001600160a01b0392909216919091179055565b6002546000908190819081906001600160a01b03163314806119f757503330145b611a5b5760405162461bcd60e51b815260206004820152602f60248201527f576562335061636b73526f7574657242617365202d20496e76616c696420576560448201526e3119a830b1b5b99026b0b730b3b2b960891b6064820152608401610a23565b506000948594508493508392509050565b611a74611b09565b600955565b611a81611b09565b6001600160a01b038116611afd5760405162461bcd60e51b815260206004820152602660248201527f4f776e61626c653a206e6577206f776e657220697320746865207a65726f206160448201527f64647265737300000000000000000000000000000000000000000000000000006064820152608401610a23565b611b06816120ce565b50565b6000546001600160a01b03163314610cf55760405162461bcd60e51b815260206004820181905260248201527f4f776e61626c653a2063616c6c6572206973206e6f7420746865206f776e65726044820152606401610a23565b6001600160a01b038316611ba55760405162461bcd60e51b81526020600482015260096024820152684248503a452d34303360b81b6044820152606401610a23565b6040516370a0823160e01b815230600482015281906001600160a01b038416906370a0823190602401602060405180830381865afa158015611beb573d6000803e3d6000fd5b505050506040513d601f19601f82011682018060405250810190611c0f91906131ba565b1061099f57611c286001600160a01b0383168483612917565b816001600160a01b0316836001600160a01b03167f6c9d637297625e945b296ff73a71fcfbd0a9e062652b6491a921c4c60194176b83604051611c6d91815260200190565b60405180910390a3505050565b604080516001600160a01b038481166024830152604480830185905283518084039091018152606490920183526020820180516001600160e01b031663a9059cbb60e01b1790529151600092839290871691611cd69190613251565b6000604051808303816000865af19150503d8060008114611d13576040519150601f19603f3d011682016040523d82523d6000602084013e611d18565b606091505b5091509150818015611d42575080511580611d42575080806020019051810190611d42919061326d565b611d8e5760405162461bcd60e51b815260206004820152600260248201527f53540000000000000000000000000000000000000000000000000000000000006044820152606401610a23565b5050505050565b600080611da0610e4b565b91508115611e1157611e11611e0960408051606080820183526000808352602080840191909152918301819052825190810183526001546001600160a01b031681526012818301528251808401845260048152630ae8aa8960e31b928101929092529182015290565b518484611c7a565b611e19610bfb565b90508015611e8c57611e8c611e8460408051606080820183526000808352602080840191909152918301819052825190810183526004546001600160a01b0316815260128183015282518084018452600681526510d05495115360d21b928101929092529182015290565b518483611c7a565b915091565b6001600160a01b038316611ed35760405162461bcd60e51b81526020600482015260096024820152684248503a452d34303360b81b6044820152606401610a23565b6040517f6352211e0000000000000000000000000000000000000000000000000000000081526004810182905230906001600160a01b03841690636352211e90602401602060405180830381865afa158015611f33573d6000803e3d6000fd5b505050506040513d601f19601f82011682018060405250810190611f57919061328a565b6001600160a01b03160361099f576040517f23b872dd0000000000000000000000000000000000000000000000000000000081523060048201526001600160a01b038481166024830152604482018390528316906323b872dd90606401600060405180830381600087803b158015611fce57600080fd5b505af1158015611fe2573d6000803e3d6000fd5b5050505080826001600160a01b0316846001600160a01b03167ffefe036cac4ee3a4aca074a81cbcc4376e1484693289078dbec149c890101d5b60405160405180910390a4505050565b6001600160a01b03821661206e5760405162461bcd60e51b81526020600482015260096024820152684248503a452d34303360b81b6044820152606401610a23565b804710610cdf576120886001600160a01b03831682612969565b816001600160a01b03167eddb683bb45cd5d0ad8a200c6fae7152b1c236ee90a4a37db692407f5cc38bd826040516120c291815260200190565b60405180910390a25050565b600080546001600160a01b038381166001600160a01b0319831681178455604051919092169283917f8be0079c531659141344cd1fd0a4f28419497f9722a3daafe3b4186f6b6457e09190a35050565b6040516370a0823160e01b815230600482015260009081906001600160a01b038616906370a0823190602401602060405180830381865afa158015612167573d6000803e3d6000fd5b505050506040513d601f19601f8201168201806040525081019061218b91906131ba565b9050600061271061219c88846131ff565b6121a6919061321c565b905080156123f4576005546121c69087906001600160a01b0316836125b7565b6040517f0800000000000000000000000000000000000000000000000000000000000000602082015260009060210160408051808303601f190181526001808452838301909252925060009190816020015b6060815260200190600190039081612218579050509050600183600088600160405160200161224b9594939291906132a7565b6040516020818303038152906040528160008151811061226d5761226d6131d3565b60209081029190910101526005546040517f3593564c0000000000000000000000000000000000000000000000000000000081526001600160a01b0390911690633593564c906122c590859085904290600401613349565b600060405180830381600087803b1580156122df57600080fd5b505af11580156122f3573d6000803e3d6000fd5b50506040516370a0823160e01b81523060048201526001600160a01b038a1692506370a082319150602401602060405180830381865afa15801561233b573d6000803e3d6000fd5b505050506040513d601f19601f8201168201806040525081019061235f91906131ba565b94508460000361239b576040517f81ceff3000000000000000000000000000000000000000000000000000000000815260040160405180910390fd5b866001600160a01b0316886001600160a01b03167f43a6165165685ef04ce68fd0b620a88554df7464167d1fd61ff8b3802a4146f585886040516123e9929190918252602082015260400190565b60405180910390a350505b5050949350505050565b6001600160a01b0384166124405760405162461bcd60e51b81526020600482015260096024820152684248503a452d34303360b81b6044820152606401610a23565b6040517efdd58e0000000000000000000000000000000000000000000000000000000081523060048201526024810183905281906001600160a01b0385169062fdd58e90604401602060405180830381865afa1580156124a4573d6000803e3d6000fd5b505050506040513d601f19601f820116820180604052508101906124c891906131ba565b10611110576040517ff242432a0000000000000000000000000000000000000000000000000000000081523060048201526001600160a01b038581166024830152604482018490526064820183905260a06084830152600060a483015284169063f242432a9060c401600060405180830381600087803b15801561254b57600080fd5b505af115801561255f573d6000803e3d6000fd5b5050505081836001600160a01b0316856001600160a01b03167f620337bf89eea2b9ae2657beead83b5fa620452817118348aff96e201d52598b846040516125a991815260200190565b60405180910390a450505050565b604080516001600160a01b038481166024830152604480830185905283518084039091018152606490920183526020820180516001600160e01b03167f095ea7b300000000000000000000000000000000000000000000000000000000179052915160009283929087169161262c9190613251565b6000604051808303816000865af19150503d8060008114612669576040519150601f19603f3d011682016040523d82523d6000602084013e61266e565b606091505b5091509150818015612698575080511580612698575080806020019051810190612698919061326d565b611d8e5760405162461bcd60e51b815260206004820152600260248201527f53410000000000000000000000000000000000000000000000000000000000006044820152606401610a23565b6040516370a0823160e01b815230600482015260009081906001600160a01b038616906370a0823190602401602060405180830381865afa15801561272d573d6000803e3d6000fd5b505050506040513d601f19601f8201168201806040525081019061275191906131ba565b9050600061271061276288846131ff565b61276c919061321c565b905080156123f45760055461278c9087906001600160a01b0316836125b7565b6040805160006020820181905282516001818403810182526021840181815260618501909552909391926041015b60608152602001906001900390816127ba579050509050600183600088600160405160200161224b9594939291906133c4565b6000806127f8611835565b90508015612878576001546040517f2e1a7d4d000000000000000000000000000000000000000000000000000000008152600481018390526001600160a01b0390911690632e1a7d4d90602401600060405180830381600087803b15801561285f57600080fd5b505af1158015612873573d6000803e3d6000fd5b505050505b4791508082146128b4576040517f12d81d0500000000000000000000000000000000000000000000000000000000815260040160405180910390fd5b8115612911576128cd6001600160a01b03841683612969565b826001600160a01b03167fcec1f18c3ab8ddaaa107a1591e3c369667eec613626611a8deaedef43069fcdd8360405161290891815260200190565b60405180910390a25b50919050565b604080516001600160a01b038416602482015260448082018490528251808303909101815260649091019091526020810180516001600160e01b031663a9059cbb60e01b17905261099f908490612a82565b804710156129b95760405162461bcd60e51b815260206004820152601d60248201527f416464726573733a20696e73756666696369656e742062616c616e63650000006044820152606401610a23565b6000826001600160a01b03168260405160006040518083038185875af1925050503d8060008114612a06576040519150601f19603f3d011682016040523d82523d6000602084013e612a0b565b606091505b505090508061099f5760405162461bcd60e51b815260206004820152603a60248201527f416464726573733a20756e61626c6520746f2073656e642076616c75652c207260448201527f6563697069656e74206d617920686176652072657665727465640000000000006064820152608401610a23565b6000612ad7826040518060400160405280602081526020017f5361666545524332303a206c6f772d6c6576656c2063616c6c206661696c6564815250856001600160a01b0316612b6a9092919063ffffffff16565b9050805160001480612af8575080806020019051810190612af8919061326d565b61099f5760405162461bcd60e51b815260206004820152602a60248201527f5361666545524332303a204552433230206f7065726174696f6e20646964206e60448201527f6f742073756363656564000000000000000000000000000000000000000000006064820152608401610a23565b6060612b798484600085612b81565b949350505050565b606082471015612bf95760405162461bcd60e51b815260206004820152602660248201527f416464726573733a20696e73756666696369656e742062616c616e636520666f60448201527f722063616c6c00000000000000000000000000000000000000000000000000006064820152608401610a23565b600080866001600160a01b03168587604051612c159190613251565b60006040518083038185875af1925050503d8060008114612c52576040519150601f19603f3d011682016040523d82523d6000602084013e612c57565b606091505b5091509150612c6887838387612c73565b979650505050505050565b60608315612ce2578251600003612cdb576001600160a01b0385163b612cdb5760405162461bcd60e51b815260206004820152601d60248201527f416464726573733a2063616c6c20746f206e6f6e2d636f6e74726163740000006044820152606401610a23565b5081612b79565b612b798383815115612cf75781518083602001fd5b8060405162461bcd60e51b8152600401610a239190613409565b6001600160a01b0381168114611b0657600080fd5b600080600080600060808688031215612d3e57600080fd5b8535612d4981612d11565b94506020860135612d5981612d11565b935060408601359250606086013567ffffffffffffffff80821115612d7d57600080fd5b818801915088601f830112612d9157600080fd5b813581811115612da057600080fd5b896020828501011115612db257600080fd5b9699959850939650602001949392505050565b600080600060608486031215612dda57600080fd5b8335612de581612d11565b92506020840135612df581612d11565b929592945050506040919091013590565b60008060408385031215612e1957600080fd5b823591506020830135612e2b81612d11565b809150509250929050565b8015158114611b0657600080fd5b600060608284031215612e5657600080fd5b6040516060810181811067ffffffffffffffff82111715612e8757634e487b7160e01b600052604160045260246000fd5b806040525082358152602083013560208201526040830135612ea881612e36565b60408201529392505050565b600060208284031215612ec657600080fd5b81358060020b811461197b57600080fd5b600060208284031215612ee957600080fd5b813561197b81612d11565b60008060408385031215612f0757600080fd5b8235612f1281612d11565b946020939093013593505050565b60005b83811015612f3b578181015183820152602001612f23565b50506000910152565b60008151808452612f5c816020860160208601612f20565b601f01601f19169290920160200192915050565b602081526001600160a01b0382511660208201526020820151604082015260006040830151606080840152612b796080840182612f44565b600080600060608486031215612fbd57600080fd5b833592506020840135612fcf81612d11565b91506040840135612fdf81612d11565b809150509250925092565b600060208284031215612ffc57600080fd5b813561197b81612e36565b6020808252825182820181905260009190848201906040850190845b8181101561306f5761305c8385516001600160a01b03808251168352806020830151166020840152506040810151151560408301525050565b9284019260609290920191600101613023565b50909695505050505050565b6000806000806080858703121561309157600080fd5b843561309c81612d11565b935060208501356130ac81612d11565b93969395505050506040820135916060013590565b604080825283519082018190526000906020906060840190828701845b828110156131035781516001600160a01b0316845292840192908401906001016130de565b5050508381038285015284518082528583019183019060005b818110156131385783518352928401929184019160010161311c565b5090979650505050505050565b6000806040838503121561315857600080fd5b823591506020830135612e2b81612e36565b60006020828403121561317c57600080fd5b5035919050565b60008060006060848603121561319857600080fd5b83356131a381612d11565b9250602084013591506040840135612fdf81612e36565b6000602082840312156131cc57600080fd5b5051919050565b634e487b7160e01b600052603260045260246000fd5b634e487b7160e01b600052601160045260246000fd5b8082028115828204841417613216576132166131e9565b92915050565b60008261323957634e487b7160e01b600052601260045260246000fd5b500490565b81810381811115613216576132166131e9565b60008251613263818460208701612f20565b9190910192915050565b60006020828403121561327f57600080fd5b815161197b81612e36565b60006020828403121561329c57600080fd5b815161197b81612d11565b600060a082016001600160a01b03881683526020878185015260ff87166040850152606060a08186015282875180855260c087019150838901945060005b8181101561332e5761331e8387516001600160a01b03808251168352806020830151166020840152506040810151151560408301525050565b94840194918301916001016132e5565b50508094505050505082151560808301529695505050505050565b60608152600061335c6060830186612f44565b6020838203818501528186518084528284019150828160051b85010183890160005b838110156133ac57601f1987840301855261339a838351612f44565b9486019492509085019060010161337e565b50508095505050505050826040830152949350505050565b6001600160a01b038616815284602082015260ff8416604082015260a0606082015260006133f560a0830185612f44565b905082151560808301529695505050505050565b60208152600061197b6020830184612f4456fea26469706673582212205fc30252548d15d7837703102aa28912ed15aeee25df333ae1634d06d1ef547664736f6c63430008110033",
  "devdoc": {
    "kind": "dev",
    "methods": {
      "getLiquidityAmounts()": {
        "details": "This can be overridden to specify custom amounts for swapping"
      },
      "getLiquidityToken(uint256)": {
        "details": "This can be overridden to specify custom liquidity tokens"
      },
      "getOrderedAssets(bool)": {
        "details": "This can be overridden to specify custom ordering for swapping"
      },
      "getToken0()": {
        "details": "This should be overridden if Token0 is not WETH"
      },
      "getToken1()": {
        "details": "This should be overridden if Token1 is not WETH"
      },
      "getTokenPath(bool)": {
        "details": "This can be overridden to specify custom routes/paths for swapping"
      },
      "owner()": {
        "details": "Returns the address of the current owner."
      },
      "renounceOwnership()": {
        "details": "Leaves the contract without owner. It will not be possible to call `onlyOwner` functions. Can only be called by the current owner. NOTE: Renouncing ownership will leave the contract without an owner, thereby disabling any functionality that is only available to the owner."
      },
      "transferOwnership(address)": {
        "details": "Transfers ownership of the contract to a new account (`newOwner`). Can only be called by the current owner."
      }
    },
    "version": 1
  },
  "userdoc": {
    "kind": "user",
    "methods": {},
    "version": 1
  },
  "storageLayout": {
    "storage": [
      {
        "astId": 7,
        "contract": "contracts/lib/mode/bundlers/SSWethCartel.sol:SSWethCartel",
        "label": "_owner",
        "offset": 0,
        "slot": "0",
        "type": "t_address"
      },
      {
        "astId": 3952,
        "contract": "contracts/lib/mode/bundlers/SSWethCartel.sol:SSWethCartel",
        "label": "_weth",
        "offset": 0,
        "slot": "1",
        "type": "t_address"
      },
      {
        "astId": 3954,
        "contract": "contracts/lib/mode/bundlers/SSWethCartel.sol:SSWethCartel",
        "label": "_manager",
        "offset": 0,
        "slot": "2",
        "type": "t_address"
      },
      {
        "astId": 3956,
        "contract": "contracts/lib/mode/bundlers/SSWethCartel.sol:SSWethCartel",
        "label": "_token0",
        "offset": 0,
        "slot": "3",
        "type": "t_address"
      },
      {
        "astId": 3958,
        "contract": "contracts/lib/mode/bundlers/SSWethCartel.sol:SSWethCartel",
        "label": "_token1",
        "offset": 0,
        "slot": "4",
        "type": "t_address"
      },
      {
        "astId": 3960,
        "contract": "contracts/lib/mode/bundlers/SSWethCartel.sol:SSWethCartel",
        "label": "_swapRouter",
        "offset": 0,
        "slot": "5",
        "type": "t_address"
      },
      {
        "astId": 3962,
        "contract": "contracts/lib/mode/bundlers/SSWethCartel.sol:SSWethCartel",
        "label": "_liquidityRouter",
        "offset": 0,
        "slot": "6",
        "type": "t_address"
      },
      {
        "astId": 3964,
        "contract": "contracts/lib/mode/bundlers/SSWethCartel.sol:SSWethCartel",
        "label": "_poolId",
        "offset": 0,
        "slot": "7",
        "type": "t_bytes32"
      },
      {
        "astId": 3966,
        "contract": "contracts/lib/mode/bundlers/SSWethCartel.sol:SSWethCartel",
        "label": "_bundlerId",
        "offset": 0,
        "slot": "8",
        "type": "t_bytes32"
      },
      {
        "astId": 3968,
        "contract": "contracts/lib/mode/bundlers/SSWethCartel.sol:SSWethCartel",
        "label": "_slippage",
        "offset": 0,
        "slot": "9",
        "type": "t_uint256"
      },
      {
        "astId": 3970,
        "contract": "contracts/lib/mode/bundlers/SSWethCartel.sol:SSWethCartel",
        "label": "_tickLower",
        "offset": 0,
        "slot": "10",
        "type": "t_int24"
      },
      {
        "astId": 3972,
        "contract": "contracts/lib/mode/bundlers/SSWethCartel.sol:SSWethCartel",
        "label": "_tickUpper",
        "offset": 3,
        "slot": "10",
        "type": "t_int24"
      },
      {
        "astId": 3977,
        "contract": "contracts/lib/mode/bundlers/SSWethCartel.sol:SSWethCartel",
        "label": "_liquidityPositionsByTokenId",
        "offset": 0,
        "slot": "11",
        "type": "t_mapping(t_uint256,t_struct(LiquidityPosition)2075_storage)"
      },
      {
        "astId": 6860,
        "contract": "contracts/lib/mode/bundlers/SSWethCartel.sol:SSWethCartel",
        "label": "_mode",
        "offset": 0,
        "slot": "12",
        "type": "t_address"
      }
    ],
    "types": {
      "t_address": {
        "encoding": "inplace",
        "label": "address",
        "numberOfBytes": "20"
      },
      "t_bool": {
        "encoding": "inplace",
        "label": "bool",
        "numberOfBytes": "1"
      },
      "t_bytes32": {
        "encoding": "inplace",
        "label": "bytes32",
        "numberOfBytes": "32"
      },
      "t_int24": {
        "encoding": "inplace",
        "label": "int24",
        "numberOfBytes": "3"
      },
      "t_mapping(t_uint256,t_struct(LiquidityPosition)2075_storage)": {
        "encoding": "mapping",
        "key": "t_uint256",
        "label": "mapping(uint256 => struct IWeb3PacksDefs.LiquidityPosition)",
        "numberOfBytes": "32",
        "value": "t_struct(LiquidityPosition)2075_storage"
      },
      "t_struct(LiquidityPosition)2075_storage": {
        "encoding": "inplace",
        "label": "struct IWeb3PacksDefs.LiquidityPosition",
        "members": [
          {
            "astId": 2070,
            "contract": "contracts/lib/mode/bundlers/SSWethCartel.sol:SSWethCartel",
            "label": "lpTokenId",
            "offset": 0,
            "slot": "0",
            "type": "t_uint256"
          },
          {
            "astId": 2072,
            "contract": "contracts/lib/mode/bundlers/SSWethCartel.sol:SSWethCartel",
            "label": "liquidity",
            "offset": 0,
            "slot": "1",
            "type": "t_uint256"
          },
          {
            "astId": 2074,
            "contract": "contracts/lib/mode/bundlers/SSWethCartel.sol:SSWethCartel",
            "label": "stable",
            "offset": 0,
            "slot": "2",
            "type": "t_bool"
          }
        ],
        "numberOfBytes": "96"
      },
      "t_uint256": {
        "encoding": "inplace",
        "label": "uint256",
        "numberOfBytes": "32"
      }
    }
  }
}