{
  "address": "0x3aDa8fA5DCa3311Ad4b00CF5333752B7FC40d9Ec",
  "abi": [
    {
      "inputs": [
        {
          "components": [
            {
              "internalType": "address",
              "name": "weth",
              "type": "address"
            },
            {
              "internalType": "address",
              "name": "token0",
              "type": "address"
            },
            {
              "internalType": "address",
              "name": "token1",
              "type": "address"
            },
            {
              "internalType": "address",
              "name": "manager",
              "type": "address"
            },
            {
              "internalType": "address",
              "name": "swapRouter",
              "type": "address"
            },
            {
              "internalType": "address",
              "name": "liquidityRouter",
              "type": "address"
            },
            {
              "internalType": "bytes32",
              "name": "poolId",
              "type": "bytes32"
            },
            {
              "internalType": "bytes32",
              "name": "bundlerId",
              "type": "bytes32"
            },
            {
              "internalType": "uint256",
              "name": "slippage",
              "type": "uint256"
            },
            {
              "internalType": "int24",
              "name": "tickLower",
              "type": "int24"
            },
            {
              "internalType": "int24",
              "name": "tickUpper",
              "type": "int24"
            }
          ],
          "internalType": "struct IWeb3PacksDefs.RouterConfig",
          "name": "config",
          "type": "tuple"
        },
        {
          "internalType": "address",
          "name": "usdc",
          "type": "address"
        },
        {
          "internalType": "address",
          "name": "wmlt",
          "type": "address"
        }
      ],
      "stateMutability": "nonpayable",
      "type": "constructor"
    },
    {
      "inputs": [
        {
          "internalType": "bytes32",
          "name": "bundlerId",
          "type": "bytes32"
        }
      ],
      "name": "BundlerNotRegistered",
      "type": "error"
    },
    {
      "inputs": [],
      "name": "ContractNotAllowed",
      "type": "error"
    },
    {
      "inputs": [],
      "name": "FundingFailed",
      "type": "error"
    },
    {
      "inputs": [
        {
          "internalType": "uint256",
          "name": "value",
          "type": "uint256"
        },
        {
          "internalType": "uint256",
          "name": "ethPackPrice",
          "type": "uint256"
        },
        {
          "internalType": "uint256",
          "name": "protocolFee",
          "type": "uint256"
        }
      ],
      "name": "InsufficientForFee",
      "type": "error"
    },
    {
      "inputs": [],
      "name": "MismatchedTokens",
      "type": "error"
    },
    {
      "inputs": [
        {
          "internalType": "address",
          "name": "tokenAddress",
          "type": "address"
        }
      ],
      "name": "MissingLiquidityUUID",
      "type": "error"
    },
    {
      "inputs": [],
      "name": "NativeAssetTransferFailed",
      "type": "error"
    },
    {
      "inputs": [],
      "name": "NoBundlesInPack",
      "type": "error"
    },
    {
      "inputs": [],
      "name": "NotOwnerOrApproved",
      "type": "error"
    },
    {
      "inputs": [],
      "name": "NullReceiver",
      "type": "error"
    },
    {
      "inputs": [
        {
          "internalType": "address",
          "name": "tokenOut",
          "type": "address"
        },
        {
          "internalType": "uint256",
          "name": "amountIn",
          "type": "uint256"
        },
        {
          "internalType": "address",
          "name": "router",
          "type": "address"
        }
      ],
      "name": "UnsucessfulSwap",
      "type": "error"
    },
    {
      "anonymous": false,
      "inputs": [
        {
          "indexed": true,
          "internalType": "address",
          "name": "token0",
          "type": "address"
        },
        {
          "indexed": true,
          "internalType": "address",
          "name": "token1",
          "type": "address"
        },
        {
          "indexed": false,
          "internalType": "uint256",
          "name": "amount0",
          "type": "uint256"
        },
        {
          "indexed": false,
          "internalType": "uint256",
          "name": "amount1",
          "type": "uint256"
        },
        {
          "indexed": false,
          "internalType": "uint256",
          "name": "liquidity",
          "type": "uint256"
        }
      ],
      "name": "BundledTokenLP",
      "type": "event"
    },
    {
      "anonymous": false,
      "inputs": [
        {
          "indexed": true,
          "internalType": "address",
          "name": "token",
          "type": "address"
        },
        {
          "indexed": false,
          "internalType": "uint256",
          "name": "amount",
          "type": "uint256"
        }
      ],
      "name": "BundledTokenSS",
      "type": "event"
    },
    {
      "anonymous": false,
      "inputs": [
        {
          "indexed": true,
          "internalType": "address",
          "name": "previousOwner",
          "type": "address"
        },
        {
          "indexed": true,
          "internalType": "address",
          "name": "newOwner",
          "type": "address"
        }
      ],
      "name": "OwnershipTransferred",
      "type": "event"
    },
    {
      "anonymous": false,
      "inputs": [
        {
          "indexed": true,
          "internalType": "address",
          "name": "receiver",
          "type": "address"
        },
        {
          "indexed": true,
          "internalType": "address",
          "name": "tokenAddress",
          "type": "address"
        },
        {
          "indexed": true,
          "internalType": "uint256",
          "name": "tokenId",
          "type": "uint256"
        },
        {
          "indexed": false,
          "internalType": "uint256",
          "name": "amount",
          "type": "uint256"
        }
      ],
      "name": "WithdrawStuckERC1155",
      "type": "event"
    },
    {
      "anonymous": false,
      "inputs": [
        {
          "indexed": true,
          "internalType": "address",
          "name": "receiver",
          "type": "address"
        },
        {
          "indexed": true,
          "internalType": "address",
          "name": "tokenAddress",
          "type": "address"
        },
        {
          "indexed": false,
          "internalType": "uint256",
          "name": "amount",
          "type": "uint256"
        }
      ],
      "name": "WithdrawStuckERC20",
      "type": "event"
    },
    {
      "anonymous": false,
      "inputs": [
        {
          "indexed": true,
          "internalType": "address",
          "name": "receiver",
          "type": "address"
        },
        {
          "indexed": true,
          "internalType": "address",
          "name": "tokenAddress",
          "type": "address"
        },
        {
          "indexed": true,
          "internalType": "uint256",
          "name": "tokenId",
          "type": "uint256"
        }
      ],
      "name": "WithdrawStuckERC721",
      "type": "event"
    },
    {
      "anonymous": false,
      "inputs": [
        {
          "indexed": true,
          "internalType": "address",
          "name": "receiver",
          "type": "address"
        },
        {
          "indexed": false,
          "internalType": "uint256",
          "name": "amount",
          "type": "uint256"
        }
      ],
      "name": "WithdrawStuckEther",
      "type": "event"
    },
    {
      "inputs": [],
      "name": "_bundlerId",
      "outputs": [
        {
          "internalType": "bytes32",
          "name": "",
          "type": "bytes32"
        }
      ],
      "stateMutability": "view",
      "type": "function"
    },
    {
      "inputs": [],
      "name": "_liquidityRouter",
      "outputs": [
        {
          "internalType": "address",
          "name": "",
          "type": "address"
        }
      ],
      "stateMutability": "view",
      "type": "function"
    },
    {
      "inputs": [],
      "name": "_manager",
      "outputs": [
        {
          "internalType": "address",
          "name": "",
          "type": "address"
        }
      ],
      "stateMutability": "view",
      "type": "function"
    },
    {
      "inputs": [],
      "name": "_poolId",
      "outputs": [
        {
          "internalType": "bytes32",
          "name": "",
          "type": "bytes32"
        }
      ],
      "stateMutability": "view",
      "type": "function"
    },
    {
      "inputs": [],
      "name": "_slippage",
      "outputs": [
        {
          "internalType": "uint256",
          "name": "",
          "type": "uint256"
        }
      ],
      "stateMutability": "view",
      "type": "function"
    },
    {
      "inputs": [],
      "name": "_swapRouter",
      "outputs": [
        {
          "internalType": "address",
          "name": "",
          "type": "address"
        }
      ],
      "stateMutability": "view",
      "type": "function"
    },
    {
      "inputs": [],
      "name": "_tickLower",
      "outputs": [
        {
          "internalType": "int24",
          "name": "",
          "type": "int24"
        }
      ],
      "stateMutability": "view",
      "type": "function"
    },
    {
      "inputs": [],
      "name": "_tickUpper",
      "outputs": [
        {
          "internalType": "int24",
          "name": "",
          "type": "int24"
        }
      ],
      "stateMutability": "view",
      "type": "function"
    },
    {
      "inputs": [],
      "name": "_token0",
      "outputs": [
        {
          "internalType": "address",
          "name": "",
          "type": "address"
        }
      ],
      "stateMutability": "view",
      "type": "function"
    },
    {
      "inputs": [],
      "name": "_token1",
      "outputs": [
        {
          "internalType": "address",
          "name": "",
          "type": "address"
        }
      ],
      "stateMutability": "view",
      "type": "function"
    },
    {
      "inputs": [],
      "name": "_usdc",
      "outputs": [
        {
          "internalType": "address",
          "name": "",
          "type": "address"
        }
      ],
      "stateMutability": "view",
      "type": "function"
    },
    {
      "inputs": [],
      "name": "_weth",
      "outputs": [
        {
          "internalType": "address",
          "name": "",
          "type": "address"
        }
      ],
      "stateMutability": "view",
      "type": "function"
    },
    {
      "inputs": [],
      "name": "_wmlt",
      "outputs": [
        {
          "internalType": "address",
          "name": "",
          "type": "address"
        }
      ],
      "stateMutability": "view",
      "type": "function"
    },
    {
      "inputs": [
        {
          "internalType": "uint256",
          "name": "",
          "type": "uint256"
        },
        {
          "internalType": "address",
          "name": "sender",
          "type": "address"
        }
      ],
      "name": "bundle",
      "outputs": [
        {
          "internalType": "address",
          "name": "tokenAddress",
          "type": "address"
        },
        {
          "internalType": "uint256",
          "name": "amountOut",
          "type": "uint256"
        },
        {
          "internalType": "uint256",
          "name": "nftTokenId",
          "type": "uint256"
        }
      ],
      "stateMutability": "payable",
      "type": "function"
    },
    {
      "inputs": [
        {
          "components": [
            {
              "internalType": "uint256",
              "name": "lpTokenId",
              "type": "uint256"
            },
            {
              "internalType": "uint256",
              "name": "liquidity",
              "type": "uint256"
            },
            {
              "internalType": "bool",
              "name": "stable",
              "type": "bool"
            }
          ],
          "internalType": "struct IWeb3PacksDefs.LiquidityPosition",
          "name": "",
          "type": "tuple"
        }
      ],
      "name": "collectLpFees",
      "outputs": [
        {
          "internalType": "uint256",
          "name": "amount0",
          "type": "uint256"
        },
        {
          "internalType": "uint256",
          "name": "amount1",
          "type": "uint256"
        }
      ],
      "stateMutability": "nonpayable",
      "type": "function"
    },
    {
      "inputs": [
        {
          "internalType": "bool",
          "name": "stable",
          "type": "bool"
        }
      ],
      "name": "createLiquidityPosition",
      "outputs": [
        {
          "internalType": "uint256",
          "name": "lpTokenId",
          "type": "uint256"
        },
        {
          "internalType": "uint256",
          "name": "liquidity",
          "type": "uint256"
        },
        {
          "internalType": "uint256",
          "name": "amount0",
          "type": "uint256"
        },
        {
          "internalType": "uint256",
          "name": "amount1",
          "type": "uint256"
        }
      ],
      "stateMutability": "nonpayable",
      "type": "function"
    },
    {
      "inputs": [],
      "name": "getBalanceToken0",
      "outputs": [
        {
          "internalType": "uint256",
          "name": "balanceToken0",
          "type": "uint256"
        }
      ],
      "stateMutability": "view",
      "type": "function"
    },
    {
      "inputs": [],
      "name": "getBalanceToken1",
      "outputs": [
        {
          "internalType": "uint256",
          "name": "balanceToken1",
          "type": "uint256"
        }
      ],
      "stateMutability": "view",
      "type": "function"
    },
    {
      "inputs": [],
      "name": "getBalanceWeth",
      "outputs": [
        {
          "internalType": "uint256",
          "name": "balanceWeth",
          "type": "uint256"
        }
      ],
      "stateMutability": "view",
      "type": "function"
    },
    {
      "inputs": [],
      "name": "getLiquidityAmounts",
      "outputs": [
        {
          "internalType": "uint256",
          "name": "amount0",
          "type": "uint256"
        },
        {
          "internalType": "uint256",
          "name": "amount1",
          "type": "uint256"
        },
        {
          "internalType": "uint256",
          "name": "minAmount0",
          "type": "uint256"
        },
        {
          "internalType": "uint256",
          "name": "minAmount1",
          "type": "uint256"
        }
      ],
      "stateMutability": "view",
      "type": "function"
    },
    {
      "inputs": [
        {
          "internalType": "uint256",
          "name": "",
          "type": "uint256"
        }
      ],
      "name": "getLiquidityToken",
      "outputs": [
        {
          "internalType": "address",
          "name": "tokenAddress",
          "type": "address"
        },
        {
          "internalType": "uint256",
          "name": "tokenId",
          "type": "uint256"
        }
      ],
      "stateMutability": "view",
      "type": "function"
    },
    {
      "inputs": [
        {
          "internalType": "bool",
          "name": "reverse",
          "type": "bool"
        }
      ],
      "name": "getOrderedAssets",
      "outputs": [
        {
          "internalType": "address[]",
          "name": "",
          "type": "address[]"
        },
        {
          "internalType": "uint256[]",
          "name": "",
          "type": "uint256[]"
        }
      ],
      "stateMutability": "view",
      "type": "function"
    },
    {
      "inputs": [],
      "name": "getToken0",
      "outputs": [
        {
          "components": [
            {
              "internalType": "address",
              "name": "tokenAddress",
              "type": "address"
            },
            {
              "internalType": "uint256",
              "name": "tokenDecimals",
              "type": "uint256"
            },
            {
              "internalType": "string",
              "name": "tokenSymbol",
              "type": "string"
            }
          ],
          "internalType": "struct IWeb3PacksDefs.Token",
          "name": "token0",
          "type": "tuple"
        }
      ],
      "stateMutability": "view",
      "type": "function"
    },
    {
      "inputs": [],
      "name": "getToken1",
      "outputs": [
        {
          "components": [
            {
              "internalType": "address",
              "name": "tokenAddress",
              "type": "address"
            },
            {
              "internalType": "uint256",
              "name": "tokenDecimals",
              "type": "uint256"
            },
            {
              "internalType": "string",
              "name": "tokenSymbol",
              "type": "string"
            }
          ],
          "internalType": "struct IWeb3PacksDefs.Token",
          "name": "token1",
          "type": "tuple"
        }
      ],
      "stateMutability": "view",
      "type": "function"
    },
    {
      "inputs": [
        {
          "internalType": "bool",
          "name": "reverse",
          "type": "bool"
        }
      ],
      "name": "getTokenPath",
      "outputs": [
        {
          "components": [
            {
              "internalType": "address",
              "name": "token0",
              "type": "address"
            },
            {
              "internalType": "address",
              "name": "token1",
              "type": "address"
            },
            {
              "internalType": "bool",
              "name": "stable",
              "type": "bool"
            }
          ],
          "internalType": "struct IWeb3PacksDefs.Route[]",
          "name": "tokenPath",
          "type": "tuple[]"
        }
      ],
      "stateMutability": "view",
      "type": "function"
    },
    {
      "inputs": [
        {
          "internalType": "address",
          "name": "",
          "type": "address"
        },
        {
          "internalType": "address",
          "name": "",
          "type": "address"
        },
        {
          "internalType": "uint256",
          "name": "",
          "type": "uint256"
        },
        {
          "internalType": "bytes",
          "name": "",
          "type": "bytes"
        }
      ],
      "name": "onERC721Received",
      "outputs": [
        {
          "internalType": "bytes4",
          "name": "",
          "type": "bytes4"
        }
      ],
      "stateMutability": "pure",
      "type": "function"
    },
    {
      "inputs": [],
      "name": "owner",
      "outputs": [
        {
          "internalType": "address",
          "name": "",
          "type": "address"
        }
      ],
      "stateMutability": "view",
      "type": "function"
    },
    {
      "inputs": [
        {
          "components": [
            {
              "internalType": "uint256",
              "name": "lpTokenId",
              "type": "uint256"
            },
            {
              "internalType": "uint256",
              "name": "liquidity",
              "type": "uint256"
            },
            {
              "internalType": "bool",
              "name": "stable",
              "type": "bool"
            }
          ],
          "internalType": "struct IWeb3PacksDefs.LiquidityPosition",
          "name": "liquidityPosition",
          "type": "tuple"
        }
      ],
      "name": "removeLiquidityPosition",
      "outputs": [
        {
          "internalType": "uint256",
          "name": "amount0",
          "type": "uint256"
        },
        {
          "internalType": "uint256",
          "name": "amount1",
          "type": "uint256"
        }
      ],
      "stateMutability": "nonpayable",
      "type": "function"
    },
    {
      "inputs": [],
      "name": "renounceOwnership",
      "outputs": [],
      "stateMutability": "nonpayable",
      "type": "function"
    },
    {
      "inputs": [
        {
          "internalType": "address",
          "name": "router",
          "type": "address"
        }
      ],
      "name": "setLiquidityRouter",
      "outputs": [],
      "stateMutability": "nonpayable",
      "type": "function"
    },
    {
      "inputs": [
        {
          "internalType": "address",
          "name": "manager",
          "type": "address"
        }
      ],
      "name": "setManager",
      "outputs": [],
      "stateMutability": "nonpayable",
      "type": "function"
    },
    {
      "inputs": [
        {
          "internalType": "uint256",
          "name": "slippage",
          "type": "uint256"
        }
      ],
      "name": "setSlippage",
      "outputs": [],
      "stateMutability": "nonpayable",
      "type": "function"
    },
    {
      "inputs": [
        {
          "internalType": "address",
          "name": "router",
          "type": "address"
        }
      ],
      "name": "setSwapRouter",
      "outputs": [],
      "stateMutability": "nonpayable",
      "type": "function"
    },
    {
      "inputs": [
        {
          "internalType": "int24",
          "name": "tickLower",
          "type": "int24"
        }
      ],
      "name": "setTickLower",
      "outputs": [],
      "stateMutability": "nonpayable",
      "type": "function"
    },
    {
      "inputs": [
        {
          "internalType": "int24",
          "name": "tickUpper",
          "type": "int24"
        }
      ],
      "name": "setTickUpper",
      "outputs": [],
      "stateMutability": "nonpayable",
      "type": "function"
    },
    {
      "inputs": [
        {
          "internalType": "address",
          "name": "weth",
          "type": "address"
        }
      ],
      "name": "setWeth",
      "outputs": [],
      "stateMutability": "nonpayable",
      "type": "function"
    },
    {
      "inputs": [
        {
          "internalType": "uint256",
          "name": "percentOfAmount",
          "type": "uint256"
        },
        {
          "internalType": "address",
          "name": "token0",
          "type": "address"
        },
        {
          "internalType": "address",
          "name": "token1",
          "type": "address"
        }
      ],
      "name": "swapCustom",
      "outputs": [
        {
          "internalType": "uint256",
          "name": "amountOut",
          "type": "uint256"
        }
      ],
      "stateMutability": "nonpayable",
      "type": "function"
    },
    {
      "inputs": [
        {
          "internalType": "uint256",
          "name": "percentOfAmount",
          "type": "uint256"
        },
        {
          "internalType": "bool",
          "name": "reverse",
          "type": "bool"
        }
      ],
      "name": "swapSingle",
      "outputs": [
        {
          "internalType": "uint256",
          "name": "amountOut",
          "type": "uint256"
        }
      ],
      "stateMutability": "nonpayable",
      "type": "function"
    },
    {
      "inputs": [
        {
          "internalType": "address",
          "name": "newOwner",
          "type": "address"
        }
      ],
      "name": "transferOwnership",
      "outputs": [],
      "stateMutability": "nonpayable",
      "type": "function"
    },
    {
      "inputs": [
        {
          "internalType": "address payable",
          "name": "receiver",
          "type": "address"
        },
        {
          "internalType": "uint256",
          "name": "",
          "type": "uint256"
        },
        {
          "internalType": "bool",
          "name": "sellAll",
          "type": "bool"
        }
      ],
      "name": "unbundle",
      "outputs": [
        {
          "internalType": "uint256",
          "name": "ethAmountOut",
          "type": "uint256"
        }
      ],
      "stateMutability": "nonpayable",
      "type": "function"
    },
    {
      "inputs": [
        {
          "internalType": "address payable",
          "name": "receiver",
          "type": "address"
        },
        {
          "internalType": "address",
          "name": "tokenAddress",
          "type": "address"
        },
        {
          "internalType": "uint256",
          "name": "tokenId",
          "type": "uint256"
        },
        {
          "internalType": "uint256",
          "name": "amount",
          "type": "uint256"
        }
      ],
      "name": "withdrawERC1155",
      "outputs": [],
      "stateMutability": "nonpayable",
      "type": "function"
    },
    {
      "inputs": [
        {
          "internalType": "address payable",
          "name": "receiver",
          "type": "address"
        },
        {
          "internalType": "address",
          "name": "tokenAddress",
          "type": "address"
        },
        {
          "internalType": "uint256",
          "name": "tokenId",
          "type": "uint256"
        }
      ],
      "name": "withdrawERC721",
      "outputs": [],
      "stateMutability": "nonpayable",
      "type": "function"
    },
    {
      "inputs": [
        {
          "internalType": "address payable",
          "name": "receiver",
          "type": "address"
        },
        {
          "internalType": "address",
          "name": "tokenAddress",
          "type": "address"
        },
        {
          "internalType": "uint256",
          "name": "amount",
          "type": "uint256"
        }
      ],
      "name": "withdrawErc20",
      "outputs": [],
      "stateMutability": "nonpayable",
      "type": "function"
    },
    {
      "inputs": [
        {
          "internalType": "address payable",
          "name": "receiver",
          "type": "address"
        },
        {
          "internalType": "uint256",
          "name": "amount",
          "type": "uint256"
        }
      ],
      "name": "withdrawEther",
      "outputs": [],
      "stateMutability": "nonpayable",
      "type": "function"
    },
    {
      "stateMutability": "payable",
      "type": "receive"
    }
  ],
  "transactionHash": "0xee884600fdc2c4c0c58b7dbfa090b392c19071e3408966489aec6da54064cf33",
  "args": [
    {
      "weth": "0x4200000000000000000000000000000000000006",
      "token0": "0x4200000000000000000000000000000000000006",
      "token1": "0x66eEd5FF1701E6ed8470DC391F05e27B1d0657eb",
      "manager": "0xEEC393142db33eb94C18f3d5514888Ad5e7BECc2",
      "swapRouter": "0x3a63171DD9BebF4D07BC782FECC7eb0b890C2A45",
      "liquidityRouter": "0x3a63171DD9BebF4D07BC782FECC7eb0b890C2A45",
      "poolId": "0x0000000000000000000000000000000000000000000000000000000000000000",
      "bundlerId": "0x53532d574554482d424d58000000000000000000000000000000000000000000",
      "slippage": "300",
      "tickLower": "-887220",
      "tickUpper": "887220"
    },
    "0xd988097fb8612cc24eeC14542bC03424c656005f",
    "0x8b2EeA0999876AAB1E7955fe01A5D261b570452C"
  ],
  "numDeployments": 1,
  "solcInputHash": "d8b852bd036582cb15fa077fe9c1fdff",
  "bytecode": "0x60806040523480156200001157600080fd5b5060405162003ca838038062003ca88339810160408190526200003491620001fd565b8280620000413362000145565b8051600180546001600160a01b039283166001600160a01b03199182161790915560208301516003805491841691831691909117905560408301516004805491841691831691909117905560608301516002805491841691831691909117905560808301516005805491841691831691909117905560a08301516006805491841691831691909117905560c083015160075560e0830151600855610100830151600955610120830151600a80546101409095015162ffffff90811663010000000265ffffffffffff1990961692169190911793909317909255600c805495821695831695909517909455600d80549390941692169190911790915550620003139050565b600080546001600160a01b038381166001600160a01b0319831681178455604051919092169283917f8be0079c531659141344cd1fd0a4f28419497f9722a3daafe3b4186f6b6457e09190a35050565b60405161016081016001600160401b0381118282101715620001c757634e487b7160e01b600052604160045260246000fd5b60405290565b80516001600160a01b0381168114620001e557600080fd5b919050565b8051600281900b8114620001e557600080fd5b60008060008385036101a08112156200021557600080fd5b610160808212156200022657600080fd5b6200023062000195565b91506200023d86620001cd565b82526200024d60208701620001cd565b60208301526200026060408701620001cd565b60408301526200027360608701620001cd565b60608301526200028660808701620001cd565b60808301526200029960a08701620001cd565b60a083015260c086015160c083015260e086015160e0830152610100808701518184015250610120620002ce818801620001ea565b90830152610140620002e2878201620001ea565b8184015250819450620002f7818701620001cd565b935050506200030a6101808501620001cd565b90509250925092565b61398580620003236000396000f3fe6080604052600436106102eb5760003560e01c8063a176459511610184578063cd6e18f1116100d6578063e7d0c4981161008a578063f2fde38b11610064578063f2fde38b1461097e578063f54da1e21461099e578063f9217660146109b457600080fd5b8063e7d0c49814610924578063f0329f6b1461093e578063f0fa55a91461095e57600080fd5b8063d8102529116100bb578063d8102529146108d8578063daa63ae2146108ee578063e6ef0f661461090e57600080fd5b8063cd6e18f114610898578063d0ebdbe7146108b857600080fd5b8063b30d0aa211610138578063bfe075e011610112578063bfe075e014610824578063cb75436b14610863578063cc427bad1461087857600080fd5b8063b30d0aa214610765578063b8d1452f1461079a578063ba94a315146107ba57600080fd5b8063a5835ff911610169578063a5835ff914610705578063a775586614610725578063a7cfa4511461074557600080fd5b8063a1764595146106b7578063a2d003c7146106d757600080fd5b80634ef4ebaf1161023d578063791966ec116101f15780638da5cb5b116101cb5780638da5cb5b1461064c5780638db738b11461066a578063a0edb48b1461069757600080fd5b8063791966ec146105f757806385497dc11461061757806387e36e601461063757600080fd5b80636f26a710116102225780636f26a71014610550578063715018a6146105c25780637440d0fb146105d757600080fd5b80634ef4ebaf14610510578063522f68151461053057600080fd5b806320ff415f1161029f578063412736571161027957806341273657146104ad57806346fc8a77146104cd578063496b35b9146104f057600080fd5b806320ff415f14610438578063221ea0751461046d5780634025feb21461048d57600080fd5b80631593dee1116102d05780631593dee1146103a65780631b22a4f0146103c8578063206c17bb1461040057600080fd5b80630f74be62146102f7578063150b7a021461033057600080fd5b366102f257005b600080fd5b34801561030357600080fd5b50600a54610318906301000000900460020b81565b60405160029190910b81526020015b60405180910390f35b34801561033c57600080fd5b5061037561034b3660046131df565b7f150b7a020000000000000000000000000000000000000000000000000000000095945050505050565b6040517fffffffff000000000000000000000000000000000000000000000000000000009091168152602001610327565b3480156103b257600080fd5b506103c66103c136600461327e565b6109d4565b005b6103db6103d63660046132bf565b6109ec565b604080516001600160a01b039094168452602084019290925290820152606001610327565b34801561040c57600080fd5b50600554610420906001600160a01b031681565b6040516001600160a01b039091168152602001610327565b34801561044457600080fd5b50610458610453366004613344565b610b55565b60408051928352602083019190915201610327565b34801561047957600080fd5b506103c66104883660046133a6565b610be1565b34801561049957600080fd5b506103c66104a836600461327e565b610c03565b3480156104b957600080fd5b506103c66104c83660046133c9565b610c16565b3480156104d957600080fd5b506104e2610c40565b604051908152602001610327565b3480156104fc57600080fd5b50600454610420906001600160a01b031681565b34801561051c57600080fd5b50600354610420906001600160a01b031681565b34801561053c57600080fd5b506103c661054b3660046133e6565b610d0f565b34801561055c57600080fd5b5060408051606080820183526000808352602080840191909152918301819052825190810183526004546001600160a01b031681526012818301528251808401845260038152620849ab60eb1b92810192909252918201525b6040516103279190613462565b3480156105ce57600080fd5b506103c6610d25565b3480156105e357600080fd5b506104e26105f236600461349a565b610d39565b34801561060357600080fd5b50600c54610420906001600160a01b031681565b34801561062357600080fd5b506103c66106323660046133a6565b610f09565b34801561064357600080fd5b506104e2610f35565b34801561065857600080fd5b506000546001600160a01b0316610420565b34801561067657600080fd5b5061068a6106853660046134dc565b610f95565b60405161032791906134f9565b3480156106a357600080fd5b506103c66106b236600461356d565b611314565b3480156106c357600080fd5b50600154610420906001600160a01b031681565b3480156106e357600080fd5b506106f76106f23660046134dc565b61132e565b6040516103279291906135b3565b34801561071157600080fd5b506104e2610720366004613637565b6115ca565b34801561073157600080fd5b50610458610740366004613344565b61191a565b34801561075157600080fd5b50600654610420906001600160a01b031681565b34801561077157600080fd5b5061077a611b59565b604080519485526020850193909352918301526060820152608001610327565b3480156107a657600080fd5b506103c66107b53660046133c9565b611bcb565b3480156107c657600080fd5b5060408051606080820183526000808352602080840191909152918301819052825190810183526001546001600160a01b031681526012818301528251808401845260048152630ae8aa8960e31b92810192909252918201526105b5565b34801561083057600080fd5b5061084461083f36600461365c565b611bf5565b604080516001600160a01b039093168352602083019190915201610327565b34801561086f57600080fd5b506104e2611c60565b34801561088457600080fd5b506104e2610893366004613675565b611c91565b3480156108a457600080fd5b506103c66108b33660046133c9565b611daa565b3480156108c457600080fd5b506103c66108d33660046133c9565b611dd4565b3480156108e457600080fd5b506104e260075481565b3480156108fa57600080fd5b5061077a6109093660046134dc565b611dfe565b34801561091a57600080fd5b506104e260085481565b34801561093057600080fd5b50600a546103189060020b81565b34801561094a57600080fd5b50600254610420906001600160a01b031681565b34801561096a57600080fd5b506103c661097936600461365c565b612083565b34801561098a57600080fd5b506103c66109993660046133c9565b612090565b3480156109aa57600080fd5b506104e260095481565b3480156109c057600080fd5b50600d54610420906001600160a01b031681565b6109dc612120565b6109e783838361217a565b505050565b600254600090819081906001600160a01b0316331480610a0b57503330145b610a745760405162461bcd60e51b815260206004820152602f60248201527f576562335061636b73526f7574657242617365202d20496e76616c696420576560448201526e3119a830b1b5b99026b0b730b3b2b960891b60648201526084015b60405180910390fd5b610a8161271060006115ca565b9150610ae060408051606080820183526000808352602080840191909152918301819052825190810183526004546001600160a01b031681526012818301528251808401845260038152620849ab60eb1b928101929092529182015290565b5160025490935060009150610b009084906001600160a01b031684612291565b610b09846123ac565b5050826001600160a01b03167feeb24a104634ac471bb06ef0ccbeb5ea3f19bc6a55af51c9096d0bf63fd83ab283604051610b4691815260200190565b60405180910390a29250925092565b60025460009081906001600160a01b0316331480610b7257503330145b610bd65760405162461bcd60e51b815260206004820152602f60248201527f576562335061636b73526f7574657242617365202d20496e76616c696420576560448201526e3119a830b1b5b99026b0b730b3b2b960891b6064820152608401610a6b565b506000928392509050565b610be9612120565b600a805462ffffff191662ffffff92909216919091179055565b610c0b612120565b6109e78383836124a5565b610c1e612120565b600580546001600160a01b0319166001600160a01b0392909216919091179055565b6000610c9f60408051606080820183526000808352602080840191909152918301819052825190810183526004546001600160a01b031681526012818301528251808401845260038152620849ab60eb1b928101929092529182015290565b516040516370a0823160e01b81523060048201526001600160a01b03909116906370a08231906024015b602060405180830381865afa158015610ce6573d6000803e3d6000fd5b505050506040513d601f19601f82011682018060405250810190610d0a91906136ac565b905090565b610d17612120565b610d218282612640565b5050565b610d2d612120565b610d3760006126e2565b565b6002546000906001600160a01b0316331480610d5457503330145b610db85760405162461bcd60e51b815260206004820152602f60248201527f576562335061636b73526f7574657242617365202d20496e76616c696420576560448201526e3119a830b1b5b99026b0b730b3b2b960891b6064820152608401610a6b565b6000610dc46000610f95565b90506000815167ffffffffffffffff811115610de257610de26132ef565b604051908082528060200260200182016040528015610e2d57816020015b6040805160608101825260008082526020808301829052928201528252600019909201910181610e005790505b50905060005b8251811015610ef2576040518060600160405280848381518110610e5957610e596136c5565b6020026020010151600001516001600160a01b03168152602001848381518110610e8557610e856136c5565b6020026020010151602001516001600160a01b03168152602001848381518110610eb157610eb16136c5565b6020026020010151604001511515815250828281518110610ed457610ed46136c5565b60200260200101819052508080610eea906136f1565b915050610e33565b50610eff86868684612732565b9695505050505050565b610f11612120565b600a805462ffffff90921663010000000265ffffff00000019909216919091179055565b6000610c9f60408051606080820183526000808352602080840191909152918301819052825190810183526001546001600160a01b031681526012818301528251808401845260048152630ae8aa8960e31b928101929092529182015290565b6040805160038082526080820190925260609160009190816020015b6040805160608101825260008082526020808301829052928201528252600019909201910181610fb1579050509050821561117c57604051806060016040528061104e60408051606080820183526000808352602080840191909152918301819052825190810183526004546001600160a01b031681526012818301528251808401845260038152620849ab60eb1b928101929092529182015290565b516001600160a01b039081168252600d54166020820152600060409091018190528251839190611080576110806136c5565b60209081029190910181019190915260408051606081018252600d546001600160a01b039081168252600c5416928101929092526000908201528151829060019081106110cf576110cf6136c5565b6020908102919091018101919091526040805160608082018352600c546001600160a01b039081168352835180830185526000808252818701528401829052835191820184526001541681526012818501528251808401845260048152630ae8aa8960e31b818601529281019290925291820190516001600160a01b03168152600060209091015281518290600290811061116c5761116c6136c5565b602002602001018190525061130e565b60405180606001604052806111e560408051606080820183526000808352602080840191909152918301819052825190810183526001546001600160a01b031681526012818301528251808401845260048152630ae8aa8960e31b928101929092529182015290565b516001600160a01b039081168252600c54166020820152600060409091018190528251839190611217576112176136c5565b60209081029190910181019190915260408051606081018252600c546001600160a01b039081168252600d541692810192909252600090820152815182906001908110611266576112666136c5565b6020908102919091018101919091526040805160608082018352600d546001600160a01b039081168352835180830185526000808252818701528401829052835191820184526004541681526012818501528251808401845260038152620849ab60eb1b818601529281019290925291820190516001600160a01b031681526000602090910152815182906002908110611302576113026136c5565b60200260200101819052505b92915050565b61131c612120565b611328848484846128e9565b50505050565b60408051600280825260608281019093528291600091816020016020820280368337019050509050836113b95760408051606080820183526000808352602080840191909152918301819052825190810183526001546001600160a01b031681526012818301528251808401845260048152630ae8aa8960e31b928101929092529182015251611412565b60408051606080820183526000808352602080840191909152918301819052825190810183526004546001600160a01b031681526012818301528251808401845260038152620849ab60eb1b9281019290925291820152515b81600081518110611425576114256136c5565b60200260200101906001600160a01b031690816001600160a01b031681525050836114a75760408051606080820183526000808352602080840191909152918301819052825190810183526004546001600160a01b031681526012818301528251808401845260038152620849ab60eb1b928101929092529182015251611501565b60408051606080820183526000808352602080840191909152918301819052825190810183526001546001600160a01b031681526012818301528251808401845260048152630ae8aa8960e31b9281019290925291820152515b81600181518110611514576115146136c5565b6001600160a01b03929092166020928302919091018201526040805160028082526060820183526000939192909183019080368337019050509050846115615761155c610f35565b611569565b611569610c40565b8160008151811061157c5761157c6136c5565b6020026020010181815250508461159a57611595610c40565b6115a2565b6115a2610f35565b816001815181106115b5576115b56136c5565b60209081029190910101529094909350915050565b6002546000906001600160a01b03163314806115e557503330145b6116495760405162461bcd60e51b815260206004820152602f60248201527f576562335061636b73526f7574657242617365202d20496e76616c696420576560448201526e3119a830b1b5b99026b0b730b3b2b960891b6064820152608401610a6b565b6000826116ad5760408051606080820183526000808352602080840191909152918301819052825190810183526001546001600160a01b031681526012818301528251808401845260048152630ae8aa8960e31b9281019290925291820152611705565b60408051606080820183526000808352602080840191909152918301819052825190810183526004546001600160a01b031681526012818301528251808401845260038152620849ab60eb1b92810192909252918201525b905060008361176a5760408051606080820183526000808352602080840191909152918301819052825190810183526004546001600160a01b031681526012818301528251808401845260038152620849ab60eb1b92810192909252918201526117c3565b60408051606080820183526000808352602080840191909152918301819052825190810183526001546001600160a01b031681526012818301528251808401845260048152630ae8aa8960e31b92810192909252918201525b905060006117d085610f95565b90506000815167ffffffffffffffff8111156117ee576117ee6132ef565b60405190808252806020026020018201604052801561183957816020015b604080516060810182526000808252602080830182905292820152825260001990920191018161180c5790505b50905060005b82518110156118fe576040518060600160405280848381518110611865576118656136c5565b6020026020010151600001516001600160a01b03168152602001848381518110611891576118916136c5565b6020026020010151602001516001600160a01b031681526020018483815181106118bd576118bd6136c5565b60200260200101516040015115158152508282815181106118e0576118e06136c5565b602002602001018190525080806118f6906136f1565b91505061183f565b508351835161190f91899184612732565b979650505050505050565b60025460009081906001600160a01b031633148061193757503330145b61199b5760405162461bcd60e51b815260206004820152602f60248201527f576562335061636b73526f7574657242617365202d20496e76616c696420576560448201526e3119a830b1b5b99026b0b730b3b2b960891b6064820152608401610a6b565b60006119fb60408051606080820183526000808352602080840191909152918301819052825190810183526001546001600160a01b031681526012818301528251808401845260048152630ae8aa8960e31b928101929092529182015290565b90506000611a5c60408051606080820183526000808352602080840191909152918301819052825190810183526004546001600160a01b031681526012818301528251808401845260038152620849ab60eb1b928101929092529182015290565b90506000611a68612aa2565b6006546020880151919250611a889183916001600160a01b031690612c06565b6006548351835160408981015160208b015191517f0dede6c40000000000000000000000000000000000000000000000000000000081526001600160a01b039485166004820152928416602484015215156044830152606482015260006084820181905260a48201523060c48201524260e4820152911690630dede6c4906101040160408051808303816000875af1158015611b28573d6000803e3d6000fd5b505050506040513d601f19601f82011682018060405250810190611b4c919061370a565b9097909650945050505050565b600080600080611b67610f35565b9350611b71610c40565b9250612710600954612710611b86919061372e565b611b909086613741565b611b9a9190613758565b9150612710600954612710611baf919061372e565b611bb99085613741565b611bc39190613758565b905090919293565b611bd3612120565b600180546001600160a01b0319166001600160a01b0392909216919091179055565b600080611c5560408051606080820183526000808352602080840191909152918301819052825190810183526004546001600160a01b031681526012818301528251808401845260038152620849ab60eb1b928101929092529182015290565b519360009350915050565b6001546040516370a0823160e01b81523060048201526000916001600160a01b0316906370a0823190602401610cc9565b6002546000906001600160a01b0316331480611cac57503330145b611d105760405162461bcd60e51b815260206004820152602f60248201527f576562335061636b73526f7574657242617365202d20496e76616c696420576560448201526e3119a830b1b5b99026b0b730b3b2b960891b6064820152608401610a6b565b8115611d3457611d2361271060016115ca565b50611d2d84612d33565b9050611da3565b611da3611d9460408051606080820183526000808352602080840191909152918301819052825190810183526004546001600160a01b031681526012818301528251808401845260038152620849ab60eb1b928101929092529182015290565b5185611d9e610c40565b612291565b9392505050565b611db2612120565b600680546001600160a01b0319166001600160a01b0392909216919091179055565b611ddc612120565b600280546001600160a01b0319166001600160a01b0392909216919091179055565b6002546000908190819081906001600160a01b0316331480611e1f57503330145b611e835760405162461bcd60e51b815260206004820152602f60248201527f576562335061636b73526f7574657242617365202d20496e76616c696420576560448201526e3119a830b1b5b99026b0b730b3b2b960891b6064820152608401610a6b565b6000611ee360408051606080820183526000808352602080840191909152918301819052825190810183526001546001600160a01b031681526012818301528251808401845260048152630ae8aa8960e31b928101929092529182015290565b90506000611f4460408051606080820183526000808352602080840191909152918301819052825190810183526004546001600160a01b031681526012818301528251808401845260038152620849ab60eb1b928101929092529182015290565b9050600080600080611f54611b59565b89516006549498509296509094509250611f77916001600160a01b031686612c06565b8451600654611f9091906001600160a01b031685612c06565b600654865186516040517f5a47ddc30000000000000000000000000000000000000000000000000000000081526001600160a01b03928316600482015290821660248201528d15156044820152606481018790526084810186905260a4810185905260c481018490523060e482015242610104820152911690635a47ddc390610124016060604051808303816000875af1158015612032573d6000803e3d6000fd5b505050506040513d601f19601f82011682018060405250810190612056919061377a565b9a5090985096506000612067612aa2565b9050806001600160a01b03169a50505050505050509193509193565b61208b612120565b600955565b612098612120565b6001600160a01b0381166121145760405162461bcd60e51b815260206004820152602660248201527f4f776e61626c653a206e6577206f776e657220697320746865207a65726f206160448201527f64647265737300000000000000000000000000000000000000000000000000006064820152608401610a6b565b61211d816126e2565b50565b6000546001600160a01b03163314610d375760405162461bcd60e51b815260206004820181905260248201527f4f776e61626c653a2063616c6c6572206973206e6f7420746865206f776e65726044820152606401610a6b565b6001600160a01b0383166121bc5760405162461bcd60e51b81526020600482015260096024820152684248503a452d34303360b81b6044820152606401610a6b565b6040516370a0823160e01b815230600482015281906001600160a01b038416906370a0823190602401602060405180830381865afa158015612202573d6000803e3d6000fd5b505050506040513d601f19601f8201168201806040525081019061222691906136ac565b106109e75761223f6001600160a01b0383168483612de0565b816001600160a01b0316836001600160a01b03167f6c9d637297625e945b296ff73a71fcfbd0a9e062652b6491a921c4c60194176b8360405161228491815260200190565b60405180910390a3505050565b604080516001600160a01b038481166024830152604480830185905283518084039091018152606490920183526020820180516001600160e01b031663a9059cbb60e01b17905291516000928392908716916122ed91906137a8565b6000604051808303816000865af19150503d806000811461232a576040519150601f19603f3d011682016040523d82523d6000602084013e61232f565b606091505b509150915081801561235957508051158061235957508080602001905181019061235991906137c4565b6123a55760405162461bcd60e51b815260206004820152600260248201527f53540000000000000000000000000000000000000000000000000000000000006044820152606401610a6b565b5050505050565b6000806123b7610f35565b915081156124285761242861242060408051606080820183526000808352602080840191909152918301819052825190810183526001546001600160a01b031681526012818301528251808401845260048152630ae8aa8960e31b928101929092529182015290565b518484612291565b612430610c40565b905080156124a0576124a061249860408051606080820183526000808352602080840191909152918301819052825190810183526004546001600160a01b031681526012818301528251808401845260038152620849ab60eb1b928101929092529182015290565b518483612291565b915091565b6001600160a01b0383166124e75760405162461bcd60e51b81526020600482015260096024820152684248503a452d34303360b81b6044820152606401610a6b565b6040517f6352211e0000000000000000000000000000000000000000000000000000000081526004810182905230906001600160a01b03841690636352211e90602401602060405180830381865afa158015612547573d6000803e3d6000fd5b505050506040513d601f19601f8201168201806040525081019061256b91906137e1565b6001600160a01b0316036109e7576040517f23b872dd0000000000000000000000000000000000000000000000000000000081523060048201526001600160a01b038481166024830152604482018390528316906323b872dd90606401600060405180830381600087803b1580156125e257600080fd5b505af11580156125f6573d6000803e3d6000fd5b5050505080826001600160a01b0316846001600160a01b03167ffefe036cac4ee3a4aca074a81cbcc4376e1484693289078dbec149c890101d5b60405160405180910390a4505050565b6001600160a01b0382166126825760405162461bcd60e51b81526020600482015260096024820152684248503a452d34303360b81b6044820152606401610a6b565b804710610d215761269c6001600160a01b03831682612e32565b816001600160a01b03167eddb683bb45cd5d0ad8a200c6fae7152b1c236ee90a4a37db692407f5cc38bd826040516126d691815260200190565b60405180910390a25050565b600080546001600160a01b038381166001600160a01b0319831681178455604051919092169283917f8be0079c531659141344cd1fd0a4f28419497f9722a3daafe3b4186f6b6457e09190a35050565b6040516370a0823160e01b815230600482015260009081906001600160a01b038616906370a0823190602401602060405180830381865afa15801561277b573d6000803e3d6000fd5b505050506040513d601f19601f8201168201806040525081019061279f91906136ac565b905060006127106127b08884613741565b6127ba9190613758565b905080156128df576005546127da9087906001600160a01b031683612c06565b6005546040517ff41766d80000000000000000000000000000000000000000000000000000000081526001600160a01b039091169063f41766d89061282c9084906000908990309042906004016137fe565b6000604051808303816000875af115801561284b573d6000803e3d6000fd5b505050506040513d6000823e601f3d908101601f191682016040526128739190810190613896565b506040516370a0823160e01b81523060048201526001600160a01b038616906370a0823190602401602060405180830381865afa1580156128b8573d6000803e3d6000fd5b505050506040513d601f19601f820116820180604052508101906128dc91906136ac565b92505b5050949350505050565b6001600160a01b03841661292b5760405162461bcd60e51b81526020600482015260096024820152684248503a452d34303360b81b6044820152606401610a6b565b6040517efdd58e0000000000000000000000000000000000000000000000000000000081523060048201526024810183905281906001600160a01b0385169062fdd58e90604401602060405180830381865afa15801561298f573d6000803e3d6000fd5b505050506040513d601f19601f820116820180604052508101906129b391906136ac565b10611328576040517ff242432a0000000000000000000000000000000000000000000000000000000081523060048201526001600160a01b038581166024830152604482018490526064820183905260a06084830152600060a483015284169063f242432a9060c401600060405180830381600087803b158015612a3657600080fd5b505af1158015612a4a573d6000803e3d6000fd5b5050505081836001600160a01b0316856001600160a01b03167f620337bf89eea2b9ae2657beead83b5fa620452817118348aff96e201d52598b84604051612a9491815260200190565b60405180910390a450505050565b600080612b0360408051606080820183526000808352602080840191909152918301819052825190810183526001546001600160a01b031681526012818301528251808401845260048152630ae8aa8960e31b928101929092529182015290565b90506000612b6460408051606080820183526000808352602080840191909152918301819052825190810183526004546001600160a01b031681526012818301528251808401845260038152620849ab60eb1b928101929092529182015290565b600654835182516040517f28eb0b4a0000000000000000000000000000000000000000000000000000000081526001600160a01b03928316600482015290821660248201526000604482015292935016906328eb0b4a90606401602060405180830381865afa158015612bdb573d6000803e3d6000fd5b505050506040513d601f19601f82011682018060405250810190612bff91906137e1565b9250505090565b604080516001600160a01b038481166024830152604480830185905283518084039091018152606490920183526020820180516001600160e01b03167f095ea7b3000000000000000000000000000000000000000000000000000000001790529151600092839290871691612c7b91906137a8565b6000604051808303816000865af19150503d8060008114612cb8576040519150601f19603f3d011682016040523d82523d6000602084013e612cbd565b606091505b5091509150818015612ce7575080511580612ce7575080806020019051810190612ce791906137c4565b6123a55760405162461bcd60e51b815260206004820152600260248201527f53410000000000000000000000000000000000000000000000000000000000006044820152606401610a6b565b600080612d3e611c60565b90508015612dbe576001546040517f2e1a7d4d000000000000000000000000000000000000000000000000000000008152600481018390526001600160a01b0390911690632e1a7d4d90602401600060405180830381600087803b158015612da557600080fd5b505af1158015612db9573d6000803e3d6000fd5b505050505b4791508115612dda57612dda6001600160a01b03841683612e32565b50919050565b604080516001600160a01b038416602482015260448082018490528251808303909101815260649091019091526020810180516001600160e01b031663a9059cbb60e01b1790526109e7908490612f4b565b80471015612e825760405162461bcd60e51b815260206004820152601d60248201527f416464726573733a20696e73756666696369656e742062616c616e63650000006044820152606401610a6b565b6000826001600160a01b03168260405160006040518083038185875af1925050503d8060008114612ecf576040519150601f19603f3d011682016040523d82523d6000602084013e612ed4565b606091505b50509050806109e75760405162461bcd60e51b815260206004820152603a60248201527f416464726573733a20756e61626c6520746f2073656e642076616c75652c207260448201527f6563697069656e74206d617920686176652072657665727465640000000000006064820152608401610a6b565b6000612fa0826040518060400160405280602081526020017f5361666545524332303a206c6f772d6c6576656c2063616c6c206661696c6564815250856001600160a01b03166130339092919063ffffffff16565b9050805160001480612fc1575080806020019051810190612fc191906137c4565b6109e75760405162461bcd60e51b815260206004820152602a60248201527f5361666545524332303a204552433230206f7065726174696f6e20646964206e60448201527f6f742073756363656564000000000000000000000000000000000000000000006064820152608401610a6b565b6060613042848460008561304a565b949350505050565b6060824710156130c25760405162461bcd60e51b815260206004820152602660248201527f416464726573733a20696e73756666696369656e742062616c616e636520666f60448201527f722063616c6c00000000000000000000000000000000000000000000000000006064820152608401610a6b565b600080866001600160a01b031685876040516130de91906137a8565b60006040518083038185875af1925050503d806000811461311b576040519150601f19603f3d011682016040523d82523d6000602084013e613120565b606091505b50915091506128dc878383876060831561319b578251600003613194576001600160a01b0385163b6131945760405162461bcd60e51b815260206004820152601d60248201527f416464726573733a2063616c6c20746f206e6f6e2d636f6e74726163740000006044820152606401610a6b565b5081613042565b61304283838151156131b05781518083602001fd5b8060405162461bcd60e51b8152600401610a6b919061393c565b6001600160a01b038116811461211d57600080fd5b6000806000806000608086880312156131f757600080fd5b8535613202816131ca565b94506020860135613212816131ca565b935060408601359250606086013567ffffffffffffffff8082111561323657600080fd5b818801915088601f83011261324a57600080fd5b81358181111561325957600080fd5b89602082850101111561326b57600080fd5b9699959850939650602001949392505050565b60008060006060848603121561329357600080fd5b833561329e816131ca565b925060208401356132ae816131ca565b929592945050506040919091013590565b600080604083850312156132d257600080fd5b8235915060208301356132e4816131ca565b809150509250929050565b634e487b7160e01b600052604160045260246000fd5b604051601f8201601f1916810167ffffffffffffffff8111828210171561332e5761332e6132ef565b604052919050565b801515811461211d57600080fd5b60006060828403121561335657600080fd5b6040516060810181811067ffffffffffffffff82111715613379576133796132ef565b80604052508235815260208301356020820152604083013561339a81613336565b60408201529392505050565b6000602082840312156133b857600080fd5b81358060020b8114611da357600080fd5b6000602082840312156133db57600080fd5b8135611da3816131ca565b600080604083850312156133f957600080fd5b8235613404816131ca565b946020939093013593505050565b60005b8381101561342d578181015183820152602001613415565b50506000910152565b6000815180845261344e816020860160208601613412565b601f01601f19169290920160200192915050565b602081526001600160a01b03825116602082015260208201516040820152600060408301516060808401526130426080840182613436565b6000806000606084860312156134af57600080fd5b8335925060208401356134c1816131ca565b915060408401356134d1816131ca565b809150509250925092565b6000602082840312156134ee57600080fd5b8135611da381613336565b6020808252825182820181905260009190848201906040850190845b818110156135615761354e8385516001600160a01b03808251168352806020830151166020840152506040810151151560408301525050565b9284019260609290920191600101613515565b50909695505050505050565b6000806000806080858703121561358357600080fd5b843561358e816131ca565b9350602085013561359e816131ca565b93969395505050506040820135916060013590565b604080825283519082018190526000906020906060840190828701845b828110156135f55781516001600160a01b0316845292840192908401906001016135d0565b5050508381038285015284518082528583019183019060005b8181101561362a5783518352928401929184019160010161360e565b5090979650505050505050565b6000806040838503121561364a57600080fd5b8235915060208301356132e481613336565b60006020828403121561366e57600080fd5b5035919050565b60008060006060848603121561368a57600080fd5b8335613695816131ca565b92506020840135915060408401356134d181613336565b6000602082840312156136be57600080fd5b5051919050565b634e487b7160e01b600052603260045260246000fd5b634e487b7160e01b600052601160045260246000fd5b600060018201613703576137036136db565b5060010190565b6000806040838503121561371d57600080fd5b505080516020909101519092909150565b8181038181111561130e5761130e6136db565b808202811582820484141761130e5761130e6136db565b60008261377557634e487b7160e01b600052601260045260246000fd5b500490565b60008060006060848603121561378f57600080fd5b8351925060208401519150604084015190509250925092565b600082516137ba818460208701613412565b9190910192915050565b6000602082840312156137d657600080fd5b8151611da381613336565b6000602082840312156137f357600080fd5b8151611da3816131ca565b600060a082018783526020878185015260a0604085015281875180845260c086019150828901935060005b81811015613875576138628386516001600160a01b03808251168352806020830151166020840152506040810151151560408301525050565b9383019360609290920191600101613829565b50506001600160a01b03969096166060850152505050608001529392505050565b600060208083850312156138a957600080fd5b825167ffffffffffffffff808211156138c157600080fd5b818501915085601f8301126138d557600080fd5b8151818111156138e7576138e76132ef565b8060051b91506138f8848301613305565b818152918301840191848101908884111561391257600080fd5b938501935b8385101561393057845182529385019390850190613917565b98975050505050505050565b602081526000611da3602083018461343656fea26469706673582212201c135e41b4df94cec06be1d01a4b56f7ae687c9d363e8daf5eaf44f7428939c764736f6c63430008110033",
  "devdoc": {
    "kind": "dev",
    "methods": {
      "getLiquidityAmounts()": {
        "details": "This can be overridden to specify custom amounts for swapping"
      },
      "getLiquidityToken(uint256)": {
        "details": "This can be overridden to specify custom liquidity tokens"
      },
      "getOrderedAssets(bool)": {
        "details": "This can be overridden to specify custom ordering for swapping"
      },
      "getToken0()": {
        "details": "This should be overridden if Token0 is not WETH"
      },
      "getToken1()": {
        "details": "This should be overridden if Token1 is not WETH"
      },
      "getTokenPath(bool)": {
        "details": "This can be overridden to specify custom routes/paths for swapping"
      },
      "owner()": {
        "details": "Returns the address of the current owner."
      },
      "renounceOwnership()": {
        "details": "Leaves the contract without owner. It will not be possible to call `onlyOwner` functions. Can only be called by the current owner. NOTE: Renouncing ownership will leave the contract without an owner, thereby disabling any functionality that is only available to the owner."
      },
      "transferOwnership(address)": {
        "details": "Transfers ownership of the contract to a new account (`newOwner`). Can only be called by the current owner."
      }
    },
    "version": 1
  },
  "userdoc": {
    "kind": "user",
    "methods": {},
    "version": 1
  },
  "storageLayout": {
    "storage": [
      {
        "astId": 7,
        "contract": "contracts/lib/mode/bundlers/SSWethBmx.sol:SSWethBmx",
        "label": "_owner",
        "offset": 0,
        "slot": "0",
        "type": "t_address"
      },
      {
        "astId": 10031,
        "contract": "contracts/lib/mode/bundlers/SSWethBmx.sol:SSWethBmx",
        "label": "_weth",
        "offset": 0,
        "slot": "1",
        "type": "t_address"
      },
      {
        "astId": 10033,
        "contract": "contracts/lib/mode/bundlers/SSWethBmx.sol:SSWethBmx",
        "label": "_manager",
        "offset": 0,
        "slot": "2",
        "type": "t_address"
      },
      {
        "astId": 10035,
        "contract": "contracts/lib/mode/bundlers/SSWethBmx.sol:SSWethBmx",
        "label": "_token0",
        "offset": 0,
        "slot": "3",
        "type": "t_address"
      },
      {
        "astId": 10037,
        "contract": "contracts/lib/mode/bundlers/SSWethBmx.sol:SSWethBmx",
        "label": "_token1",
        "offset": 0,
        "slot": "4",
        "type": "t_address"
      },
      {
        "astId": 10039,
        "contract": "contracts/lib/mode/bundlers/SSWethBmx.sol:SSWethBmx",
        "label": "_swapRouter",
        "offset": 0,
        "slot": "5",
        "type": "t_address"
      },
      {
        "astId": 10041,
        "contract": "contracts/lib/mode/bundlers/SSWethBmx.sol:SSWethBmx",
        "label": "_liquidityRouter",
        "offset": 0,
        "slot": "6",
        "type": "t_address"
      },
      {
        "astId": 10043,
        "contract": "contracts/lib/mode/bundlers/SSWethBmx.sol:SSWethBmx",
        "label": "_poolId",
        "offset": 0,
        "slot": "7",
        "type": "t_bytes32"
      },
      {
        "astId": 10045,
        "contract": "contracts/lib/mode/bundlers/SSWethBmx.sol:SSWethBmx",
        "label": "_bundlerId",
        "offset": 0,
        "slot": "8",
        "type": "t_bytes32"
      },
      {
        "astId": 10047,
        "contract": "contracts/lib/mode/bundlers/SSWethBmx.sol:SSWethBmx",
        "label": "_slippage",
        "offset": 0,
        "slot": "9",
        "type": "t_uint256"
      },
      {
        "astId": 10049,
        "contract": "contracts/lib/mode/bundlers/SSWethBmx.sol:SSWethBmx",
        "label": "_tickLower",
        "offset": 0,
        "slot": "10",
        "type": "t_int24"
      },
      {
        "astId": 10051,
        "contract": "contracts/lib/mode/bundlers/SSWethBmx.sol:SSWethBmx",
        "label": "_tickUpper",
        "offset": 3,
        "slot": "10",
        "type": "t_int24"
      },
      {
        "astId": 10056,
        "contract": "contracts/lib/mode/bundlers/SSWethBmx.sol:SSWethBmx",
        "label": "_liquidityPositionsByTokenId",
        "offset": 0,
        "slot": "11",
        "type": "t_mapping(t_uint256,t_struct(LiquidityPosition)7508_storage)"
      },
      {
        "astId": 12651,
        "contract": "contracts/lib/mode/bundlers/SSWethBmx.sol:SSWethBmx",
        "label": "_usdc",
        "offset": 0,
        "slot": "12",
        "type": "t_address"
      },
      {
        "astId": 12653,
        "contract": "contracts/lib/mode/bundlers/SSWethBmx.sol:SSWethBmx",
        "label": "_wmlt",
        "offset": 0,
        "slot": "13",
        "type": "t_address"
      }
    ],
    "types": {
      "t_address": {
        "encoding": "inplace",
        "label": "address",
        "numberOfBytes": "20"
      },
      "t_bool": {
        "encoding": "inplace",
        "label": "bool",
        "numberOfBytes": "1"
      },
      "t_bytes32": {
        "encoding": "inplace",
        "label": "bytes32",
        "numberOfBytes": "32"
      },
      "t_int24": {
        "encoding": "inplace",
        "label": "int24",
        "numberOfBytes": "3"
      },
      "t_mapping(t_uint256,t_struct(LiquidityPosition)7508_storage)": {
        "encoding": "mapping",
        "key": "t_uint256",
        "label": "mapping(uint256 => struct IWeb3PacksDefs.LiquidityPosition)",
        "numberOfBytes": "32",
        "value": "t_struct(LiquidityPosition)7508_storage"
      },
      "t_struct(LiquidityPosition)7508_storage": {
        "encoding": "inplace",
        "label": "struct IWeb3PacksDefs.LiquidityPosition",
        "members": [
          {
            "astId": 7503,
            "contract": "contracts/lib/mode/bundlers/SSWethBmx.sol:SSWethBmx",
            "label": "lpTokenId",
            "offset": 0,
            "slot": "0",
            "type": "t_uint256"
          },
          {
            "astId": 7505,
            "contract": "contracts/lib/mode/bundlers/SSWethBmx.sol:SSWethBmx",
            "label": "liquidity",
            "offset": 0,
            "slot": "1",
            "type": "t_uint256"
          },
          {
            "astId": 7507,
            "contract": "contracts/lib/mode/bundlers/SSWethBmx.sol:SSWethBmx",
            "label": "stable",
            "offset": 0,
            "slot": "2",
            "type": "t_bool"
          }
        ],
        "numberOfBytes": "96"
      },
      "t_uint256": {
        "encoding": "inplace",
        "label": "uint256",
        "numberOfBytes": "32"
      }
    }
  }
}