{
  "address": "0xB7DB5BF6B45782372B40e759cB60A79a522942f3",
  "abi": [
    {
      "inputs": [
        {
          "internalType": "address",
          "name": "weth",
          "type": "address"
        },
        {
          "internalType": "address",
          "name": "proton",
          "type": "address"
        },
        {
          "internalType": "address",
          "name": "chargedParticles",
          "type": "address"
        },
        {
          "internalType": "address",
          "name": "chargedState",
          "type": "address"
        }
      ],
      "stateMutability": "nonpayable",
      "type": "constructor"
    },
    {
      "inputs": [
        {
          "internalType": "bytes32",
          "name": "bundlerId",
          "type": "bytes32"
        }
      ],
      "name": "BundlerNotRegistered",
      "type": "error"
    },
    {
      "inputs": [],
      "name": "ContractNotAllowed",
      "type": "error"
    },
    {
      "inputs": [],
      "name": "FailedToExitWeth",
      "type": "error"
    },
    {
      "inputs": [],
      "name": "FundingFailed",
      "type": "error"
    },
    {
      "inputs": [
        {
          "internalType": "uint256",
          "name": "value",
          "type": "uint256"
        },
        {
          "internalType": "uint256",
          "name": "ethPackPrice",
          "type": "uint256"
        },
        {
          "internalType": "uint256",
          "name": "protocolFee",
          "type": "uint256"
        }
      ],
      "name": "InsufficientForFee",
      "type": "error"
    },
    {
      "inputs": [],
      "name": "MismatchedTokens",
      "type": "error"
    },
    {
      "inputs": [
        {
          "internalType": "address",
          "name": "tokenAddress",
          "type": "address"
        }
      ],
      "name": "MissingLiquidityUUID",
      "type": "error"
    },
    {
      "inputs": [],
      "name": "NativeAssetTransferFailed",
      "type": "error"
    },
    {
      "inputs": [],
      "name": "NoBundlesInPack",
      "type": "error"
    },
    {
      "inputs": [],
      "name": "NotOwnerOrApproved",
      "type": "error"
    },
    {
      "inputs": [],
      "name": "NullReceiver",
      "type": "error"
    },
    {
      "inputs": [],
      "name": "SwapFailed",
      "type": "error"
    },
    {
      "inputs": [
        {
          "internalType": "address",
          "name": "tokenOut",
          "type": "address"
        },
        {
          "internalType": "uint256",
          "name": "amountIn",
          "type": "uint256"
        },
        {
          "internalType": "address",
          "name": "router",
          "type": "address"
        }
      ],
      "name": "UnsucessfulSwap",
      "type": "error"
    },
    {
      "anonymous": false,
      "inputs": [
        {
          "indexed": true,
          "internalType": "address",
          "name": "tokenAddress",
          "type": "address"
        },
        {
          "indexed": false,
          "internalType": "uint256",
          "name": "amountOut",
          "type": "uint256"
        }
      ],
      "name": "BundledERC20",
      "type": "event"
    },
    {
      "anonymous": false,
      "inputs": [
        {
          "indexed": true,
          "internalType": "address",
          "name": "tokenAddress",
          "type": "address"
        },
        {
          "indexed": false,
          "internalType": "uint256",
          "name": "nftTokenId",
          "type": "uint256"
        }
      ],
      "name": "BundledERC721",
      "type": "event"
    },
    {
      "anonymous": false,
      "inputs": [
        {
          "indexed": true,
          "internalType": "address",
          "name": "chargedParticles",
          "type": "address"
        }
      ],
      "name": "ChargedParticlesSet",
      "type": "event"
    },
    {
      "anonymous": false,
      "inputs": [
        {
          "indexed": true,
          "internalType": "address",
          "name": "chargedState",
          "type": "address"
        }
      ],
      "name": "ChargedStateSet",
      "type": "event"
    },
    {
      "anonymous": false,
      "inputs": [
        {
          "indexed": true,
          "internalType": "address",
          "name": "previousOwner",
          "type": "address"
        },
        {
          "indexed": true,
          "internalType": "address",
          "name": "newOwner",
          "type": "address"
        }
      ],
      "name": "OwnershipTransferred",
      "type": "event"
    },
    {
      "anonymous": false,
      "inputs": [
        {
          "indexed": true,
          "internalType": "uint256",
          "name": "tokenId",
          "type": "uint256"
        },
        {
          "indexed": true,
          "internalType": "address",
          "name": "receiver",
          "type": "address"
        },
        {
          "indexed": false,
          "internalType": "bytes32",
          "name": "packType",
          "type": "bytes32"
        },
        {
          "indexed": false,
          "internalType": "uint256",
          "name": "ethPackPrice",
          "type": "uint256"
        }
      ],
      "name": "PackBundled",
      "type": "event"
    },
    {
      "anonymous": false,
      "inputs": [
        {
          "indexed": true,
          "internalType": "uint256",
          "name": "tokenId",
          "type": "uint256"
        },
        {
          "indexed": true,
          "internalType": "address",
          "name": "receiver",
          "type": "address"
        },
        {
          "indexed": false,
          "internalType": "uint256",
          "name": "ethAmount",
          "type": "uint256"
        }
      ],
      "name": "PackUnbundled",
      "type": "event"
    },
    {
      "anonymous": false,
      "inputs": [
        {
          "indexed": false,
          "internalType": "address",
          "name": "account",
          "type": "address"
        }
      ],
      "name": "Paused",
      "type": "event"
    },
    {
      "anonymous": false,
      "inputs": [
        {
          "indexed": false,
          "internalType": "uint256",
          "name": "fee",
          "type": "uint256"
        }
      ],
      "name": "ProtocolFeeSet",
      "type": "event"
    },
    {
      "anonymous": false,
      "inputs": [
        {
          "indexed": true,
          "internalType": "address",
          "name": "proton",
          "type": "address"
        }
      ],
      "name": "ProtonSet",
      "type": "event"
    },
    {
      "anonymous": false,
      "inputs": [
        {
          "indexed": false,
          "internalType": "address",
          "name": "account",
          "type": "address"
        }
      ],
      "name": "Unpaused",
      "type": "event"
    },
    {
      "anonymous": false,
      "inputs": [
        {
          "indexed": true,
          "internalType": "address",
          "name": "web3state",
          "type": "address"
        }
      ],
      "name": "Web3PacksStateSet",
      "type": "event"
    },
    {
      "anonymous": false,
      "inputs": [
        {
          "indexed": true,
          "internalType": "address",
          "name": "treasury",
          "type": "address"
        }
      ],
      "name": "Web3PacksTreasurySet",
      "type": "event"
    },
    {
      "anonymous": false,
      "inputs": [
        {
          "indexed": true,
          "internalType": "address",
          "name": "receiver",
          "type": "address"
        },
        {
          "indexed": true,
          "internalType": "address",
          "name": "tokenAddress",
          "type": "address"
        },
        {
          "indexed": true,
          "internalType": "uint256",
          "name": "tokenId",
          "type": "uint256"
        },
        {
          "indexed": false,
          "internalType": "uint256",
          "name": "amount",
          "type": "uint256"
        }
      ],
      "name": "WithdrawStuckERC1155",
      "type": "event"
    },
    {
      "anonymous": false,
      "inputs": [
        {
          "indexed": true,
          "internalType": "address",
          "name": "receiver",
          "type": "address"
        },
        {
          "indexed": true,
          "internalType": "address",
          "name": "tokenAddress",
          "type": "address"
        },
        {
          "indexed": false,
          "internalType": "uint256",
          "name": "amount",
          "type": "uint256"
        }
      ],
      "name": "WithdrawStuckERC20",
      "type": "event"
    },
    {
      "anonymous": false,
      "inputs": [
        {
          "indexed": true,
          "internalType": "address",
          "name": "receiver",
          "type": "address"
        },
        {
          "indexed": true,
          "internalType": "address",
          "name": "tokenAddress",
          "type": "address"
        },
        {
          "indexed": true,
          "internalType": "uint256",
          "name": "tokenId",
          "type": "uint256"
        }
      ],
      "name": "WithdrawStuckERC721",
      "type": "event"
    },
    {
      "anonymous": false,
      "inputs": [
        {
          "indexed": true,
          "internalType": "address",
          "name": "receiver",
          "type": "address"
        },
        {
          "indexed": false,
          "internalType": "uint256",
          "name": "amount",
          "type": "uint256"
        }
      ],
      "name": "WithdrawStuckEther",
      "type": "event"
    },
    {
      "inputs": [],
      "name": "_chargedParticles",
      "outputs": [
        {
          "internalType": "address",
          "name": "",
          "type": "address"
        }
      ],
      "stateMutability": "view",
      "type": "function"
    },
    {
      "inputs": [],
      "name": "_chargedState",
      "outputs": [
        {
          "internalType": "address",
          "name": "",
          "type": "address"
        }
      ],
      "stateMutability": "view",
      "type": "function"
    },
    {
      "inputs": [],
      "name": "_cpBasketManager",
      "outputs": [
        {
          "internalType": "string",
          "name": "",
          "type": "string"
        }
      ],
      "stateMutability": "view",
      "type": "function"
    },
    {
      "inputs": [],
      "name": "_cpWalletManager",
      "outputs": [
        {
          "internalType": "string",
          "name": "",
          "type": "string"
        }
      ],
      "stateMutability": "view",
      "type": "function"
    },
    {
      "inputs": [],
      "name": "_protocolFee",
      "outputs": [
        {
          "internalType": "uint256",
          "name": "",
          "type": "uint256"
        }
      ],
      "stateMutability": "view",
      "type": "function"
    },
    {
      "inputs": [],
      "name": "_proton",
      "outputs": [
        {
          "internalType": "address",
          "name": "",
          "type": "address"
        }
      ],
      "stateMutability": "view",
      "type": "function"
    },
    {
      "inputs": [],
      "name": "_web3state",
      "outputs": [
        {
          "internalType": "address",
          "name": "",
          "type": "address"
        }
      ],
      "stateMutability": "view",
      "type": "function"
    },
    {
      "inputs": [],
      "name": "_weth",
      "outputs": [
        {
          "internalType": "address",
          "name": "",
          "type": "address"
        }
      ],
      "stateMutability": "view",
      "type": "function"
    },
    {
      "inputs": [
        {
          "components": [
            {
              "internalType": "bytes32",
              "name": "bundlerId",
              "type": "bytes32"
            },
            {
              "internalType": "uint256",
              "name": "percentBasisPoints",
              "type": "uint256"
            }
          ],
          "internalType": "struct IWeb3PacksDefs.BundleChunk[]",
          "name": "bundleChunks",
          "type": "tuple[]"
        },
        {
          "internalType": "address[]",
          "name": "referrals",
          "type": "address[]"
        },
        {
          "internalType": "string",
          "name": "tokenMetaUri",
          "type": "string"
        },
        {
          "components": [
            {
              "internalType": "uint256",
              "name": "ERC20Timelock",
              "type": "uint256"
            },
            {
              "internalType": "uint256",
              "name": "ERC721Timelock",
              "type": "uint256"
            }
          ],
          "internalType": "struct IWeb3PacksDefs.LockState",
          "name": "lockState",
          "type": "tuple"
        },
        {
          "internalType": "bytes32",
          "name": "packType",
          "type": "bytes32"
        },
        {
          "internalType": "uint256",
          "name": "ethPackPrice",
          "type": "uint256"
        }
      ],
      "name": "bundle",
      "outputs": [
        {
          "internalType": "uint256",
          "name": "tokenId",
          "type": "uint256"
        }
      ],
      "stateMutability": "payable",
      "type": "function"
    },
    {
      "inputs": [
        {
          "internalType": "address",
          "name": "tokenAddress",
          "type": "address"
        },
        {
          "internalType": "uint256",
          "name": "tokenId",
          "type": "uint256"
        }
      ],
      "name": "getPackBalances",
      "outputs": [
        {
          "components": [
            {
              "internalType": "address",
              "name": "tokenAddress",
              "type": "address"
            },
            {
              "internalType": "uint256",
              "name": "balance",
              "type": "uint256"
            },
            {
              "internalType": "uint256",
              "name": "nftTokenId",
              "type": "uint256"
            }
          ],
          "internalType": "struct IWeb3PacksDefs.TokenAmount[]",
          "name": "",
          "type": "tuple[]"
        }
      ],
      "stateMutability": "nonpayable",
      "type": "function"
    },
    {
      "inputs": [
        {
          "internalType": "uint256",
          "name": "tokenId",
          "type": "uint256"
        }
      ],
      "name": "getPackPriceEth",
      "outputs": [
        {
          "internalType": "uint256",
          "name": "packPriceEth",
          "type": "uint256"
        }
      ],
      "stateMutability": "view",
      "type": "function"
    },
    {
      "inputs": [
        {
          "internalType": "address",
          "name": "account",
          "type": "address"
        }
      ],
      "name": "getReferralRewardsOf",
      "outputs": [
        {
          "internalType": "uint256",
          "name": "balance",
          "type": "uint256"
        }
      ],
      "stateMutability": "view",
      "type": "function"
    },
    {
      "inputs": [
        {
          "internalType": "address",
          "name": "",
          "type": "address"
        },
        {
          "internalType": "address",
          "name": "",
          "type": "address"
        },
        {
          "internalType": "uint256",
          "name": "",
          "type": "uint256"
        },
        {
          "internalType": "bytes",
          "name": "",
          "type": "bytes"
        }
      ],
      "name": "onERC721Received",
      "outputs": [
        {
          "internalType": "bytes4",
          "name": "",
          "type": "bytes4"
        }
      ],
      "stateMutability": "pure",
      "type": "function"
    },
    {
      "inputs": [],
      "name": "owner",
      "outputs": [
        {
          "internalType": "address",
          "name": "",
          "type": "address"
        }
      ],
      "stateMutability": "view",
      "type": "function"
    },
    {
      "inputs": [],
      "name": "pause",
      "outputs": [],
      "stateMutability": "nonpayable",
      "type": "function"
    },
    {
      "inputs": [],
      "name": "paused",
      "outputs": [
        {
          "internalType": "bool",
          "name": "",
          "type": "bool"
        }
      ],
      "stateMutability": "view",
      "type": "function"
    },
    {
      "inputs": [],
      "name": "renounceOwnership",
      "outputs": [],
      "stateMutability": "nonpayable",
      "type": "function"
    },
    {
      "inputs": [
        {
          "internalType": "address",
          "name": "chargedParticles",
          "type": "address"
        }
      ],
      "name": "setChargedParticles",
      "outputs": [],
      "stateMutability": "nonpayable",
      "type": "function"
    },
    {
      "inputs": [
        {
          "internalType": "address",
          "name": "chargedState",
          "type": "address"
        }
      ],
      "name": "setChargedState",
      "outputs": [],
      "stateMutability": "nonpayable",
      "type": "function"
    },
    {
      "inputs": [
        {
          "internalType": "uint256",
          "name": "fee",
          "type": "uint256"
        }
      ],
      "name": "setProtocolFee",
      "outputs": [],
      "stateMutability": "nonpayable",
      "type": "function"
    },
    {
      "inputs": [
        {
          "internalType": "address",
          "name": "proton",
          "type": "address"
        }
      ],
      "name": "setProton",
      "outputs": [],
      "stateMutability": "nonpayable",
      "type": "function"
    },
    {
      "inputs": [
        {
          "internalType": "address payable",
          "name": "treasury",
          "type": "address"
        }
      ],
      "name": "setTreasury",
      "outputs": [],
      "stateMutability": "nonpayable",
      "type": "function"
    },
    {
      "inputs": [
        {
          "internalType": "address",
          "name": "web3state",
          "type": "address"
        }
      ],
      "name": "setWeb3PacksState",
      "outputs": [],
      "stateMutability": "nonpayable",
      "type": "function"
    },
    {
      "inputs": [
        {
          "internalType": "address",
          "name": "newOwner",
          "type": "address"
        }
      ],
      "name": "transferOwnership",
      "outputs": [],
      "stateMutability": "nonpayable",
      "type": "function"
    },
    {
      "inputs": [
        {
          "internalType": "address payable",
          "name": "receiver",
          "type": "address"
        },
        {
          "internalType": "address",
          "name": "tokenAddress",
          "type": "address"
        },
        {
          "internalType": "uint256",
          "name": "tokenId",
          "type": "uint256"
        },
        {
          "internalType": "bool",
          "name": "sellAll",
          "type": "bool"
        }
      ],
      "name": "unbundle",
      "outputs": [],
      "stateMutability": "payable",
      "type": "function"
    },
    {
      "inputs": [
        {
          "internalType": "address payable",
          "name": "receiver",
          "type": "address"
        },
        {
          "internalType": "address",
          "name": "tokenAddress",
          "type": "address"
        },
        {
          "internalType": "uint256",
          "name": "tokenId",
          "type": "uint256"
        },
        {
          "internalType": "bytes32[]",
          "name": "packBundles",
          "type": "bytes32[]"
        },
        {
          "internalType": "bool",
          "name": "sellAll",
          "type": "bool"
        }
      ],
      "name": "unbundleUnknown",
      "outputs": [],
      "stateMutability": "payable",
      "type": "function"
    },
    {
      "inputs": [],
      "name": "unpause",
      "outputs": [],
      "stateMutability": "nonpayable",
      "type": "function"
    },
    {
      "inputs": [
        {
          "internalType": "address payable",
          "name": "receiver",
          "type": "address"
        },
        {
          "internalType": "address",
          "name": "tokenAddress",
          "type": "address"
        },
        {
          "internalType": "uint256",
          "name": "tokenId",
          "type": "uint256"
        },
        {
          "internalType": "uint256",
          "name": "amount",
          "type": "uint256"
        }
      ],
      "name": "withdrawERC1155",
      "outputs": [],
      "stateMutability": "nonpayable",
      "type": "function"
    },
    {
      "inputs": [
        {
          "internalType": "address payable",
          "name": "receiver",
          "type": "address"
        },
        {
          "internalType": "address",
          "name": "tokenAddress",
          "type": "address"
        },
        {
          "internalType": "uint256",
          "name": "tokenId",
          "type": "uint256"
        }
      ],
      "name": "withdrawERC721",
      "outputs": [],
      "stateMutability": "nonpayable",
      "type": "function"
    },
    {
      "inputs": [
        {
          "internalType": "address payable",
          "name": "receiver",
          "type": "address"
        },
        {
          "internalType": "address",
          "name": "tokenAddress",
          "type": "address"
        },
        {
          "internalType": "uint256",
          "name": "amount",
          "type": "uint256"
        }
      ],
      "name": "withdrawErc20",
      "outputs": [],
      "stateMutability": "nonpayable",
      "type": "function"
    },
    {
      "inputs": [
        {
          "internalType": "address payable",
          "name": "receiver",
          "type": "address"
        },
        {
          "internalType": "uint256",
          "name": "amount",
          "type": "uint256"
        }
      ],
      "name": "withdrawEther",
      "outputs": [],
      "stateMutability": "nonpayable",
      "type": "function"
    },
    {
      "stateMutability": "payable",
      "type": "receive"
    }
  ],
  "transactionHash": "0x859d70181670bde6edc5f8b5e4a1be99f806f610d9167a6c6821c7a70a0a10da",
  "args": [
    "0x4200000000000000000000000000000000000006",
    "0x76a5df1c6F53A4B80c8c8177edf52FBbC368E825",
    "0x0288280Df6221E7e9f23c1BB398c820ae0Aa6c10",
    "0x2691B4f4251408bA4b8bf9530B6961b9D0C1231F"
  ],
  "numDeployments": 1,
  "solcInputHash": "1696ac68afd6115cebb7032c3c7e3d5e",
  "bytecode": "0x60c0604052600960808181526833b2b732b934b1972160b91b60a052620000279082620001ed565b5060408051808201909152600981526833b2b732b934b1972160b91b6020820152600a90620000579082620001ed565b503480156200006557600080fd5b506040516200406f3803806200406f8339810160408190526200008891620002d6565b6200009333620000f8565b6000805460ff60a01b1916905560018055600280546001600160a01b039586166001600160a01b031991821617909155600380549486169482169490941790935560058054928516928416929092179091556006805491909316911617905562000333565b600080546001600160a01b038381166001600160a01b0319831681178455604051919092169283917f8be0079c531659141344cd1fd0a4f28419497f9722a3daafe3b4186f6b6457e09190a35050565b634e487b7160e01b600052604160045260246000fd5b600181811c908216806200017357607f821691505b6020821081036200019457634e487b7160e01b600052602260045260246000fd5b50919050565b601f821115620001e857600081815260208120601f850160051c81016020861015620001c35750805b601f850160051c820191505b81811015620001e457828155600101620001cf565b5050505b505050565b81516001600160401b0381111562000209576200020962000148565b62000221816200021a84546200015e565b846200019a565b602080601f831160018114620002595760008415620002405750858301515b600019600386901b1c1916600185901b178555620001e4565b600085815260208120601f198616915b828110156200028a5788860151825594840194600190910190840162000269565b5085821015620002a95787850151600019600388901b60f8161c191681555b5050505050600190811b01905550565b80516001600160a01b0381168114620002d157600080fd5b919050565b60008060008060808587031215620002ed57600080fd5b620002f885620002b9565b93506200030860208601620002b9565b92506200031860408601620002b9565b91506200032860608601620002b9565b905092959194509250565b613d2c80620003436000396000f3fe6080604052600436106101dc5760003560e01c8063787dce3d11610102578063b4540d7411610095578063dafb944911610064578063dafb94491461057a578063edd777b31461059a578063f0f44260146105ad578063f2fde38b146105cd57600080fd5b8063b4540d74146104fa578063b7683e9314610527578063b76c375314610547578063bd3266161461055a57600080fd5b8063a0edb48b116100d1578063a0edb48b14610487578063a1764595146104a7578063a8499fdf146104c7578063aac561ca146104e757600080fd5b8063787dce3d146104145780638456cb59146104345780638da5cb5b146104495780639efca9be1461046757600080fd5b80633f656fb81161017a5780635c975abb116101495780635c975abb146103a0578063609b8813146103ca5780636e5559fd146103df578063715018a6146103ff57600080fd5b80633f656fb8146103205780634025feb214610340578063522f681514610360578063524f389d1461038057600080fd5b80631593dee1116101b65780631593dee114610291578063252c9c94146102b157806330219ef4146102d35780633f4ba83a1461030b57600080fd5b806307abbbf9146101e8578063108e4db71461020a578063150b7a021461023357600080fd5b366101e357005b600080fd5b3480156101f457600080fd5b50610208610203366004613262565b6105ed565b005b34801561021657600080fd5b5061022060085481565b6040519081526020015b60405180910390f35b34801561023f57600080fd5b5061027861024e3660046132c8565b7f150b7a020000000000000000000000000000000000000000000000000000000095945050505050565b6040516001600160e01b0319909116815260200161022a565b34801561029d57600080fd5b506102086102ac36600461333b565b61069a565b3480156102bd57600080fd5b506102c66106b2565b60405161022a91906133cc565b3480156102df57600080fd5b506005546102f3906001600160a01b031681565b6040516001600160a01b03909116815260200161022a565b34801561031757600080fd5b50610208610740565b34801561032c57600080fd5b5061022061033b366004613262565b610752565b34801561034c57600080fd5b5061020861035b36600461333b565b6107e6565b34801561036c57600080fd5b5061020861037b3660046133df565b6107f9565b34801561038c57600080fd5b5061022061039b36600461340b565b61080f565b3480156103ac57600080fd5b50600054600160a01b900460ff16604051901515815260200161022a565b3480156103d657600080fd5b506102c661085c565b3480156103eb57600080fd5b506102086103fa366004613262565b610869565b34801561040b57600080fd5b50610208610936565b34801561042057600080fd5b5061020861042f36600461340b565b610948565b34801561044057600080fd5b5061020861098b565b34801561045557600080fd5b506000546001600160a01b03166102f3565b34801561047357600080fd5b506004546102f3906001600160a01b031681565b34801561049357600080fd5b506102086104a2366004613424565b61099b565b3480156104b357600080fd5b506002546102f3906001600160a01b031681565b3480156104d357600080fd5b506006546102f3906001600160a01b031681565b6102086104f53660046134f3565b6109b5565b34801561050657600080fd5b5061051a6105153660046133df565b610a35565b60405161022a91906135cb565b34801561053357600080fd5b50610208610542366004613262565b610a48565b61020861055536600461362d565b610af0565b34801561056657600080fd5b50610208610575366004613262565b610b68565b34801561058657600080fd5b506003546102f3906001600160a01b031681565b6102206105a83660046136dd565b610c10565b3480156105b957600080fd5b506102086105c8366004613262565b610cda565b3480156105d957600080fd5b506102086105e8366004613262565b610d82565b6105f5610e12565b6001600160a01b0381166106505760405162461bcd60e51b815260206004820152601d60248201527f496e76616c6964206164647265737320666f722077656233737461746500000060448201526064015b60405180910390fd5b600480546001600160a01b0319166001600160a01b0383169081179091556040517ffc420e80f6bd9a52d4c6c08c0150bac53c109674615cff8819a71828764ee4f890600090a250565b6106a2610e12565b6106ad838383610e6c565b505050565b600980546106bf906137c9565b80601f01602080910402602001604051908101604052809291908181526020018280546106eb906137c9565b80156107385780601f1061070d57610100808354040283529160200191610738565b820191906000526020600020905b81548152906001019060200180831161071b57829003601f168201915b505050505081565b610748610e12565b610750610f83565b565b600480546040517fabc3bc920000000000000000000000000000000000000000000000000000000081526001600160a01b03848116938201939093526000929091169063abc3bc92906024015b602060405180830381865afa1580156107bc573d6000803e3d6000fd5b505050506040513d601f19601f820116820180604052508101906107e091906137fd565b92915050565b6107ee610e12565b6106ad838383610fd8565b610801610e12565b61080b8282611173565b5050565b600480546040517fd96be1cd0000000000000000000000000000000000000000000000000000000081529182018390526000916001600160a01b039091169063d96be1cd9060240161079f565b600a80546106bf906137c9565b610871610e12565b6001600160a01b0381166108ec5760405162461bcd60e51b8152602060048201526024808201527f496e76616c6964206164647265737320666f722063686172676564506172746960448201527f636c6573000000000000000000000000000000000000000000000000000000006064820152608401610647565b600580546001600160a01b0319166001600160a01b0383169081179091556040517f5ce0e6b7fd36339ee97339831b6c72694ecee88c62aab49919d9cabe0a732e4190600090a250565b61093e610e12565b6107506000611215565b610950610e12565b60088190556040518181527fdb5aafdb29539329e37d4e3ee869bc4031941fd55a5dfc92824fbe34b204e30d9060200160405180910390a150565b610993610e12565b610750611265565b6109a3610e12565b6109af848484846112a8565b50505050565b6109bd611461565b6109c56114bb565b6109cf6000611514565b60006109de86868686866115a2565b9050856001600160a01b0316847f1143d14cf0b7fdb46022761b1a9b421b27c63d51cbf67363a425c415b14a8ad383604051610a1c91815260200190565b60405180910390a350610a2e60018055565b5050505050565b6060610a418383611884565b9392505050565b610a50610e12565b6001600160a01b038116610aa65760405162461bcd60e51b815260206004820181905260248201527f496e76616c6964206164647265737320666f72206368617267656453746174656044820152606401610647565b600680546001600160a01b0319166001600160a01b0383169081179091556040517f62ff39aed768a426c7582b6e1062ab2631df1869b2d574e36f8274d2e2b0ab8190600090a250565b610af8611461565b610b006114bb565b610b0a6000611514565b6000610b1885858585611b51565b9050846001600160a01b0316837f1143d14cf0b7fdb46022761b1a9b421b27c63d51cbf67363a425c415b14a8ad383604051610b5691815260200190565b60405180910390a3506109af60018055565b610b70610e12565b6001600160a01b038116610bc65760405162461bcd60e51b815260206004820152601a60248201527f496e76616c6964206164647265737320666f722070726f746f6e0000000000006044820152606401610647565b600380546001600160a01b0319166001600160a01b0383169081179091556040517fa3d7b0fff2d93a7ba440166a8f7eba4acfe6e000fe19b8218e64264d62ef272690600090a250565b6000610c1a611461565b610c226114bb565b610c2b82611514565b6000610c6a838a8a80806020026020016040519081016040528093929190818152602001838360200280828437600092019190915250611ccc92505050565b9050610c838b8b898989610c7e878a61382c565b612139565b6040805186815260208101869052919350339184917f775e8ef7e6e96ebecce1023e6d6cf38ebecc41d241178408bf9723d407281a52910160405180910390a350610ccd60018055565b9998505050505050505050565b610ce2610e12565b6001600160a01b038116610d385760405162461bcd60e51b815260206004820152601c60248201527f496e76616c6964206164647265737320666f72207472656173757279000000006044820152606401610647565b600780546001600160a01b0319166001600160a01b0383169081179091556040517febbf9e77f4905707c811ea2da45f04b959c1132fecd092aae1fe0dac5b176c3290600090a250565b610d8a610e12565b6001600160a01b038116610e065760405162461bcd60e51b815260206004820152602660248201527f4f776e61626c653a206e6577206f776e657220697320746865207a65726f206160448201527f64647265737300000000000000000000000000000000000000000000000000006064820152608401610647565b610e0f81611215565b50565b6000546001600160a01b031633146107505760405162461bcd60e51b815260206004820181905260248201527f4f776e61626c653a2063616c6c6572206973206e6f7420746865206f776e65726044820152606401610647565b6001600160a01b038316610eae5760405162461bcd60e51b81526020600482015260096024820152684248503a452d34303360b81b6044820152606401610647565b6040516370a0823160e01b815230600482015281906001600160a01b038416906370a0823190602401602060405180830381865afa158015610ef4573d6000803e3d6000fd5b505050506040513d601f19601f82011682018060405250810190610f1891906137fd565b106106ad57610f316001600160a01b0383168483612691565b816001600160a01b0316836001600160a01b03167f6c9d637297625e945b296ff73a71fcfbd0a9e062652b6491a921c4c60194176b83604051610f7691815260200190565b60405180910390a3505050565b610f8b6126e3565b6000805460ff60a01b191690557f5db9ee0a495bf2e6ff9c91a7834c1ba4fdd244a5e8aa4e537bd38aeae4b073aa335b6040516001600160a01b03909116815260200160405180910390a1565b6001600160a01b03831661101a5760405162461bcd60e51b81526020600482015260096024820152684248503a452d34303360b81b6044820152606401610647565b6040517f6352211e0000000000000000000000000000000000000000000000000000000081526004810182905230906001600160a01b03841690636352211e90602401602060405180830381865afa15801561107a573d6000803e3d6000fd5b505050506040513d601f19601f8201168201806040525081019061109e919061383f565b6001600160a01b0316036106ad576040517f23b872dd0000000000000000000000000000000000000000000000000000000081523060048201526001600160a01b038481166024830152604482018390528316906323b872dd90606401600060405180830381600087803b15801561111557600080fd5b505af1158015611129573d6000803e3d6000fd5b5050505080826001600160a01b0316846001600160a01b03167ffefe036cac4ee3a4aca074a81cbcc4376e1484693289078dbec149c890101d5b60405160405180910390a4505050565b6001600160a01b0382166111b55760405162461bcd60e51b81526020600482015260096024820152684248503a452d34303360b81b6044820152606401610647565b80471061080b576111cf6001600160a01b0383168261273c565b816001600160a01b03167eddb683bb45cd5d0ad8a200c6fae7152b1c236ee90a4a37db692407f5cc38bd8260405161120991815260200190565b60405180910390a25050565b600080546001600160a01b038381166001600160a01b0319831681178455604051919092169283917f8be0079c531659141344cd1fd0a4f28419497f9722a3daafe3b4186f6b6457e09190a35050565b61126d611461565b6000805460ff60a01b1916600160a01b1790557f62e78cea01bee320cd4e420270b5ea74000d11b0c9f74754ebdbfc544b05a258610fbb3390565b6001600160a01b0384166112ea5760405162461bcd60e51b81526020600482015260096024820152684248503a452d34303360b81b6044820152606401610647565b6040517efdd58e0000000000000000000000000000000000000000000000000000000081523060048201526024810183905281906001600160a01b0385169062fdd58e90604401602060405180830381865afa15801561134e573d6000803e3d6000fd5b505050506040513d601f19601f8201168201806040525081019061137291906137fd565b106109af576040517ff242432a0000000000000000000000000000000000000000000000000000000081523060048201526001600160a01b038581166024830152604482018490526064820183905260a06084830152600060a483015284169063f242432a9060c401600060405180830381600087803b1580156113f557600080fd5b505af1158015611409573d6000803e3d6000fd5b5050505081836001600160a01b0316856001600160a01b03167f620337bf89eea2b9ae2657beead83b5fa620452817118348aff96e201d52598b8460405161145391815260200190565b60405180910390a450505050565b600054600160a01b900460ff16156107505760405162461bcd60e51b815260206004820152601060248201527f5061757361626c653a20706175736564000000000000000000000000000000006044820152606401610647565b60026001540361150d5760405162461bcd60e51b815260206004820152601f60248201527f5265656e7472616e637947756172643a207265656e7472616e742063616c6c006044820152606401610647565b6002600155565b600060085411801561153257508060085461152f919061385c565b34105b1561157d576008546040517f562cac4d000000000000000000000000000000000000000000000000000000008152346004820152602481018390526044810191909152606401610647565b6000611589823461382c565b60075490915061080b906001600160a01b03168261273c565b6000806000866001600160a01b0316636352211e876040518263ffffffff1660e01b81526004016115d591815260200190565b602060405180830381865afa1580156115f2573d6000803e3d6000fd5b505050506040513d601f19601f82011682018060405250810190611616919061383f565b9050336001600160a01b0382161461165a576040517fdb1453ce00000000000000000000000000000000000000000000000000000000815260040160405180910390fd5b60008060005b87518110156118765760045488516000916001600160a01b031690634dbd2335908b90859081106116935761169361386f565b60200260200101516040518263ffffffff1660e01b81526004016116b991815260200190565b602060405180830381865afa1580156116d6573d6000803e3d6000fd5b505050506040513d601f19601f820116820180604052508101906116fa919061383f565b90506001600160a01b0381166117105750611864565b6040517fbfe075e0000000000000000000000000000000000000000000000000000000008152600481018b905290955085906001600160a01b0382169063bfe075e09060240160408051808303816000875af1158015611774573d6000803e3d6000fd5b505050506040513d601f19601f820116820180604052508101906117989190613885565b909450925060008390036117b6576117b1818b86612855565b6117c2565b6117c2818b86866128ee565b6040517fcc427bad0000000000000000000000000000000000000000000000000000000081526001600160a01b038d81166004830152602482018c9052891515604483015287169063cc427bad906064016020604051808303816000875af1158015611832573d6000803e3d6000fd5b505050506040513d601f19601f8201168201806040525081019061185691906137fd565b611860908861385c565b9650505b8061186e816138b3565b915050611660565b505050505095945050505050565b60048054604051630173927560e21b815291820183905260609160009182916001600160a01b03909116906305ce49d490602401600060405180830381865afa1580156118d5573d6000803e3d6000fd5b505050506040513d6000823e601f3d908101601f191682016040526118fd91908101906138cc565b8051909150600081900361192457604051636239226960e11b815260040160405180910390fd5b60008167ffffffffffffffff81111561193f5761193f61346a565b60405190808252806020026020018201604052801561199d57816020015b61198a604051806060016040528060006001600160a01b0316815260200160008152602001600081525090565b81526020019060019003908161195d5790505b50905060005b82811015611b465760008482815181106119bf576119bf61386f565b602090810291909101015160048054604051634dbd233560e01b81529182018390529192506000916001600160a01b031690634dbd233590602401602060405180830381865afa158015611a17573d6000803e3d6000fd5b505050506040513d601f19601f82011682018060405250810190611a3b919061383f565b90506001600160a01b038116611a52575050611b34565b809650600080886001600160a01b031663bfe075e08c6040518263ffffffff1660e01b8152600401611a8691815260200190565b60408051808303816000875af1158015611aa4573d6000803e3d6000fd5b505050506040513d601f19601f82011682018060405250810190611ac89190613885565b9092509050801515600081611ae757611ae28e8e8661298d565b611aea565b60015b90506040518060600160405280856001600160a01b0316815260200182815260200184815250888881518110611b2257611b2261386f565b60200260200101819052505050505050505b80611b3e816138b3565b9150506119a3565b509695505050505050565b60048054604051630173927560e21b815291820184905260009182916001600160a01b0316906305ce49d490602401600060405180830381865afa158015611b9d573d6000803e3d6000fd5b505050506040513d6000823e601f3d908101601f19168201604052611bc591908101906138cc565b90508051600003611be957604051636239226960e11b815260040160405180910390fd5b611bf686868684876115a2565b60048054604051630d79f02960e31b81529294506060926001600160a01b0390911691636bcf814891611c2d918991869101613952565b600060405180830381600087803b158015611c4757600080fd5b505af1158015611c5b573d6000803e3d6000fd5b505060048054604051630221567160e01b8152918201899052600060248301526001600160a01b0316925063022156719150604401600060405180830381600087803b158015611caa57600080fd5b505af1158015611cbe573d6000803e3d6000fd5b505050505050949350505050565b600080612710611cde8561014a6139a0565b611ce891906139b7565b60045484519192506001600160a01b03169015801590611d35575060006001600160a01b031684600081518110611d2157611d2161386f565b60200260200101516001600160a01b031614155b156121315781925060018451118015611d7b575060006001600160a01b031684600181518110611d6757611d6761386f565b60200260200101516001600160a01b031614155b1561208c5760028451118015611dbe575060006001600160a01b031684600281518110611daa57611daa61386f565b60200260200101516001600160a01b031614155b15611faf57806001600160a01b0316633cda398e85600081518110611de557611de561386f565b602002602001015161271088601e611dfd91906139a0565b611e0791906139b7565b6040516001600160e01b031960e085901b1681526001600160a01b0390921660048301526024820152604401600060405180830381600087803b158015611e4d57600080fd5b505af1158015611e61573d6000803e3d6000fd5b50505050806001600160a01b0316633cda398e85600181518110611e8757611e8761386f565b602002602001015161271088601e611e9f91906139a0565b611ea991906139b7565b6040516001600160e01b031960e085901b1681526001600160a01b0390921660048301526024820152604401600060405180830381600087803b158015611eef57600080fd5b505af1158015611f03573d6000803e3d6000fd5b50505050806001600160a01b0316633cda398e85600281518110611f2957611f2961386f565b60200260200101516127108861010e611f4291906139a0565b611f4c91906139b7565b6040516001600160e01b031960e085901b1681526001600160a01b0390921660048301526024820152604401600060405180830381600087803b158015611f9257600080fd5b505af1158015611fa6573d6000803e3d6000fd5b5050505061211b565b806001600160a01b0316633cda398e85600081518110611fd157611fd161386f565b602002602001015161271088601e611fe991906139a0565b611ff391906139b7565b6040516001600160e01b031960e085901b1681526001600160a01b0390921660048301526024820152604401600060405180830381600087803b15801561203957600080fd5b505af115801561204d573d6000803e3d6000fd5b50505050806001600160a01b0316633cda398e856001815181106120735761207361386f565b60200260200101516127108861012c611f4291906139a0565b806001600160a01b0316633cda398e856000815181106120ae576120ae61386f565b6020026020010151846040518363ffffffff1660e01b81526004016120e89291906001600160a01b03929092168252602082015260400190565b600060405180830381600087803b15801561210257600080fd5b505af1158015612116573d6000803e3d6000fd5b505050505b600454612131906001600160a01b03168461273c565b505092915050565b60008061217b86868080601f016020809104026020016040519081016040528093929190818152602001838380828437600092019190915250612a2992505050565b9150600260009054906101000a90046001600160a01b03166001600160a01b031663d0e30db0846040518263ffffffff1660e01b81526004016000604051808303818588803b1580156121cd57600080fd5b505af11580156121e1573d6000803e3d6000fd5b50506002546040516370a0823160e01b8152306004820152600094506001600160a01b0390911692506370a082319150602401602060405180830381865afa158015612231573d6000803e3d6000fd5b505050506040513d601f19601f8201168201806040525081019061225591906137fd565b90506000808080808c67ffffffffffffffff8111156122765761227661346a565b60405190808252806020026020018201604052801561229f578160200160208202803683370190505b50905060005b8d8110156125355760008f8f838181106122c1576122c161386f565b9050604002018036038101906122d791906139d9565b905080600001518383815181106122f0576122f061386f565b6020908102919091010152600480548251604051634dbd233560e01b8152928301526000916001600160a01b0390911690634dbd233590602401602060405180830381865afa158015612347573d6000803e3d6000fd5b505050506040513d601f19601f8201168201806040525081019061236b919061383f565b90506001600160a01b0381166123b35781516040517f75c357790000000000000000000000000000000000000000000000000000000081526004810191909152602401610647565b80995061271082602001518a6123c991906139a0565b6123d391906139b7565b6002549098506123ed906001600160a01b03168b8a612a96565b6001600160a01b038a16631b22a4f08c336040516001600160e01b031960e085901b16815260048101929092526001600160a01b031660248201526044016060604051808303816000875af115801561244a573d6000803e3d6000fd5b505050506040513d601f19601f8201168201806040525081019061246e9190613a28565b9198509650945060008590036124d1576124898b8888612baa565b866001600160a01b03167fe141b0c8fb58749d5af9414a49d94c6236c457ee3c2acee0a206810fbad56a5d876040516124c491815260200190565b60405180910390a2612520565b6124dc8b8887612cd0565b866001600160a01b03167f392b7247a3398d2d55f17e40da2099255e8ce61ee318cbe5cf2a44d70565fe048660405161251791815260200190565b60405180910390a25b5050808061252d906138b3565b9150506122a5565b5060048054604051630d79f02960e31b81526001600160a01b0390911691636bcf814891612567918c91869101613952565b600060405180830381600087803b15801561258157600080fd5b505af1158015612595573d6000803e3d6000fd5b505060048054604051630221567160e01b81529182018c9052602482018d90526001600160a01b0316925063022156719150604401600060405180830381600087803b1580156125e457600080fd5b505af11580156125f8573d6000803e3d6000fd5b505050506126068a89612dec565b6003546001600160a01b03166342842e0e30336040516001600160e01b031960e085901b1681526001600160a01b03928316600482015291166024820152604481018b9052606401600060405180830381600087803b15801561266857600080fd5b505af115801561267c573d6000803e3d6000fd5b50505050505050505050509695505050505050565b604080516001600160a01b038416602482015260448082018490528251808303909101815260649091019091526020810180516001600160e01b031663a9059cbb60e01b1790526106ad908490612f15565b600054600160a01b900460ff166107505760405162461bcd60e51b815260206004820152601460248201527f5061757361626c653a206e6f74207061757365640000000000000000000000006044820152606401610647565b8047101561278c5760405162461bcd60e51b815260206004820152601d60248201527f416464726573733a20696e73756666696369656e742062616c616e63650000006044820152606401610647565b6000826001600160a01b03168260405160006040518083038185875af1925050503d80600081146127d9576040519150601f19603f3d011682016040523d82523d6000602084013e6127de565b606091505b50509050806106ad5760405162461bcd60e51b815260206004820152603a60248201527f416464726573733a20756e61626c6520746f2073656e642076616c75652c207260448201527f6563697069656e74206d617920686176652072657665727465640000000000006064820152608401610647565b6005546003546040517facab923c0000000000000000000000000000000000000000000000000000000081526001600160a01b039283169263acab923c926128ac9288929091169087906009908890600401613b03565b60408051808303816000875af11580156128ca573d6000803e3d6000fd5b505050506040513d601f19601f82011682018060405250810190610a2e9190613b49565b6005546003546040517ffe02fb000000000000000000000000000000000000000000000000000000000081526001600160a01b039283169263fe02fb009261294a928992909116908890600a9089908990600190600401613b6d565b6020604051808303816000875af1158015612969573d6000803e3d6000fd5b505050506040513d601f19601f82011682018060405250810190610a2e9190613bbc565b6005546040517fe6ea6ce70000000000000000000000000000000000000000000000000000000081526000916001600160a01b03169063e6ea6ce7906129de90879087906009908890600401613bd9565b6020604051808303816000875af11580156129fd573d6000803e3d6000fd5b505050506040513d601f19601f82011682018060405250810190612a2191906137fd565b949350505050565b6003546040517f2c0cd5a30000000000000000000000000000000000000000000000000000000081526000916001600160a01b031690632c0cd5a390612a7790309081908790600401613c16565b6020604051808303816000875af11580156107bc573d6000803e3d6000fd5b604080516001600160a01b038481166024830152604480830185905283518084039091018152606490920183526020820180516001600160e01b031663a9059cbb60e01b1790529151600092839290871691612af29190613c4b565b6000604051808303816000865af19150503d8060008114612b2f576040519150601f19603f3d011682016040523d82523d6000602084013e612b34565b606091505b5091509150818015612b5e575080511580612b5e575080806020019051810190612b5e9190613bbc565b610a2e5760405162461bcd60e51b815260206004820152600260248201527f53540000000000000000000000000000000000000000000000000000000000006044820152606401610647565b80600003612c1d576040516370a0823160e01b81523060048201526001600160a01b038316906370a0823190602401602060405180830381865afa158015612bf6573d6000803e3d6000fd5b505050506040513d601f19601f82011682018060405250810190612c1a91906137fd565b90505b600554612c359083906001600160a01b031683612ffd565b6005546003546040517f0bdde2ca0000000000000000000000000000000000000000000000000000000081526001600160a01b0392831692630bdde2ca92612c8d929116908790600990889088903090600401613c67565b6020604051808303816000875af1158015612cac573d6000803e3d6000fd5b505050506040513d601f19601f820116820180604052508101906109af91906137fd565b6005546040517fa22cb4650000000000000000000000000000000000000000000000000000000081526001600160a01b039182166004820152600160248201529083169063a22cb46590604401600060405180830381600087803b158015612d3757600080fd5b505af1158015612d4b573d6000803e3d6000fd5b50506005546003546040517f3ff956cc0000000000000000000000000000000000000000000000000000000081526001600160a01b039283169450633ff956cc9350612da992909116908790600a9088908890600190600401613cb0565b6020604051808303816000875af1158015612dc8573d6000803e3d6000fd5b505050506040513d601f19601f820116820180604052508101906109af9190613bbc565b813515612e7c576006546003546040517f090003d20000000000000000000000000000000000000000000000000000000081526001600160a01b039182166004820152602481018490528435604482015291169063090003d290606401600060405180830381600087803b158015612e6357600080fd5b505af1158015612e77573d6000803e3d6000fd5b505050505b60208201351561080b576006546003546040517f907990010000000000000000000000000000000000000000000000000000000081526001600160a01b0391821660048201526024810184905260208501356044820152911690639079900190606401600060405180830381600087803b158015612ef957600080fd5b505af1158015612f0d573d6000803e3d6000fd5b505050505050565b6000612f6a826040518060400160405280602081526020017f5361666545524332303a206c6f772d6c6576656c2063616c6c206661696c6564815250856001600160a01b031661312a9092919063ffffffff16565b9050805160001480612f8b575080806020019051810190612f8b9190613bbc565b6106ad5760405162461bcd60e51b815260206004820152602a60248201527f5361666545524332303a204552433230206f7065726174696f6e20646964206e60448201527f6f742073756363656564000000000000000000000000000000000000000000006064820152608401610647565b604080516001600160a01b038481166024830152604480830185905283518084039091018152606490920183526020820180516001600160e01b03167f095ea7b30000000000000000000000000000000000000000000000000000000017905291516000928392908716916130729190613c4b565b6000604051808303816000865af19150503d80600081146130af576040519150601f19603f3d011682016040523d82523d6000602084013e6130b4565b606091505b50915091508180156130de5750805115806130de5750808060200190518101906130de9190613bbc565b610a2e5760405162461bcd60e51b815260206004820152600260248201527f53410000000000000000000000000000000000000000000000000000000000006044820152606401610647565b6060612a21848460008585600080866001600160a01b031685876040516131519190613c4b565b60006040518083038185875af1925050503d806000811461318e576040519150601f19603f3d011682016040523d82523d6000602084013e613193565b606091505b50915091506131a4878383876131af565b979650505050505050565b6060831561321e578251600003613217576001600160a01b0385163b6132175760405162461bcd60e51b815260206004820152601d60248201527f416464726573733a2063616c6c20746f206e6f6e2d636f6e74726163740000006044820152606401610647565b5081612a21565b612a2183838151156132335781518083602001fd5b8060405162461bcd60e51b815260040161064791906133cc565b6001600160a01b0381168114610e0f57600080fd5b60006020828403121561327457600080fd5b8135610a418161324d565b60008083601f84011261329157600080fd5b50813567ffffffffffffffff8111156132a957600080fd5b6020830191508360208285010111156132c157600080fd5b9250929050565b6000806000806000608086880312156132e057600080fd5b85356132eb8161324d565b945060208601356132fb8161324d565b935060408601359250606086013567ffffffffffffffff81111561331e57600080fd5b61332a8882890161327f565b969995985093965092949392505050565b60008060006060848603121561335057600080fd5b833561335b8161324d565b9250602084013561336b8161324d565b929592945050506040919091013590565b60005b8381101561339757818101518382015260200161337f565b50506000910152565b600081518084526133b881602086016020860161337c565b601f01601f19169290920160200192915050565b602081526000610a4160208301846133a0565b600080604083850312156133f257600080fd5b82356133fd8161324d565b946020939093013593505050565b60006020828403121561341d57600080fd5b5035919050565b6000806000806080858703121561343a57600080fd5b84356134458161324d565b935060208501356134558161324d565b93969395505050506040820135916060013590565b634e487b7160e01b600052604160045260246000fd5b604051601f8201601f1916810167ffffffffffffffff811182821017156134a9576134a961346a565b604052919050565b600067ffffffffffffffff8211156134cb576134cb61346a565b5060051b60200190565b8015158114610e0f57600080fd5b80356134ee816134d5565b919050565b600080600080600060a0868803121561350b57600080fd5b85356135168161324d565b94506020868101356135278161324d565b945060408701359350606087013567ffffffffffffffff81111561354a57600080fd5b8701601f8101891361355b57600080fd5b803561356e613569826134b1565b613480565b81815260059190911b8201830190838101908b83111561358d57600080fd5b928401925b828410156135ab57833582529284019290840190613592565b80965050505050506135bf608087016134e3565b90509295509295909350565b602080825282518282018190526000919060409081850190868401855b8281101561362057815180516001600160a01b03168552868101518786015285015185850152606090930192908501906001016135e8565b5091979650505050505050565b6000806000806080858703121561364357600080fd5b843561364e8161324d565b9350602085013561365e8161324d565b9250604085013591506060850135613675816134d5565b939692955090935050565b60008083601f84011261369257600080fd5b50813567ffffffffffffffff8111156136aa57600080fd5b6020830191508360208260051b85010111156132c157600080fd5b6000604082840312156136d757600080fd5b50919050565b600080600080600080600080600060e08a8c0312156136fb57600080fd5b893567ffffffffffffffff8082111561371357600080fd5b818c0191508c601f83011261372757600080fd5b81358181111561373657600080fd5b8d60208260061b850101111561374b57600080fd5b60209283019b509950908b0135908082111561376657600080fd5b6137728d838e01613680565b909950975060408c013591508082111561378b57600080fd5b506137988c828d0161327f565b90965094506137ac90508b60608c016136c5565b925060a08a0135915060c08a013590509295985092959850929598565b600181811c908216806137dd57607f821691505b6020821081036136d757634e487b7160e01b600052602260045260246000fd5b60006020828403121561380f57600080fd5b5051919050565b634e487b7160e01b600052601160045260246000fd5b818103818111156107e0576107e0613816565b60006020828403121561385157600080fd5b8151610a418161324d565b808201808211156107e0576107e0613816565b634e487b7160e01b600052603260045260246000fd5b6000806040838503121561389857600080fd5b82516138a38161324d565b6020939093015192949293505050565b6000600182016138c5576138c5613816565b5060010190565b600060208083850312156138df57600080fd5b825167ffffffffffffffff8111156138f657600080fd5b8301601f8101851361390757600080fd5b8051613915613569826134b1565b81815260059190911b8201830190838101908783111561393457600080fd5b928401925b828410156131a457835182529284019290840190613939565b6000604082018483526020604081850152818551808452606086019150828701935060005b8181101561399357845183529383019391830191600101613977565b5090979650505050505050565b80820281158282048414176107e0576107e0613816565b6000826139d457634e487b7160e01b600052601260045260246000fd5b500490565b6000604082840312156139eb57600080fd5b6040516040810181811067ffffffffffffffff82111715613a0e57613a0e61346a565b604052823581526020928301359281019290925250919050565b600080600060608486031215613a3d57600080fd5b8351613a488161324d565b602085015160409095015190969495509392505050565b8054600090600181811c9080831680613a7957607f831692505b60208084108203613a9a57634e487b7160e01b600052602260045260246000fd5b83885260208801828015613ab55760018114613acb57613af6565b60ff198716825285151560051b82019750613af6565b60008981526020902060005b87811015613af057815484820152908601908401613ad7565b83019850505b5050505050505092915050565b60006001600160a01b038088168352808716602084015285604084015260a06060840152613b3460a0840186613a5f565b91508084166080840152509695505050505050565b60008060408385031215613b5c57600080fd5b505080516020909101519092909150565b60006001600160a01b03808a168352808916602084015287604084015260e06060840152613b9e60e0840188613a5f565b951660808301525060a081019290925260c090910152949350505050565b600060208284031215613bce57600080fd5b8151610a41816134d5565b60006001600160a01b03808716835285602084015260806040840152613c026080840186613a5f565b915080841660608401525095945050505050565b60006001600160a01b03808616835280851660208401525060606040830152613c4260608301846133a0565b95945050505050565b60008251613c5d81846020870161337c565b9190910192915050565b60006001600160a01b03808916835287602084015260c06040840152613c9060c0840188613a5f565b9581166060840152608083019490945250911660a0909101529392505050565b60006001600160a01b03808916835287602084015260c06040840152613cd960c0840188613a5f565b9516606083015250608081019290925260a090910152939250505056fea2646970667358221220568f5fc4219fb4b0ec6475317c201e2255053fae580bbbceb8dfb88dbde9a7b864736f6c63430008110033",
  "devdoc": {
    "kind": "dev",
    "methods": {
      "owner()": {
        "details": "Returns the address of the current owner."
      },
      "paused()": {
        "details": "Returns true if the contract is paused, and false otherwise."
      },
      "renounceOwnership()": {
        "details": "Leaves the contract without owner. It will not be possible to call `onlyOwner` functions. Can only be called by the current owner. NOTE: Renouncing ownership will leave the contract without an owner, thereby disabling any functionality that is only available to the owner."
      },
      "setChargedParticles(address)": {
        "details": "Setup the ChargedParticles Interface"
      },
      "transferOwnership(address)": {
        "details": "Transfers ownership of the contract to a new account (`newOwner`). Can only be called by the current owner."
      }
    },
    "version": 1
  },
  "userdoc": {
    "kind": "user",
    "methods": {},
    "version": 1
  },
  "storageLayout": {
    "storage": [
      {
        "astId": 7,
        "contract": "contracts/Web3PacksV2.sol:Web3PacksV2",
        "label": "_owner",
        "offset": 0,
        "slot": "0",
        "type": "t_address"
      },
      {
        "astId": 130,
        "contract": "contracts/Web3PacksV2.sol:Web3PacksV2",
        "label": "_paused",
        "offset": 20,
        "slot": "0",
        "type": "t_bool"
      },
      {
        "astId": 231,
        "contract": "contracts/Web3PacksV2.sol:Web3PacksV2",
        "label": "_status",
        "offset": 0,
        "slot": "1",
        "type": "t_uint256"
      },
      {
        "astId": 1654,
        "contract": "contracts/Web3PacksV2.sol:Web3PacksV2",
        "label": "_weth",
        "offset": 0,
        "slot": "2",
        "type": "t_address"
      },
      {
        "astId": 1656,
        "contract": "contracts/Web3PacksV2.sol:Web3PacksV2",
        "label": "_proton",
        "offset": 0,
        "slot": "3",
        "type": "t_address"
      },
      {
        "astId": 1658,
        "contract": "contracts/Web3PacksV2.sol:Web3PacksV2",
        "label": "_web3state",
        "offset": 0,
        "slot": "4",
        "type": "t_address"
      },
      {
        "astId": 1660,
        "contract": "contracts/Web3PacksV2.sol:Web3PacksV2",
        "label": "_chargedParticles",
        "offset": 0,
        "slot": "5",
        "type": "t_address"
      },
      {
        "astId": 1662,
        "contract": "contracts/Web3PacksV2.sol:Web3PacksV2",
        "label": "_chargedState",
        "offset": 0,
        "slot": "6",
        "type": "t_address"
      },
      {
        "astId": 1664,
        "contract": "contracts/Web3PacksV2.sol:Web3PacksV2",
        "label": "_treasury",
        "offset": 0,
        "slot": "7",
        "type": "t_address_payable"
      },
      {
        "astId": 1666,
        "contract": "contracts/Web3PacksV2.sol:Web3PacksV2",
        "label": "_protocolFee",
        "offset": 0,
        "slot": "8",
        "type": "t_uint256"
      },
      {
        "astId": 1669,
        "contract": "contracts/Web3PacksV2.sol:Web3PacksV2",
        "label": "_cpWalletManager",
        "offset": 0,
        "slot": "9",
        "type": "t_string_storage"
      },
      {
        "astId": 1672,
        "contract": "contracts/Web3PacksV2.sol:Web3PacksV2",
        "label": "_cpBasketManager",
        "offset": 0,
        "slot": "10",
        "type": "t_string_storage"
      }
    ],
    "types": {
      "t_address": {
        "encoding": "inplace",
        "label": "address",
        "numberOfBytes": "20"
      },
      "t_address_payable": {
        "encoding": "inplace",
        "label": "address payable",
        "numberOfBytes": "20"
      },
      "t_bool": {
        "encoding": "inplace",
        "label": "bool",
        "numberOfBytes": "1"
      },
      "t_string_storage": {
        "encoding": "bytes",
        "label": "string",
        "numberOfBytes": "32"
      },
      "t_uint256": {
        "encoding": "inplace",
        "label": "uint256",
        "numberOfBytes": "32"
      }
    }
  }
}