{
  "address": "0x6Cf8b7D14855A455C21AE46bb8C1060F28748D2d",
  "abi": [
    {
      "inputs": [
        {
          "internalType": "address",
          "name": "weth",
          "type": "address"
        },
        {
          "internalType": "address",
          "name": "proton",
          "type": "address"
        },
        {
          "internalType": "address",
          "name": "chargedParticles",
          "type": "address"
        },
        {
          "internalType": "address",
          "name": "chargedState",
          "type": "address"
        }
      ],
      "stateMutability": "nonpayable",
      "type": "constructor"
    },
    {
      "inputs": [
        {
          "internalType": "bytes32",
          "name": "bundlerId",
          "type": "bytes32"
        }
      ],
      "name": "BundlerNotRegistered",
      "type": "error"
    },
    {
      "inputs": [],
      "name": "ContractNotAllowed",
      "type": "error"
    },
    {
      "inputs": [],
      "name": "FailedToExitWeth",
      "type": "error"
    },
    {
      "inputs": [],
      "name": "FundingFailed",
      "type": "error"
    },
    {
      "inputs": [
        {
          "internalType": "uint256",
          "name": "value",
          "type": "uint256"
        },
        {
          "internalType": "uint256",
          "name": "ethPackPrice",
          "type": "uint256"
        },
        {
          "internalType": "uint256",
          "name": "protocolFee",
          "type": "uint256"
        }
      ],
      "name": "InsufficientForFee",
      "type": "error"
    },
    {
      "inputs": [],
      "name": "MismatchedTokens",
      "type": "error"
    },
    {
      "inputs": [
        {
          "internalType": "address",
          "name": "tokenAddress",
          "type": "address"
        }
      ],
      "name": "MissingLiquidityUUID",
      "type": "error"
    },
    {
      "inputs": [],
      "name": "NativeAssetTransferFailed",
      "type": "error"
    },
    {
      "inputs": [],
      "name": "NoBundlesInPack",
      "type": "error"
    },
    {
      "inputs": [],
      "name": "NotOwnerOrApproved",
      "type": "error"
    },
    {
      "inputs": [],
      "name": "NullReceiver",
      "type": "error"
    },
    {
      "inputs": [],
      "name": "SwapFailed",
      "type": "error"
    },
    {
      "inputs": [
        {
          "internalType": "address",
          "name": "tokenOut",
          "type": "address"
        },
        {
          "internalType": "uint256",
          "name": "amountIn",
          "type": "uint256"
        },
        {
          "internalType": "address",
          "name": "router",
          "type": "address"
        }
      ],
      "name": "UnsucessfulSwap",
      "type": "error"
    },
    {
      "anonymous": false,
      "inputs": [
        {
          "indexed": true,
          "internalType": "address",
          "name": "account",
          "type": "address"
        },
        {
          "indexed": false,
          "internalType": "uint256",
          "name": "balance",
          "type": "uint256"
        }
      ],
      "name": "BalanceClaimed",
      "type": "event"
    },
    {
      "anonymous": false,
      "inputs": [
        {
          "indexed": true,
          "internalType": "address",
          "name": "tokenAddress",
          "type": "address"
        },
        {
          "indexed": false,
          "internalType": "uint256",
          "name": "amountOut",
          "type": "uint256"
        }
      ],
      "name": "BundledERC20",
      "type": "event"
    },
    {
      "anonymous": false,
      "inputs": [
        {
          "indexed": true,
          "internalType": "address",
          "name": "tokenAddress",
          "type": "address"
        },
        {
          "indexed": false,
          "internalType": "uint256",
          "name": "nftTokenId",
          "type": "uint256"
        }
      ],
      "name": "BundledERC721",
      "type": "event"
    },
    {
      "anonymous": false,
      "inputs": [
        {
          "indexed": true,
          "internalType": "address",
          "name": "bundlerAddress",
          "type": "address"
        },
        {
          "indexed": false,
          "internalType": "bytes32",
          "name": "bundlerId",
          "type": "bytes32"
        }
      ],
      "name": "BundlerRegistered",
      "type": "event"
    },
    {
      "anonymous": false,
      "inputs": [
        {
          "indexed": true,
          "internalType": "address",
          "name": "chargedParticles",
          "type": "address"
        }
      ],
      "name": "ChargedParticlesSet",
      "type": "event"
    },
    {
      "anonymous": false,
      "inputs": [
        {
          "indexed": true,
          "internalType": "address",
          "name": "chargedState",
          "type": "address"
        }
      ],
      "name": "ChargedStateSet",
      "type": "event"
    },
    {
      "anonymous": false,
      "inputs": [
        {
          "indexed": true,
          "internalType": "address",
          "name": "previousOwner",
          "type": "address"
        },
        {
          "indexed": true,
          "internalType": "address",
          "name": "newOwner",
          "type": "address"
        }
      ],
      "name": "OwnershipTransferred",
      "type": "event"
    },
    {
      "anonymous": false,
      "inputs": [
        {
          "indexed": true,
          "internalType": "uint256",
          "name": "tokenId",
          "type": "uint256"
        },
        {
          "indexed": true,
          "internalType": "address",
          "name": "receiver",
          "type": "address"
        },
        {
          "indexed": false,
          "internalType": "bytes32",
          "name": "packType",
          "type": "bytes32"
        },
        {
          "indexed": false,
          "internalType": "uint256",
          "name": "ethPackPrice",
          "type": "uint256"
        }
      ],
      "name": "PackBundled",
      "type": "event"
    },
    {
      "anonymous": false,
      "inputs": [
        {
          "indexed": true,
          "internalType": "uint256",
          "name": "tokenId",
          "type": "uint256"
        },
        {
          "indexed": true,
          "internalType": "address",
          "name": "receiver",
          "type": "address"
        },
        {
          "indexed": false,
          "internalType": "uint256",
          "name": "ethAmount",
          "type": "uint256"
        }
      ],
      "name": "PackUnbundled",
      "type": "event"
    },
    {
      "anonymous": false,
      "inputs": [
        {
          "indexed": false,
          "internalType": "address",
          "name": "account",
          "type": "address"
        }
      ],
      "name": "Paused",
      "type": "event"
    },
    {
      "anonymous": false,
      "inputs": [
        {
          "indexed": false,
          "internalType": "uint256",
          "name": "fee",
          "type": "uint256"
        }
      ],
      "name": "ProtocolFeeSet",
      "type": "event"
    },
    {
      "anonymous": false,
      "inputs": [
        {
          "indexed": true,
          "internalType": "address",
          "name": "proton",
          "type": "address"
        }
      ],
      "name": "ProtonSet",
      "type": "event"
    },
    {
      "anonymous": false,
      "inputs": [
        {
          "indexed": false,
          "internalType": "address",
          "name": "account",
          "type": "address"
        }
      ],
      "name": "Unpaused",
      "type": "event"
    },
    {
      "anonymous": false,
      "inputs": [
        {
          "indexed": true,
          "internalType": "address",
          "name": "treasury",
          "type": "address"
        }
      ],
      "name": "Web3PacksTreasurySet",
      "type": "event"
    },
    {
      "anonymous": false,
      "inputs": [
        {
          "indexed": true,
          "internalType": "address",
          "name": "receiver",
          "type": "address"
        },
        {
          "indexed": true,
          "internalType": "address",
          "name": "tokenAddress",
          "type": "address"
        },
        {
          "indexed": true,
          "internalType": "uint256",
          "name": "tokenId",
          "type": "uint256"
        },
        {
          "indexed": false,
          "internalType": "uint256",
          "name": "amount",
          "type": "uint256"
        }
      ],
      "name": "WithdrawStuckERC1155",
      "type": "event"
    },
    {
      "anonymous": false,
      "inputs": [
        {
          "indexed": true,
          "internalType": "address",
          "name": "receiver",
          "type": "address"
        },
        {
          "indexed": true,
          "internalType": "address",
          "name": "tokenAddress",
          "type": "address"
        },
        {
          "indexed": false,
          "internalType": "uint256",
          "name": "amount",
          "type": "uint256"
        }
      ],
      "name": "WithdrawStuckERC20",
      "type": "event"
    },
    {
      "anonymous": false,
      "inputs": [
        {
          "indexed": true,
          "internalType": "address",
          "name": "receiver",
          "type": "address"
        },
        {
          "indexed": true,
          "internalType": "address",
          "name": "tokenAddress",
          "type": "address"
        },
        {
          "indexed": true,
          "internalType": "uint256",
          "name": "tokenId",
          "type": "uint256"
        }
      ],
      "name": "WithdrawStuckERC721",
      "type": "event"
    },
    {
      "anonymous": false,
      "inputs": [
        {
          "indexed": true,
          "internalType": "address",
          "name": "receiver",
          "type": "address"
        },
        {
          "indexed": false,
          "internalType": "uint256",
          "name": "amount",
          "type": "uint256"
        }
      ],
      "name": "WithdrawStuckEther",
      "type": "event"
    },
    {
      "inputs": [
        {
          "internalType": "bytes32",
          "name": "",
          "type": "bytes32"
        }
      ],
      "name": "_bundlersById",
      "outputs": [
        {
          "internalType": "address",
          "name": "",
          "type": "address"
        }
      ],
      "stateMutability": "view",
      "type": "function"
    },
    {
      "inputs": [],
      "name": "_chargedParticles",
      "outputs": [
        {
          "internalType": "address",
          "name": "",
          "type": "address"
        }
      ],
      "stateMutability": "view",
      "type": "function"
    },
    {
      "inputs": [],
      "name": "_chargedState",
      "outputs": [
        {
          "internalType": "address",
          "name": "",
          "type": "address"
        }
      ],
      "stateMutability": "view",
      "type": "function"
    },
    {
      "inputs": [],
      "name": "_cpBasketManager",
      "outputs": [
        {
          "internalType": "string",
          "name": "",
          "type": "string"
        }
      ],
      "stateMutability": "view",
      "type": "function"
    },
    {
      "inputs": [],
      "name": "_cpWalletManager",
      "outputs": [
        {
          "internalType": "string",
          "name": "",
          "type": "string"
        }
      ],
      "stateMutability": "view",
      "type": "function"
    },
    {
      "inputs": [],
      "name": "_protocolFee",
      "outputs": [
        {
          "internalType": "uint256",
          "name": "",
          "type": "uint256"
        }
      ],
      "stateMutability": "view",
      "type": "function"
    },
    {
      "inputs": [],
      "name": "_proton",
      "outputs": [
        {
          "internalType": "address",
          "name": "",
          "type": "address"
        }
      ],
      "stateMutability": "view",
      "type": "function"
    },
    {
      "inputs": [],
      "name": "_weth",
      "outputs": [
        {
          "internalType": "address",
          "name": "",
          "type": "address"
        }
      ],
      "stateMutability": "view",
      "type": "function"
    },
    {
      "inputs": [
        {
          "components": [
            {
              "internalType": "bytes32",
              "name": "bundlerId",
              "type": "bytes32"
            },
            {
              "internalType": "uint256",
              "name": "percentBasisPoints",
              "type": "uint256"
            }
          ],
          "internalType": "struct IWeb3PacksDefs.BundleChunk[]",
          "name": "bundleChunks",
          "type": "tuple[]"
        },
        {
          "internalType": "address[]",
          "name": "referrals",
          "type": "address[]"
        },
        {
          "internalType": "string",
          "name": "tokenMetaUri",
          "type": "string"
        },
        {
          "components": [
            {
              "internalType": "uint256",
              "name": "ERC20Timelock",
              "type": "uint256"
            },
            {
              "internalType": "uint256",
              "name": "ERC721Timelock",
              "type": "uint256"
            }
          ],
          "internalType": "struct IWeb3PacksDefs.LockState",
          "name": "lockState",
          "type": "tuple"
        },
        {
          "internalType": "bytes32",
          "name": "packType",
          "type": "bytes32"
        },
        {
          "internalType": "uint256",
          "name": "ethPackPrice",
          "type": "uint256"
        }
      ],
      "name": "bundle",
      "outputs": [
        {
          "internalType": "uint256",
          "name": "tokenId",
          "type": "uint256"
        }
      ],
      "stateMutability": "payable",
      "type": "function"
    },
    {
      "inputs": [
        {
          "internalType": "address payable",
          "name": "account",
          "type": "address"
        }
      ],
      "name": "claimReferralRewards",
      "outputs": [],
      "stateMutability": "nonpayable",
      "type": "function"
    },
    {
      "inputs": [
        {
          "internalType": "address",
          "name": "tokenAddress",
          "type": "address"
        },
        {
          "internalType": "uint256",
          "name": "tokenId",
          "type": "uint256"
        }
      ],
      "name": "getPackBalances",
      "outputs": [
        {
          "components": [
            {
              "internalType": "address",
              "name": "tokenAddress",
              "type": "address"
            },
            {
              "internalType": "uint256",
              "name": "balance",
              "type": "uint256"
            },
            {
              "internalType": "uint256",
              "name": "nftTokenId",
              "type": "uint256"
            }
          ],
          "internalType": "struct IWeb3PacksDefs.TokenAmount[]",
          "name": "",
          "type": "tuple[]"
        }
      ],
      "stateMutability": "nonpayable",
      "type": "function"
    },
    {
      "inputs": [
        {
          "internalType": "uint256",
          "name": "tokenId",
          "type": "uint256"
        }
      ],
      "name": "getPackPriceEth",
      "outputs": [
        {
          "internalType": "uint256",
          "name": "packPriceEth",
          "type": "uint256"
        }
      ],
      "stateMutability": "view",
      "type": "function"
    },
    {
      "inputs": [
        {
          "internalType": "address",
          "name": "account",
          "type": "address"
        }
      ],
      "name": "getReferralRewardsOf",
      "outputs": [
        {
          "internalType": "uint256",
          "name": "balance",
          "type": "uint256"
        }
      ],
      "stateMutability": "view",
      "type": "function"
    },
    {
      "inputs": [
        {
          "internalType": "address",
          "name": "",
          "type": "address"
        },
        {
          "internalType": "address",
          "name": "",
          "type": "address"
        },
        {
          "internalType": "uint256",
          "name": "",
          "type": "uint256"
        },
        {
          "internalType": "bytes",
          "name": "",
          "type": "bytes"
        }
      ],
      "name": "onERC721Received",
      "outputs": [
        {
          "internalType": "bytes4",
          "name": "",
          "type": "bytes4"
        }
      ],
      "stateMutability": "pure",
      "type": "function"
    },
    {
      "inputs": [],
      "name": "owner",
      "outputs": [
        {
          "internalType": "address",
          "name": "",
          "type": "address"
        }
      ],
      "stateMutability": "view",
      "type": "function"
    },
    {
      "inputs": [],
      "name": "pause",
      "outputs": [],
      "stateMutability": "nonpayable",
      "type": "function"
    },
    {
      "inputs": [],
      "name": "paused",
      "outputs": [
        {
          "internalType": "bool",
          "name": "",
          "type": "bool"
        }
      ],
      "stateMutability": "view",
      "type": "function"
    },
    {
      "inputs": [
        {
          "internalType": "bytes32",
          "name": "bundlerId",
          "type": "bytes32"
        },
        {
          "internalType": "address",
          "name": "bundlerAddress",
          "type": "address"
        }
      ],
      "name": "registerBundlerId",
      "outputs": [],
      "stateMutability": "nonpayable",
      "type": "function"
    },
    {
      "inputs": [],
      "name": "renounceOwnership",
      "outputs": [],
      "stateMutability": "nonpayable",
      "type": "function"
    },
    {
      "inputs": [
        {
          "internalType": "address",
          "name": "chargedParticles",
          "type": "address"
        }
      ],
      "name": "setChargedParticles",
      "outputs": [],
      "stateMutability": "nonpayable",
      "type": "function"
    },
    {
      "inputs": [
        {
          "internalType": "address",
          "name": "chargedState",
          "type": "address"
        }
      ],
      "name": "setChargedState",
      "outputs": [],
      "stateMutability": "nonpayable",
      "type": "function"
    },
    {
      "inputs": [
        {
          "internalType": "uint256",
          "name": "fee",
          "type": "uint256"
        }
      ],
      "name": "setProtocolFee",
      "outputs": [],
      "stateMutability": "nonpayable",
      "type": "function"
    },
    {
      "inputs": [
        {
          "internalType": "address",
          "name": "proton",
          "type": "address"
        }
      ],
      "name": "setProton",
      "outputs": [],
      "stateMutability": "nonpayable",
      "type": "function"
    },
    {
      "inputs": [
        {
          "internalType": "address payable",
          "name": "treasury",
          "type": "address"
        }
      ],
      "name": "setTreasury",
      "outputs": [],
      "stateMutability": "nonpayable",
      "type": "function"
    },
    {
      "inputs": [
        {
          "internalType": "address",
          "name": "newOwner",
          "type": "address"
        }
      ],
      "name": "transferOwnership",
      "outputs": [],
      "stateMutability": "nonpayable",
      "type": "function"
    },
    {
      "inputs": [
        {
          "internalType": "address payable",
          "name": "receiver",
          "type": "address"
        },
        {
          "internalType": "address",
          "name": "tokenAddress",
          "type": "address"
        },
        {
          "internalType": "uint256",
          "name": "tokenId",
          "type": "uint256"
        },
        {
          "internalType": "bool",
          "name": "sellAll",
          "type": "bool"
        }
      ],
      "name": "unbundle",
      "outputs": [],
      "stateMutability": "payable",
      "type": "function"
    },
    {
      "inputs": [],
      "name": "unpause",
      "outputs": [],
      "stateMutability": "nonpayable",
      "type": "function"
    },
    {
      "inputs": [
        {
          "internalType": "address payable",
          "name": "receiver",
          "type": "address"
        },
        {
          "internalType": "address",
          "name": "tokenAddress",
          "type": "address"
        },
        {
          "internalType": "uint256",
          "name": "tokenId",
          "type": "uint256"
        },
        {
          "internalType": "uint256",
          "name": "amount",
          "type": "uint256"
        }
      ],
      "name": "withdrawERC1155",
      "outputs": [],
      "stateMutability": "nonpayable",
      "type": "function"
    },
    {
      "inputs": [
        {
          "internalType": "address payable",
          "name": "receiver",
          "type": "address"
        },
        {
          "internalType": "address",
          "name": "tokenAddress",
          "type": "address"
        },
        {
          "internalType": "uint256",
          "name": "tokenId",
          "type": "uint256"
        }
      ],
      "name": "withdrawERC721",
      "outputs": [],
      "stateMutability": "nonpayable",
      "type": "function"
    },
    {
      "inputs": [
        {
          "internalType": "address payable",
          "name": "receiver",
          "type": "address"
        },
        {
          "internalType": "address",
          "name": "tokenAddress",
          "type": "address"
        },
        {
          "internalType": "uint256",
          "name": "amount",
          "type": "uint256"
        }
      ],
      "name": "withdrawErc20",
      "outputs": [],
      "stateMutability": "nonpayable",
      "type": "function"
    },
    {
      "inputs": [
        {
          "internalType": "address payable",
          "name": "receiver",
          "type": "address"
        },
        {
          "internalType": "uint256",
          "name": "amount",
          "type": "uint256"
        }
      ],
      "name": "withdrawEther",
      "outputs": [],
      "stateMutability": "nonpayable",
      "type": "function"
    }
  ],
  "transactionHash": "0x4b15ec3847690adca4d4beafcd65bb31eb5dcecb3141b9b24b40cadfaf0d8024",
  "args": [
    "0xae13d989daC2f0dEbFf460aC112a837C89BAa7cd",
    "0xE0dbEc1fE9c4148c85815abE93D496F5f909EB65",
    "0x4a7b80e418454a21A49885b009d51f0d0A6Ed77A",
    "0xc42De19eB6eB8fa3eCCcA9Ad0F2E4795c468310f"
  ],
  "numDeployments": 1,
  "solcInputHash": "404196d31ddc393f76d325a414dddac2",
  "bytecode": "0x60c0604052600960809081526833b2b732b934b1972160b91b60a052600c906200002a9082620001f0565b5060408051808201909152600981526833b2b732b934b1972160b91b6020820152600d906200005a9082620001f0565b503480156200006857600080fd5b5060405162003aa138038062003aa18339810160408190526200008b91620002d9565b6200009633620000fb565b6000805460ff60a01b1916905560018055600280546001600160a01b039586166001600160a01b031991821617909155600380549486169482169490941790935560048054928516928416929092179091556005805491909316911617905562000336565b600080546001600160a01b038381166001600160a01b0319831681178455604051919092169283917f8be0079c531659141344cd1fd0a4f28419497f9722a3daafe3b4186f6b6457e09190a35050565b634e487b7160e01b600052604160045260246000fd5b600181811c908216806200017657607f821691505b6020821081036200019757634e487b7160e01b600052602260045260246000fd5b50919050565b601f821115620001eb57600081815260208120601f850160051c81016020861015620001c65750805b601f850160051c820191505b81811015620001e757828155600101620001d2565b5050505b505050565b81516001600160401b038111156200020c576200020c6200014b565b62000224816200021d845462000161565b846200019d565b602080601f8311600181146200025c5760008415620002435750858301515b600019600386901b1c1916600185901b178555620001e7565b600085815260208120601f198616915b828110156200028d578886015182559484019460019091019084016200026c565b5085821015620002ac5787850151600019600388901b60f8161c191681555b5050505050600190811b01905550565b80516001600160a01b0381168114620002d457600080fd5b919050565b60008060008060808587031215620002f057600080fd5b620002fb85620002bc565b93506200030b60208601620002bc565b92506200031b60408601620002bc565b91506200032b60608601620002bc565b905092959194509250565b61375b80620003466000396000f3fe6080604052600436106101d85760003560e01c8063787dce3d11610102578063b4540d7411610095578063dafb944911610064578063dafb9449146105cd578063edd777b3146105ed578063f0f4426014610600578063f2fde38b1461062057600080fd5b8063b4540d741461054d578063b7683e931461057a578063b76c37531461059a578063bd326616146105ad57600080fd5b8063a0edb48b116100d1578063a0edb48b146104cd578063a1764595146104ed578063a8499fdf1461050d578063b36a8e011461052d57600080fd5b8063787dce3d1461045a5780638456cb591461047a5780638da5cb5b1461048f5780639e3905c4146104ad57600080fd5b80634025feb21161017a5780635c975abb116101495780635c975abb146103e6578063609b8813146104105780636e5559fd14610425578063715018a61461044557600080fd5b80634025feb21461034357806341d6206c14610363578063522f681514610399578063524f389d146103b957600080fd5b8063252c9c94116101b6578063252c9c941461029e57806330219ef4146102c05780633f4ba83a146102f85780633f656fb81461030d57600080fd5b8063108e4db7146101dd578063150b7a02146102065780631593dee11461027c575b600080fd5b3480156101e957600080fd5b506101f360075481565b6040519081526020015b60405180910390f35b34801561021257600080fd5b5061024b610221366004612ea6565b7f150b7a020000000000000000000000000000000000000000000000000000000095945050505050565b6040517fffffffff0000000000000000000000000000000000000000000000000000000090911681526020016101fd565b34801561028857600080fd5b5061029c610297366004612f19565b610640565b005b3480156102aa57600080fd5b506102b3610658565b6040516101fd9190612faa565b3480156102cc57600080fd5b506004546102e0906001600160a01b031681565b6040516001600160a01b0390911681526020016101fd565b34801561030457600080fd5b5061029c6106e6565b34801561031957600080fd5b506101f3610328366004612fbd565b6001600160a01b03166000908152600b602052604090205490565b34801561034f57600080fd5b5061029c61035e366004612f19565b6106f8565b34801561036f57600080fd5b506102e061037e366004612fe1565b6008602052600090815260409020546001600160a01b031681565b3480156103a557600080fd5b5061029c6103b4366004612ffa565b61070b565b3480156103c557600080fd5b506101f36103d4366004612fe1565b60009081526009602052604090205490565b3480156103f257600080fd5b50600054600160a01b900460ff1660405190151581526020016101fd565b34801561041c57600080fd5b506102b3610721565b34801561043157600080fd5b5061029c610440366004612fbd565b61072e565b34801561045157600080fd5b5061029c610800565b34801561046657600080fd5b5061029c610475366004612fe1565b610812565b34801561048657600080fd5b5061029c610855565b34801561049b57600080fd5b506000546001600160a01b03166102e0565b3480156104b957600080fd5b5061029c6104c8366004613026565b610865565b3480156104d957600080fd5b5061029c6104e8366004613056565b6108d0565b3480156104f957600080fd5b506002546102e0906001600160a01b031681565b34801561051957600080fd5b506005546102e0906001600160a01b031681565b34801561053957600080fd5b5061029c610548366004612fbd565b6108ea565b34801561055957600080fd5b5061056d610568366004612ffa565b610976565b6040516101fd919061309c565b34801561058657600080fd5b5061029c610595366004612fbd565b61098b565b61029c6105a836600461310c565b610a33565b3480156105b957600080fd5b5061029c6105c8366004612fbd565b610aab565b3480156105d957600080fd5b506003546102e0906001600160a01b031681565b6101f36105fb3660046131bc565b610b53565b34801561060c57600080fd5b5061029c61061b366004612fbd565b610c1d565b34801561062c57600080fd5b5061029c61063b366004612fbd565b610cc5565b610648610d52565b610653838383610dac565b505050565b600c8054610665906132a8565b80601f0160208091040260200160405190810160405280929190818152602001828054610691906132a8565b80156106de5780601f106106b3576101008083540402835291602001916106de565b820191906000526020600020905b8154815290600101906020018083116106c157829003601f168201915b505050505081565b6106ee610d52565b6106f6610ec3565b565b610700610d52565b610653838383610f18565b610713610d52565b61071d82826110b3565b5050565b600d8054610665906132a8565b610736610d52565b6001600160a01b0381166107b65760405162461bcd60e51b8152602060048201526024808201527f496e76616c6964206164647265737320666f722063686172676564506172746960448201527f636c65730000000000000000000000000000000000000000000000000000000060648201526084015b60405180910390fd5b600480546001600160a01b0319166001600160a01b0383169081179091556040517f5ce0e6b7fd36339ee97339831b6c72694ecee88c62aab49919d9cabe0a732e4190600090a250565b610808610d52565b6106f66000611149565b61081a610d52565b60078190556040518181527fdb5aafdb29539329e37d4e3ee869bc4031941fd55a5dfc92824fbe34b204e30d9060200160405180910390a150565b61085d610d52565b6106f6611199565b61086d610d52565b60008281526008602090815260409182902080546001600160a01b0319166001600160a01b03851690811790915591518481527ff2db398cc8122e242d54551a7bdf11fbda61e183aa561acb1361a73b9f8e5ae591015b60405180910390a25050565b6108d8610d52565b6108e4848484846111dc565b50505050565b6108f2611395565b6001600160a01b0381166000908152600b6020526040902054478111610969576109256001600160a01b038316826113ee565b816001600160a01b03167fe64799e036cf6322d0c3b6d11f4e2fc9d1bd9bb5938dd3d6835921a427c89b8f8260405161096091815260200190565b60405180910390a25b5061097360018055565b50565b60606109828383611507565b90505b92915050565b610993610d52565b6001600160a01b0381166109e95760405162461bcd60e51b815260206004820181905260248201527f496e76616c6964206164647265737320666f722063686172676564537461746560448201526064016107ad565b600580546001600160a01b0319166001600160a01b0383169081179091556040517f62ff39aed768a426c7582b6e1062ab2631df1869b2d574e36f8274d2e2b0ab8190600090a250565b610a3b611726565b610a43611395565b610a4d6000611780565b6000610a5b8585858561180e565b9050846001600160a01b0316837f1143d14cf0b7fdb46022761b1a9b421b27c63d51cbf67363a425c415b14a8ad383604051610a9991815260200190565b60405180910390a3506108e460018055565b610ab3610d52565b6001600160a01b038116610b095760405162461bcd60e51b815260206004820152601a60248201527f496e76616c6964206164647265737320666f722070726f746f6e00000000000060448201526064016107ad565b600380546001600160a01b0319166001600160a01b0383169081179091556040517fa3d7b0fff2d93a7ba440166a8f7eba4acfe6e000fe19b8218e64264d62ef272690600090a250565b6000610b5d611726565b610b65611395565b610b6e82611780565b6000610bad838a8a80806020026020016040519081016040528093929190818152602001838360200280828437600092019190915250611b2392505050565b9050610bc68b8b898989610bc1878a6132f2565b611e4f565b6040805186815260208101869052919350339184917f775e8ef7e6e96ebecce1023e6d6cf38ebecc41d241178408bf9723d407281a52910160405180910390a350610c1060018055565b9998505050505050505050565b610c25610d52565b6001600160a01b038116610c7b5760405162461bcd60e51b815260206004820152601c60248201527f496e76616c6964206164647265737320666f722074726561737572790000000060448201526064016107ad565b600680546001600160a01b0319166001600160a01b0383169081179091556040517febbf9e77f4905707c811ea2da45f04b959c1132fecd092aae1fe0dac5b176c3290600090a250565b610ccd610d52565b6001600160a01b038116610d495760405162461bcd60e51b815260206004820152602660248201527f4f776e61626c653a206e6577206f776e657220697320746865207a65726f206160448201527f646472657373000000000000000000000000000000000000000000000000000060648201526084016107ad565b61097381611149565b6000546001600160a01b031633146106f65760405162461bcd60e51b815260206004820181905260248201527f4f776e61626c653a2063616c6c6572206973206e6f7420746865206f776e657260448201526064016107ad565b6001600160a01b038316610dee5760405162461bcd60e51b81526020600482015260096024820152684248503a452d34303360b81b60448201526064016107ad565b6040516370a0823160e01b815230600482015281906001600160a01b038416906370a0823190602401602060405180830381865afa158015610e34573d6000803e3d6000fd5b505050506040513d601f19601f82011682018060405250810190610e589190613305565b1061065357610e716001600160a01b03831684836122ff565b816001600160a01b0316836001600160a01b03167f6c9d637297625e945b296ff73a71fcfbd0a9e062652b6491a921c4c60194176b83604051610eb691815260200190565b60405180910390a3505050565b610ecb612351565b6000805460ff60a01b191690557f5db9ee0a495bf2e6ff9c91a7834c1ba4fdd244a5e8aa4e537bd38aeae4b073aa335b6040516001600160a01b03909116815260200160405180910390a1565b6001600160a01b038316610f5a5760405162461bcd60e51b81526020600482015260096024820152684248503a452d34303360b81b60448201526064016107ad565b6040517f6352211e0000000000000000000000000000000000000000000000000000000081526004810182905230906001600160a01b03841690636352211e90602401602060405180830381865afa158015610fba573d6000803e3d6000fd5b505050506040513d601f19601f82011682018060405250810190610fde919061331e565b6001600160a01b031603610653576040517f23b872dd0000000000000000000000000000000000000000000000000000000081523060048201526001600160a01b038481166024830152604482018390528316906323b872dd90606401600060405180830381600087803b15801561105557600080fd5b505af1158015611069573d6000803e3d6000fd5b5050505080826001600160a01b0316846001600160a01b03167ffefe036cac4ee3a4aca074a81cbcc4376e1484693289078dbec149c890101d5b60405160405180910390a4505050565b6001600160a01b0382166110f55760405162461bcd60e51b81526020600482015260096024820152684248503a452d34303360b81b60448201526064016107ad565b80471061071d5761110f6001600160a01b038316826113ee565b816001600160a01b03167eddb683bb45cd5d0ad8a200c6fae7152b1c236ee90a4a37db692407f5cc38bd826040516108c491815260200190565b600080546001600160a01b038381166001600160a01b0319831681178455604051919092169283917f8be0079c531659141344cd1fd0a4f28419497f9722a3daafe3b4186f6b6457e09190a35050565b6111a1611726565b6000805460ff60a01b1916600160a01b1790557f62e78cea01bee320cd4e420270b5ea74000d11b0c9f74754ebdbfc544b05a258610efb3390565b6001600160a01b03841661121e5760405162461bcd60e51b81526020600482015260096024820152684248503a452d34303360b81b60448201526064016107ad565b6040517efdd58e0000000000000000000000000000000000000000000000000000000081523060048201526024810183905281906001600160a01b0385169062fdd58e90604401602060405180830381865afa158015611282573d6000803e3d6000fd5b505050506040513d601f19601f820116820180604052508101906112a69190613305565b106108e4576040517ff242432a0000000000000000000000000000000000000000000000000000000081523060048201526001600160a01b038581166024830152604482018490526064820183905260a06084830152600060a483015284169063f242432a9060c401600060405180830381600087803b15801561132957600080fd5b505af115801561133d573d6000803e3d6000fd5b5050505081836001600160a01b0316856001600160a01b03167f620337bf89eea2b9ae2657beead83b5fa620452817118348aff96e201d52598b8460405161138791815260200190565b60405180910390a450505050565b6002600154036113e75760405162461bcd60e51b815260206004820152601f60248201527f5265656e7472616e637947756172643a207265656e7472616e742063616c6c0060448201526064016107ad565b6002600155565b8047101561143e5760405162461bcd60e51b815260206004820152601d60248201527f416464726573733a20696e73756666696369656e742062616c616e636500000060448201526064016107ad565b6000826001600160a01b03168260405160006040518083038185875af1925050503d806000811461148b576040519150601f19603f3d011682016040523d82523d6000602084013e611490565b606091505b50509050806106535760405162461bcd60e51b815260206004820152603a60248201527f416464726573733a20756e61626c6520746f2073656e642076616c75652c207260448201527f6563697069656e74206d6179206861766520726576657274656400000000000060648201526084016107ad565b6000818152600a602052604081205460609190810361153957604051636239226960e11b815260040160405180910390fd5b6000838152600a6020526040812054908167ffffffffffffffff8111156115625761156261333b565b6040519080825280602002602001820160405280156115c057816020015b6115ad604051806060016040528060006001600160a01b0316815260200160008152602001600081525090565b8152602001906001900390816115805790505b50905060005b8281101561171c576000868152600a602052604081208054839081106115ee576115ee613351565b600091825260208083209091015480835260089091526040909120549091506001600160a01b0316611620575061170a565b6000818152600860205260408082205490516305ff03af60e51b8152600481018a90526001600160a01b0390911696508190879063bfe075e09060240160408051808303816000875af115801561167b573d6000803e3d6000fd5b505050506040513d601f19601f8201168201806040525081019061169f9190613367565b90925090508015156000816116be576116b98c8c866123aa565b6116c1565b60015b90506040518060600160405280856001600160a01b03168152602001828152602001848152508787815181106116f9576116f9613351565b602002602001018190525050505050505b8061171481613395565b9150506115c6565b5095945050505050565b600054600160a01b900460ff16156106f65760405162461bcd60e51b815260206004820152601060248201527f5061757361626c653a207061757365640000000000000000000000000000000060448201526064016107ad565b600060075411801561179e57508060075461179b91906133ae565b34105b156117e9576007546040517f562cac4d0000000000000000000000000000000000000000000000000000000081523460048201526024810183905260448101919091526064016107ad565b60006117f582346132f2565b60065490915061071d906001600160a01b0316826113ee565b6000806000856001600160a01b0316636352211e866040518263ffffffff1660e01b815260040161184191815260200190565b602060405180830381865afa15801561185e573d6000803e3d6000fd5b505050506040513d601f19601f82011682018060405250810190611882919061331e565b9050336001600160a01b038216146118c6576040517fdb1453ce00000000000000000000000000000000000000000000000000000000815260040160405180910390fd5b6000858152600a602052604081205490036118f457604051636239226960e11b815260040160405180910390fd5b60008060005b6000888152600a6020526040902054811015611aee576000888152600a6020526040812080548390811061193057611930613351565b600091825260208083209091015480835260089091526040909120549091506001600160a01b03166119625750611adc565b600081815260086020526040908190205490516305ff03af60e51b8152600481018b90526001600160a01b039091169650869063bfe075e09060240160408051808303816000875af11580156119bc573d6000803e3d6000fd5b505050506040513d601f19601f820116820180604052508101906119e09190613367565b90945092506000839003611a1657600081815260086020526040902054611a11906001600160a01b03168a86612447565b611a3a565b600081815260086020526040902054611a3a906001600160a01b03168a86866124e5565b6040517fcc427bad0000000000000000000000000000000000000000000000000000000081526001600160a01b038c81166004830152602482018b9052891515604483015287169063cc427bad906064016020604051808303816000875af1158015611aaa573d6000803e3d6000fd5b505050506040513d601f19601f82011682018060405250810190611ace9190613305565b611ad890886133ae565b9650505b80611ae681613395565b9150506118fa565b506000878152600a60205260408120611b0691612dca565b505050600093845250600960205260408320929092555092915050565b600080612710611b358561014a6133c1565b611b3f91906133d8565b905060008351118015611b7f575060006001600160a01b031683600081518110611b6b57611b6b613351565b60200260200101516001600160a01b031614155b15611e485780915060018351118015611bc5575060006001600160a01b031683600181518110611bb157611bb1613351565b60200260200101516001600160a01b031614155b15611df35760028351118015611c08575060006001600160a01b031683600281518110611bf457611bf4613351565b60200260200101516001600160a01b031614155b15611d5757612710611c1b85601e6133c1565b611c2591906133d8565b600b600085600081518110611c3c57611c3c613351565b60200260200101516001600160a01b03166001600160a01b031681526020019081526020016000206000828254611c7391906133ae565b909155506127109050611c8785601e6133c1565b611c9191906133d8565b600b600085600181518110611ca857611ca8613351565b60200260200101516001600160a01b03166001600160a01b031681526020019081526020016000206000828254611cdf91906133ae565b909155506127109050611cf48561010e6133c1565b611cfe91906133d8565b600b600085600281518110611d1557611d15613351565b60200260200101516001600160a01b03166001600160a01b031681526020019081526020016000206000828254611d4c91906133ae565b90915550611e489050565b612710611d6585601e6133c1565b611d6f91906133d8565b600b600085600081518110611d8657611d86613351565b60200260200101516001600160a01b03166001600160a01b031681526020019081526020016000206000828254611dbd91906133ae565b909155506127109050611dd28561012c6133c1565b611ddc91906133d8565b600b600085600181518110611d1557611d15613351565b80600b600085600081518110611e0b57611e0b613351565b60200260200101516001600160a01b03166001600160a01b031681526020019081526020016000206000828254611e4291906133ae565b90915550505b5092915050565b600080611e9186868080601f01602080910402602001604051908101604052809392919081815260200183838082843760009201919091525061258292505050565b9150600260009054906101000a90046001600160a01b03166001600160a01b031663d0e30db0846040518263ffffffff1660e01b81526004016000604051808303818588803b158015611ee357600080fd5b505af1158015611ef7573d6000803e3d6000fd5b50506002546040516370a0823160e01b8152306004820152600094506001600160a01b0390911692506370a082319150602401602060405180830381865afa158015611f47573d6000803e3d6000fd5b505050506040513d601f19601f82011682018060405250810190611f6b9190613305565b90506000808080808c67ffffffffffffffff811115611f8c57611f8c61333b565b604051908082528060200260200182016040528015611fb5578160200160208202803683370190505b50905060005b8d8110156122205760008f8f83818110611fd757611fd7613351565b905060400201803603810190611fed91906133fa565b9050806000015183838151811061200657612006613351565b60209081029190910181019190915281516000908152600890915260409020546001600160a01b031661206b5780516040517f75c3577900000000000000000000000000000000000000000000000000000000815260048101919091526024016107ad565b8051600090815260086020908152604090912054908201516001600160a01b0390911699506127109061209e908a6133c1565b6120a891906133d8565b6002549097506120c2906001600160a01b03168a89612613565b6001600160a01b038916631b22a4f08b336040517fffffffff0000000000000000000000000000000000000000000000000000000060e085901b16815260048101929092526001600160a01b031660248201526044016060604051808303816000875af1158015612137573d6000803e3d6000fd5b505050506040513d601f19601f8201168201806040525081019061215b9190613457565b9197509550935060008490036121be576121768a8787612727565b856001600160a01b03167fe141b0c8fb58749d5af9414a49d94c6236c457ee3c2acee0a206810fbad56a5d866040516121b191815260200190565b60405180910390a261220d565b6121c98a878661284b565b856001600160a01b03167f392b7247a3398d2d55f17e40da2099255e8ce61ee318cbe5cf2a44d70565fe048560405161220491815260200190565b60405180910390a25b508061221881613395565b915050611fbb565b506000888152600a60209081526040909120825161224092840190612de8565b50600088815260096020526040902089905561225c8a89612969565b6003546001600160a01b03166342842e0e30336040517fffffffff0000000000000000000000000000000000000000000000000000000060e085901b1681526001600160a01b03928316600482015291166024820152604481018b9052606401600060405180830381600087803b1580156122d657600080fd5b505af11580156122ea573d6000803e3d6000fd5b50505050505050505050509695505050505050565b604080516001600160a01b038416602482015260448082018490528251808303909101815260649091019091526020810180516001600160e01b031663a9059cbb60e01b179052610653908490612a92565b600054600160a01b900460ff166106f65760405162461bcd60e51b815260206004820152601460248201527f5061757361626c653a206e6f742070617573656400000000000000000000000060448201526064016107ad565b600480546040517fe6ea6ce70000000000000000000000000000000000000000000000000000000081526000926001600160a01b039092169163e6ea6ce7916123fc9188918891600c91899101613532565b6020604051808303816000875af115801561241b573d6000803e3d6000fd5b505050506040513d601f19601f8201168201806040525081019061243f9190613305565b949350505050565b600480546003546040517facab923c0000000000000000000000000000000000000000000000000000000081526001600160a01b039283169363acab923c9361249c9389939116918891600c9189910161356f565b60408051808303816000875af11580156124ba573d6000803e3d6000fd5b505050506040513d601f19601f820116820180604052508101906124de91906135b5565b5050505050565b600480546003546040517ffe02fb000000000000000000000000000000000000000000000000000000000081526001600160a01b039283169363fe02fb009361253f938a939116918991600d918a918a91600191016135d9565b6020604051808303816000875af115801561255e573d6000803e3d6000fd5b505050506040513d601f19601f820116820180604052508101906124de9190613628565b6003546040517f2c0cd5a30000000000000000000000000000000000000000000000000000000081526000916001600160a01b031690632c0cd5a3906125d090309081908790600401613645565b6020604051808303816000875af11580156125ef573d6000803e3d6000fd5b505050506040513d601f19601f820116820180604052508101906109859190613305565b604080516001600160a01b038481166024830152604480830185905283518084039091018152606490920183526020820180516001600160e01b031663a9059cbb60e01b179052915160009283929087169161266f919061367a565b6000604051808303816000865af19150503d80600081146126ac576040519150601f19603f3d011682016040523d82523d6000602084013e6126b1565b606091505b50915091508180156126db5750805115806126db5750808060200190518101906126db9190613628565b6124de5760405162461bcd60e51b815260206004820152600260248201527f535400000000000000000000000000000000000000000000000000000000000060448201526064016107ad565b8060000361279a576040516370a0823160e01b81523060048201526001600160a01b038316906370a0823190602401602060405180830381865afa158015612773573d6000803e3d6000fd5b505050506040513d601f19601f820116820180604052508101906127979190613305565b90505b6004546127b29083906001600160a01b031683612b7a565b600480546003546040517f0bdde2ca0000000000000000000000000000000000000000000000000000000081526001600160a01b0392831693630bdde2ca936128089316918891600c9189918991309101613696565b6020604051808303816000875af1158015612827573d6000803e3d6000fd5b505050506040513d601f19601f820116820180604052508101906108e49190613305565b600480546040517fa22cb4650000000000000000000000000000000000000000000000000000000081526001600160a01b03918216928101929092526001602483015283169063a22cb46590604401600060405180830381600087803b1580156128b457600080fd5b505af11580156128c8573d6000803e3d6000fd5b5050600480546003546040517f3ff956cc0000000000000000000000000000000000000000000000000000000081526001600160a01b039283169550633ff956cc94506129269391909216918891600d9189918991600191016136df565b6020604051808303816000875af1158015612945573d6000803e3d6000fd5b505050506040513d601f19601f820116820180604052508101906108e49190613628565b8135156129f9576005546003546040517f090003d20000000000000000000000000000000000000000000000000000000081526001600160a01b039182166004820152602481018490528435604482015291169063090003d290606401600060405180830381600087803b1580156129e057600080fd5b505af11580156129f4573d6000803e3d6000fd5b505050505b60208201351561071d576005546003546040517f907990010000000000000000000000000000000000000000000000000000000081526001600160a01b0391821660048201526024810184905260208501356044820152911690639079900190606401600060405180830381600087803b158015612a7657600080fd5b505af1158015612a8a573d6000803e3d6000fd5b505050505050565b6000612ae7826040518060400160405280602081526020017f5361666545524332303a206c6f772d6c6576656c2063616c6c206661696c6564815250856001600160a01b0316612ca79092919063ffffffff16565b9050805160001480612b08575080806020019051810190612b089190613628565b6106535760405162461bcd60e51b815260206004820152602a60248201527f5361666545524332303a204552433230206f7065726174696f6e20646964206e60448201527f6f7420737563636565640000000000000000000000000000000000000000000060648201526084016107ad565b604080516001600160a01b038481166024830152604480830185905283518084039091018152606490920183526020820180516001600160e01b03167f095ea7b3000000000000000000000000000000000000000000000000000000001790529151600092839290871691612bef919061367a565b6000604051808303816000865af19150503d8060008114612c2c576040519150601f19603f3d011682016040523d82523d6000602084013e612c31565b606091505b5091509150818015612c5b575080511580612c5b575080806020019051810190612c5b9190613628565b6124de5760405162461bcd60e51b815260206004820152600260248201527f534100000000000000000000000000000000000000000000000000000000000060448201526064016107ad565b606061243f848460008585600080866001600160a01b03168587604051612cce919061367a565b60006040518083038185875af1925050503d8060008114612d0b576040519150601f19603f3d011682016040523d82523d6000602084013e612d10565b606091505b5091509150612d2187838387612d2c565b979650505050505050565b60608315612d9b578251600003612d94576001600160a01b0385163b612d945760405162461bcd60e51b815260206004820152601d60248201527f416464726573733a2063616c6c20746f206e6f6e2d636f6e747261637400000060448201526064016107ad565b508161243f565b61243f8383815115612db05781518083602001fd5b8060405162461bcd60e51b81526004016107ad9190612faa565b50805460008255906000526020600020908101906109739190612e33565b828054828255906000526020600020908101928215612e23579160200282015b82811115612e23578251825591602001919060010190612e08565b50612e2f929150612e33565b5090565b5b80821115612e2f5760008155600101612e34565b6001600160a01b038116811461097357600080fd5b60008083601f840112612e6f57600080fd5b50813567ffffffffffffffff811115612e8757600080fd5b602083019150836020828501011115612e9f57600080fd5b9250929050565b600080600080600060808688031215612ebe57600080fd5b8535612ec981612e48565b94506020860135612ed981612e48565b935060408601359250606086013567ffffffffffffffff811115612efc57600080fd5b612f0888828901612e5d565b969995985093965092949392505050565b600080600060608486031215612f2e57600080fd5b8335612f3981612e48565b92506020840135612f4981612e48565b929592945050506040919091013590565b60005b83811015612f75578181015183820152602001612f5d565b50506000910152565b60008151808452612f96816020860160208601612f5a565b601f01601f19169290920160200192915050565b6020815260006109826020830184612f7e565b600060208284031215612fcf57600080fd5b8135612fda81612e48565b9392505050565b600060208284031215612ff357600080fd5b5035919050565b6000806040838503121561300d57600080fd5b823561301881612e48565b946020939093013593505050565b6000806040838503121561303957600080fd5b82359150602083013561304b81612e48565b809150509250929050565b6000806000806080858703121561306c57600080fd5b843561307781612e48565b9350602085013561308781612e48565b93969395505050506040820135916060013590565b602080825282518282018190526000919060409081850190868401855b828110156130f157815180516001600160a01b03168552868101518786015285015185850152606090930192908501906001016130b9565b5091979650505050505050565b801515811461097357600080fd5b6000806000806080858703121561312257600080fd5b843561312d81612e48565b9350602085013561313d81612e48565b9250604085013591506060850135613154816130fe565b939692955090935050565b60008083601f84011261317157600080fd5b50813567ffffffffffffffff81111561318957600080fd5b6020830191508360208260051b8501011115612e9f57600080fd5b6000604082840312156131b657600080fd5b50919050565b600080600080600080600080600060e08a8c0312156131da57600080fd5b893567ffffffffffffffff808211156131f257600080fd5b818c0191508c601f83011261320657600080fd5b81358181111561321557600080fd5b8d60208260061b850101111561322a57600080fd5b60209283019b509950908b0135908082111561324557600080fd5b6132518d838e0161315f565b909950975060408c013591508082111561326a57600080fd5b506132778c828d01612e5d565b909650945061328b90508b60608c016131a4565b925060a08a0135915060c08a013590509295985092959850929598565b600181811c908216806132bc57607f821691505b6020821081036131b657634e487b7160e01b600052602260045260246000fd5b634e487b7160e01b600052601160045260246000fd5b81810381811115610985576109856132dc565b60006020828403121561331757600080fd5b5051919050565b60006020828403121561333057600080fd5b8151612fda81612e48565b634e487b7160e01b600052604160045260246000fd5b634e487b7160e01b600052603260045260246000fd5b6000806040838503121561337a57600080fd5b825161338581612e48565b6020939093015192949293505050565b6000600182016133a7576133a76132dc565b5060010190565b80820180821115610985576109856132dc565b8082028115828204841417610985576109856132dc565b6000826133f557634e487b7160e01b600052601260045260246000fd5b500490565b60006040828403121561340c57600080fd5b6040516040810181811067ffffffffffffffff8211171561343d57634e487b7160e01b600052604160045260246000fd5b604052823581526020928301359281019290925250919050565b60008060006060848603121561346c57600080fd5b835161347781612e48565b602085015160409095015190969495509392505050565b8054600090600181811c90808316806134a857607f831692505b602080841082036134c957634e487b7160e01b600052602260045260246000fd5b838852602088018280156134e457600181146134fa57613525565b60ff198716825285151560051b82019750613525565b60008981526020902060005b8781101561351f57815484820152908601908401613506565b83019850505b5050505050505092915050565b60006001600160a01b0380871683528560208401526080604084015261355b608084018661348e565b915080841660608401525095945050505050565b60006001600160a01b038088168352808716602084015285604084015260a060608401526135a060a084018661348e565b91508084166080840152509695505050505050565b600080604083850312156135c857600080fd5b505080516020909101519092909150565b60006001600160a01b03808a168352808916602084015287604084015260e0606084015261360a60e084018861348e565b951660808301525060a081019290925260c090910152949350505050565b60006020828403121561363a57600080fd5b8151612fda816130fe565b60006001600160a01b038086168352808516602084015250606060408301526136716060830184612f7e565b95945050505050565b6000825161368c818460208701612f5a565b9190910192915050565b60006001600160a01b03808916835287602084015260c060408401526136bf60c084018861348e565b9581166060840152608083019490945250911660a0909101529392505050565b60006001600160a01b03808916835287602084015260c0604084015261370860c084018861348e565b9516606083015250608081019290925260a090910152939250505056fea2646970667358221220a8b841f8624148dd50cda1e68ab051fff0b991e86d630db17416acbbcf03c76f64736f6c63430008110033",
  "devdoc": {
    "kind": "dev",
    "methods": {
      "owner()": {
        "details": "Returns the address of the current owner."
      },
      "paused()": {
        "details": "Returns true if the contract is paused, and false otherwise."
      },
      "renounceOwnership()": {
        "details": "Leaves the contract without owner. It will not be possible to call `onlyOwner` functions. Can only be called by the current owner. NOTE: Renouncing ownership will leave the contract without an owner, thereby disabling any functionality that is only available to the owner."
      },
      "setChargedParticles(address)": {
        "details": "Setup the ChargedParticles Interface"
      },
      "transferOwnership(address)": {
        "details": "Transfers ownership of the contract to a new account (`newOwner`). Can only be called by the current owner."
      }
    },
    "version": 1
  },
  "userdoc": {
    "kind": "user",
    "methods": {},
    "version": 1
  },
  "storageLayout": {
    "storage": [
      {
        "astId": 7,
        "contract": "contracts/Web3PacksV2.sol:Web3PacksV2",
        "label": "_owner",
        "offset": 0,
        "slot": "0",
        "type": "t_address"
      },
      {
        "astId": 158,
        "contract": "contracts/Web3PacksV2.sol:Web3PacksV2",
        "label": "_paused",
        "offset": 20,
        "slot": "0",
        "type": "t_bool"
      },
      {
        "astId": 259,
        "contract": "contracts/Web3PacksV2.sol:Web3PacksV2",
        "label": "_status",
        "offset": 0,
        "slot": "1",
        "type": "t_uint256"
      },
      {
        "astId": 5227,
        "contract": "contracts/Web3PacksV2.sol:Web3PacksV2",
        "label": "_weth",
        "offset": 0,
        "slot": "2",
        "type": "t_address"
      },
      {
        "astId": 5229,
        "contract": "contracts/Web3PacksV2.sol:Web3PacksV2",
        "label": "_proton",
        "offset": 0,
        "slot": "3",
        "type": "t_address"
      },
      {
        "astId": 5231,
        "contract": "contracts/Web3PacksV2.sol:Web3PacksV2",
        "label": "_chargedParticles",
        "offset": 0,
        "slot": "4",
        "type": "t_address"
      },
      {
        "astId": 5233,
        "contract": "contracts/Web3PacksV2.sol:Web3PacksV2",
        "label": "_chargedState",
        "offset": 0,
        "slot": "5",
        "type": "t_address"
      },
      {
        "astId": 5235,
        "contract": "contracts/Web3PacksV2.sol:Web3PacksV2",
        "label": "_treasury",
        "offset": 0,
        "slot": "6",
        "type": "t_address_payable"
      },
      {
        "astId": 5237,
        "contract": "contracts/Web3PacksV2.sol:Web3PacksV2",
        "label": "_protocolFee",
        "offset": 0,
        "slot": "7",
        "type": "t_uint256"
      },
      {
        "astId": 5241,
        "contract": "contracts/Web3PacksV2.sol:Web3PacksV2",
        "label": "_bundlersById",
        "offset": 0,
        "slot": "8",
        "type": "t_mapping(t_bytes32,t_address)"
      },
      {
        "astId": 5245,
        "contract": "contracts/Web3PacksV2.sol:Web3PacksV2",
        "label": "_packPriceByPackId",
        "offset": 0,
        "slot": "9",
        "type": "t_mapping(t_uint256,t_uint256)"
      },
      {
        "astId": 5250,
        "contract": "contracts/Web3PacksV2.sol:Web3PacksV2",
        "label": "_bundlesByPackId",
        "offset": 0,
        "slot": "10",
        "type": "t_mapping(t_uint256,t_array(t_bytes32)dyn_storage)"
      },
      {
        "astId": 5254,
        "contract": "contracts/Web3PacksV2.sol:Web3PacksV2",
        "label": "_referrerBalance",
        "offset": 0,
        "slot": "11",
        "type": "t_mapping(t_address,t_uint256)"
      },
      {
        "astId": 5257,
        "contract": "contracts/Web3PacksV2.sol:Web3PacksV2",
        "label": "_cpWalletManager",
        "offset": 0,
        "slot": "12",
        "type": "t_string_storage"
      },
      {
        "astId": 5260,
        "contract": "contracts/Web3PacksV2.sol:Web3PacksV2",
        "label": "_cpBasketManager",
        "offset": 0,
        "slot": "13",
        "type": "t_string_storage"
      }
    ],
    "types": {
      "t_address": {
        "encoding": "inplace",
        "label": "address",
        "numberOfBytes": "20"
      },
      "t_address_payable": {
        "encoding": "inplace",
        "label": "address payable",
        "numberOfBytes": "20"
      },
      "t_array(t_bytes32)dyn_storage": {
        "base": "t_bytes32",
        "encoding": "dynamic_array",
        "label": "bytes32[]",
        "numberOfBytes": "32"
      },
      "t_bool": {
        "encoding": "inplace",
        "label": "bool",
        "numberOfBytes": "1"
      },
      "t_bytes32": {
        "encoding": "inplace",
        "label": "bytes32",
        "numberOfBytes": "32"
      },
      "t_mapping(t_address,t_uint256)": {
        "encoding": "mapping",
        "key": "t_address",
        "label": "mapping(address => uint256)",
        "numberOfBytes": "32",
        "value": "t_uint256"
      },
      "t_mapping(t_bytes32,t_address)": {
        "encoding": "mapping",
        "key": "t_bytes32",
        "label": "mapping(bytes32 => address)",
        "numberOfBytes": "32",
        "value": "t_address"
      },
      "t_mapping(t_uint256,t_array(t_bytes32)dyn_storage)": {
        "encoding": "mapping",
        "key": "t_uint256",
        "label": "mapping(uint256 => bytes32[])",
        "numberOfBytes": "32",
        "value": "t_array(t_bytes32)dyn_storage"
      },
      "t_mapping(t_uint256,t_uint256)": {
        "encoding": "mapping",
        "key": "t_uint256",
        "label": "mapping(uint256 => uint256)",
        "numberOfBytes": "32",
        "value": "t_uint256"
      },
      "t_string_storage": {
        "encoding": "bytes",
        "label": "string",
        "numberOfBytes": "32"
      },
      "t_uint256": {
        "encoding": "inplace",
        "label": "uint256",
        "numberOfBytes": "32"
      }
    }
  }
}