{
  "address": "0x9D804371ea49011bCaB5f9f3a582Dd728aAE9008",
  "abi": [
    {
      "inputs": [
        {
          "internalType": "address",
          "name": "web3packs",
          "type": "address"
        }
      ],
      "stateMutability": "nonpayable",
      "type": "constructor"
    },
    {
      "anonymous": false,
      "inputs": [
        {
          "indexed": true,
          "internalType": "address",
          "name": "account",
          "type": "address"
        },
        {
          "indexed": false,
          "internalType": "uint256",
          "name": "balance",
          "type": "uint256"
        }
      ],
      "name": "BalanceClaimed",
      "type": "event"
    },
    {
      "anonymous": false,
      "inputs": [
        {
          "indexed": true,
          "internalType": "address",
          "name": "bundlerAddress",
          "type": "address"
        },
        {
          "indexed": false,
          "internalType": "bytes32",
          "name": "bundlerId",
          "type": "bytes32"
        }
      ],
      "name": "BundlerRegistered",
      "type": "event"
    },
    {
      "anonymous": false,
      "inputs": [
        {
          "indexed": true,
          "internalType": "address",
          "name": "previousOwner",
          "type": "address"
        },
        {
          "indexed": true,
          "internalType": "address",
          "name": "newOwner",
          "type": "address"
        }
      ],
      "name": "OwnershipTransferred",
      "type": "event"
    },
    {
      "anonymous": false,
      "inputs": [
        {
          "indexed": true,
          "internalType": "address",
          "name": "newWeb3state",
          "type": "address"
        },
        {
          "indexed": false,
          "internalType": "uint256",
          "name": "balance",
          "type": "uint256"
        }
      ],
      "name": "RewardsMigrated",
      "type": "event"
    },
    {
      "anonymous": false,
      "inputs": [
        {
          "indexed": true,
          "internalType": "address",
          "name": "web3packs",
          "type": "address"
        }
      ],
      "name": "Web3PacksSet",
      "type": "event"
    },
    {
      "anonymous": false,
      "inputs": [
        {
          "indexed": true,
          "internalType": "address",
          "name": "receiver",
          "type": "address"
        },
        {
          "indexed": true,
          "internalType": "address",
          "name": "tokenAddress",
          "type": "address"
        },
        {
          "indexed": true,
          "internalType": "uint256",
          "name": "tokenId",
          "type": "uint256"
        },
        {
          "indexed": false,
          "internalType": "uint256",
          "name": "amount",
          "type": "uint256"
        }
      ],
      "name": "WithdrawStuckERC1155",
      "type": "event"
    },
    {
      "anonymous": false,
      "inputs": [
        {
          "indexed": true,
          "internalType": "address",
          "name": "receiver",
          "type": "address"
        },
        {
          "indexed": true,
          "internalType": "address",
          "name": "tokenAddress",
          "type": "address"
        },
        {
          "indexed": false,
          "internalType": "uint256",
          "name": "amount",
          "type": "uint256"
        }
      ],
      "name": "WithdrawStuckERC20",
      "type": "event"
    },
    {
      "anonymous": false,
      "inputs": [
        {
          "indexed": true,
          "internalType": "address",
          "name": "receiver",
          "type": "address"
        },
        {
          "indexed": true,
          "internalType": "address",
          "name": "tokenAddress",
          "type": "address"
        },
        {
          "indexed": true,
          "internalType": "uint256",
          "name": "tokenId",
          "type": "uint256"
        }
      ],
      "name": "WithdrawStuckERC721",
      "type": "event"
    },
    {
      "anonymous": false,
      "inputs": [
        {
          "indexed": true,
          "internalType": "address",
          "name": "receiver",
          "type": "address"
        },
        {
          "indexed": false,
          "internalType": "uint256",
          "name": "amount",
          "type": "uint256"
        }
      ],
      "name": "WithdrawStuckEther",
      "type": "event"
    },
    {
      "inputs": [],
      "name": "_web3packs",
      "outputs": [
        {
          "internalType": "address",
          "name": "",
          "type": "address"
        }
      ],
      "stateMutability": "view",
      "type": "function"
    },
    {
      "inputs": [
        {
          "internalType": "address",
          "name": "referrer",
          "type": "address"
        },
        {
          "internalType": "uint256",
          "name": "amount",
          "type": "uint256"
        }
      ],
      "name": "addToReferrerBalance",
      "outputs": [],
      "stateMutability": "nonpayable",
      "type": "function"
    },
    {
      "inputs": [
        {
          "internalType": "address payable",
          "name": "account",
          "type": "address"
        }
      ],
      "name": "claimReferralRewards",
      "outputs": [],
      "stateMutability": "nonpayable",
      "type": "function"
    },
    {
      "inputs": [
        {
          "internalType": "bytes32",
          "name": "bundlerId",
          "type": "bytes32"
        }
      ],
      "name": "getBundlerById",
      "outputs": [
        {
          "internalType": "address",
          "name": "bundler",
          "type": "address"
        }
      ],
      "stateMutability": "view",
      "type": "function"
    },
    {
      "inputs": [
        {
          "internalType": "uint256",
          "name": "tokenId",
          "type": "uint256"
        }
      ],
      "name": "getBundlesByPackId",
      "outputs": [
        {
          "internalType": "bytes32[]",
          "name": "bundles",
          "type": "bytes32[]"
        }
      ],
      "stateMutability": "view",
      "type": "function"
    },
    {
      "inputs": [
        {
          "internalType": "uint256",
          "name": "tokenId",
          "type": "uint256"
        }
      ],
      "name": "getPackPriceByPackId",
      "outputs": [
        {
          "internalType": "uint256",
          "name": "packPrice",
          "type": "uint256"
        }
      ],
      "stateMutability": "view",
      "type": "function"
    },
    {
      "inputs": [
        {
          "internalType": "address",
          "name": "referrer",
          "type": "address"
        }
      ],
      "name": "getReferrerBalance",
      "outputs": [
        {
          "internalType": "uint256",
          "name": "balance",
          "type": "uint256"
        }
      ],
      "stateMutability": "view",
      "type": "function"
    },
    {
      "inputs": [
        {
          "internalType": "address",
          "name": "oldWeb3Packs",
          "type": "address"
        },
        {
          "internalType": "uint256",
          "name": "tokenId",
          "type": "uint256"
        },
        {
          "internalType": "bytes32[]",
          "name": "bundleIds",
          "type": "bytes32[]"
        }
      ],
      "name": "migratePackData",
      "outputs": [],
      "stateMutability": "nonpayable",
      "type": "function"
    },
    {
      "inputs": [
        {
          "internalType": "address payable",
          "name": "newWeb3state",
          "type": "address"
        }
      ],
      "name": "migrateRewards",
      "outputs": [],
      "stateMutability": "nonpayable",
      "type": "function"
    },
    {
      "inputs": [],
      "name": "owner",
      "outputs": [
        {
          "internalType": "address",
          "name": "",
          "type": "address"
        }
      ],
      "stateMutability": "view",
      "type": "function"
    },
    {
      "inputs": [
        {
          "internalType": "bytes32",
          "name": "bundlerId",
          "type": "bytes32"
        },
        {
          "internalType": "address",
          "name": "bundlerAddress",
          "type": "address"
        }
      ],
      "name": "registerBundlerId",
      "outputs": [],
      "stateMutability": "nonpayable",
      "type": "function"
    },
    {
      "inputs": [],
      "name": "renounceOwnership",
      "outputs": [],
      "stateMutability": "nonpayable",
      "type": "function"
    },
    {
      "inputs": [
        {
          "internalType": "uint256",
          "name": "tokenId",
          "type": "uint256"
        },
        {
          "internalType": "bytes32[]",
          "name": "bundles",
          "type": "bytes32[]"
        }
      ],
      "name": "setBundlesByPackId",
      "outputs": [],
      "stateMutability": "nonpayable",
      "type": "function"
    },
    {
      "inputs": [
        {
          "internalType": "uint256",
          "name": "tokenId",
          "type": "uint256"
        },
        {
          "internalType": "uint256",
          "name": "packPrice",
          "type": "uint256"
        }
      ],
      "name": "setPackPriceByPackId",
      "outputs": [],
      "stateMutability": "nonpayable",
      "type": "function"
    },
    {
      "inputs": [
        {
          "internalType": "address",
          "name": "web3packs",
          "type": "address"
        }
      ],
      "name": "setWeb3Packs",
      "outputs": [],
      "stateMutability": "nonpayable",
      "type": "function"
    },
    {
      "inputs": [
        {
          "internalType": "address",
          "name": "newOwner",
          "type": "address"
        }
      ],
      "name": "transferOwnership",
      "outputs": [],
      "stateMutability": "nonpayable",
      "type": "function"
    },
    {
      "inputs": [
        {
          "internalType": "address payable",
          "name": "receiver",
          "type": "address"
        },
        {
          "internalType": "address",
          "name": "tokenAddress",
          "type": "address"
        },
        {
          "internalType": "uint256",
          "name": "tokenId",
          "type": "uint256"
        },
        {
          "internalType": "uint256",
          "name": "amount",
          "type": "uint256"
        }
      ],
      "name": "withdrawERC1155",
      "outputs": [],
      "stateMutability": "nonpayable",
      "type": "function"
    },
    {
      "inputs": [
        {
          "internalType": "address payable",
          "name": "receiver",
          "type": "address"
        },
        {
          "internalType": "address",
          "name": "tokenAddress",
          "type": "address"
        },
        {
          "internalType": "uint256",
          "name": "tokenId",
          "type": "uint256"
        }
      ],
      "name": "withdrawERC721",
      "outputs": [],
      "stateMutability": "nonpayable",
      "type": "function"
    },
    {
      "inputs": [
        {
          "internalType": "address payable",
          "name": "receiver",
          "type": "address"
        },
        {
          "internalType": "address",
          "name": "tokenAddress",
          "type": "address"
        },
        {
          "internalType": "uint256",
          "name": "amount",
          "type": "uint256"
        }
      ],
      "name": "withdrawErc20",
      "outputs": [],
      "stateMutability": "nonpayable",
      "type": "function"
    },
    {
      "inputs": [
        {
          "internalType": "address payable",
          "name": "receiver",
          "type": "address"
        },
        {
          "internalType": "uint256",
          "name": "amount",
          "type": "uint256"
        }
      ],
      "name": "withdrawEther",
      "outputs": [],
      "stateMutability": "nonpayable",
      "type": "function"
    },
    {
      "stateMutability": "payable",
      "type": "receive"
    }
  ],
  "transactionHash": "0x50972638b56ae636cefe7d7bb7101f1c1c4980b78264370d7a3117196b14c26c",
  "args": [
    "0x43A2aa3D1600c24f67bb76f18adfB70bE94aF0B2"
  ],
  "numDeployments": 1,
  "solcInputHash": "d1909e3b52d0d8aabbd03a12bef08b11",
  "bytecode": "0x608060405234801561001057600080fd5b506040516119fe3803806119fe83398101604081905261002f916100b1565b61003833610061565b60018055600280546001600160a01b0319166001600160a01b03929092169190911790556100e1565b600080546001600160a01b038381166001600160a01b0319831681178455604051919092169283917f8be0079c531659141344cd1fd0a4f28419497f9722a3daafe3b4186f6b6457e09190a35050565b6000602082840312156100c357600080fd5b81516001600160a01b03811681146100da57600080fd5b9392505050565b61190e806100f06000396000f3fe6080604052600436106101635760003560e01c80636bcf8148116100c0578063abc3bc9211610074578063d96be1cd11610059578063d96be1cd146103ec578063f2fde38b14610419578063fb9525351461043957600080fd5b8063abc3bc9214610388578063b36a8e01146103cc57600080fd5b80638da5cb5b116100a55780638da5cb5b1461032a5780639e3905c414610348578063a0edb48b1461036857600080fd5b80636bcf8148146102f5578063715018a61461031557600080fd5b80634025feb2116101175780634dbd2335116100fc5780634dbd233514610267578063522f6815146102b557806364529065146102d557600080fd5b80634025feb214610227578063498652f41461024757600080fd5b80630e639153116101485780630e639153146101c75780631593dee1146101e75780633cda398e1461020757600080fd5b8063022156711461016f57806305ce49d41461019157600080fd5b3661016a57005b600080fd5b34801561017b57600080fd5b5061018f61018a366004611505565b610459565b005b34801561019d57600080fd5b506101b16101ac366004611527565b6104e4565b6040516101be9190611540565b60405180910390f35b3480156101d357600080fd5b5061018f6101e236600461163f565b610546565b3480156101f357600080fd5b5061018f610202366004611698565b61060a565b34801561021357600080fd5b5061018f6102223660046116d9565b610622565b34801561023357600080fd5b5061018f610242366004611698565b6106ad565b34801561025357600080fd5b5061018f610262366004611705565b6106c0565b34801561027357600080fd5b5061029d610282366004611527565b6000908152600360205260409020546001600160a01b031690565b6040516001600160a01b0390911681526020016101be565b3480156102c157600080fd5b5061018f6102d03660046116d9565b610729565b3480156102e157600080fd5b5061018f6102f0366004611705565b61073b565b34801561030157600080fd5b5061018f610310366004611729565b6107f0565b34801561032157600080fd5b5061018f610887565b34801561033657600080fd5b506000546001600160a01b031661029d565b34801561035457600080fd5b5061018f610363366004611770565b61089b565b34801561037457600080fd5b5061018f6103833660046117a0565b61090b565b34801561039457600080fd5b506103be6103a3366004611705565b6001600160a01b031660009081526006602052604090205490565b6040519081526020016101be565b3480156103d857600080fd5b5061018f6103e7366004611705565b610925565b3480156103f857600080fd5b506103be610407366004611527565b60009081526004602052604090205490565b34801561042557600080fd5b5061018f610434366004611705565b6109c3565b34801561044557600080fd5b5060025461029d906001600160a01b031681565b6002546001600160a01b031633146104b85760405162461bcd60e51b815260206004820152601f60248201527f576562335061636b735374617465202d204f6e6c7920576562335061636b730060448201526064015b60405180910390fd5b80156104d05760009182526004602052604090912055565b6000828152600460205260408120555b5050565b60008181526005602090815260409182902080548351818402810184019094528084526060939283018282801561053a57602002820191906000526020600020905b815481526020019060010190808311610526575b50505050509050919050565b61054e610a50565b6040517f524f389d000000000000000000000000000000000000000000000000000000008152600481018390526000906001600160a01b0385169063524f389d906024016020604051808303816000875af11580156105b1573d6000803e3d6000fd5b505050506040513d601f19601f820116820180604052508101906105d591906117e6565b600084815260046020908152604080832084905560058252909120845192935061060392909185019061148b565b5050505050565b610612610a50565b61061d838383610aaa565b505050565b6002546001600160a01b0316331461067c5760405162461bcd60e51b815260206004820152601f60248201527f576562335061636b735374617465202d204f6e6c7920576562335061636b730060448201526064016104af565b6001600160a01b038216600090815260066020526040812080548392906106a49084906117ff565b90915550505050565b6106b5610a50565b61061d838383610bda565b6106c8610a50565b4780156104e0576106e26001600160a01b03831682610d75565b816001600160a01b03167fc510f948035a61ad9a639d90677d5197941e36f985845af04c044c63b4a5e6b28260405161071d91815260200190565b60405180910390a25050565b610731610a50565b6104e08282610e8e565b610743610a50565b6001600160a01b0381166107995760405162461bcd60e51b815260206004820152601c60248201527f496e76616c6964206164647265737320666f722074726561737572790000000060448201526064016104af565b6002805473ffffffffffffffffffffffffffffffffffffffff19166001600160a01b0383169081179091556040517f68ca72fc2a01b105d181de42d44a6c7a3c1061d13fa12f95feb7bc55ffd6d07590600090a250565b6002546001600160a01b0316331461084a5760405162461bcd60e51b815260206004820152601f60248201527f576562335061636b735374617465202d204f6e6c7920576562335061636b730060448201526064016104af565b805115610870576000828152600560209081526040909120825161061d9284019061148b565b60008281526005602052604081206104e0916114d6565b61088f610a50565b6108996000610f24565b565b6108a3610a50565b600082815260036020908152604091829020805473ffffffffffffffffffffffffffffffffffffffff19166001600160a01b03851690811790915591518481527ff2db398cc8122e242d54551a7bdf11fbda61e183aa561acb1361a73b9f8e5ae5910161071d565b610913610a50565b61091f84848484610f81565b50505050565b61092d61113a565b6001600160a01b0381166000908152600660205260409020544781116109b6576109606001600160a01b03831682610d75565b6001600160a01b03821660008181526006602052604080822091909155517fe64799e036cf6322d0c3b6d11f4e2fc9d1bd9bb5938dd3d6835921a427c89b8f906109ad9084815260200190565b60405180910390a25b506109c060018055565b50565b6109cb610a50565b6001600160a01b038116610a475760405162461bcd60e51b815260206004820152602660248201527f4f776e61626c653a206e6577206f776e657220697320746865207a65726f206160448201527f646472657373000000000000000000000000000000000000000000000000000060648201526084016104af565b6109c081610f24565b6000546001600160a01b031633146108995760405162461bcd60e51b815260206004820181905260248201527f4f776e61626c653a2063616c6c6572206973206e6f7420746865206f776e657260448201526064016104af565b6001600160a01b038316610aec5760405162461bcd60e51b81526020600482015260096024820152684248503a452d34303360b81b60448201526064016104af565b6040517f70a0823100000000000000000000000000000000000000000000000000000000815230600482015281906001600160a01b038416906370a0823190602401602060405180830381865afa158015610b4b573d6000803e3d6000fd5b505050506040513d601f19601f82011682018060405250810190610b6f91906117e6565b1061061d57610b886001600160a01b0383168483611193565b816001600160a01b0316836001600160a01b03167f6c9d637297625e945b296ff73a71fcfbd0a9e062652b6491a921c4c60194176b83604051610bcd91815260200190565b60405180910390a3505050565b6001600160a01b038316610c1c5760405162461bcd60e51b81526020600482015260096024820152684248503a452d34303360b81b60448201526064016104af565b6040517f6352211e0000000000000000000000000000000000000000000000000000000081526004810182905230906001600160a01b03841690636352211e90602401602060405180830381865afa158015610c7c573d6000803e3d6000fd5b505050506040513d601f19601f82011682018060405250810190610ca09190611826565b6001600160a01b03160361061d576040517f23b872dd0000000000000000000000000000000000000000000000000000000081523060048201526001600160a01b038481166024830152604482018390528316906323b872dd90606401600060405180830381600087803b158015610d1757600080fd5b505af1158015610d2b573d6000803e3d6000fd5b5050505080826001600160a01b0316846001600160a01b03167ffefe036cac4ee3a4aca074a81cbcc4376e1484693289078dbec149c890101d5b60405160405180910390a4505050565b80471015610dc55760405162461bcd60e51b815260206004820152601d60248201527f416464726573733a20696e73756666696369656e742062616c616e636500000060448201526064016104af565b6000826001600160a01b03168260405160006040518083038185875af1925050503d8060008114610e12576040519150601f19603f3d011682016040523d82523d6000602084013e610e17565b606091505b505090508061061d5760405162461bcd60e51b815260206004820152603a60248201527f416464726573733a20756e61626c6520746f2073656e642076616c75652c207260448201527f6563697069656e74206d6179206861766520726576657274656400000000000060648201526084016104af565b6001600160a01b038216610ed05760405162461bcd60e51b81526020600482015260096024820152684248503a452d34303360b81b60448201526064016104af565b8047106104e057610eea6001600160a01b03831682610d75565b816001600160a01b03167eddb683bb45cd5d0ad8a200c6fae7152b1c236ee90a4a37db692407f5cc38bd8260405161071d91815260200190565b600080546001600160a01b0383811673ffffffffffffffffffffffffffffffffffffffff19831681178455604051919092169283917f8be0079c531659141344cd1fd0a4f28419497f9722a3daafe3b4186f6b6457e09190a35050565b6001600160a01b038416610fc35760405162461bcd60e51b81526020600482015260096024820152684248503a452d34303360b81b60448201526064016104af565b6040517efdd58e0000000000000000000000000000000000000000000000000000000081523060048201526024810183905281906001600160a01b0385169062fdd58e90604401602060405180830381865afa158015611027573d6000803e3d6000fd5b505050506040513d601f19601f8201168201806040525081019061104b91906117e6565b1061091f576040517ff242432a0000000000000000000000000000000000000000000000000000000081523060048201526001600160a01b038581166024830152604482018490526064820183905260a06084830152600060a483015284169063f242432a9060c401600060405180830381600087803b1580156110ce57600080fd5b505af11580156110e2573d6000803e3d6000fd5b5050505081836001600160a01b0316856001600160a01b03167f620337bf89eea2b9ae2657beead83b5fa620452817118348aff96e201d52598b8460405161112c91815260200190565b60405180910390a450505050565b60026001540361118c5760405162461bcd60e51b815260206004820152601f60248201527f5265656e7472616e637947756172643a207265656e7472616e742063616c6c0060448201526064016104af565b6002600155565b604080516001600160a01b03848116602483015260448083018590528351808403909101815260649092018352602080830180517bffffffffffffffffffffffffffffffffffffffffffffffffffffffff167fa9059cbb0000000000000000000000000000000000000000000000000000000017905283518085019094528084527f5361666545524332303a206c6f772d6c6576656c2063616c6c206661696c65649084015261061d928692916000916112519185169084906112e4565b90508051600014806112725750808060200190518101906112729190611843565b61061d5760405162461bcd60e51b815260206004820152602a60248201527f5361666545524332303a204552433230206f7065726174696f6e20646964206e60448201527f6f7420737563636565640000000000000000000000000000000000000000000060648201526084016104af565b60606112f384846000856112fb565b949350505050565b6060824710156113735760405162461bcd60e51b815260206004820152602660248201527f416464726573733a20696e73756666696369656e742062616c616e636520666f60448201527f722063616c6c000000000000000000000000000000000000000000000000000060648201526084016104af565b600080866001600160a01b0316858760405161138f9190611889565b60006040518083038185875af1925050503d80600081146113cc576040519150601f19603f3d011682016040523d82523d6000602084013e6113d1565b606091505b50915091506113e2878383876113ed565b979650505050505050565b6060831561145c578251600003611455576001600160a01b0385163b6114555760405162461bcd60e51b815260206004820152601d60248201527f416464726573733a2063616c6c20746f206e6f6e2d636f6e747261637400000060448201526064016104af565b50816112f3565b6112f383838151156114715781518083602001fd5b8060405162461bcd60e51b81526004016104af91906118a5565b8280548282559060005260206000209081019282156114c6579160200282015b828111156114c65782518255916020019190600101906114ab565b506114d29291506114f0565b5090565b50805460008255906000526020600020908101906109c091905b5b808211156114d257600081556001016114f1565b6000806040838503121561151857600080fd5b50508035926020909101359150565b60006020828403121561153957600080fd5b5035919050565b6020808252825182820181905260009190848201906040850190845b818110156115785783518352928401929184019160010161155c565b50909695505050505050565b6001600160a01b03811681146109c057600080fd5b634e487b7160e01b600052604160045260246000fd5b600082601f8301126115c057600080fd5b8135602067ffffffffffffffff808311156115dd576115dd611599565b8260051b604051601f19603f8301168101818110848211171561160257611602611599565b60405293845285810183019383810192508785111561162057600080fd5b83870191505b848210156113e257813583529183019190830190611626565b60008060006060848603121561165457600080fd5b833561165f81611584565b925060208401359150604084013567ffffffffffffffff81111561168257600080fd5b61168e868287016115af565b9150509250925092565b6000806000606084860312156116ad57600080fd5b83356116b881611584565b925060208401356116c881611584565b929592945050506040919091013590565b600080604083850312156116ec57600080fd5b82356116f781611584565b946020939093013593505050565b60006020828403121561171757600080fd5b813561172281611584565b9392505050565b6000806040838503121561173c57600080fd5b82359150602083013567ffffffffffffffff81111561175a57600080fd5b611766858286016115af565b9150509250929050565b6000806040838503121561178357600080fd5b82359150602083013561179581611584565b809150509250929050565b600080600080608085870312156117b657600080fd5b84356117c181611584565b935060208501356117d181611584565b93969395505050506040820135916060013590565b6000602082840312156117f857600080fd5b5051919050565b8082018082111561182057634e487b7160e01b600052601160045260246000fd5b92915050565b60006020828403121561183857600080fd5b815161172281611584565b60006020828403121561185557600080fd5b8151801515811461172257600080fd5b60005b83811015611880578181015183820152602001611868565b50506000910152565b6000825161189b818460208701611865565b9190910192915050565b60208152600082518060208401526118c4816040850160208701611865565b601f01601f1916919091016040019291505056fea2646970667358221220d79e6a9920d83844038aa50d70f53aae50a5ad8e74071576d570fba9643bffaa64736f6c63430008110033",
  "devdoc": {
    "kind": "dev",
    "methods": {
      "owner()": {
        "details": "Returns the address of the current owner."
      },
      "renounceOwnership()": {
        "details": "Leaves the contract without owner. It will not be possible to call `onlyOwner` functions. Can only be called by the current owner. NOTE: Renouncing ownership will leave the contract without an owner, thereby disabling any functionality that is only available to the owner."
      },
      "transferOwnership(address)": {
        "details": "Transfers ownership of the contract to a new account (`newOwner`). Can only be called by the current owner."
      }
    },
    "version": 1
  },
  "userdoc": {
    "kind": "user",
    "methods": {},
    "version": 1
  },
  "storageLayout": {
    "storage": [
      {
        "astId": 7,
        "contract": "contracts/Web3PacksState.sol:Web3PacksState",
        "label": "_owner",
        "offset": 0,
        "slot": "0",
        "type": "t_address"
      },
      {
        "astId": 123,
        "contract": "contracts/Web3PacksState.sol:Web3PacksState",
        "label": "_status",
        "offset": 0,
        "slot": "1",
        "type": "t_uint256"
      },
      {
        "astId": 2033,
        "contract": "contracts/Web3PacksState.sol:Web3PacksState",
        "label": "_web3packs",
        "offset": 0,
        "slot": "2",
        "type": "t_address"
      },
      {
        "astId": 2037,
        "contract": "contracts/Web3PacksState.sol:Web3PacksState",
        "label": "_bundlersById",
        "offset": 0,
        "slot": "3",
        "type": "t_mapping(t_bytes32,t_address)"
      },
      {
        "astId": 2041,
        "contract": "contracts/Web3PacksState.sol:Web3PacksState",
        "label": "_packPriceByPackId",
        "offset": 0,
        "slot": "4",
        "type": "t_mapping(t_uint256,t_uint256)"
      },
      {
        "astId": 2046,
        "contract": "contracts/Web3PacksState.sol:Web3PacksState",
        "label": "_bundlesByPackId",
        "offset": 0,
        "slot": "5",
        "type": "t_mapping(t_uint256,t_array(t_bytes32)dyn_storage)"
      },
      {
        "astId": 2050,
        "contract": "contracts/Web3PacksState.sol:Web3PacksState",
        "label": "_referrerBalance",
        "offset": 0,
        "slot": "6",
        "type": "t_mapping(t_address,t_uint256)"
      }
    ],
    "types": {
      "t_address": {
        "encoding": "inplace",
        "label": "address",
        "numberOfBytes": "20"
      },
      "t_array(t_bytes32)dyn_storage": {
        "base": "t_bytes32",
        "encoding": "dynamic_array",
        "label": "bytes32[]",
        "numberOfBytes": "32"
      },
      "t_bytes32": {
        "encoding": "inplace",
        "label": "bytes32",
        "numberOfBytes": "32"
      },
      "t_mapping(t_address,t_uint256)": {
        "encoding": "mapping",
        "key": "t_address",
        "label": "mapping(address => uint256)",
        "numberOfBytes": "32",
        "value": "t_uint256"
      },
      "t_mapping(t_bytes32,t_address)": {
        "encoding": "mapping",
        "key": "t_bytes32",
        "label": "mapping(bytes32 => address)",
        "numberOfBytes": "32",
        "value": "t_address"
      },
      "t_mapping(t_uint256,t_array(t_bytes32)dyn_storage)": {
        "encoding": "mapping",
        "key": "t_uint256",
        "label": "mapping(uint256 => bytes32[])",
        "numberOfBytes": "32",
        "value": "t_array(t_bytes32)dyn_storage"
      },
      "t_mapping(t_uint256,t_uint256)": {
        "encoding": "mapping",
        "key": "t_uint256",
        "label": "mapping(uint256 => uint256)",
        "numberOfBytes": "32",
        "value": "t_uint256"
      },
      "t_uint256": {
        "encoding": "inplace",
        "label": "uint256",
        "numberOfBytes": "32"
      }
    }
  }
}